{
  "_format": "hh-sol-artifact-1",
  "contractName": "SemaphoreVoting",
  "sourceName": "contracts/extensions/SemaphoreVoting.sol",
  "abi": [
    {
      "inputs": [
        {
          "components": [
            {
              "internalType": "address",
              "name": "contractAddress",
              "type": "address"
            },
            {
              "internalType": "uint256",
              "name": "merkleTreeDepth",
              "type": "uint256"
            }
          ],
          "internalType": "struct ISemaphoreVoting.Verifier[]",
          "name": "_verifiers",
          "type": "tuple[]"
        }
      ],
      "stateMutability": "nonpayable",
      "type": "constructor"
    },
    {
      "inputs": [],
      "name": "Semaphore__CallerIsNotThePollCoordinator",
      "type": "error"
    },
    {
      "inputs": [],
      "name": "Semaphore__GroupAlreadyExists",
      "type": "error"
    },
    {
      "inputs": [],
      "name": "Semaphore__GroupDoesNotExist",
      "type": "error"
    },
    {
      "inputs": [],
      "name": "Semaphore__GroupIdIsNotLessThanSnarkScalarField",
      "type": "error"
    },
    {
      "inputs": [],
      "name": "Semaphore__InvalidCurrentChainRoot",
      "type": "error"
    },
    {
      "inputs": [],
      "name": "Semaphore__InvalidEdgeChainRoot",
      "type": "error"
    },
    {
      "inputs": [],
      "name": "Semaphore__MerkleTreeDepthIsNotSupported",
      "type": "error"
    },
    {
      "inputs": [],
      "name": "Semaphore__PollHasAlreadyBeenStarted",
      "type": "error"
    },
    {
      "inputs": [],
      "name": "Semaphore__PollIsNotOngoing",
      "type": "error"
    },
    {
      "inputs": [],
      "name": "Semaphore__YouAreUsingTheSameNillifierTwice",
      "type": "error"
    },
    {
      "anonymous": false,
      "inputs": [
        {
          "indexed": true,
          "internalType": "uint256",
          "name": "groupId",
          "type": "uint256"
        },
        {
          "indexed": false,
          "internalType": "uint256",
          "name": "merkleTreeDepth",
          "type": "uint256"
        },
        {
          "indexed": false,
          "internalType": "uint256",
          "name": "merkleTreeRoot",
          "type": "uint256"
        }
      ],
      "name": "GroupCreated",
      "type": "event"
    },
    {
      "anonymous": false,
      "inputs": [
        {
          "indexed": true,
          "internalType": "uint256",
          "name": "groupId",
          "type": "uint256"
        },
        {
          "indexed": false,
          "internalType": "uint256",
          "name": "index",
          "type": "uint256"
        },
        {
          "indexed": false,
          "internalType": "uint256",
          "name": "identityCommitment",
          "type": "uint256"
        },
        {
          "indexed": false,
          "internalType": "uint256",
          "name": "merkleTreeRoot",
          "type": "uint256"
        }
      ],
      "name": "MemberAdded",
      "type": "event"
    },
    {
      "anonymous": false,
      "inputs": [
        {
          "indexed": true,
          "internalType": "uint256",
          "name": "groupId",
          "type": "uint256"
        },
        {
          "indexed": false,
          "internalType": "uint256",
          "name": "index",
          "type": "uint256"
        },
        {
          "indexed": false,
          "internalType": "uint256",
          "name": "identityCommitment",
          "type": "uint256"
        },
        {
          "indexed": false,
          "internalType": "uint256",
          "name": "merkleTreeRoot",
          "type": "uint256"
        }
      ],
      "name": "MemberRemoved",
      "type": "event"
    },
    {
      "anonymous": false,
      "inputs": [
        {
          "indexed": true,
          "internalType": "uint256",
          "name": "groupId",
          "type": "uint256"
        },
        {
          "indexed": false,
          "internalType": "uint256",
          "name": "index",
          "type": "uint256"
        },
        {
          "indexed": false,
          "internalType": "uint256",
          "name": "identityCommitment",
          "type": "uint256"
        },
        {
          "indexed": false,
          "internalType": "uint256",
          "name": "newIdentityCommitment",
          "type": "uint256"
        },
        {
          "indexed": false,
          "internalType": "uint256",
          "name": "merkleTreeRoot",
          "type": "uint256"
        }
      ],
      "name": "MemberUpdated",
      "type": "event"
    },
    {
      "anonymous": false,
      "inputs": [
        {
          "indexed": false,
          "internalType": "uint256",
          "name": "nullifierHash",
          "type": "uint256"
        }
      ],
      "name": "NullifierHashAdded",
      "type": "event"
    },
    {
      "anonymous": false,
      "inputs": [
        {
          "indexed": false,
          "internalType": "uint256",
          "name": "pollId",
          "type": "uint256"
        },
        {
          "indexed": true,
          "internalType": "address",
          "name": "coordinator",
          "type": "address"
        }
      ],
      "name": "PollCreated",
      "type": "event"
    },
    {
      "anonymous": false,
      "inputs": [
        {
          "indexed": false,
          "internalType": "uint256",
          "name": "pollId",
          "type": "uint256"
        },
        {
          "indexed": true,
          "internalType": "address",
          "name": "coordinator",
          "type": "address"
        },
        {
          "indexed": false,
          "internalType": "uint256",
          "name": "decryptionKey",
          "type": "uint256"
        }
      ],
      "name": "PollEnded",
      "type": "event"
    },
    {
      "anonymous": false,
      "inputs": [
        {
          "indexed": false,
          "internalType": "uint256",
          "name": "pollId",
          "type": "uint256"
        },
        {
          "indexed": true,
          "internalType": "address",
          "name": "coordinator",
          "type": "address"
        },
        {
          "indexed": false,
          "internalType": "uint256",
          "name": "encryptionKey",
          "type": "uint256"
        }
      ],
      "name": "PollStarted",
      "type": "event"
    },
    {
      "anonymous": false,
      "inputs": [
        {
          "indexed": true,
          "internalType": "uint256",
          "name": "pollId",
          "type": "uint256"
        },
        {
          "indexed": false,
          "internalType": "bytes32",
          "name": "vote",
          "type": "bytes32"
        }
      ],
      "name": "VoteAdded",
      "type": "event"
    },
    {
      "inputs": [
        {
          "internalType": "uint256",
          "name": "pollId",
          "type": "uint256"
        },
        {
          "internalType": "uint256",
          "name": "identityCommitment",
          "type": "uint256"
        }
      ],
      "name": "addVoter",
      "outputs": [],
      "stateMutability": "nonpayable",
      "type": "function"
    },
    {
      "inputs": [
        {
          "internalType": "bytes32",
          "name": "vote",
          "type": "bytes32"
        },
        {
          "internalType": "uint256",
          "name": "nullifierHash",
          "type": "uint256"
        },
        {
          "internalType": "uint256",
          "name": "pollId",
          "type": "uint256"
        },
        {
          "internalType": "bytes",
          "name": "roots",
          "type": "bytes"
        },
        {
          "internalType": "uint256[8]",
          "name": "proof",
          "type": "uint256[8]"
        }
      ],
      "name": "castVote",
      "outputs": [],
      "stateMutability": "nonpayable",
      "type": "function"
    },
    {
      "inputs": [
        {
          "internalType": "uint256",
          "name": "pollId",
          "type": "uint256"
        },
        {
          "internalType": "uint256",
          "name": "merkleTreeDepth",
          "type": "uint256"
        },
        {
          "internalType": "address",
          "name": "coordinator",
          "type": "address"
        },
        {
          "internalType": "uint8",
          "name": "maxEdges",
          "type": "uint8"
        }
      ],
      "name": "createPoll",
      "outputs": [],
      "stateMutability": "nonpayable",
      "type": "function"
    },
    {
      "inputs": [
        {
          "internalType": "uint256",
          "name": "pollId",
          "type": "uint256"
        },
        {
          "internalType": "uint256",
          "name": "decryptionKey",
          "type": "uint256"
        }
      ],
      "name": "endPoll",
      "outputs": [],
      "stateMutability": "nonpayable",
      "type": "function"
    },
    {
      "inputs": [
        {
          "internalType": "uint256",
          "name": "groupId",
          "type": "uint256"
        }
      ],
      "name": "getLatestNeighborEdges",
      "outputs": [
        {
          "components": [
            {
              "internalType": "uint256",
              "name": "chainID",
              "type": "uint256"
            },
            {
              "internalType": "uint256",
              "name": "root",
              "type": "uint256"
            },
            {
              "internalType": "uint256",
              "name": "latestLeafIndex",
              "type": "uint256"
            },
            {
              "internalType": "bytes32",
              "name": "srcResourceID",
              "type": "bytes32"
            }
          ],
          "internalType": "struct Edge[]",
          "name": "",
          "type": "tuple[]"
        }
      ],
      "stateMutability": "view",
      "type": "function"
    },
    {
      "inputs": [
        {
          "internalType": "uint256",
          "name": "groupId",
          "type": "uint256"
        }
      ],
      "name": "getMaxEdges",
      "outputs": [
        {
          "internalType": "uint8",
          "name": "",
          "type": "uint8"
        }
      ],
      "stateMutability": "view",
      "type": "function"
    },
    {
      "inputs": [
        {
          "internalType": "uint256",
          "name": "groupId",
          "type": "uint256"
        }
      ],
      "name": "getMerkleTreeDepth",
      "outputs": [
        {
          "internalType": "uint256",
          "name": "",
          "type": "uint256"
        }
      ],
      "stateMutability": "view",
      "type": "function"
    },
    {
      "inputs": [
        {
          "internalType": "uint256",
          "name": "groupId",
          "type": "uint256"
        }
      ],
      "name": "getMerkleTreeRoot",
      "outputs": [
        {
          "internalType": "uint256",
          "name": "",
          "type": "uint256"
        }
      ],
      "stateMutability": "view",
      "type": "function"
    },
    {
      "inputs": [
        {
          "internalType": "uint256",
          "name": "groupId",
          "type": "uint256"
        }
      ],
      "name": "getNumberOfMerkleTreeLeaves",
      "outputs": [
        {
          "internalType": "uint256",
          "name": "",
          "type": "uint256"
        }
      ],
      "stateMutability": "view",
      "type": "function"
    },
    {
      "inputs": [
        {
          "internalType": "uint256",
          "name": "pollId",
          "type": "uint256"
        },
        {
          "internalType": "uint256",
          "name": "encryptionKey",
          "type": "uint256"
        }
      ],
      "name": "startPoll",
      "outputs": [],
      "stateMutability": "nonpayable",
      "type": "function"
    },
    {
      "inputs": [
        {
          "internalType": "uint256",
          "name": "groupId",
          "type": "uint256"
        },
        {
          "internalType": "bytes",
          "name": "roots",
          "type": "bytes"
        }
      ],
      "name": "verifyRoots",
      "outputs": [
        {
          "internalType": "bool",
          "name": "",
          "type": "bool"
        }
      ],
      "stateMutability": "view",
      "type": "function"
    }
  ],
  "bytecode": "0x60806040523480156200001157600080fd5b5060405162003e1538038062003e1583398181016040528101906200003791906200022a565b60005b81518160ff161015620000ed57818160ff168151811062000060576200005f62000347565b5b60200260200101516000015160016000848460ff168151811062000089576200008862000347565b5b602002602001015160200151815260200190815260200160002060006101000a81548173ffffffffffffffffffffffffffffffffffffffff021916908373ffffffffffffffffffffffffffffffffffffffff1602179055508060010190506200003a565b505062000403565b60006200010c6200010684620002a4565b6200027b565b90508083825260208201905082856040860282011115620001325762000131620003af565b5b60005b858110156200016657816200014b8882620001ba565b84526020840193506040830192505060018101905062000135565b5050509392505050565b6000815190506200018181620003cf565b92915050565b600082601f8301126200019f576200019e620003a5565b5b8151620001b1848260208601620000f5565b91505092915050565b600060408284031215620001d357620001d2620003aa565b5b620001df60406200027b565b90506000620001f18482850162000170565b6000830152506020620002078482850162000213565b60208301525092915050565b6000815190506200022481620003e9565b92915050565b600060208284031215620002435762000242620003b9565b5b600082015167ffffffffffffffff811115620002645762000263620003b4565b5b620002728482850162000187565b91505092915050565b6000620002876200029a565b905062000295828262000311565b919050565b6000604051905090565b600067ffffffffffffffff821115620002c257620002c162000376565b5b602082029050602081019050919050565b6000620002e082620002e7565b9050919050565b600073ffffffffffffffffffffffffffffffffffffffff82169050919050565b6000819050919050565b6200031c82620003be565b810181811067ffffffffffffffff821117156200033e576200033d62000376565b5b80604052505050565b7f4e487b7100000000000000000000000000000000000000000000000000000000600052603260045260246000fd5b7f4e487b7100000000000000000000000000000000000000000000000000000000600052604160045260246000fd5b600080fd5b600080fd5b600080fd5b600080fd5b600080fd5b6000601f19601f8301169050919050565b620003da81620002d3565b8114620003e657600080fd5b50565b620003f48162000307565b81146200040057600080fd5b50565b613a0280620004136000396000f3fe608060405234801561001057600080fd5b50600436106100a95760003560e01c806378156953116100715780637815695314610176578063945f99bc146101a6578063b359dd43146101c2578063bbd8c7db146101de578063dabc4d51146101fa578063fced271f1461022a576100a9565b80630a120bb0146100ae5780633a19c76a146100ca578063474664d1146100e6578063638480be146101165780636389e10714610146575b600080fd5b6100c860048036038101906100c391906127ce565b61025a565b005b6100e460048036038101906100df9190612601565b61038d565b005b61010060048036038101906100fb9190612714565b610699565b60405161010d9190612de0565b60405180910390f35b610130600480360381019061012b9190612714565b610741565b60405161013d9190612fe2565b60405180910390f35b610160600480360381019061015b9190612714565b610760565b60405161016d9190612fe2565b60405180910390f35b610190600480360381019061018b9190612714565b61077f565b60405161019d919061305d565b60405180910390f35b6101c060048036038101906101bb919061280e565b6107ab565b005b6101dc60048036038101906101d791906127ce565b6109a6565b005b6101f860048036038101906101f391906127ce565b610b65565b005b610214600480360381019061020f9190612714565b610d23565b6040516102219190612fe2565b60405180910390f35b610244600480360381019061023f919061276e565b610dc6565b6040516102519190612e7a565b60405180910390f35b816102636110bb565b73ffffffffffffffffffffffffffffffffffffffff166002600083815260200190815260200160002060000160009054906101000a900473ffffffffffffffffffffffffffffffffffffffff1673ffffffffffffffffffffffffffffffffffffffff16146102fd576040517fe4a34e1500000000000000000000000000000000000000000000000000000000815260040160405180910390fd5b600060028111156103115761031061377b565b5b6002600085815260200190815260200160002060000160149054906101000a900460ff1660028111156103475761034661377b565b5b1461037e576040517f67f5eebb00000000000000000000000000000000000000000000000000000000815260040160405180910390fd5b61038883836110c3565b505050565b836103966110bb565b73ffffffffffffffffffffffffffffffffffffffff166002600083815260200190815260200160002060000160009054906101000a900473ffffffffffffffffffffffffffffffffffffffff1673ffffffffffffffffffffffffffffffffffffffff1614610430576040517fe4a34e1500000000000000000000000000000000000000000000000000000000815260040160405180910390fd5b600061043b8661077f565b90506000600260008881526020019081526020016000206040518060600160405290816000820160009054906101000a900473ffffffffffffffffffffffffffffffffffffffff1673ffffffffffffffffffffffffffffffffffffffff1673ffffffffffffffffffffffffffffffffffffffff1681526020016000820160149054906101000a900460ff1660028111156104d8576104d761377b565b5b60028111156104ea576104e961377b565b5b81526020016000820160159054906101000a900460ff1660ff1660ff16815250509050600160028111156105215761052061377b565b5b816020015160028111156105385761053761377b565b5b1461056f576040517fe1b6c09100000000000000000000000000000000000000000000000000000000815260040160405180910390fd5b6003600089815260200190815260200160002060009054906101000a900460ff16156105c7576040517f948d067400000000000000000000000000000000000000000000000000000000815260040160405180910390fd5b60006105d288610760565b90506105df888888610dc6565b5060006001600083815260200190815260200160002060009054906101000a900473ffffffffffffffffffffffffffffffffffffffff1690506106288b8b8b8b8b8b878b611192565b6001600360008c815260200190815260200160002060006101000a81548160ff021916908315150217905550887f9259c591af3680137739dc2b275c388eb1639a143b49022e7062fa162f14776d8c6040516106849190612e95565b60405180910390a25050505050505050505050565b606060008083815260200190815260200160002073__$bb01d34dc76fba63df526a43121fcb267a$__63424c5fab90916040518263ffffffff1660e01b81526004016106e59190612f30565b60006040518083038186803b1580156106fd57600080fd5b505af4158015610711573d6000803e3d6000fd5b505050506040513d6000823e3d601f19601f8201168201806040525081019061073a9190612530565b9050919050565b6000806000838152602001908152602001600020600401549050919050565b6000806000838152602001908152602001600020600101549050919050565b600080600083815260200190815260200160002060000160009054906101000a900460ff169050919050565b600073ffffffffffffffffffffffffffffffffffffffff166001600085815260200190815260200160002060009054906101000a900473ffffffffffffffffffffffffffffffffffffffff1673ffffffffffffffffffffffffffffffffffffffff161415610845576040517fecf64f1200000000000000000000000000000000000000000000000000000000815260040160405180910390fd5b6108508484836114e1565b610858612034565b82816000019073ffffffffffffffffffffffffffffffffffffffff16908173ffffffffffffffffffffffffffffffffffffffff168152505081816040019060ff16908160ff1681525050806002600087815260200190815260200160002060008201518160000160006101000a81548173ffffffffffffffffffffffffffffffffffffffff021916908373ffffffffffffffffffffffffffffffffffffffff16021790555060208201518160000160146101000a81548160ff021916908360028111156109285761092761377b565b5b021790555060408201518160000160156101000a81548160ff021916908360ff1602179055509050508273ffffffffffffffffffffffffffffffffffffffff167fb447d309fd3b1a27466cdb08ccc02ee5188e9c71fc58af042bafe3e0bb451230866040516109979190612fe2565b60405180910390a25050505050565b816109af6110bb565b73ffffffffffffffffffffffffffffffffffffffff166002600083815260200190815260200160002060000160009054906101000a900473ffffffffffffffffffffffffffffffffffffffff1673ffffffffffffffffffffffffffffffffffffffff1614610a49576040517fe4a34e1500000000000000000000000000000000000000000000000000000000815260040160405180910390fd5b60006002811115610a5d57610a5c61377b565b5b6002600085815260200190815260200160002060000160149054906101000a900460ff166002811115610a9357610a9261377b565b5b14610aca576040517f67f5eebb00000000000000000000000000000000000000000000000000000000815260040160405180910390fd5b60016002600085815260200190815260200160002060000160146101000a81548160ff02191690836002811115610b0457610b0361377b565b5b0217905550610b116110bb565b73ffffffffffffffffffffffffffffffffffffffff167f426c5e6bd38728569cc4e1f0a309f506d4c1bc56189920d59343af2639b60d3e8484604051610b58929190612ffd565b60405180910390a2505050565b81610b6e6110bb565b73ffffffffffffffffffffffffffffffffffffffff166002600083815260200190815260200160002060000160009054906101000a900473ffffffffffffffffffffffffffffffffffffffff1673ffffffffffffffffffffffffffffffffffffffff1614610c08576040517fe4a34e1500000000000000000000000000000000000000000000000000000000815260040160405180910390fd5b60016002811115610c1c57610c1b61377b565b5b6002600085815260200190815260200160002060000160149054906101000a900460ff166002811115610c5257610c5161377b565b5b14610c89576040517fe1b6c09100000000000000000000000000000000000000000000000000000000815260040160405180910390fd5b600280600085815260200190815260200160002060000160146101000a81548160ff02191690836002811115610cc257610cc161377b565b5b0217905550610ccf6110bb565b73ffffffffffffffffffffffffffffffffffffffff167f4a0c303670c99ff9b9eab216bcca4f03007fbece83818599a2946ea62c541fde8484604051610d16929190612ffd565b60405180910390a2505050565b600080600083815260200190815260200160002073__$bb01d34dc76fba63df526a43121fcb267a$__63ce8f1f3590916040518263ffffffff1660e01b8152600401610d6f9190612f30565b60206040518083038186803b158015610d8757600080fd5b505af4158015610d9b573d6000803e3d6000fd5b505050506040513d601f19601f82011682018060405250810190610dbf9190612741565b9050919050565b6000600160008086815260200190815260200160002060000160009054906101000a900460ff1660ff161415610f575760008383810190610e079190612579565b90506000600267ffffffffffffffff811115610e2657610e256137d9565b5b604051908082528060200260200182016040528015610e545781602001602082028036833780820191505090505b50905060005b6002811015610ead57828160028110610e7657610e756137aa565b5b6020020151828281518110610e8e57610e8d6137aa565b5b6020026020010181815250508080610ea59061363e565b915050610e5a565b50600073__$bb01d34dc76fba63df526a43121fcb267a$__6374d4479e6000808a8152602001908152602001600020846040518363ffffffff1660e01b8152600401610efa929190612f82565b60206040518083038186803b158015610f1257600080fd5b505af4158015610f26573d6000803e3d6000fd5b505050506040513d601f19601f82011682018060405250810190610f4a91906125d4565b90508093505050506110b4565b60008383810190610f6891906125a6565b90506000600867ffffffffffffffff811115610f8757610f866137d9565b5b604051908082528060200260200182016040528015610fb55781602001602082028036833780820191505090505b50905060005b600881101561100e57828160088110610fd757610fd66137aa565b5b6020020151828281518110610fef57610fee6137aa565b5b60200260200101818152505080806110069061363e565b915050610fbb565b50600073__$bb01d34dc76fba63df526a43121fcb267a$__6374d4479e6000808a8152602001908152602001600020846040518363ffffffff1660e01b815260040161105b929190612f82565b60206040518083038186803b15801561107357600080fd5b505af4158015611087573d6000803e3d6000fd5b505050506040513d601f19601f820116820180604052508101906110ab91906125d4565b90508093505050505b9392505050565b600033905090565b60006110ce83610760565b1415611106576040517f029f057900000000000000000000000000000000000000000000000000000000815260040160405180910390fd5b61112a816000808581526020019081526020016000206116d890919063ffffffff16565b600061113583610d23565b90506000600161114485610741565b61114e9190613513565b9050837f19239b3f93cd10558aaf11423af70c77763bf54f52bcc75bfa74d4d13548cde982858560405161118493929190613026565b60405180910390a250505050565b600061119d8961199d565b905060006040518060a00160405280866008806020026040519081016040528092919082600860200280828437600081840152601f19601f82011690508083019250505050505081526020018a815260200183815260200189815260200188888080601f016020809104026020016040519081016040528093929190818152602001838380828437600081840152601f19601f82011690508083019250505050505050815250905060008173__$2d408c303a7e487061c2c4d5102d665f73$__63f0d4020d9091866040518363ffffffff1660e01b8152600401611282929190612fb2565b60006040518083038186803b15801561129a57600080fd5b505af41580156112ae573d6000803e3d6000fd5b505050506040513d6000823e3d601f19601f820116820180604052508101906112d7919061269c565b50905060008573ffffffffffffffffffffffffffffffffffffffff1663b4b764f260405180604001604052808a600060088110611317576113166137aa565b5b602002013581526020018a600160088110611335576113346137aa565b5b6020020135815250604051806040016040528060405180604001604052808d600260088110611367576113666137aa565b5b602002013581526020018d600360088110611385576113846137aa565b5b6020020135815250815260200160405180604001604052808d6004600881106113b1576113b06137aa565b5b602002013581526020018d6005600881106113cf576113ce6137aa565b5b602002013581525081525060405180604001604052808c6006600881106113f9576113f86137aa565b5b602002013581526020018c600760088110611417576114166137aa565b5b6020020135815250868a6040518663ffffffff1660e01b8152600401611441959493929190612e02565b60206040518083038186803b15801561145957600080fd5b505afa15801561146d573d6000803e3d6000fd5b505050506040513d601f19601f8201168201806040525081019061149191906125d4565b9050806114d3576040517f08c379a00000000000000000000000000000000000000000000000000000000081526004016114ca90612ed0565b60405180910390fd5b505050505050505050505050565b7f30644e72e131a029b85045b68181585d2833e84879b9709143e1f593f0000001831061153a576040517fa61c78ca00000000000000000000000000000000000000000000000000000000815260040160405180910390fd5b600061154584610760565b1461157c576040517f8121725b00000000000000000000000000000000000000000000000000000000815260040160405180910390fd5b60008084815260200190815260200160002073__$bb01d34dc76fba63df526a43121fcb267a$__633330ca3a909184846040518463ffffffff1660e01b81526004016115ca93929190612f4b565b60006040518083038186803b1580156115e257600080fd5b505af41580156115f6573d6000803e3d6000fd5b50505050600080600085815260200190815260200160002073__$bb01d34dc76fba63df526a43121fcb267a$__63ce8f1f3590916040518263ffffffff1660e01b81526004016116469190612f30565b60206040518083038186803b15801561165e57600080fd5b505af4158015611672573d6000803e3d6000fd5b505050506040513d601f19601f820116820180604052508101906116969190612741565b9050837f0d000126c26c1bbe400fd2332187f75d58b69306f9ec47b408686189d3a0083384836040516116ca929190612ffd565b60405180910390a250505050565b7f30644e72e131a029b85045b68181585d2833e84879b9709143e1f593f0000001811061173a576040517f08c379a000000000000000000000000000000000000000000000000000000000815260040161173190612eb0565b60405180910390fd5b8160010154600261174b91906133f5565b826004015410611790576040517f08c379a000000000000000000000000000000000000000000000000000000000815260040161178790612f10565b60405180910390fd5b600082600401549050600082905060005b84600101548160ff1610156119055760006002846117bf91906136bb565b14156118115760405180604001604052808381526020016117e28360ff166119d4565b8152508560050160008360ff16815260200190815260200160002090600261180b929190612080565b50611843565b818560050160008360ff16815260200190815260200160002060016002811061183d5761183c6137aa565b5b01819055505b73__$7dbbf6f96c7ef3a793cfa7d9c67f652bb8$__6329a5f2f68660050160008460ff1681526020019081526020016000206040518263ffffffff1660e01b81526004016118919190612e5f565b60206040518083038186803b1580156118a957600080fd5b505af41580156118bd573d6000803e3d6000fd5b505050506040513d601f19601f820116820180604052508101906118e19190612741565b91506002836118f09190613371565b925080806118fd90613687565b9150506117a1565b506000601e60018660020160009054906101000a900463ffffffff1661192b9190613337565b61193591906136ec565b9050808560020160006101000a81548163ffffffff021916908363ffffffff160217905550818560030160008363ffffffff16815260200190815260200160002081905550600185600401600082825461198f91906132e1565b925050819055505050505050565b60006008826040516020016119b29190612dc5565b6040516020818303038152906040528051906020012060001c901c9050919050565b600080821415611a06577f2fe54c60d3acabf3343a35b6eba15db4821b340f76e741e2249685ed4899af6c905061202f565b6001821415611a37577f13e37f2d6cb86c78ccc1788607c2b199788c6bb0a615a21f2e7a8e88384222f8905061202f565b6002821415611a68577f217126fa352c326896e8c2803eec8fd63ad50cf65edfef27a41a9e32dc622765905061202f565b6003821415611a99577f0e28a61a9b3e91007d5a9e3ada18e1b24d6d230c618388ee5df34cacd7397eee905061202f565b6004821415611aca577f27953447a6979839536badc5425ed15fadb0e292e9bc36f92f0aa5cfa5013587905061202f565b6005821415611afb577f194191edbfb91d10f6a7afd315f33095410c7801c47175c2df6dc2cce0e3affc905061202f565b6006821415611b2c577f1733dece17d71190516dbaf1927936fa643dc7079fc0cc731de9d6845a47741f905061202f565b6007821415611b5d577f267855a7dc75db39d81d17f95d0a7aa572bf5ae19f4db0e84221d2b2ef999219905061202f565b6008821415611b8e577f1184e11836b4c36ad8238a340ecc0985eeba665327e33e9b0e3641027c27620d905061202f565b6009821415611bbf577f0702ab83a135d7f55350ab1bfaa90babd8fc1d2b3e6a7215381a7b2213d6c5ce905061202f565b600a821415611bf0577f2eecc0de814cfd8c57ce882babb2e30d1da56621aef7a47f3291cffeaec26ad7905061202f565b600b821415611c21577f280bc02145c155d5833585b6c7b08501055157dd30ce005319621dc462d33b47905061202f565b600c821415611c52577f045132221d1fa0a7f4aed8acd2cbec1e2189b7732ccb2ec272b9c60f0d5afc5b905061202f565b600d821415611c83577f27f427ccbf58a44b1270abbe4eda6ba53bd6ac4d88cf1e00a13c4371ce71d366905061202f565b600e821415611cb4577f1617eaae5064f26e8f8a6493ae92bfded7fde71b65df1ca6d5dcec0df70b2cef905061202f565b600f821415611ce5577f20c6b400d0ea1b15435703c31c31ee63ad7ba5c8da66cec2796feacea575abca905061202f565b6010821415611d16577f09589ddb438723f53a8e57bdada7c5f8ed67e8fece3889a73618732965645eec905061202f565b6011821415611d46577e64b6a738a5ff537db7b220f3394f0ecbd35bfd355c5425dc1166bf3236079b905061202f565b6012821415611d77577f095de56281b1d5055e897c3574ff790d5ee81dbc5df784ad2d67795e557c9e9f905061202f565b6013821415611da8577f11cf2e2887aa21963a6ec14289183efe4d4c60f14ecd3d6fe0beebdf855a9b63905061202f565b6014821415611dd9577f2b0f6fc0179fa65b6f73627c0e1e84c7374d2eaec44c9a48f2571393ea77bcbb905061202f565b6015821415611e0a577f16fdb637c2abf9c0f988dbf2fd64258c46fb6a273d537b2cf1603ea460b13279905061202f565b6016821415611e3b577f21bbd7e944f6124dad4c376df9cc12e7ca66e47dff703ff7cedb1a454edcf0ff905061202f565b6017821415611e6c577f2784f8220b1c963e468f590f137baaa1625b3b92a27ad9b6e84eb0d3454d9962905061202f565b6018821415611e9d577f16ace1a65b7534142f8cc1aad810b3d6a7a74ca905d9c275cb98ba57e509fc10905061202f565b6019821415611ece577f2328068c6a8c24265124debd8fe10d3f29f0665ea725a65e3638f6192a96a013905061202f565b601a821415611eff577f2ddb991be1f028022411b4c4d2c22043e5e751c120736f00adf54acab1c9ac14905061202f565b601b821415611f30577f0113798410eaeb95056a464f70521eb58377c0155f2fe518a5594d38cc209cc0905061202f565b601c821415611f61577f202d1ae61526f0d0d01ef80fb5d4055a7af45721024c2c24cffd6a3798f54d50905061202f565b601d821415611f92577f23ab323453748129f2765f79615022f5bebd6f4096a796300aab049a60b0f187905061202f565b601e821415611fc3577f1f15585f8947e378bcf8bd918716799da909acdb944c57150b1eb4565fda8aa0905061202f565b601f821415611ff4577f1eb064b21055ac6a350cf41eb30e4ce2cb19680217df3a243617c2838185ad06905061202f565b6040517f08c379a000000000000000000000000000000000000000000000000000000000815260040161202690612ef0565b60405180910390fd5b919050565b6040518060600160405280600073ffffffffffffffffffffffffffffffffffffffff168152602001600060028111156120705761206f61377b565b5b8152602001600060ff1681525090565b82600281019282156120af579160200282015b828111156120ae578251825591602001919060010190612093565b5b5090506120bc91906120c0565b5090565b5b808211156120d95760008160009055506001016120c1565b5090565b60006120f06120eb8461309d565b613078565b905080838252602082019050828560208602820111156121135761211261382a565b5b60005b85811015612143578161212988826123e0565b845260208401935060208301925050600181019050612116565b5050509392505050565b600061216061215b846130c9565b613078565b905080838252602082019050828560808602820111156121835761218261382a565b5b60005b858110156121b357816121998882612479565b845260208401935060808301925050600181019050612186565b5050509392505050565b60006121d06121cb846130f5565b613078565b905080828560208602820111156121ea576121e961382a565b5b60005b8581101561221a578161220088826124f1565b8452602084019350602083019250506001810190506121ed565b5050509392505050565b60006122376122328461311b565b613078565b905080828560208602820111156122515761225061382a565b5b60005b85811015612281578161226788826124f1565b845260208401935060208301925050600181019050612254565b5050509392505050565b600061229e61229984613141565b613078565b9050828152602081018484840111156122ba576122b961382f565b5b6122c58482856135c0565b509392505050565b6000813590506122dc81613959565b92915050565b600082601f8301126122f7576122f6613820565b5b81516123078482602086016120dd565b91505092915050565b600082601f83011261232557612324613820565b5b815161233584826020860161214d565b91505092915050565b600082601f83011261235357612352613820565b5b60026123608482856121bd565b91505092915050565b6000819050826020600802820111156123855761238461382a565b5b92915050565b600082601f8301126123a05761239f613820565b5b60086123ad848285612224565b91505092915050565b6000815190506123c581613970565b92915050565b6000813590506123da81613987565b92915050565b6000815190506123ef81613987565b92915050565b60008083601f84011261240b5761240a613820565b5b8235905067ffffffffffffffff8111156124285761242761381b565b5b6020830191508360018202830111156124445761244361382a565b5b9250929050565b600082601f8301126124605761245f613820565b5b815161247084826020860161228b565b91505092915050565b60006080828403121561248f5761248e613825565b5b6124996080613078565b905060006124a984828501612506565b60008301525060206124bd84828501612506565b60208301525060406124d184828501612506565b60408301525060606124e5848285016123e0565b60608301525092915050565b6000813590506125008161399e565b92915050565b6000815190506125158161399e565b92915050565b60008135905061252a816139b5565b92915050565b60006020828403121561254657612545613839565b5b600082015167ffffffffffffffff81111561256457612563613834565b5b61257084828501612310565b91505092915050565b60006040828403121561258f5761258e613839565b5b600061259d8482850161233e565b91505092915050565b600061010082840312156125bd576125bc613839565b5b60006125cb8482850161238b565b91505092915050565b6000602082840312156125ea576125e9613839565b5b60006125f8848285016123b6565b91505092915050565b600080600080600080610180878903121561261f5761261e613839565b5b600061262d89828a016123cb565b965050602061263e89828a016124f1565b955050604061264f89828a016124f1565b945050606087013567ffffffffffffffff8111156126705761266f613834565b5b61267c89828a016123f5565b9350935050608061268f89828a01612369565b9150509295509295509295565b600080604083850312156126b3576126b2613839565b5b600083015167ffffffffffffffff8111156126d1576126d0613834565b5b6126dd8582860161244b565b925050602083015167ffffffffffffffff8111156126fe576126fd613834565b5b61270a858286016122e2565b9150509250929050565b60006020828403121561272a57612729613839565b5b6000612738848285016124f1565b91505092915050565b60006020828403121561275757612756613839565b5b600061276584828501612506565b91505092915050565b60008060006040848603121561278757612786613839565b5b6000612795868287016124f1565b935050602084013567ffffffffffffffff8111156127b6576127b5613834565b5b6127c2868287016123f5565b92509250509250925092565b600080604083850312156127e5576127e4613839565b5b60006127f3858286016124f1565b9250506020612804858286016124f1565b9150509250929050565b6000806000806080858703121561282857612827613839565b5b6000612836878288016124f1565b9450506020612847878288016124f1565b9350506040612858878288016122cd565b92505060606128698782880161251b565b91505092959194509250565b6000612881838361298a565b60408301905092915050565b60006128998383612c8d565b60808301905092915050565b60006128b18383612d6b565b60208301905092915050565b60006128c98383612d98565b60208301905092915050565b6128de816131ba565b6128e88184613255565b92506128f382613172565b8060005b8381101561292457815161290b8782612875565b965061291683613207565b9250506001810190506128f7565b505050505050565b6000612937826131c5565b6129418185613260565b935061294c8361317c565b8060005b8381101561297d578151612964888261288d565b975061296f83613214565b925050600181019050612950565b5085935050505092915050565b612993816131d0565b61299d8184613271565b92506129a88261318c565b8060005b838110156129d95781516129c087826128a5565b96506129cb83613221565b9250506001810190506129ac565b505050505050565b6129ea816131d0565b6129f4818461327c565b92506129ff8261318c565b8060005b83811015612a30578151612a1787826128a5565b9650612a2283613221565b925050600181019050612a03565b505050505050565b612a41816131db565b612a4b8184613287565b9250612a5682613196565b8060005b83811015612a8e57612a6b82613808565b612a7587826128bd565b9650612a808361322e565b925050600181019050612a5a565b505050505050565b612a9f816131e6565b612aa98184613292565b9250612ab4826131a0565b8060005b83811015612ae5578151612acc87826128bd565b9650612ad78361323b565b925050600181019050612ab8565b505050505050565b6000612af8826131f1565b612b02818561329d565b9350612b0d836131aa565b8060005b83811015612b3e578151612b2588826128bd565b9750612b3083613248565b925050600181019050612b11565b5085935050505092915050565b612b5481613563565b82525050565b612b638161356f565b82525050565b612b728161356f565b82525050565b612b89612b848261356f565b6136b1565b82525050565b6000612b9a826131fc565b612ba481856132ae565b9350612bb48185602086016135c0565b612bbd8161383e565b840191505092915050565b6000612bd3826131fc565b612bdd81856132bf565b9350612bed8185602086016135c0565b612bf68161383e565b840191505092915050565b6000612c0e6040836132d0565b9150612c1982613869565b604082019050919050565b6000612c31600c836132d0565b9150612c3c826138b8565b602082019050919050565b6000612c546013836132d0565b9150612c5f826138e1565b602082019050919050565b6000612c77602b836132d0565b9150612c828261390a565b604082019050919050565b608082016000820151612ca36000850182612d6b565b506020820151612cb66020850182612d6b565b506040820151612cc96040850182612d6b565b506060820151612cdc6060850182612b5a565b50505050565b8082525050565b8082525050565b600061018083016000830151612d096000860182612a96565b506020830151612d1d610100860182612d98565b506040830151612d31610120860182612d98565b506060830151612d45610140860182612d98565b506080830151848203610160860152612d5e8282612bc8565b9150508091505092915050565b612d7481613599565b82525050565b612d8381613599565b82525050565b612d9281613599565b82525050565b612da181613599565b82525050565b612db0816135b3565b82525050565b612dbf816135b3565b82525050565b6000612dd18284612b78565b60208201915081905092915050565b60006020820190508181036000830152612dfa818461292c565b905092915050565b600061014082019050612e1860008301886129e1565b612e2560408301876128d5565b612e3260c08301866129e1565b818103610100830152612e458185612b8f565b9050612e55610120830184612da7565b9695505050505050565b6000604082019050612e746000830184612a38565b92915050565b6000602082019050612e8f6000830184612b4b565b92915050565b6000602082019050612eaa6000830184612b69565b92915050565b60006020820190508181036000830152612ec981612c01565b9050919050565b60006020820190508181036000830152612ee981612c24565b9050919050565b60006020820190508181036000830152612f0981612c47565b9050919050565b60006020820190508181036000830152612f2981612c6a565b9050919050565b6000602082019050612f456000830184612ce2565b92915050565b6000606082019050612f606000830186612ce2565b612f6d6020830185612d89565b612f7a6040830184612db6565b949350505050565b6000604082019050612f976000830185612ce9565b8181036020830152612fa98184612aed565b90509392505050565b60006040820190508181036000830152612fcc8185612cf0565b9050612fdb6020830184612db6565b9392505050565b6000602082019050612ff76000830184612d7a565b92915050565b60006040820190506130126000830185612d7a565b61301f6020830184612d7a565b9392505050565b600060608201905061303b6000830186612d7a565b6130486020830185612d7a565b6130556040830184612d7a565b949350505050565b60006020820190506130726000830184612da7565b92915050565b6000613082613093565b905061308e828261360d565b919050565b6000604051905090565b600067ffffffffffffffff8211156130b8576130b76137d9565b5b602082029050602081019050919050565b600067ffffffffffffffff8211156130e4576130e36137d9565b5b602082029050602081019050919050565b600067ffffffffffffffff8211156131105761310f6137d9565b5b602082029050919050565b600067ffffffffffffffff821115613136576131356137d9565b5b602082029050919050565b600067ffffffffffffffff82111561315c5761315b6137d9565b5b6131658261383e565b9050602081019050919050565b6000819050919050565b6000819050602082019050919050565b6000819050919050565b6000819050919050565b6000819050919050565b6000819050602082019050919050565b600060029050919050565b600081519050919050565b600060029050919050565b600060029050919050565b600060089050919050565b600081519050919050565b600081519050919050565b6000602082019050919050565b6000602082019050919050565b6000602082019050919050565b6000600182019050919050565b6000602082019050919050565b6000602082019050919050565b600081905092915050565b600082825260208201905092915050565b600081905092915050565b600081905092915050565b600081905092915050565b600081905092915050565b600082825260208201905092915050565b600082825260208201905092915050565b600082825260208201905092915050565b600082825260208201905092915050565b60006132ec82613599565b91506132f783613599565b9250827fffffffffffffffffffffffffffffffffffffffffffffffffffffffffffffffff0382111561332c5761332b61371d565b5b828201905092915050565b6000613342826135a3565b915061334d836135a3565b92508263ffffffff038211156133665761336561371d565b5b828201905092915050565b600061337c82613599565b915061338783613599565b9250826133975761339661374c565b5b828204905092915050565b6000808291508390505b60018511156133ec578086048111156133c8576133c761371d565b5b60018516156133d75780820291505b80810290506133e58561385c565b94506133ac565b94509492505050565b600061340082613599565b915061340b83613599565b92506134387fffffffffffffffffffffffffffffffffffffffffffffffffffffffffffffffff8484613440565b905092915050565b600082613450576001905061350c565b8161345e576000905061350c565b8160018114613474576002811461347e576134ad565b600191505061350c565b60ff8411156134905761348f61371d565b5b8360020a9150848211156134a7576134a661371d565b5b5061350c565b5060208310610133831016604e8410600b84101617156134e25782820a9050838111156134dd576134dc61371d565b5b61350c565b6134ef84848460016133a2565b925090508184048111156135065761350561371d565b5b81810290505b9392505050565b600061351e82613599565b915061352983613599565b92508282101561353c5761353b61371d565b5b828203905092915050565b6000819050919050565b600061355c82613579565b9050919050565b60008115159050919050565b6000819050919050565b600073ffffffffffffffffffffffffffffffffffffffff82169050919050565b6000819050919050565b600063ffffffff82169050919050565b600060ff82169050919050565b60005b838110156135de5780820151818401526020810190506135c3565b838111156135ed576000848401525b50505050565b60006136066136018361384f565b613547565b9050919050565b6136168261383e565b810181811067ffffffffffffffff82111715613635576136346137d9565b5b80604052505050565b600061364982613599565b91507fffffffffffffffffffffffffffffffffffffffffffffffffffffffffffffffff82141561367c5761367b61371d565b5b600182019050919050565b6000613692826135b3565b915060ff8214156136a6576136a561371d565b5b600182019050919050565b6000819050919050565b60006136c682613599565b91506136d183613599565b9250826136e1576136e061374c565b5b828206905092915050565b60006136f7826135a3565b9150613702836135a3565b9250826137125761371161374c565b5b828206905092915050565b7f4e487b7100000000000000000000000000000000000000000000000000000000600052601160045260246000fd5b7f4e487b7100000000000000000000000000000000000000000000000000000000600052601260045260246000fd5b7f4e487b7100000000000000000000000000000000000000000000000000000000600052602160045260246000fd5b7f4e487b7100000000000000000000000000000000000000000000000000000000600052603260045260246000fd5b7f4e487b7100000000000000000000000000000000000000000000000000000000600052604160045260246000fd5b600061381482546135f3565b9050919050565b600080fd5b600080fd5b600080fd5b600080fd5b600080fd5b600080fd5b600080fd5b6000601f19601f8301169050919050565b60008160001c9050919050565b60008160011c9050919050565b7f4c696e6b61626c65496e6372656d656e74616c42696e617279547265653a206c60008201527f656166206d757374206265203c20534e41524b5f5343414c41525f4649454c44602082015250565b7f696e76616c696450726f6f660000000000000000000000000000000000000000600082015250565b7f496e646578206f7574206f6620626f756e647300000000000000000000000000600082015250565b7f4c696e6b61626c65496e6372656d656e74616c42696e617279547265653a207460008201527f7265652069732066756c6c000000000000000000000000000000000000000000602082015250565b61396281613551565b811461396d57600080fd5b50565b61397981613563565b811461398457600080fd5b50565b6139908161356f565b811461399b57600080fd5b50565b6139a781613599565b81146139b257600080fd5b50565b6139be816135b3565b81146139c957600080fd5b5056fea2646970667358221220ac09af8eff7fbb9973804e058cbc72eb903398d6cf24041344c118e194d1fedb64736f6c63430008060033",
  "linkReferences": {
    "contracts/base/LinkableIncrementalBinaryTree.sol": {
      "LinkableIncrementalBinaryTree": [
        {
          "length": 20,
          "start": 2754
        },
        {
          "length": 20,
          "start": 4428
        },
        {
          "length": 20,
          "start": 4805
        },
        {
          "length": 20,
          "start": 5158
        },
        {
          "length": 20,
          "start": 6563
        },
        {
          "length": 20,
          "start": 6691
        }
      ]
    },
    "contracts/base/Poseidon.sol": {
      "PoseidonT3Lib": [
        {
          "length": 20,
          "start": 7256
        }
      ]
    },
    "contracts/base/SemaphoreInputEncoder.sol": {
      "SemaphoreInputEncoder": [
        {
          "length": 20,
          "start": 5725
        }
      ]
    }
  },
  "deployedLinkReferences": {
    "contracts/base/LinkableIncrementalBinaryTree.sol": {
      "LinkableIncrementalBinaryTree": [
        {
          "length": 20,
          "start": 1711
        },
        {
          "length": 20,
          "start": 3385
        },
        {
          "length": 20,
          "start": 3762
        },
        {
          "length": 20,
          "start": 4115
        },
        {
          "length": 20,
          "start": 5520
        },
        {
          "length": 20,
          "start": 5648
        }
      ]
    },
    "contracts/base/Poseidon.sol": {
      "PoseidonT3Lib": [
        {
          "length": 20,
          "start": 6213
        }
      ]
    },
    "contracts/base/SemaphoreInputEncoder.sol": {
      "SemaphoreInputEncoder": [
        {
          "length": 20,
          "start": 4682
        }
      ]
    }
  }
}