{
  "_format": "hh-sol-artifact-1",
  "contractName": "Semaphore",
  "sourceName": "contracts/Semaphore.sol",
  "abi": [
    {
      "inputs": [
        {
          "internalType": "contract ISemaphoreVerifier",
          "name": "_verifier",
          "type": "address"
        }
      ],
      "stateMutability": "nonpayable",
      "type": "constructor"
    },
    {
      "inputs": [],
      "name": "LeafAlreadyExists",
      "type": "error"
    },
    {
      "inputs": [],
      "name": "LeafCannotBeZero",
      "type": "error"
    },
    {
      "inputs": [],
      "name": "LeafDoesNotExist",
      "type": "error"
    },
    {
      "inputs": [],
      "name": "LeafGreaterThanSnarkScalarField",
      "type": "error"
    },
    {
      "inputs": [],
      "name": "Semaphore__CallerIsNotTheGroupAdmin",
      "type": "error"
    },
    {
      "inputs": [],
      "name": "Semaphore__GroupAlreadyExists",
      "type": "error"
    },
    {
      "inputs": [],
      "name": "Semaphore__GroupDoesNotExist",
      "type": "error"
    },
    {
      "inputs": [],
      "name": "Semaphore__GroupHasNoMembers",
      "type": "error"
    },
    {
      "inputs": [],
      "name": "Semaphore__InvalidProof",
      "type": "error"
    },
    {
      "inputs": [],
      "name": "Semaphore__MerkleTreeDepthIsNotSupported",
      "type": "error"
    },
    {
      "inputs": [],
      "name": "Semaphore__MerkleTreeRootIsExpired",
      "type": "error"
    },
    {
      "inputs": [],
      "name": "Semaphore__MerkleTreeRootIsNotPartOfTheGroup",
      "type": "error"
    },
    {
      "inputs": [],
      "name": "Semaphore__YouAreUsingTheSameNullifierTwice",
      "type": "error"
    },
    {
      "inputs": [],
      "name": "WrongSiblingNodes",
      "type": "error"
    },
    {
      "anonymous": false,
      "inputs": [
        {
          "indexed": true,
          "internalType": "uint256",
          "name": "groupId",
          "type": "uint256"
        },
        {
          "indexed": true,
          "internalType": "address",
          "name": "oldAdmin",
          "type": "address"
        },
        {
          "indexed": true,
          "internalType": "address",
          "name": "newAdmin",
          "type": "address"
        }
      ],
      "name": "GroupAdminUpdated",
      "type": "event"
    },
    {
      "anonymous": false,
      "inputs": [
        {
          "indexed": true,
          "internalType": "uint256",
          "name": "groupId",
          "type": "uint256"
        }
      ],
      "name": "GroupCreated",
      "type": "event"
    },
    {
      "anonymous": false,
      "inputs": [
        {
          "indexed": true,
          "internalType": "uint256",
          "name": "groupId",
          "type": "uint256"
        },
        {
          "indexed": false,
          "internalType": "uint256",
          "name": "oldMerkleTreeDuration",
          "type": "uint256"
        },
        {
          "indexed": false,
          "internalType": "uint256",
          "name": "newMerkleTreeDuration",
          "type": "uint256"
        }
      ],
      "name": "GroupMerkleTreeDurationUpdated",
      "type": "event"
    },
    {
      "anonymous": false,
      "inputs": [
        {
          "indexed": true,
          "internalType": "uint256",
          "name": "groupId",
          "type": "uint256"
        },
        {
          "indexed": false,
          "internalType": "uint256",
          "name": "index",
          "type": "uint256"
        },
        {
          "indexed": false,
          "internalType": "uint256",
          "name": "identityCommitment",
          "type": "uint256"
        },
        {
          "indexed": false,
          "internalType": "uint256",
          "name": "merkleTreeRoot",
          "type": "uint256"
        }
      ],
      "name": "MemberAdded",
      "type": "event"
    },
    {
      "anonymous": false,
      "inputs": [
        {
          "indexed": true,
          "internalType": "uint256",
          "name": "groupId",
          "type": "uint256"
        },
        {
          "indexed": false,
          "internalType": "uint256",
          "name": "index",
          "type": "uint256"
        },
        {
          "indexed": false,
          "internalType": "uint256",
          "name": "identityCommitment",
          "type": "uint256"
        },
        {
          "indexed": false,
          "internalType": "uint256",
          "name": "merkleTreeRoot",
          "type": "uint256"
        }
      ],
      "name": "MemberRemoved",
      "type": "event"
    },
    {
      "anonymous": false,
      "inputs": [
        {
          "indexed": true,
          "internalType": "uint256",
          "name": "groupId",
          "type": "uint256"
        },
        {
          "indexed": false,
          "internalType": "uint256",
          "name": "index",
          "type": "uint256"
        },
        {
          "indexed": false,
          "internalType": "uint256",
          "name": "identityCommitment",
          "type": "uint256"
        },
        {
          "indexed": false,
          "internalType": "uint256",
          "name": "newIdentityCommitment",
          "type": "uint256"
        },
        {
          "indexed": false,
          "internalType": "uint256",
          "name": "merkleTreeRoot",
          "type": "uint256"
        }
      ],
      "name": "MemberUpdated",
      "type": "event"
    },
    {
      "anonymous": false,
      "inputs": [
        {
          "indexed": true,
          "internalType": "uint256",
          "name": "groupId",
          "type": "uint256"
        },
        {
          "indexed": false,
          "internalType": "uint256",
          "name": "startIndex",
          "type": "uint256"
        },
        {
          "indexed": false,
          "internalType": "uint256[]",
          "name": "identityCommitments",
          "type": "uint256[]"
        },
        {
          "indexed": false,
          "internalType": "uint256",
          "name": "merkleTreeRoot",
          "type": "uint256"
        }
      ],
      "name": "MembersAdded",
      "type": "event"
    },
    {
      "anonymous": false,
      "inputs": [
        {
          "indexed": true,
          "internalType": "uint256",
          "name": "groupId",
          "type": "uint256"
        },
        {
          "indexed": false,
          "internalType": "uint256",
          "name": "merkleTreeDepth",
          "type": "uint256"
        },
        {
          "indexed": true,
          "internalType": "uint256",
          "name": "merkleTreeRoot",
          "type": "uint256"
        },
        {
          "indexed": false,
          "internalType": "uint256",
          "name": "nullifier",
          "type": "uint256"
        },
        {
          "indexed": false,
          "internalType": "uint256",
          "name": "message",
          "type": "uint256"
        },
        {
          "indexed": true,
          "internalType": "uint256",
          "name": "scope",
          "type": "uint256"
        },
        {
          "indexed": false,
          "internalType": "uint256[8]",
          "name": "proof",
          "type": "uint256[8]"
        }
      ],
      "name": "ProofValidated",
      "type": "event"
    },
    {
      "inputs": [
        {
          "internalType": "uint256",
          "name": "groupId",
          "type": "uint256"
        },
        {
          "internalType": "uint256",
          "name": "identityCommitment",
          "type": "uint256"
        }
      ],
      "name": "addMember",
      "outputs": [],
      "stateMutability": "nonpayable",
      "type": "function"
    },
    {
      "inputs": [
        {
          "internalType": "uint256",
          "name": "groupId",
          "type": "uint256"
        },
        {
          "internalType": "uint256[]",
          "name": "identityCommitments",
          "type": "uint256[]"
        }
      ],
      "name": "addMembers",
      "outputs": [],
      "stateMutability": "nonpayable",
      "type": "function"
    },
    {
      "inputs": [
        {
          "internalType": "uint256",
          "name": "groupId",
          "type": "uint256"
        },
        {
          "internalType": "address",
          "name": "admin",
          "type": "address"
        },
        {
          "internalType": "uint256",
          "name": "merkleTreeDuration",
          "type": "uint256"
        }
      ],
      "name": "createGroup",
      "outputs": [],
      "stateMutability": "nonpayable",
      "type": "function"
    },
    {
      "inputs": [
        {
          "internalType": "uint256",
          "name": "groupId",
          "type": "uint256"
        },
        {
          "internalType": "address",
          "name": "admin",
          "type": "address"
        }
      ],
      "name": "createGroup",
      "outputs": [],
      "stateMutability": "nonpayable",
      "type": "function"
    },
    {
      "inputs": [
        {
          "internalType": "uint256",
          "name": "groupId",
          "type": "uint256"
        }
      ],
      "name": "getMerkleTreeDepth",
      "outputs": [
        {
          "internalType": "uint256",
          "name": "",
          "type": "uint256"
        }
      ],
      "stateMutability": "view",
      "type": "function"
    },
    {
      "inputs": [
        {
          "internalType": "uint256",
          "name": "groupId",
          "type": "uint256"
        }
      ],
      "name": "getMerkleTreeRoot",
      "outputs": [
        {
          "internalType": "uint256",
          "name": "",
          "type": "uint256"
        }
      ],
      "stateMutability": "view",
      "type": "function"
    },
    {
      "inputs": [
        {
          "internalType": "uint256",
          "name": "groupId",
          "type": "uint256"
        }
      ],
      "name": "getMerkleTreeSize",
      "outputs": [
        {
          "internalType": "uint256",
          "name": "",
          "type": "uint256"
        }
      ],
      "stateMutability": "view",
      "type": "function"
    },
    {
      "inputs": [
        {
          "internalType": "uint256",
          "name": "",
          "type": "uint256"
        }
      ],
      "name": "groups",
      "outputs": [
        {
          "internalType": "uint256",
          "name": "merkleTreeDuration",
          "type": "uint256"
        }
      ],
      "stateMutability": "view",
      "type": "function"
    },
    {
      "inputs": [
        {
          "internalType": "uint256",
          "name": "groupId",
          "type": "uint256"
        },
        {
          "internalType": "uint256",
          "name": "identityCommitment",
          "type": "uint256"
        }
      ],
      "name": "hasMember",
      "outputs": [
        {
          "internalType": "bool",
          "name": "",
          "type": "bool"
        }
      ],
      "stateMutability": "view",
      "type": "function"
    },
    {
      "inputs": [
        {
          "internalType": "uint256",
          "name": "groupId",
          "type": "uint256"
        },
        {
          "internalType": "uint256",
          "name": "identityCommitment",
          "type": "uint256"
        }
      ],
      "name": "indexOf",
      "outputs": [
        {
          "internalType": "uint256",
          "name": "",
          "type": "uint256"
        }
      ],
      "stateMutability": "view",
      "type": "function"
    },
    {
      "inputs": [
        {
          "internalType": "uint256",
          "name": "groupId",
          "type": "uint256"
        },
        {
          "internalType": "uint256",
          "name": "identityCommitment",
          "type": "uint256"
        },
        {
          "internalType": "uint256[]",
          "name": "merkleProofSiblings",
          "type": "uint256[]"
        }
      ],
      "name": "removeMember",
      "outputs": [],
      "stateMutability": "nonpayable",
      "type": "function"
    },
    {
      "inputs": [
        {
          "internalType": "uint256",
          "name": "groupId",
          "type": "uint256"
        },
        {
          "internalType": "address",
          "name": "newAdmin",
          "type": "address"
        }
      ],
      "name": "updateGroupAdmin",
      "outputs": [],
      "stateMutability": "nonpayable",
      "type": "function"
    },
    {
      "inputs": [
        {
          "internalType": "uint256",
          "name": "groupId",
          "type": "uint256"
        },
        {
          "internalType": "uint256",
          "name": "newMerkleTreeDuration",
          "type": "uint256"
        }
      ],
      "name": "updateGroupMerkleTreeDuration",
      "outputs": [],
      "stateMutability": "nonpayable",
      "type": "function"
    },
    {
      "inputs": [
        {
          "internalType": "uint256",
          "name": "groupId",
          "type": "uint256"
        },
        {
          "internalType": "uint256",
          "name": "identityCommitment",
          "type": "uint256"
        },
        {
          "internalType": "uint256",
          "name": "newIdentityCommitment",
          "type": "uint256"
        },
        {
          "internalType": "uint256[]",
          "name": "merkleProofSiblings",
          "type": "uint256[]"
        }
      ],
      "name": "updateMember",
      "outputs": [],
      "stateMutability": "nonpayable",
      "type": "function"
    },
    {
      "inputs": [
        {
          "internalType": "uint256",
          "name": "groupId",
          "type": "uint256"
        },
        {
          "internalType": "uint256",
          "name": "merkleTreeDepth",
          "type": "uint256"
        },
        {
          "internalType": "uint256",
          "name": "merkleTreeRoot",
          "type": "uint256"
        },
        {
          "internalType": "uint256",
          "name": "nullifier",
          "type": "uint256"
        },
        {
          "internalType": "uint256",
          "name": "message",
          "type": "uint256"
        },
        {
          "internalType": "uint256",
          "name": "scope",
          "type": "uint256"
        },
        {
          "internalType": "uint256[8]",
          "name": "proof",
          "type": "uint256[8]"
        }
      ],
      "name": "validateProof",
      "outputs": [],
      "stateMutability": "nonpayable",
      "type": "function"
    },
    {
      "inputs": [],
      "name": "verifier",
      "outputs": [
        {
          "internalType": "contract ISemaphoreVerifier",
          "name": "",
          "type": "address"
        }
      ],
      "stateMutability": "view",
      "type": "function"
    },
    {
      "inputs": [
        {
          "internalType": "uint256",
          "name": "groupId",
          "type": "uint256"
        },
        {
          "internalType": "uint256",
          "name": "merkleTreeDepth",
          "type": "uint256"
        },
        {
          "internalType": "uint256",
          "name": "merkleTreeRoot",
          "type": "uint256"
        },
        {
          "internalType": "uint256",
          "name": "nullifier",
          "type": "uint256"
        },
        {
          "internalType": "uint256",
          "name": "message",
          "type": "uint256"
        },
        {
          "internalType": "uint256",
          "name": "scope",
          "type": "uint256"
        },
        {
          "internalType": "uint256[8]",
          "name": "proof",
          "type": "uint256[8]"
        }
      ],
      "name": "verifyProof",
      "outputs": [
        {
          "internalType": "bool",
          "name": "",
          "type": "bool"
        }
      ],
      "stateMutability": "view",
      "type": "function"
    }
  ],
  "bytecode": "0x60806040523480156200001157600080fd5b50604051620034ca380380620034ca8339818101604052810190620000379190620000fd565b80600260006101000a81548173ffffffffffffffffffffffffffffffffffffffff021916908373ffffffffffffffffffffffffffffffffffffffff160217905550506200012f565b600080fd5b600073ffffffffffffffffffffffffffffffffffffffff82169050919050565b6000620000b18262000084565b9050919050565b6000620000c582620000a4565b9050919050565b620000d781620000b8565b8114620000e357600080fd5b50565b600081519050620000f781620000cc565b92915050565b6000602082840312156200011657620001156200007f565b5b60006200012684828501620000e6565b91505092915050565b61338b806200013f6000396000f3fe608060405234801561001057600080fd5b506004361061010b5760003560e01c80636cdd32fe116100a257806396324bd41161007157806396324bd4146102c6578063b1805179146102f6578063c96e71fb14610312578063dabc4d511461032e578063fcf0b6ec1461035e5761010b565b80636cdd32fe1461021a5780637ee35a0c1461023657806390509d441461026657806393fef0fd146102965761010b565b80632b7ac3f3116100de5780632b7ac3f3146101945780634178c4d5146101b2578063568ee826146101ce5780636389e107146101ea5761010b565b8063042453711461011057806306dd84851461012c5780631783efc31461015c5780632694b47614610178575b600080fd5b61012a60048036038101906101259190612692565b61037a565b005b610146600480360381019061014191906126f2565b6103c4565b6040516101539190612741565b60405180910390f35b610176600480360381019061017191906126f2565b6103f2565b005b610192600480360381019061018d919061277e565b61043a565b005b61019c61060f565b6040516101a991906128a0565b60405180910390f35b6101cc60048036038101906101c791906128bb565b610635565b005b6101e860048036038101906101e39190612981565b610683565b005b61020460048036038101906101ff91906129c1565b610691565b6040516102119190612741565b60405180910390f35b610234600480360381019061022f91906129ee565b6106b0565b005b610250600480360381019061024b91906129c1565b6106fc565b60405161025d9190612741565b60405180910390f35b610280600480360381019061027b91906126f2565b61071b565b60405161028d9190612a7d565b60405180910390f35b6102b060048036038101906102ab919061277e565b610749565b6040516102bd9190612a7d565b60405180910390f35b6102e060048036038101906102db91906129c1565b610b57565b6040516102ed9190612741565b60405180910390f35b610310600480360381019061030b9190612a98565b610b75565b005b61032c60048036038101906103279190612981565b610b9f565b005b610348600480360381019061034391906129c1565b610bca565b6040516103559190612741565b60405180910390f35b610378600480360381019061037391906126f2565b610bed565b005b610385838383610d97565b600061039084610bca565b9050426003600086815260200190815260200160002060010160008381526020019081526020016000208190555050505050565b60006103ea82600080868152602001908152602001600020610e1390919063ffffffff16565b905092915050565b6103fc8282610e3f565b600061040783610bca565b90504260036000858152602001908152602001600020600101600083815260200190815260200160002081905550505050565b86600073ffffffffffffffffffffffffffffffffffffffff166001600083815260200190815260200160002060009054906101000a900473ffffffffffffffffffffffffffffffffffffffff1673ffffffffffffffffffffffffffffffffffffffff16036104d4576040517f029f057900000000000000000000000000000000000000000000000000000000815260040160405180910390fd5b60036000898152602001908152602001600020600201600086815260200190815260200160002060009054906101000a900460ff1615610540576040517f208b15e800000000000000000000000000000000000000000000000000000000815260040160405180910390fd5b61054f88888888888888610749565b610585576040517f4aa6bc4000000000000000000000000000000000000000000000000000000000815260040160405180910390fd5b6001600360008a8152602001908152602001600020600201600087815260200190815260200160002060006101000a81548160ff0219169083151502179055508286897f0c32e14cfe81a05d371c248d22de6b7ae849e981b76a1f8842e7b6da73fc405a8a8989886040516105fd9493929190612b05565b60405180910390a45050505050505050565b600260009054906101000a900473ffffffffffffffffffffffffffffffffffffffff1681565b6106428585858585610feb565b600061064d86610bca565b90504260036000888152602001908152602001600020600101600083815260200190815260200160002081905550505050505050565b61068d82826111bd565b5050565b6000806000838152602001908152602001600020600101549050919050565b6106bc848484846113a3565b60006106c785610bca565b905042600360008781526020019081526020016000206001016000838152602001908152602001600020819055505050505050565b6000806000838152602001908152602001600020600001549050919050565b60006107418260008086815260200190815260200160002061157090919063ffffffff16565b905092915050565b600087600073ffffffffffffffffffffffffffffffffffffffff166001600083815260200190815260200160002060009054906101000a900473ffffffffffffffffffffffffffffffffffffffff1673ffffffffffffffffffffffffffffffffffffffff16036107e5576040517f029f057900000000000000000000000000000000000000000000000000000000815260040160405180910390fd5b60018810806107f45750600c88115b1561082b576040517fecf64f1200000000000000000000000000000000000000000000000000000000815260040160405180910390fd5b60006108368a6106fc565b905060008103610872576040517fc8b02e0100000000000000000000000000000000000000000000000000000000815260040160405180910390fd5b600061087d8b610bca565b905080891461094f576000600360008d815260200190815260200160002060010160008b81526020019081526020016000205490506000600360008e815260200190815260200160002060000154905060008203610907576040517f4d32958600000000000000000000000000000000000000000000000000000000815260040160405180910390fd5b80826109139190612b7a565b42111561094c576040517f9581a99000000000000000000000000000000000000000000000000000000000815260040160405180910390fd5b50505b600260009054906101000a900473ffffffffffffffffffffffffffffffffffffffff1673ffffffffffffffffffffffffffffffffffffffff1663a23f01996040518060400160405280886000600881106109ac576109ab612bae565b5b60200201358152602001886001600881106109ca576109c9612bae565b5b6020020135815250604051806040016040528060405180604001604052808b6002600881106109fc576109fb612bae565b5b602002013581526020018b600360088110610a1a57610a19612bae565b5b6020020135815250815260200160405180604001604052808b600460088110610a4657610a45612bae565b5b602002013581526020018b600560088110610a6457610a63612bae565b5b602002013581525081525060405180604001604052808a600660088110610a8e57610a8d612bae565b5b602002013581526020018a600760088110610aac57610aab612bae565b5b602002013581525060405180608001604052808f81526020018e8152602001610ad48e611593565b8152602001610ae28d611593565b8152508f6040518663ffffffff1660e01b8152600401610b06959493929190612e0a565b602060405180830381865afa158015610b23573d6000803e3d6000fd5b505050506040513d601f19601f82011682018060405250810190610b479190612e8c565b9350505050979650505050505050565b60036020528060005260406000206000915090508060000154905081565b610b7f83836115ca565b806003600085815260200190815260200160002060000181905550505050565b610ba982826115ca565b610e1060036000848152602001908152602001600020600001819055505050565b6000610be6600080848152602001908152602001600020611742565b9050919050565b81600073ffffffffffffffffffffffffffffffffffffffff166001600083815260200190815260200160002060009054906101000a900473ffffffffffffffffffffffffffffffffffffffff1673ffffffffffffffffffffffffffffffffffffffff1603610c87576040517f029f057900000000000000000000000000000000000000000000000000000000815260040160405180910390fd5b823373ffffffffffffffffffffffffffffffffffffffff166001600083815260200190815260200160002060009054906101000a900473ffffffffffffffffffffffffffffffffffffffff1673ffffffffffffffffffffffffffffffffffffffff1614610d20576040517fbb9bf27800000000000000000000000000000000000000000000000000000000815260040160405180910390fd5b600060036000868152602001908152602001600020600001549050836003600087815260200190815260200160002060000181905550847f264b2a8f6763c084235fe832ba903482b2ef1a521336881fc75b987c2dfd29c58286604051610d88929190612eb9565b60405180910390a25050505050565b6000610da2846106fc565b90506000610dcc84846000808981526020019081526020016000206117659092919063ffffffff16565b9050847f61e5e8054e3daf084a0c6c646c065e8bf5e7ca4d5567bda942309bd1652f349d83868685604051610e049493929190612f54565b60405180910390a25050505050565b6000600183600301600084815260200190815260200160002054610e379190612f94565b905092915050565b81600073ffffffffffffffffffffffffffffffffffffffff166001600083815260200190815260200160002060009054906101000a900473ffffffffffffffffffffffffffffffffffffffff1673ffffffffffffffffffffffffffffffffffffffff1603610ed9576040517f029f057900000000000000000000000000000000000000000000000000000000815260040160405180910390fd5b823373ffffffffffffffffffffffffffffffffffffffff166001600083815260200190815260200160002060009054906101000a900473ffffffffffffffffffffffffffffffffffffffff1673ffffffffffffffffffffffffffffffffffffffff1614610f72576040517fbb9bf27800000000000000000000000000000000000000000000000000000000815260040160405180910390fd5b6000610f7d856106fc565b90506000610fa585600080898152602001908152602001600020611d6290919063ffffffff16565b9050857f19239b3f93cd10558aaf11423af70c77763bf54f52bcc75bfa74d4d13548cde9838784604051610fdb93929190612fc8565b60405180910390a2505050505050565b84600073ffffffffffffffffffffffffffffffffffffffff166001600083815260200190815260200160002060009054906101000a900473ffffffffffffffffffffffffffffffffffffffff1673ffffffffffffffffffffffffffffffffffffffff1603611085576040517f029f057900000000000000000000000000000000000000000000000000000000815260040160405180910390fd5b853373ffffffffffffffffffffffffffffffffffffffff166001600083815260200190815260200160002060009054906101000a900473ffffffffffffffffffffffffffffffffffffffff1673ffffffffffffffffffffffffffffffffffffffff161461111e576040517fbb9bf27800000000000000000000000000000000000000000000000000000000815260040160405180910390fd5b6000611144876000808b8152602001908152602001600020610e1390919063ffffffff16565b90506000611172888888886000808f8152602001908152602001600020611fde90949392919063ffffffff16565b9050887fea3588e4a2a0c93d6a0e69dfeaf7496f43ccccf02ad9ce0a5b7627cbca4b61b1838a8a856040516111aa9493929190612fff565b60405180910390a2505050505050505050565b81600073ffffffffffffffffffffffffffffffffffffffff166001600083815260200190815260200160002060009054906101000a900473ffffffffffffffffffffffffffffffffffffffff1673ffffffffffffffffffffffffffffffffffffffff1603611257576040517f029f057900000000000000000000000000000000000000000000000000000000815260040160405180910390fd5b823373ffffffffffffffffffffffffffffffffffffffff166001600083815260200190815260200160002060009054906101000a900473ffffffffffffffffffffffffffffffffffffffff1673ffffffffffffffffffffffffffffffffffffffff16146112f0576040517fbb9bf27800000000000000000000000000000000000000000000000000000000815260040160405180910390fd5b826001600086815260200190815260200160002060006101000a81548173ffffffffffffffffffffffffffffffffffffffff021916908373ffffffffffffffffffffffffffffffffffffffff1602179055508273ffffffffffffffffffffffffffffffffffffffff163373ffffffffffffffffffffffffffffffffffffffff16857f0ba83579a0e79193ef649b9f5a8759d35af086ba62a3e207b52e4a8ae30d49e360405160405180910390a450505050565b83600073ffffffffffffffffffffffffffffffffffffffff166001600083815260200190815260200160002060009054906101000a900473ffffffffffffffffffffffffffffffffffffffff1673ffffffffffffffffffffffffffffffffffffffff160361143d576040517f029f057900000000000000000000000000000000000000000000000000000000815260040160405180910390fd5b843373ffffffffffffffffffffffffffffffffffffffff166001600083815260200190815260200160002060009054906101000a900473ffffffffffffffffffffffffffffffffffffffff1673ffffffffffffffffffffffffffffffffffffffff16146114d6576040517fbb9bf27800000000000000000000000000000000000000000000000000000000815260040160405180910390fd5b60006114fc866000808a8152602001908152602001600020610e1390919063ffffffff16565b905060006115288787876000808d81526020019081526020016000206125d3909392919063ffffffff16565b9050877f3108849c053c77b8073a11256dffb5ffd5b55e93e105a355e1c9061db890d87183898460405161155e93929190612fc8565b60405180910390a25050505050505050565b600080836003016000848152602001908152602001600020541415905092915050565b60006008826040516020016115a89190613065565b6040516020818303038152906040528051906020012060001c901c9050919050565b600073ffffffffffffffffffffffffffffffffffffffff166001600084815260200190815260200160002060009054906101000a900473ffffffffffffffffffffffffffffffffffffffff1673ffffffffffffffffffffffffffffffffffffffff1614611663576040517f8121725b00000000000000000000000000000000000000000000000000000000815260040160405180910390fd5b806001600084815260200190815260200160002060006101000a81548173ffffffffffffffffffffffffffffffffffffffff021916908373ffffffffffffffffffffffffffffffffffffffff160217905550817ff0adfb94eab6daf835deb69c5738fe636150c3dfd08094a76f39b963dc8cb05a60405160405180910390a28073ffffffffffffffffffffffffffffffffffffffff16600073ffffffffffffffffffffffffffffffffffffffff16837f0ba83579a0e79193ef649b9f5a8759d35af086ba62a3e207b52e4a8ae30d49e360405160405180910390a45050565b600081600201600083600101548152602001908152602001600020549050919050565b600080600090505b838390508110156118f0577f30644e72e131a029b85045b68181585d2833e84879b9709143e1f593f00000018484838181106117ac576117ab612bae565b5b90506020020135106117ea576040517fc380a82e00000000000000000000000000000000000000000000000000000000815260040160405180910390fd5b60008484838181106117ff576117fe612bae565b5b905060200201350361183d576040517f29691be200000000000000000000000000000000000000000000000000000000815260040160405180910390fd5b6118608585858481811061185457611853612bae565b5b90506020020135611570565b15611897576040517f258a195a00000000000000000000000000000000000000000000000000000000815260040160405180910390fd5b80600186600001546118a99190612b7a565b6118b39190612b7a565b8560030160008686858181106118cc576118cb612bae565b5b9050602002013581526020019081526020016000208190555080600101905061176d565b506060838380806020026020016040519081016040528093929190818152602001838360200280828437600081840152601f19601f8201169050808301925050505050505090505b83839050856000015461194b9190612b7a565b8560010154600261195c91906131b3565b10156119835760018560010160008282546119779190612b7a565b92505081905550611938565b60008560000154905060008585905087600001546119a19190612b7a565b90506000600183901c905060006001806001856119be9190612f94565b901c6119ca9190612b7a565b905060005b8960010154811015611ce057600083836119e99190612f94565b905060008167ffffffffffffffff811115611a0757611a066131fe565b5b604051908082528060200260200182016040528015611a355781602001602082028036833780820191505090505b50905060005b82811015611c075760008088600160028a86611a579190612b7a565b611a61919061322d565b611a6b9190612b7a565b1015611abd578a8a600160028b87611a839190612b7a565b611a8d919061322d565b611a979190612b7a565b611aa19190612f94565b81518110611ab257611ab1612bae565b5b602002602001015191505b8960028985611acc9190612b7a565b611ad6919061322d565b1015611af9578e6002016000878152602001908152602001600020549050611b39565b8a8a60028a86611b099190612b7a565b611b13919061322d565b611b1d9190612f94565b81518110611b2e57611b2d612bae565b5b602002602001015190505b6000808314611bd55773__$75f79a42d9bcbdbb69ad79ebd80f556f39$__63561558fe6040518060400160405280858152602001868152506040518263ffffffff1660e01b8152600401611b8d91906132f8565b602060405180830381865af4158015611baa573d6000803e3d6000fd5b505050506040513d601f19601f82011682018060405250810190611bce9190613328565b9050611bd9565b8190505b80858581518110611bed57611bec612bae565b5b602002602001018181525050836001019350505050611a3b565b50600180871603611c58578760018951611c219190612f94565b81518110611c3257611c31612bae565b5b60200260200101518c600201600085815260200190815260200160002081905550611ca5565b600188511115611ca4578760028951611c719190612f94565b81518110611c8257611c81612bae565b5b60200260200101518c6002016000858152602001908152602001600020819055505b5b849650600185901c9450809750839550600180600186611cc59190612f94565b901c611cd19190612b7a565b935082600101925050506119cf565b5087879050896000016000828254611cf89190612b7a565b9250508190555084600081518110611d1357611d12612bae565b5b60200260200101518960020160008b6001015481526020019081526020016000208190555084600081518110611d4c57611d4b612bae565b5b6020026020010151955050505050509392505050565b60007f30644e72e131a029b85045b68181585d2833e84879b9709143e1f593f00000018210611dbd576040517fc380a82e00000000000000000000000000000000000000000000000000000000815260040160405180910390fd5b60008203611df7576040517f29691be200000000000000000000000000000000000000000000000000000000815260040160405180910390fd5b611e018383611570565b15611e38576040517f258a195a00000000000000000000000000000000000000000000000000000000815260040160405180910390fd5b5b60018360000154611e4a9190612b7a565b83600101546002611e5b91906131b3565b1015611e82576001836001016000828254611e769190612b7a565b92505081905550611e39565b600083600001549050600083905060005b8560010154811015611f7a576001808285901c1603611f545773__$75f79a42d9bcbdbb69ad79ebd80f556f39$__63561558fe6040518060400160405280896002016000868152602001908152602001600020548152602001858152506040518263ffffffff1660e01b8152600401611f0c91906132f8565b602060405180830381865af4158015611f29573d6000803e3d6000fd5b505050506040513d601f19601f82011682018060405250810190611f4d9190613328565b9150611f6f565b81866002016000838152602001908152602001600020819055505b806001019050611e93565b506001856000016000828254611f909190612b7a565b92505081905550808560020160008760010154815260200190815260200160002081905550846000015485600301600086815260200190815260200160002081905550809250505092915050565b60007f30644e72e131a029b85045b68181585d2833e84879b9709143e1f593f00000018410612039576040517fc380a82e00000000000000000000000000000000000000000000000000000000815260040160405180910390fd5b6120438686611570565b612079576040517f7204756c00000000000000000000000000000000000000000000000000000000815260040160405180910390fd5b60008414158015612090575061208f8685611570565b5b156120c7576040517f258a195a00000000000000000000000000000000000000000000000000000000815260040160405180910390fd5b60008383905003612104576040517f3fa930c600000000000000000000000000000000000000000000000000000000815260040160405180910390fd5b60006121108787610e13565b905060008590506000879050600060018a6000015461212f9190612f94565b90506000805b8b60010154811015612518576001808288901c1603612319577f30644e72e131a029b85045b68181585d2833e84879b9709143e1f593f000000189898481811061218257612181612bae565b5b90506020020135106121c0576040517fc380a82e00000000000000000000000000000000000000000000000000000000815260040160405180910390fd5b73__$75f79a42d9bcbdbb69ad79ebd80f556f39$__63561558fe60405180604001604052808c8c878181106121f8576121f7612bae565b5b905060200201358152602001888152506040518263ffffffff1660e01b815260040161222491906132f8565b602060405180830381865af4158015612241573d6000803e3d6000fd5b505050506040513d601f19601f820116820180604052508101906122659190613328565b945073__$75f79a42d9bcbdbb69ad79ebd80f556f39$__63561558fe60405180604001604052808c8c8781811061229f5761229e612bae565b5b905060200201358152602001878152506040518263ffffffff1660e01b81526004016122cb91906132f8565b602060405180830381865af41580156122e8573d6000803e3d6000fd5b505050506040513d601f19601f8201168201806040525081019061230c9190613328565b935081600101915061250d565b8083901c8187901c146124f1577f30644e72e131a029b85045b68181585d2833e84879b9709143e1f593f000000189898481811061235a57612359612bae565b5b9050602002013510612398576040517fc380a82e00000000000000000000000000000000000000000000000000000000815260040160405180910390fd5b73__$75f79a42d9bcbdbb69ad79ebd80f556f39$__63561558fe60405180604001604052808881526020018c8c878181106123d6576123d5612bae565b5b905060200201358152506040518263ffffffff1660e01b81526004016123fc91906132f8565b602060405180830381865af4158015612419573d6000803e3d6000fd5b505050506040513d601f19601f8201168201806040525081019061243d9190613328565b945073__$75f79a42d9bcbdbb69ad79ebd80f556f39$__63561558fe60405180604001604052808781526020018c8c8781811061247d5761247c612bae565b5b905060200201358152506040518263ffffffff1660e01b81526004016124a391906132f8565b602060405180830381865af41580156124c0573d6000803e3d6000fd5b505050506040513d601f19601f820116820180604052508101906124e49190613328565b935081600101915061250c565b848c6002016000848152602001908152602001600020819055505b5b806001019050612135565b506125228b611742565b831461255a576040517f3fa930c600000000000000000000000000000000000000000000000000000000815260040160405180910390fd5b838b60020160008d600101548152602001908152602001600020819055508a60030160008b8152602001908152602001600020548b60030160008b81526020019081526020016000208190555060008b60030160008c815260200190815260200160002081905550839550505050505095945050505050565b60006125e3858560008686611fde565b9050949350505050565b600080fd5b600080fd5b6000819050919050565b61260a816125f7565b811461261557600080fd5b50565b60008135905061262781612601565b92915050565b600080fd5b600080fd5b600080fd5b60008083601f8401126126525761265161262d565b5b8235905067ffffffffffffffff81111561266f5761266e612632565b5b60208301915083602082028301111561268b5761268a612637565b5b9250929050565b6000806000604084860312156126ab576126aa6125ed565b5b60006126b986828701612618565b935050602084013567ffffffffffffffff8111156126da576126d96125f2565b5b6126e68682870161263c565b92509250509250925092565b60008060408385031215612709576127086125ed565b5b600061271785828601612618565b925050602061272885828601612618565b9150509250929050565b61273b816125f7565b82525050565b60006020820190506127566000830184612732565b92915050565b60008190508260206008028201111561277857612777612637565b5b92915050565b60008060008060008060006101c0888a03121561279e5761279d6125ed565b5b60006127ac8a828b01612618565b97505060206127bd8a828b01612618565b96505060406127ce8a828b01612618565b95505060606127df8a828b01612618565b94505060806127f08a828b01612618565b93505060a06128018a828b01612618565b92505060c06128128a828b0161275c565b91505092959891949750929550565b600073ffffffffffffffffffffffffffffffffffffffff82169050919050565b6000819050919050565b600061286661286161285c84612821565b612841565b612821565b9050919050565b60006128788261284b565b9050919050565b600061288a8261286d565b9050919050565b61289a8161287f565b82525050565b60006020820190506128b56000830184612891565b92915050565b6000806000806000608086880312156128d7576128d66125ed565b5b60006128e588828901612618565b95505060206128f688828901612618565b945050604061290788828901612618565b935050606086013567ffffffffffffffff811115612928576129276125f2565b5b6129348882890161263c565b92509250509295509295909350565b600061294e82612821565b9050919050565b61295e81612943565b811461296957600080fd5b50565b60008135905061297b81612955565b92915050565b60008060408385031215612998576129976125ed565b5b60006129a685828601612618565b92505060206129b78582860161296c565b9150509250929050565b6000602082840312156129d7576129d66125ed565b5b60006129e584828501612618565b91505092915050565b60008060008060608587031215612a0857612a076125ed565b5b6000612a1687828801612618565b9450506020612a2787828801612618565b935050604085013567ffffffffffffffff811115612a4857612a476125f2565b5b612a548782880161263c565b925092505092959194509250565b60008115159050919050565b612a7781612a62565b82525050565b6000602082019050612a926000830184612a6e565b92915050565b600080600060608486031215612ab157612ab06125ed565b5b6000612abf86828701612618565b9350506020612ad08682870161296c565b9250506040612ae186828701612618565b9150509250925092565b82818337505050565b612b016101008383612aeb565b5050565b600061016082019050612b1b6000830187612732565b612b286020830186612732565b612b356040830185612732565b612b426060830184612af4565b95945050505050565b7f4e487b7100000000000000000000000000000000000000000000000000000000600052601160045260246000fd5b6000612b85826125f7565b9150612b90836125f7565b9250828201905080821115612ba857612ba7612b4b565b5b92915050565b7f4e487b7100000000000000000000000000000000000000000000000000000000600052603260045260246000fd5b600060029050919050565b600081905092915050565b6000819050919050565b612c06816125f7565b82525050565b6000612c188383612bfd565b60208301905092915050565b6000602082019050919050565b612c3a81612bdd565b612c448184612be8565b9250612c4f82612bf3565b8060005b83811015612c80578151612c678782612c0c565b9650612c7283612c24565b925050600181019050612c53565b505050505050565b600060029050919050565b600081905092915050565b6000819050919050565b600081905092915050565b612cbc81612bdd565b612cc68184612ca8565b9250612cd182612bf3565b8060005b83811015612d02578151612ce98782612c0c565b9650612cf483612c24565b925050600181019050612cd5565b505050505050565b6000612d168383612cb3565b60408301905092915050565b6000602082019050919050565b612d3881612c88565b612d428184612c93565b9250612d4d82612c9e565b8060005b83811015612d7e578151612d658782612d0a565b9650612d7083612d22565b925050600181019050612d51565b505050505050565b600060049050919050565b600081905092915050565b6000819050919050565b6000602082019050919050565b612dbc81612d86565b612dc68184612d91565b9250612dd182612d9c565b8060005b83811015612e02578151612de98782612c0c565b9650612df483612da6565b925050600181019050612dd5565b505050505050565b60006101a082019050612e206000830188612c31565b612e2d6040830187612d2f565b612e3a60c0830186612c31565b612e48610100830185612db3565b612e56610180830184612732565b9695505050505050565b612e6981612a62565b8114612e7457600080fd5b50565b600081519050612e8681612e60565b92915050565b600060208284031215612ea257612ea16125ed565b5b6000612eb084828501612e77565b91505092915050565b6000604082019050612ece6000830185612732565b612edb6020830184612732565b9392505050565b600082825260208201905092915050565b600080fd5b6000612f048385612ee2565b93507f07ffffffffffffffffffffffffffffffffffffffffffffffffffffffffffffff831115612f3757612f36612ef3565b5b602083029250612f48838584612aeb565b82840190509392505050565b6000606082019050612f696000830187612732565b8181036020830152612f7c818587612ef8565b9050612f8b6040830184612732565b95945050505050565b6000612f9f826125f7565b9150612faa836125f7565b9250828203905081811115612fc257612fc1612b4b565b5b92915050565b6000606082019050612fdd6000830186612732565b612fea6020830185612732565b612ff76040830184612732565b949350505050565b60006080820190506130146000830187612732565b6130216020830186612732565b61302e6040830185612732565b61303b6060830184612732565b95945050505050565b6000819050919050565b61305f61305a826125f7565b613044565b82525050565b6000613071828461304e565b60208201915081905092915050565b60008160011c9050919050565b6000808291508390505b60018511156130d7578086048111156130b3576130b2612b4b565b5b60018516156130c25780820291505b80810290506130d085613080565b9450613097565b94509492505050565b6000826130f057600190506131ac565b816130fe57600090506131ac565b8160018114613114576002811461311e5761314d565b60019150506131ac565b60ff8411156131305761312f612b4b565b5b8360020a91508482111561314757613146612b4b565b5b506131ac565b5060208310610133831016604e8410600b84101617156131825782820a90508381111561317d5761317c612b4b565b5b6131ac565b61318f848484600161308d565b925090508184048111156131a6576131a5612b4b565b5b81810290505b9392505050565b60006131be826125f7565b91506131c9836125f7565b92506131f67fffffffffffffffffffffffffffffffffffffffffffffffffffffffffffffffff84846130e0565b905092915050565b7f4e487b7100000000000000000000000000000000000000000000000000000000600052604160045260246000fd5b6000613238826125f7565b9150613243836125f7565b9250828202613251816125f7565b9150828204841483151761326857613267612b4b565b5b5092915050565b600081905092915050565b613283816125f7565b82525050565b6000613295838361327a565b60208301905092915050565b6132aa81612bdd565b6132b4818461326f565b92506132bf82612bf3565b8060005b838110156132f05781516132d78782613289565b96506132e283612c24565b9250506001810190506132c3565b505050505050565b600060408201905061330d60008301846132a1565b92915050565b60008151905061332281612601565b92915050565b60006020828403121561333e5761333d6125ed565b5b600061334c84828501613313565b9150509291505056fea2646970667358221220bd467153adedb957571d77cab89a394e556c77ecdc723bd448dffda8c0bf8a2264736f6c63430008170033",
  "linkReferences": {
    "poseidon-solidity/PoseidonT3.sol": {
      "PoseidonT3": [
        {
          "length": 20,
          "start": 7299
        },
        {
          "length": 20,
          "start": 8173
        },
        {
          "length": 20,
          "start": 8961
        },
        {
          "length": 20,
          "start": 9128
        },
        {
          "length": 20,
          "start": 9433
        },
        {
          "length": 20,
          "start": 9600
        }
      ]
    }
  },
  "deployedLinkReferences": {
    "poseidon-solidity/PoseidonT3.sol": {
      "PoseidonT3": [
        {
          "length": 20,
          "start": 6980
        },
        {
          "length": 20,
          "start": 7854
        },
        {
          "length": 20,
          "start": 8642
        },
        {
          "length": 20,
          "start": 8809
        },
        {
          "length": 20,
          "start": 9114
        },
        {
          "length": 20,
          "start": 9281
        }
      ]
    }
  }
}