{
    "_format": "hh-sol-artifact-1",
    "contractName": "Semaphore",
    "sourceName": "contracts/Semaphore.sol",
    "abi": [
        {
            "inputs": [
                {
                    "internalType": "contract ISemaphoreVerifier",
                    "name": "_verifier",
                    "type": "address"
                }
            ],
            "stateMutability": "nonpayable",
            "type": "constructor"
        },
        {
            "inputs": [],
            "name": "LeafAlreadyExists",
            "type": "error"
        },
        {
            "inputs": [],
            "name": "LeafCannotBeZero",
            "type": "error"
        },
        {
            "inputs": [],
            "name": "LeafDoesNotExist",
            "type": "error"
        },
        {
            "inputs": [],
            "name": "LeafGreaterThanSnarkScalarField",
            "type": "error"
        },
        {
            "inputs": [],
            "name": "Semaphore__CallerIsNotTheGroupAdmin",
            "type": "error"
        },
        {
            "inputs": [],
            "name": "Semaphore__GroupAlreadyExists",
            "type": "error"
        },
        {
            "inputs": [],
            "name": "Semaphore__GroupDoesNotExist",
            "type": "error"
        },
        {
            "inputs": [],
            "name": "Semaphore__GroupHasNoMembers",
            "type": "error"
        },
        {
            "inputs": [],
            "name": "Semaphore__InvalidProof",
            "type": "error"
        },
        {
            "inputs": [],
            "name": "Semaphore__MerkleTreeDepthIsNotSupported",
            "type": "error"
        },
        {
            "inputs": [],
            "name": "Semaphore__MerkleTreeRootIsExpired",
            "type": "error"
        },
        {
            "inputs": [],
            "name": "Semaphore__MerkleTreeRootIsNotPartOfTheGroup",
            "type": "error"
        },
        {
            "inputs": [],
            "name": "Semaphore__YouAreUsingTheSameNullifierTwice",
            "type": "error"
        },
        {
            "inputs": [],
            "name": "WrongSiblingNodes",
            "type": "error"
        },
        {
            "anonymous": false,
            "inputs": [
                {
                    "indexed": true,
                    "internalType": "uint256",
                    "name": "groupId",
                    "type": "uint256"
                },
                {
                    "indexed": true,
                    "internalType": "address",
                    "name": "oldAdmin",
                    "type": "address"
                },
                {
                    "indexed": true,
                    "internalType": "address",
                    "name": "newAdmin",
                    "type": "address"
                }
            ],
            "name": "GroupAdminUpdated",
            "type": "event"
        },
        {
            "anonymous": false,
            "inputs": [
                {
                    "indexed": true,
                    "internalType": "uint256",
                    "name": "groupId",
                    "type": "uint256"
                }
            ],
            "name": "GroupCreated",
            "type": "event"
        },
        {
            "anonymous": false,
            "inputs": [
                {
                    "indexed": true,
                    "internalType": "uint256",
                    "name": "groupId",
                    "type": "uint256"
                },
                {
                    "indexed": false,
                    "internalType": "uint256",
                    "name": "oldMerkleTreeDuration",
                    "type": "uint256"
                },
                {
                    "indexed": false,
                    "internalType": "uint256",
                    "name": "newMerkleTreeDuration",
                    "type": "uint256"
                }
            ],
            "name": "GroupMerkleTreeDurationUpdated",
            "type": "event"
        },
        {
            "anonymous": false,
            "inputs": [
                {
                    "indexed": true,
                    "internalType": "uint256",
                    "name": "groupId",
                    "type": "uint256"
                },
                {
                    "indexed": false,
                    "internalType": "uint256",
                    "name": "index",
                    "type": "uint256"
                },
                {
                    "indexed": false,
                    "internalType": "uint256",
                    "name": "identityCommitment",
                    "type": "uint256"
                },
                {
                    "indexed": false,
                    "internalType": "uint256",
                    "name": "merkleTreeRoot",
                    "type": "uint256"
                }
            ],
            "name": "MemberAdded",
            "type": "event"
        },
        {
            "anonymous": false,
            "inputs": [
                {
                    "indexed": true,
                    "internalType": "uint256",
                    "name": "groupId",
                    "type": "uint256"
                },
                {
                    "indexed": false,
                    "internalType": "uint256",
                    "name": "index",
                    "type": "uint256"
                },
                {
                    "indexed": false,
                    "internalType": "uint256",
                    "name": "identityCommitment",
                    "type": "uint256"
                },
                {
                    "indexed": false,
                    "internalType": "uint256",
                    "name": "merkleTreeRoot",
                    "type": "uint256"
                }
            ],
            "name": "MemberRemoved",
            "type": "event"
        },
        {
            "anonymous": false,
            "inputs": [
                {
                    "indexed": true,
                    "internalType": "uint256",
                    "name": "groupId",
                    "type": "uint256"
                },
                {
                    "indexed": false,
                    "internalType": "uint256",
                    "name": "index",
                    "type": "uint256"
                },
                {
                    "indexed": false,
                    "internalType": "uint256",
                    "name": "identityCommitment",
                    "type": "uint256"
                },
                {
                    "indexed": false,
                    "internalType": "uint256",
                    "name": "newIdentityCommitment",
                    "type": "uint256"
                },
                {
                    "indexed": false,
                    "internalType": "uint256",
                    "name": "merkleTreeRoot",
                    "type": "uint256"
                }
            ],
            "name": "MemberUpdated",
            "type": "event"
        },
        {
            "anonymous": false,
            "inputs": [
                {
                    "indexed": true,
                    "internalType": "uint256",
                    "name": "groupId",
                    "type": "uint256"
                },
                {
                    "indexed": false,
                    "internalType": "uint256",
                    "name": "startIndex",
                    "type": "uint256"
                },
                {
                    "indexed": false,
                    "internalType": "uint256[]",
                    "name": "identityCommitments",
                    "type": "uint256[]"
                },
                {
                    "indexed": false,
                    "internalType": "uint256",
                    "name": "merkleTreeRoot",
                    "type": "uint256"
                }
            ],
            "name": "MembersAdded",
            "type": "event"
        },
        {
            "anonymous": false,
            "inputs": [
                {
                    "indexed": true,
                    "internalType": "uint256",
                    "name": "groupId",
                    "type": "uint256"
                },
                {
                    "indexed": false,
                    "internalType": "uint256",
                    "name": "merkleTreeDepth",
                    "type": "uint256"
                },
                {
                    "indexed": true,
                    "internalType": "uint256",
                    "name": "merkleTreeRoot",
                    "type": "uint256"
                },
                {
                    "indexed": false,
                    "internalType": "uint256",
                    "name": "nullifier",
                    "type": "uint256"
                },
                {
                    "indexed": false,
                    "internalType": "uint256",
                    "name": "message",
                    "type": "uint256"
                },
                {
                    "indexed": true,
                    "internalType": "uint256",
                    "name": "scope",
                    "type": "uint256"
                },
                {
                    "indexed": false,
                    "internalType": "uint256[8]",
                    "name": "points",
                    "type": "uint256[8]"
                }
            ],
            "name": "ProofValidated",
            "type": "event"
        },
        {
            "inputs": [
                {
                    "internalType": "uint256",
                    "name": "groupId",
                    "type": "uint256"
                },
                {
                    "internalType": "uint256",
                    "name": "identityCommitment",
                    "type": "uint256"
                }
            ],
            "name": "addMember",
            "outputs": [],
            "stateMutability": "nonpayable",
            "type": "function"
        },
        {
            "inputs": [
                {
                    "internalType": "uint256",
                    "name": "groupId",
                    "type": "uint256"
                },
                {
                    "internalType": "uint256[]",
                    "name": "identityCommitments",
                    "type": "uint256[]"
                }
            ],
            "name": "addMembers",
            "outputs": [],
            "stateMutability": "nonpayable",
            "type": "function"
        },
        {
            "inputs": [
                {
                    "internalType": "uint256",
                    "name": "groupId",
                    "type": "uint256"
                },
                {
                    "internalType": "address",
                    "name": "admin",
                    "type": "address"
                },
                {
                    "internalType": "uint256",
                    "name": "merkleTreeDuration",
                    "type": "uint256"
                }
            ],
            "name": "createGroup",
            "outputs": [],
            "stateMutability": "nonpayable",
            "type": "function"
        },
        {
            "inputs": [
                {
                    "internalType": "uint256",
                    "name": "groupId",
                    "type": "uint256"
                },
                {
                    "internalType": "address",
                    "name": "admin",
                    "type": "address"
                }
            ],
            "name": "createGroup",
            "outputs": [],
            "stateMutability": "nonpayable",
            "type": "function"
        },
        {
            "inputs": [
                {
                    "internalType": "uint256",
                    "name": "groupId",
                    "type": "uint256"
                }
            ],
            "name": "getGroupAdmin",
            "outputs": [
                {
                    "internalType": "address",
                    "name": "",
                    "type": "address"
                }
            ],
            "stateMutability": "view",
            "type": "function"
        },
        {
            "inputs": [
                {
                    "internalType": "uint256",
                    "name": "groupId",
                    "type": "uint256"
                }
            ],
            "name": "getMerkleTreeDepth",
            "outputs": [
                {
                    "internalType": "uint256",
                    "name": "",
                    "type": "uint256"
                }
            ],
            "stateMutability": "view",
            "type": "function"
        },
        {
            "inputs": [
                {
                    "internalType": "uint256",
                    "name": "groupId",
                    "type": "uint256"
                }
            ],
            "name": "getMerkleTreeRoot",
            "outputs": [
                {
                    "internalType": "uint256",
                    "name": "",
                    "type": "uint256"
                }
            ],
            "stateMutability": "view",
            "type": "function"
        },
        {
            "inputs": [
                {
                    "internalType": "uint256",
                    "name": "groupId",
                    "type": "uint256"
                }
            ],
            "name": "getMerkleTreeSize",
            "outputs": [
                {
                    "internalType": "uint256",
                    "name": "",
                    "type": "uint256"
                }
            ],
            "stateMutability": "view",
            "type": "function"
        },
        {
            "inputs": [
                {
                    "internalType": "uint256",
                    "name": "",
                    "type": "uint256"
                }
            ],
            "name": "groups",
            "outputs": [
                {
                    "internalType": "uint256",
                    "name": "merkleTreeDuration",
                    "type": "uint256"
                }
            ],
            "stateMutability": "view",
            "type": "function"
        },
        {
            "inputs": [
                {
                    "internalType": "uint256",
                    "name": "groupId",
                    "type": "uint256"
                },
                {
                    "internalType": "uint256",
                    "name": "identityCommitment",
                    "type": "uint256"
                }
            ],
            "name": "hasMember",
            "outputs": [
                {
                    "internalType": "bool",
                    "name": "",
                    "type": "bool"
                }
            ],
            "stateMutability": "view",
            "type": "function"
        },
        {
            "inputs": [
                {
                    "internalType": "uint256",
                    "name": "groupId",
                    "type": "uint256"
                },
                {
                    "internalType": "uint256",
                    "name": "identityCommitment",
                    "type": "uint256"
                }
            ],
            "name": "indexOf",
            "outputs": [
                {
                    "internalType": "uint256",
                    "name": "",
                    "type": "uint256"
                }
            ],
            "stateMutability": "view",
            "type": "function"
        },
        {
            "inputs": [
                {
                    "internalType": "uint256",
                    "name": "groupId",
                    "type": "uint256"
                },
                {
                    "internalType": "uint256",
                    "name": "identityCommitment",
                    "type": "uint256"
                },
                {
                    "internalType": "uint256[]",
                    "name": "merkleProofSiblings",
                    "type": "uint256[]"
                }
            ],
            "name": "removeMember",
            "outputs": [],
            "stateMutability": "nonpayable",
            "type": "function"
        },
        {
            "inputs": [
                {
                    "internalType": "uint256",
                    "name": "groupId",
                    "type": "uint256"
                },
                {
                    "internalType": "address",
                    "name": "newAdmin",
                    "type": "address"
                }
            ],
            "name": "updateGroupAdmin",
            "outputs": [],
            "stateMutability": "nonpayable",
            "type": "function"
        },
        {
            "inputs": [
                {
                    "internalType": "uint256",
                    "name": "groupId",
                    "type": "uint256"
                },
                {
                    "internalType": "uint256",
                    "name": "newMerkleTreeDuration",
                    "type": "uint256"
                }
            ],
            "name": "updateGroupMerkleTreeDuration",
            "outputs": [],
            "stateMutability": "nonpayable",
            "type": "function"
        },
        {
            "inputs": [
                {
                    "internalType": "uint256",
                    "name": "groupId",
                    "type": "uint256"
                },
                {
                    "internalType": "uint256",
                    "name": "identityCommitment",
                    "type": "uint256"
                },
                {
                    "internalType": "uint256",
                    "name": "newIdentityCommitment",
                    "type": "uint256"
                },
                {
                    "internalType": "uint256[]",
                    "name": "merkleProofSiblings",
                    "type": "uint256[]"
                }
            ],
            "name": "updateMember",
            "outputs": [],
            "stateMutability": "nonpayable",
            "type": "function"
        },
        {
            "inputs": [
                {
                    "internalType": "uint256",
                    "name": "groupId",
                    "type": "uint256"
                },
                {
                    "components": [
                        {
                            "internalType": "uint256",
                            "name": "merkleTreeDepth",
                            "type": "uint256"
                        },
                        {
                            "internalType": "uint256",
                            "name": "merkleTreeRoot",
                            "type": "uint256"
                        },
                        {
                            "internalType": "uint256",
                            "name": "nullifier",
                            "type": "uint256"
                        },
                        {
                            "internalType": "uint256",
                            "name": "message",
                            "type": "uint256"
                        },
                        {
                            "internalType": "uint256",
                            "name": "scope",
                            "type": "uint256"
                        },
                        {
                            "internalType": "uint256[8]",
                            "name": "points",
                            "type": "uint256[8]"
                        }
                    ],
                    "internalType": "struct ISemaphore.SemaphoreProof",
                    "name": "proof",
                    "type": "tuple"
                }
            ],
            "name": "validateProof",
            "outputs": [],
            "stateMutability": "nonpayable",
            "type": "function"
        },
        {
            "inputs": [],
            "name": "verifier",
            "outputs": [
                {
                    "internalType": "contract ISemaphoreVerifier",
                    "name": "",
                    "type": "address"
                }
            ],
            "stateMutability": "view",
            "type": "function"
        },
        {
            "inputs": [
                {
                    "internalType": "uint256",
                    "name": "groupId",
                    "type": "uint256"
                },
                {
                    "components": [
                        {
                            "internalType": "uint256",
                            "name": "merkleTreeDepth",
                            "type": "uint256"
                        },
                        {
                            "internalType": "uint256",
                            "name": "merkleTreeRoot",
                            "type": "uint256"
                        },
                        {
                            "internalType": "uint256",
                            "name": "nullifier",
                            "type": "uint256"
                        },
                        {
                            "internalType": "uint256",
                            "name": "message",
                            "type": "uint256"
                        },
                        {
                            "internalType": "uint256",
                            "name": "scope",
                            "type": "uint256"
                        },
                        {
                            "internalType": "uint256[8]",
                            "name": "points",
                            "type": "uint256[8]"
                        }
                    ],
                    "internalType": "struct ISemaphore.SemaphoreProof",
                    "name": "proof",
                    "type": "tuple"
                }
            ],
            "name": "verifyProof",
            "outputs": [
                {
                    "internalType": "bool",
                    "name": "",
                    "type": "bool"
                }
            ],
            "stateMutability": "view",
            "type": "function"
        }
    ],
    "bytecode": "0x60806040523480156200001157600080fd5b5060405162003559380380620035598339818101604052810190620000379190620000fd565b80600260006101000a81548173ffffffffffffffffffffffffffffffffffffffff021916908373ffffffffffffffffffffffffffffffffffffffff160217905550506200012f565b600080fd5b600073ffffffffffffffffffffffffffffffffffffffff82169050919050565b6000620000b18262000084565b9050919050565b6000620000c582620000a4565b9050919050565b620000d781620000b8565b8114620000e357600080fd5b50565b600081519050620000f781620000cc565b92915050565b6000602082840312156200011657620001156200007f565b5b60006200012684828501620000e6565b91505092915050565b61341a806200013f6000396000f3fe608060405234801561001057600080fd5b50600436106101165760003560e01c80637ee35a0c116100a2578063b180517911610071578063b180517914610315578063c96e71fb14610331578063d0d898dd1461034d578063dabc4d5114610369578063fcf0b6ec1461039957610116565b80637ee35a0c1461025557806390509d441461028557806396324bd4146102b5578063a9961c94146102e557610116565b80634178c4d5116100e95780634178c4d5146101a1578063456f4188146101bd578063568ee826146101ed5780636389e107146102095780636cdd32fe1461023957610116565b8063042453711461011b57806306dd8485146101375780631783efc3146101675780632b7ac3f314610183575b600080fd5b61013560048036038101906101309190612756565b6103b5565b005b610151600480360381019061014c91906127b6565b6103ff565b60405161015e9190612805565b60405180910390f35b610181600480360381019061017c91906127b6565b61042d565b005b61018b610475565b604051610198919061289f565b60405180910390f35b6101bb60048036038101906101b691906128ba565b61049b565b005b6101d760048036038101906101d29190612967565b6104e9565b6040516101e491906129c3565b60405180910390f35b61020760048036038101906102029190612a1c565b61092e565b005b610223600480360381019061021e9190612a5c565b61093c565b6040516102309190612805565b60405180910390f35b610253600480360381019061024e9190612a89565b61095b565b005b61026f600480360381019061026a9190612a5c565b6109a7565b60405161027c9190612805565b60405180910390f35b61029f600480360381019061029a91906127b6565b6109c6565b6040516102ac91906129c3565b60405180910390f35b6102cf60048036038101906102ca9190612a5c565b6109f4565b6040516102dc9190612805565b60405180910390f35b6102ff60048036038101906102fa9190612a5c565b610a12565b60405161030c9190612b0c565b60405180910390f35b61032f600480360381019061032a9190612b27565b610a4f565b005b61034b60048036038101906103469190612a1c565b610a79565b005b61036760048036038101906103629190612967565b610aa4565b005b610383600480360381019061037e9190612a5c565b610c8e565b6040516103909190612805565b60405180910390f35b6103b360048036038101906103ae91906127b6565b610cb1565b005b6103c0838383610e5b565b60006103cb84610c8e565b9050426003600086815260200190815260200160002060010160008381526020019081526020016000208190555050505050565b600061042582600080868152602001908152602001600020610ed790919063ffffffff16565b905092915050565b6104378282610f03565b600061044283610c8e565b90504260036000858152602001908152602001600020600101600083815260200190815260200160002081905550505050565b600260009054906101000a900473ffffffffffffffffffffffffffffffffffffffff1681565b6104a885858585856110af565b60006104b386610c8e565b90504260036000888152602001908152602001600020600101600083815260200190815260200160002081905550505050505050565b600082600073ffffffffffffffffffffffffffffffffffffffff166001600083815260200190815260200160002060009054906101000a900473ffffffffffffffffffffffffffffffffffffffff1673ffffffffffffffffffffffffffffffffffffffff1603610585576040517f029f057900000000000000000000000000000000000000000000000000000000815260040160405180910390fd5b60018360000135108061059c5750600c8360000135115b156105d3576040517fecf64f1200000000000000000000000000000000000000000000000000000000815260040160405180910390fd5b60006105de856109a7565b90506000810361061a576040517fc8b02e0100000000000000000000000000000000000000000000000000000000815260040160405180910390fd5b600061062586610c8e565b9050808560200135146106ff57600060036000888152602001908152602001600020600101600087602001358152602001908152602001600020549050600060036000898152602001908152602001600020600001549050600082036106b7576040517f4d32958600000000000000000000000000000000000000000000000000000000815260040160405180910390fd5b80826106c39190612ba9565b4211156106fc576040517f9581a99000000000000000000000000000000000000000000000000000000000815260040160405180910390fd5b50505b600260009054906101000a900473ffffffffffffffffffffffffffffffffffffffff1673ffffffffffffffffffffffffffffffffffffffff1663a23f019960405180604001604052808860a00160006008811061075f5761075e612bdd565b5b602002013581526020018860a0016001600881106107805761077f612bdd565b5b6020020135815250604051806040016040528060405180604001604052808b60a0016002600881106107b5576107b4612bdd565b5b602002013581526020018b60a0016003600881106107d6576107d5612bdd565b5b6020020135815250815260200160405180604001604052808b60a00160046008811061080557610804612bdd565b5b602002013581526020018b60a00160056008811061082657610825612bdd565b5b602002013581525081525060405180604001604052808a60a00160066008811061085357610852612bdd565b5b602002013581526020018a60a00160076008811061087457610873612bdd565b5b602002013581525060405180608001604052808b6020013581526020018b6040013581526020016108a88c60600135611281565b81526020016108ba8c60800135611281565b8152508a600001356040518663ffffffff1660e01b81526004016108e2959493929190612e39565b602060405180830381865afa1580156108ff573d6000803e3d6000fd5b505050506040513d601f19601f820116820180604052508101906109239190612ebb565b935050505092915050565b61093882826112b8565b5050565b6000806000838152602001908152602001600020600101549050919050565b6109678484848461149e565b600061097285610c8e565b905042600360008781526020019081526020016000206001016000838152602001908152602001600020819055505050505050565b6000806000838152602001908152602001600020600001549050919050565b60006109ec8260008086815260200190815260200160002061166b90919063ffffffff16565b905092915050565b60036020528060005260406000206000915090508060000154905081565b60006001600083815260200190815260200160002060009054906101000a900473ffffffffffffffffffffffffffffffffffffffff169050919050565b610a59838361168e565b806003600085815260200190815260200160002060000181905550505050565b610a83828261168e565b610e1060036000848152602001908152602001600020600001819055505050565b81600073ffffffffffffffffffffffffffffffffffffffff166001600083815260200190815260200160002060009054906101000a900473ffffffffffffffffffffffffffffffffffffffff1673ffffffffffffffffffffffffffffffffffffffff1603610b3e576040517f029f057900000000000000000000000000000000000000000000000000000000815260040160405180910390fd5b6003600084815260200190815260200160002060020160008360400135815260200190815260200160002060009054906101000a900460ff1615610bae576040517f208b15e800000000000000000000000000000000000000000000000000000000815260040160405180910390fd5b610bb883836104e9565b610bee576040517f4aa6bc4000000000000000000000000000000000000000000000000000000000815260040160405180910390fd5b60016003600085815260200190815260200160002060020160008460400135815260200190815260200160002060006101000a81548160ff02191690831515021790555081608001358260200135847f0c32e14cfe81a05d371c248d22de6b7ae849e981b76a1f8842e7b6da73fc405a8560000135866040013587606001358860a001604051610c819493929190612f02565b60405180910390a4505050565b6000610caa600080848152602001908152602001600020611806565b9050919050565b81600073ffffffffffffffffffffffffffffffffffffffff166001600083815260200190815260200160002060009054906101000a900473ffffffffffffffffffffffffffffffffffffffff1673ffffffffffffffffffffffffffffffffffffffff1603610d4b576040517f029f057900000000000000000000000000000000000000000000000000000000815260040160405180910390fd5b823373ffffffffffffffffffffffffffffffffffffffff166001600083815260200190815260200160002060009054906101000a900473ffffffffffffffffffffffffffffffffffffffff1673ffffffffffffffffffffffffffffffffffffffff1614610de4576040517fbb9bf27800000000000000000000000000000000000000000000000000000000815260040160405180910390fd5b600060036000868152602001908152602001600020600001549050836003600087815260200190815260200160002060000181905550847f264b2a8f6763c084235fe832ba903482b2ef1a521336881fc75b987c2dfd29c58286604051610e4c929190612f48565b60405180910390a25050505050565b6000610e66846109a7565b90506000610e9084846000808981526020019081526020016000206118299092919063ffffffff16565b9050847f61e5e8054e3daf084a0c6c646c065e8bf5e7ca4d5567bda942309bd1652f349d83868685604051610ec89493929190612fe3565b60405180910390a25050505050565b6000600183600301600084815260200190815260200160002054610efb9190613023565b905092915050565b81600073ffffffffffffffffffffffffffffffffffffffff166001600083815260200190815260200160002060009054906101000a900473ffffffffffffffffffffffffffffffffffffffff1673ffffffffffffffffffffffffffffffffffffffff1603610f9d576040517f029f057900000000000000000000000000000000000000000000000000000000815260040160405180910390fd5b823373ffffffffffffffffffffffffffffffffffffffff166001600083815260200190815260200160002060009054906101000a900473ffffffffffffffffffffffffffffffffffffffff1673ffffffffffffffffffffffffffffffffffffffff1614611036576040517fbb9bf27800000000000000000000000000000000000000000000000000000000815260040160405180910390fd5b6000611041856109a7565b9050600061106985600080898152602001908152602001600020611e2690919063ffffffff16565b9050857f19239b3f93cd10558aaf11423af70c77763bf54f52bcc75bfa74d4d13548cde983878460405161109f93929190613057565b60405180910390a2505050505050565b84600073ffffffffffffffffffffffffffffffffffffffff166001600083815260200190815260200160002060009054906101000a900473ffffffffffffffffffffffffffffffffffffffff1673ffffffffffffffffffffffffffffffffffffffff1603611149576040517f029f057900000000000000000000000000000000000000000000000000000000815260040160405180910390fd5b853373ffffffffffffffffffffffffffffffffffffffff166001600083815260200190815260200160002060009054906101000a900473ffffffffffffffffffffffffffffffffffffffff1673ffffffffffffffffffffffffffffffffffffffff16146111e2576040517fbb9bf27800000000000000000000000000000000000000000000000000000000815260040160405180910390fd5b6000611208876000808b8152602001908152602001600020610ed790919063ffffffff16565b90506000611236888888886000808f81526020019081526020016000206120a290949392919063ffffffff16565b9050887fea3588e4a2a0c93d6a0e69dfeaf7496f43ccccf02ad9ce0a5b7627cbca4b61b1838a8a8560405161126e949392919061308e565b60405180910390a2505050505050505050565b600060088260405160200161129691906130f4565b6040516020818303038152906040528051906020012060001c901c9050919050565b81600073ffffffffffffffffffffffffffffffffffffffff166001600083815260200190815260200160002060009054906101000a900473ffffffffffffffffffffffffffffffffffffffff1673ffffffffffffffffffffffffffffffffffffffff1603611352576040517f029f057900000000000000000000000000000000000000000000000000000000815260040160405180910390fd5b823373ffffffffffffffffffffffffffffffffffffffff166001600083815260200190815260200160002060009054906101000a900473ffffffffffffffffffffffffffffffffffffffff1673ffffffffffffffffffffffffffffffffffffffff16146113eb576040517fbb9bf27800000000000000000000000000000000000000000000000000000000815260040160405180910390fd5b826001600086815260200190815260200160002060006101000a81548173ffffffffffffffffffffffffffffffffffffffff021916908373ffffffffffffffffffffffffffffffffffffffff1602179055508273ffffffffffffffffffffffffffffffffffffffff163373ffffffffffffffffffffffffffffffffffffffff16857f0ba83579a0e79193ef649b9f5a8759d35af086ba62a3e207b52e4a8ae30d49e360405160405180910390a450505050565b83600073ffffffffffffffffffffffffffffffffffffffff166001600083815260200190815260200160002060009054906101000a900473ffffffffffffffffffffffffffffffffffffffff1673ffffffffffffffffffffffffffffffffffffffff1603611538576040517f029f057900000000000000000000000000000000000000000000000000000000815260040160405180910390fd5b843373ffffffffffffffffffffffffffffffffffffffff166001600083815260200190815260200160002060009054906101000a900473ffffffffffffffffffffffffffffffffffffffff1673ffffffffffffffffffffffffffffffffffffffff16146115d1576040517fbb9bf27800000000000000000000000000000000000000000000000000000000815260040160405180910390fd5b60006115f7866000808a8152602001908152602001600020610ed790919063ffffffff16565b905060006116238787876000808d8152602001908152602001600020612697909392919063ffffffff16565b9050877f3108849c053c77b8073a11256dffb5ffd5b55e93e105a355e1c9061db890d87183898460405161165993929190613057565b60405180910390a25050505050505050565b600080836003016000848152602001908152602001600020541415905092915050565b600073ffffffffffffffffffffffffffffffffffffffff166001600084815260200190815260200160002060009054906101000a900473ffffffffffffffffffffffffffffffffffffffff1673ffffffffffffffffffffffffffffffffffffffff1614611727576040517f8121725b00000000000000000000000000000000000000000000000000000000815260040160405180910390fd5b806001600084815260200190815260200160002060006101000a81548173ffffffffffffffffffffffffffffffffffffffff021916908373ffffffffffffffffffffffffffffffffffffffff160217905550817ff0adfb94eab6daf835deb69c5738fe636150c3dfd08094a76f39b963dc8cb05a60405160405180910390a28073ffffffffffffffffffffffffffffffffffffffff16600073ffffffffffffffffffffffffffffffffffffffff16837f0ba83579a0e79193ef649b9f5a8759d35af086ba62a3e207b52e4a8ae30d49e360405160405180910390a45050565b600081600201600083600101548152602001908152602001600020549050919050565b600080600090505b838390508110156119b4577f30644e72e131a029b85045b68181585d2833e84879b9709143e1f593f00000018484838181106118705761186f612bdd565b5b90506020020135106118ae576040517fc380a82e00000000000000000000000000000000000000000000000000000000815260040160405180910390fd5b60008484838181106118c3576118c2612bdd565b5b9050602002013503611901576040517f29691be200000000000000000000000000000000000000000000000000000000815260040160405180910390fd5b6119248585858481811061191857611917612bdd565b5b9050602002013561166b565b1561195b576040517f258a195a00000000000000000000000000000000000000000000000000000000815260040160405180910390fd5b806001866000015461196d9190612ba9565b6119779190612ba9565b8560030160008686858181106119905761198f612bdd565b5b90506020020135815260200190815260200160002081905550806001019050611831565b506060838380806020026020016040519081016040528093929190818152602001838360200280828437600081840152601f19601f8201169050808301925050505050505090505b838390508560000154611a0f9190612ba9565b85600101546002611a209190613242565b1015611a47576001856001016000828254611a3b9190612ba9565b925050819055506119fc565b6000856000015490506000858590508760000154611a659190612ba9565b90506000600183901c90506000600180600185611a829190613023565b901c611a8e9190612ba9565b905060005b8960010154811015611da45760008383611aad9190613023565b905060008167ffffffffffffffff811115611acb57611aca61328d565b5b604051908082528060200260200182016040528015611af95781602001602082028036833780820191505090505b50905060005b82811015611ccb5760008088600160028a86611b1b9190612ba9565b611b2591906132bc565b611b2f9190612ba9565b1015611b81578a8a600160028b87611b479190612ba9565b611b5191906132bc565b611b5b9190612ba9565b611b659190613023565b81518110611b7657611b75612bdd565b5b602002602001015191505b8960028985611b909190612ba9565b611b9a91906132bc565b1015611bbd578e6002016000878152602001908152602001600020549050611bfd565b8a8a60028a86611bcd9190612ba9565b611bd791906132bc565b611be19190613023565b81518110611bf257611bf1612bdd565b5b602002602001015190505b6000808314611c995773__$75f79a42d9bcbdbb69ad79ebd80f556f39$__63561558fe6040518060400160405280858152602001868152506040518263ffffffff1660e01b8152600401611c519190613387565b602060405180830381865af4158015611c6e573d6000803e3d6000fd5b505050506040513d601f19601f82011682018060405250810190611c9291906133b7565b9050611c9d565b8190505b80858581518110611cb157611cb0612bdd565b5b602002602001018181525050836001019350505050611aff565b50600180871603611d1c578760018951611ce59190613023565b81518110611cf657611cf5612bdd565b5b60200260200101518c600201600085815260200190815260200160002081905550611d69565b600188511115611d68578760028951611d359190613023565b81518110611d4657611d45612bdd565b5b60200260200101518c6002016000858152602001908152602001600020819055505b5b849650600185901c9450809750839550600180600186611d899190613023565b901c611d959190612ba9565b93508260010192505050611a93565b5087879050896000016000828254611dbc9190612ba9565b9250508190555084600081518110611dd757611dd6612bdd565b5b60200260200101518960020160008b6001015481526020019081526020016000208190555084600081518110611e1057611e0f612bdd565b5b6020026020010151955050505050509392505050565b60007f30644e72e131a029b85045b68181585d2833e84879b9709143e1f593f00000018210611e81576040517fc380a82e00000000000000000000000000000000000000000000000000000000815260040160405180910390fd5b60008203611ebb576040517f29691be200000000000000000000000000000000000000000000000000000000815260040160405180910390fd5b611ec5838361166b565b15611efc576040517f258a195a00000000000000000000000000000000000000000000000000000000815260040160405180910390fd5b5b60018360000154611f0e9190612ba9565b83600101546002611f1f9190613242565b1015611f46576001836001016000828254611f3a9190612ba9565b92505081905550611efd565b600083600001549050600083905060005b856001015481101561203e576001808285901c16036120185773__$75f79a42d9bcbdbb69ad79ebd80f556f39$__63561558fe6040518060400160405280896002016000868152602001908152602001600020548152602001858152506040518263ffffffff1660e01b8152600401611fd09190613387565b602060405180830381865af4158015611fed573d6000803e3d6000fd5b505050506040513d601f19601f8201168201806040525081019061201191906133b7565b9150612033565b81866002016000838152602001908152602001600020819055505b806001019050611f57565b5060018560000160008282546120549190612ba9565b92505081905550808560020160008760010154815260200190815260200160002081905550846000015485600301600086815260200190815260200160002081905550809250505092915050565b60007f30644e72e131a029b85045b68181585d2833e84879b9709143e1f593f000000184106120fd576040517fc380a82e00000000000000000000000000000000000000000000000000000000815260040160405180910390fd5b612107868661166b565b61213d576040517f7204756c00000000000000000000000000000000000000000000000000000000815260040160405180910390fd5b600084141580156121545750612153868561166b565b5b1561218b576040517f258a195a00000000000000000000000000000000000000000000000000000000815260040160405180910390fd5b600083839050036121c8576040517f3fa930c600000000000000000000000000000000000000000000000000000000815260040160405180910390fd5b60006121d48787610ed7565b905060008590506000879050600060018a600001546121f39190613023565b90506000805b8b600101548110156125dc576001808288901c16036123dd577f30644e72e131a029b85045b68181585d2833e84879b9709143e1f593f000000189898481811061224657612245612bdd565b5b9050602002013510612284576040517fc380a82e00000000000000000000000000000000000000000000000000000000815260040160405180910390fd5b73__$75f79a42d9bcbdbb69ad79ebd80f556f39$__63561558fe60405180604001604052808c8c878181106122bc576122bb612bdd565b5b905060200201358152602001888152506040518263ffffffff1660e01b81526004016122e89190613387565b602060405180830381865af4158015612305573d6000803e3d6000fd5b505050506040513d601f19601f8201168201806040525081019061232991906133b7565b945073__$75f79a42d9bcbdbb69ad79ebd80f556f39$__63561558fe60405180604001604052808c8c8781811061236357612362612bdd565b5b905060200201358152602001878152506040518263ffffffff1660e01b815260040161238f9190613387565b602060405180830381865af41580156123ac573d6000803e3d6000fd5b505050506040513d601f19601f820116820180604052508101906123d091906133b7565b93508160010191506125d1565b8083901c8187901c146125b5577f30644e72e131a029b85045b68181585d2833e84879b9709143e1f593f000000189898481811061241e5761241d612bdd565b5b905060200201351061245c576040517fc380a82e00000000000000000000000000000000000000000000000000000000815260040160405180910390fd5b73__$75f79a42d9bcbdbb69ad79ebd80f556f39$__63561558fe60405180604001604052808881526020018c8c8781811061249a57612499612bdd565b5b905060200201358152506040518263ffffffff1660e01b81526004016124c09190613387565b602060405180830381865af41580156124dd573d6000803e3d6000fd5b505050506040513d601f19601f8201168201806040525081019061250191906133b7565b945073__$75f79a42d9bcbdbb69ad79ebd80f556f39$__63561558fe60405180604001604052808781526020018c8c8781811061254157612540612bdd565b5b905060200201358152506040518263ffffffff1660e01b81526004016125679190613387565b602060405180830381865af4158015612584573d6000803e3d6000fd5b505050506040513d601f19601f820116820180604052508101906125a891906133b7565b93508160010191506125d0565b848c6002016000848152602001908152602001600020819055505b5b8060010190506121f9565b506125e68b611806565b831461261e576040517f3fa930c600000000000000000000000000000000000000000000000000000000815260040160405180910390fd5b838b60020160008d600101548152602001908152602001600020819055508a60030160008b8152602001908152602001600020548b60030160008b81526020019081526020016000208190555060008b60030160008c815260200190815260200160002081905550839550505050505095945050505050565b60006126a78585600086866120a2565b9050949350505050565b600080fd5b600080fd5b6000819050919050565b6126ce816126bb565b81146126d957600080fd5b50565b6000813590506126eb816126c5565b92915050565b600080fd5b600080fd5b600080fd5b60008083601f840112612716576127156126f1565b5b8235905067ffffffffffffffff811115612733576127326126f6565b5b60208301915083602082028301111561274f5761274e6126fb565b5b9250929050565b60008060006040848603121561276f5761276e6126b1565b5b600061277d868287016126dc565b935050602084013567ffffffffffffffff81111561279e5761279d6126b6565b5b6127aa86828701612700565b92509250509250925092565b600080604083850312156127cd576127cc6126b1565b5b60006127db858286016126dc565b92505060206127ec858286016126dc565b9150509250929050565b6127ff816126bb565b82525050565b600060208201905061281a60008301846127f6565b92915050565b600073ffffffffffffffffffffffffffffffffffffffff82169050919050565b6000819050919050565b600061286561286061285b84612820565b612840565b612820565b9050919050565b60006128778261284a565b9050919050565b60006128898261286c565b9050919050565b6128998161287e565b82525050565b60006020820190506128b46000830184612890565b92915050565b6000806000806000608086880312156128d6576128d56126b1565b5b60006128e4888289016126dc565b95505060206128f5888289016126dc565b9450506040612906888289016126dc565b935050606086013567ffffffffffffffff811115612927576129266126b6565b5b61293388828901612700565b92509250509295509295909350565b600080fd5b60006101a0828403121561295e5761295d612942565b5b81905092915050565b6000806101c0838503121561297f5761297e6126b1565b5b600061298d858286016126dc565b925050602061299e85828601612947565b9150509250929050565b60008115159050919050565b6129bd816129a8565b82525050565b60006020820190506129d860008301846129b4565b92915050565b60006129e982612820565b9050919050565b6129f9816129de565b8114612a0457600080fd5b50565b600081359050612a16816129f0565b92915050565b60008060408385031215612a3357612a326126b1565b5b6000612a41858286016126dc565b9250506020612a5285828601612a07565b9150509250929050565b600060208284031215612a7257612a716126b1565b5b6000612a80848285016126dc565b91505092915050565b60008060008060608587031215612aa357612aa26126b1565b5b6000612ab1878288016126dc565b9450506020612ac2878288016126dc565b935050604085013567ffffffffffffffff811115612ae357612ae26126b6565b5b612aef87828801612700565b925092505092959194509250565b612b06816129de565b82525050565b6000602082019050612b216000830184612afd565b92915050565b600080600060608486031215612b4057612b3f6126b1565b5b6000612b4e868287016126dc565b9350506020612b5f86828701612a07565b9250506040612b70868287016126dc565b9150509250925092565b7f4e487b7100000000000000000000000000000000000000000000000000000000600052601160045260246000fd5b6000612bb4826126bb565b9150612bbf836126bb565b9250828201905080821115612bd757612bd6612b7a565b5b92915050565b7f4e487b7100000000000000000000000000000000000000000000000000000000600052603260045260246000fd5b600060029050919050565b600081905092915050565b6000819050919050565b612c35816126bb565b82525050565b6000612c478383612c2c565b60208301905092915050565b6000602082019050919050565b612c6981612c0c565b612c738184612c17565b9250612c7e82612c22565b8060005b83811015612caf578151612c968782612c3b565b9650612ca183612c53565b925050600181019050612c82565b505050505050565b600060029050919050565b600081905092915050565b6000819050919050565b600081905092915050565b612ceb81612c0c565b612cf58184612cd7565b9250612d0082612c22565b8060005b83811015612d31578151612d188782612c3b565b9650612d2383612c53565b925050600181019050612d04565b505050505050565b6000612d458383612ce2565b60408301905092915050565b6000602082019050919050565b612d6781612cb7565b612d718184612cc2565b9250612d7c82612ccd565b8060005b83811015612dad578151612d948782612d39565b9650612d9f83612d51565b925050600181019050612d80565b505050505050565b600060049050919050565b600081905092915050565b6000819050919050565b6000602082019050919050565b612deb81612db5565b612df58184612dc0565b9250612e0082612dcb565b8060005b83811015612e31578151612e188782612c3b565b9650612e2383612dd5565b925050600181019050612e04565b505050505050565b60006101a082019050612e4f6000830188612c60565b612e5c6040830187612d5e565b612e6960c0830186612c60565b612e77610100830185612de2565b612e856101808301846127f6565b9695505050505050565b612e98816129a8565b8114612ea357600080fd5b50565b600081519050612eb581612e8f565b92915050565b600060208284031215612ed157612ed06126b1565b5b6000612edf84828501612ea6565b91505092915050565b82818337505050565b612efe6101008383612ee8565b5050565b600061016082019050612f1860008301876127f6565b612f2560208301866127f6565b612f3260408301856127f6565b612f3f6060830184612ef1565b95945050505050565b6000604082019050612f5d60008301856127f6565b612f6a60208301846127f6565b9392505050565b600082825260208201905092915050565b600080fd5b6000612f938385612f71565b93507f07ffffffffffffffffffffffffffffffffffffffffffffffffffffffffffffff831115612fc657612fc5612f82565b5b602083029250612fd7838584612ee8565b82840190509392505050565b6000606082019050612ff860008301876127f6565b818103602083015261300b818587612f87565b905061301a60408301846127f6565b95945050505050565b600061302e826126bb565b9150613039836126bb565b925082820390508181111561305157613050612b7a565b5b92915050565b600060608201905061306c60008301866127f6565b61307960208301856127f6565b61308660408301846127f6565b949350505050565b60006080820190506130a360008301876127f6565b6130b060208301866127f6565b6130bd60408301856127f6565b6130ca60608301846127f6565b95945050505050565b6000819050919050565b6130ee6130e9826126bb565b6130d3565b82525050565b600061310082846130dd565b60208201915081905092915050565b60008160011c9050919050565b6000808291508390505b60018511156131665780860481111561314257613141612b7a565b5b60018516156131515780820291505b808102905061315f8561310f565b9450613126565b94509492505050565b60008261317f576001905061323b565b8161318d576000905061323b565b81600181146131a357600281146131ad576131dc565b600191505061323b565b60ff8411156131bf576131be612b7a565b5b8360020a9150848211156131d6576131d5612b7a565b5b5061323b565b5060208310610133831016604e8410600b84101617156132115782820a90508381111561320c5761320b612b7a565b5b61323b565b61321e848484600161311c565b9250905081840481111561323557613234612b7a565b5b81810290505b9392505050565b600061324d826126bb565b9150613258836126bb565b92506132857fffffffffffffffffffffffffffffffffffffffffffffffffffffffffffffffff848461316f565b905092915050565b7f4e487b7100000000000000000000000000000000000000000000000000000000600052604160045260246000fd5b60006132c7826126bb565b91506132d2836126bb565b92508282026132e0816126bb565b915082820484148315176132f7576132f6612b7a565b5b5092915050565b600081905092915050565b613312816126bb565b82525050565b60006133248383613309565b60208301905092915050565b61333981612c0c565b61334381846132fe565b925061334e82612c22565b8060005b8381101561337f5781516133668782613318565b965061337183612c53565b925050600181019050613352565b505050505050565b600060408201905061339c6000830184613330565b92915050565b6000815190506133b1816126c5565b92915050565b6000602082840312156133cd576133cc6126b1565b5b60006133db848285016133a2565b9150509291505056fea26469706673582212203293c3b6e3ca144799c7f25fa4dac9e509e5056ef370283b9f694d76cd9eeb5a64736f6c63430008170033",
    "linkReferences": {
        "poseidon-solidity/PoseidonT3.sol": {
            "PoseidonT3": [
                {
                    "length": 20,
                    "start": 7495
                },
                {
                    "length": 20,
                    "start": 8369
                },
                {
                    "length": 20,
                    "start": 9157
                },
                {
                    "length": 20,
                    "start": 9324
                },
                {
                    "length": 20,
                    "start": 9629
                },
                {
                    "length": 20,
                    "start": 9796
                }
            ]
        }
    },
    "deployedLinkReferences": {
        "poseidon-solidity/PoseidonT3.sol": {
            "PoseidonT3": [
                {
                    "length": 20,
                    "start": 7176
                },
                {
                    "length": 20,
                    "start": 8050
                },
                {
                    "length": 20,
                    "start": 8838
                },
                {
                    "length": 20,
                    "start": 9005
                },
                {
                    "length": 20,
                    "start": 9310
                },
                {
                    "length": 20,
                    "start": 9477
                }
            ]
        }
    }
}