{
  "_format": "hh-sol-artifact-1",
  "contractName": "Semaphore",
  "sourceName": "contracts/Semaphore.sol",
  "abi": [
    {
      "inputs": [
        {
          "internalType": "contract ISemaphoreVerifier",
          "name": "_verifier",
          "type": "address"
        }
      ],
      "stateMutability": "nonpayable",
      "type": "constructor"
    },
    {
      "inputs": [],
      "name": "LeafAlreadyExists",
      "type": "error"
    },
    {
      "inputs": [],
      "name": "LeafCannotBeZero",
      "type": "error"
    },
    {
      "inputs": [],
      "name": "LeafDoesNotExist",
      "type": "error"
    },
    {
      "inputs": [],
      "name": "LeafGreaterThanSnarkScalarField",
      "type": "error"
    },
    {
      "inputs": [],
      "name": "Semaphore__CallerIsNotTheGroupAdmin",
      "type": "error"
    },
    {
      "inputs": [],
      "name": "Semaphore__GroupAlreadyExists",
      "type": "error"
    },
    {
      "inputs": [],
      "name": "Semaphore__GroupDoesNotExist",
      "type": "error"
    },
    {
      "inputs": [],
      "name": "Semaphore__GroupHasNoMembers",
      "type": "error"
    },
    {
      "inputs": [],
      "name": "Semaphore__InvalidProof",
      "type": "error"
    },
    {
      "inputs": [],
      "name": "Semaphore__MerkleTreeDepthIsNotSupported",
      "type": "error"
    },
    {
      "inputs": [],
      "name": "Semaphore__MerkleTreeRootIsExpired",
      "type": "error"
    },
    {
      "inputs": [],
      "name": "Semaphore__MerkleTreeRootIsNotPartOfTheGroup",
      "type": "error"
    },
    {
      "inputs": [],
      "name": "Semaphore__YouAreUsingTheSameNullifierTwice",
      "type": "error"
    },
    {
      "inputs": [],
      "name": "WrongSiblingNodes",
      "type": "error"
    },
    {
      "anonymous": false,
      "inputs": [
        {
          "indexed": true,
          "internalType": "uint256",
          "name": "groupId",
          "type": "uint256"
        },
        {
          "indexed": true,
          "internalType": "address",
          "name": "oldAdmin",
          "type": "address"
        },
        {
          "indexed": true,
          "internalType": "address",
          "name": "newAdmin",
          "type": "address"
        }
      ],
      "name": "GroupAdminUpdated",
      "type": "event"
    },
    {
      "anonymous": false,
      "inputs": [
        {
          "indexed": true,
          "internalType": "uint256",
          "name": "groupId",
          "type": "uint256"
        }
      ],
      "name": "GroupCreated",
      "type": "event"
    },
    {
      "anonymous": false,
      "inputs": [
        {
          "indexed": true,
          "internalType": "uint256",
          "name": "groupId",
          "type": "uint256"
        },
        {
          "indexed": false,
          "internalType": "uint256",
          "name": "oldMerkleTreeDuration",
          "type": "uint256"
        },
        {
          "indexed": false,
          "internalType": "uint256",
          "name": "newMerkleTreeDuration",
          "type": "uint256"
        }
      ],
      "name": "GroupMerkleTreeDurationUpdated",
      "type": "event"
    },
    {
      "anonymous": false,
      "inputs": [
        {
          "indexed": true,
          "internalType": "uint256",
          "name": "groupId",
          "type": "uint256"
        },
        {
          "indexed": false,
          "internalType": "uint256",
          "name": "index",
          "type": "uint256"
        },
        {
          "indexed": false,
          "internalType": "uint256",
          "name": "identityCommitment",
          "type": "uint256"
        },
        {
          "indexed": false,
          "internalType": "uint256",
          "name": "merkleTreeRoot",
          "type": "uint256"
        }
      ],
      "name": "MemberAdded",
      "type": "event"
    },
    {
      "anonymous": false,
      "inputs": [
        {
          "indexed": true,
          "internalType": "uint256",
          "name": "groupId",
          "type": "uint256"
        },
        {
          "indexed": false,
          "internalType": "uint256",
          "name": "index",
          "type": "uint256"
        },
        {
          "indexed": false,
          "internalType": "uint256",
          "name": "identityCommitment",
          "type": "uint256"
        },
        {
          "indexed": false,
          "internalType": "uint256",
          "name": "merkleTreeRoot",
          "type": "uint256"
        }
      ],
      "name": "MemberRemoved",
      "type": "event"
    },
    {
      "anonymous": false,
      "inputs": [
        {
          "indexed": true,
          "internalType": "uint256",
          "name": "groupId",
          "type": "uint256"
        },
        {
          "indexed": false,
          "internalType": "uint256",
          "name": "index",
          "type": "uint256"
        },
        {
          "indexed": false,
          "internalType": "uint256",
          "name": "identityCommitment",
          "type": "uint256"
        },
        {
          "indexed": false,
          "internalType": "uint256",
          "name": "newIdentityCommitment",
          "type": "uint256"
        },
        {
          "indexed": false,
          "internalType": "uint256",
          "name": "merkleTreeRoot",
          "type": "uint256"
        }
      ],
      "name": "MemberUpdated",
      "type": "event"
    },
    {
      "anonymous": false,
      "inputs": [
        {
          "indexed": true,
          "internalType": "uint256",
          "name": "groupId",
          "type": "uint256"
        },
        {
          "indexed": false,
          "internalType": "uint256",
          "name": "startIndex",
          "type": "uint256"
        },
        {
          "indexed": false,
          "internalType": "uint256[]",
          "name": "identityCommitments",
          "type": "uint256[]"
        },
        {
          "indexed": false,
          "internalType": "uint256",
          "name": "merkleTreeRoot",
          "type": "uint256"
        }
      ],
      "name": "MembersAdded",
      "type": "event"
    },
    {
      "anonymous": false,
      "inputs": [
        {
          "indexed": true,
          "internalType": "uint256",
          "name": "groupId",
          "type": "uint256"
        },
        {
          "indexed": false,
          "internalType": "uint256",
          "name": "merkleTreeDepth",
          "type": "uint256"
        },
        {
          "indexed": true,
          "internalType": "uint256",
          "name": "merkleTreeRoot",
          "type": "uint256"
        },
        {
          "indexed": false,
          "internalType": "uint256",
          "name": "nullifier",
          "type": "uint256"
        },
        {
          "indexed": false,
          "internalType": "uint256",
          "name": "message",
          "type": "uint256"
        },
        {
          "indexed": true,
          "internalType": "uint256",
          "name": "scope",
          "type": "uint256"
        },
        {
          "indexed": false,
          "internalType": "uint256[8]",
          "name": "points",
          "type": "uint256[8]"
        }
      ],
      "name": "ProofValidated",
      "type": "event"
    },
    {
      "inputs": [
        {
          "internalType": "uint256",
          "name": "groupId",
          "type": "uint256"
        },
        {
          "internalType": "uint256",
          "name": "identityCommitment",
          "type": "uint256"
        }
      ],
      "name": "addMember",
      "outputs": [],
      "stateMutability": "nonpayable",
      "type": "function"
    },
    {
      "inputs": [
        {
          "internalType": "uint256",
          "name": "groupId",
          "type": "uint256"
        },
        {
          "internalType": "uint256[]",
          "name": "identityCommitments",
          "type": "uint256[]"
        }
      ],
      "name": "addMembers",
      "outputs": [],
      "stateMutability": "nonpayable",
      "type": "function"
    },
    {
      "inputs": [
        {
          "internalType": "uint256",
          "name": "groupId",
          "type": "uint256"
        },
        {
          "internalType": "address",
          "name": "admin",
          "type": "address"
        },
        {
          "internalType": "uint256",
          "name": "merkleTreeDuration",
          "type": "uint256"
        }
      ],
      "name": "createGroup",
      "outputs": [],
      "stateMutability": "nonpayable",
      "type": "function"
    },
    {
      "inputs": [
        {
          "internalType": "uint256",
          "name": "groupId",
          "type": "uint256"
        },
        {
          "internalType": "address",
          "name": "admin",
          "type": "address"
        }
      ],
      "name": "createGroup",
      "outputs": [],
      "stateMutability": "nonpayable",
      "type": "function"
    },
    {
      "inputs": [
        {
          "internalType": "uint256",
          "name": "groupId",
          "type": "uint256"
        }
      ],
      "name": "getMerkleTreeDepth",
      "outputs": [
        {
          "internalType": "uint256",
          "name": "",
          "type": "uint256"
        }
      ],
      "stateMutability": "view",
      "type": "function"
    },
    {
      "inputs": [
        {
          "internalType": "uint256",
          "name": "groupId",
          "type": "uint256"
        }
      ],
      "name": "getMerkleTreeRoot",
      "outputs": [
        {
          "internalType": "uint256",
          "name": "",
          "type": "uint256"
        }
      ],
      "stateMutability": "view",
      "type": "function"
    },
    {
      "inputs": [
        {
          "internalType": "uint256",
          "name": "groupId",
          "type": "uint256"
        }
      ],
      "name": "getMerkleTreeSize",
      "outputs": [
        {
          "internalType": "uint256",
          "name": "",
          "type": "uint256"
        }
      ],
      "stateMutability": "view",
      "type": "function"
    },
    {
      "inputs": [
        {
          "internalType": "uint256",
          "name": "",
          "type": "uint256"
        }
      ],
      "name": "groups",
      "outputs": [
        {
          "internalType": "uint256",
          "name": "merkleTreeDuration",
          "type": "uint256"
        }
      ],
      "stateMutability": "view",
      "type": "function"
    },
    {
      "inputs": [
        {
          "internalType": "uint256",
          "name": "groupId",
          "type": "uint256"
        },
        {
          "internalType": "uint256",
          "name": "identityCommitment",
          "type": "uint256"
        }
      ],
      "name": "hasMember",
      "outputs": [
        {
          "internalType": "bool",
          "name": "",
          "type": "bool"
        }
      ],
      "stateMutability": "view",
      "type": "function"
    },
    {
      "inputs": [
        {
          "internalType": "uint256",
          "name": "groupId",
          "type": "uint256"
        },
        {
          "internalType": "uint256",
          "name": "identityCommitment",
          "type": "uint256"
        }
      ],
      "name": "indexOf",
      "outputs": [
        {
          "internalType": "uint256",
          "name": "",
          "type": "uint256"
        }
      ],
      "stateMutability": "view",
      "type": "function"
    },
    {
      "inputs": [
        {
          "internalType": "uint256",
          "name": "groupId",
          "type": "uint256"
        },
        {
          "internalType": "uint256",
          "name": "identityCommitment",
          "type": "uint256"
        },
        {
          "internalType": "uint256[]",
          "name": "merkleProofSiblings",
          "type": "uint256[]"
        }
      ],
      "name": "removeMember",
      "outputs": [],
      "stateMutability": "nonpayable",
      "type": "function"
    },
    {
      "inputs": [
        {
          "internalType": "uint256",
          "name": "groupId",
          "type": "uint256"
        },
        {
          "internalType": "address",
          "name": "newAdmin",
          "type": "address"
        }
      ],
      "name": "updateGroupAdmin",
      "outputs": [],
      "stateMutability": "nonpayable",
      "type": "function"
    },
    {
      "inputs": [
        {
          "internalType": "uint256",
          "name": "groupId",
          "type": "uint256"
        },
        {
          "internalType": "uint256",
          "name": "newMerkleTreeDuration",
          "type": "uint256"
        }
      ],
      "name": "updateGroupMerkleTreeDuration",
      "outputs": [],
      "stateMutability": "nonpayable",
      "type": "function"
    },
    {
      "inputs": [
        {
          "internalType": "uint256",
          "name": "groupId",
          "type": "uint256"
        },
        {
          "internalType": "uint256",
          "name": "identityCommitment",
          "type": "uint256"
        },
        {
          "internalType": "uint256",
          "name": "newIdentityCommitment",
          "type": "uint256"
        },
        {
          "internalType": "uint256[]",
          "name": "merkleProofSiblings",
          "type": "uint256[]"
        }
      ],
      "name": "updateMember",
      "outputs": [],
      "stateMutability": "nonpayable",
      "type": "function"
    },
    {
      "inputs": [
        {
          "internalType": "uint256",
          "name": "groupId",
          "type": "uint256"
        },
        {
          "components": [
            {
              "internalType": "uint256",
              "name": "merkleTreeDepth",
              "type": "uint256"
            },
            {
              "internalType": "uint256",
              "name": "merkleTreeRoot",
              "type": "uint256"
            },
            {
              "internalType": "uint256",
              "name": "nullifier",
              "type": "uint256"
            },
            {
              "internalType": "uint256",
              "name": "message",
              "type": "uint256"
            },
            {
              "internalType": "uint256",
              "name": "scope",
              "type": "uint256"
            },
            {
              "internalType": "uint256[8]",
              "name": "points",
              "type": "uint256[8]"
            }
          ],
          "internalType": "struct ISemaphore.SemaphoreProof",
          "name": "proof",
          "type": "tuple"
        }
      ],
      "name": "validateProof",
      "outputs": [],
      "stateMutability": "nonpayable",
      "type": "function"
    },
    {
      "inputs": [],
      "name": "verifier",
      "outputs": [
        {
          "internalType": "contract ISemaphoreVerifier",
          "name": "",
          "type": "address"
        }
      ],
      "stateMutability": "view",
      "type": "function"
    },
    {
      "inputs": [
        {
          "internalType": "uint256",
          "name": "groupId",
          "type": "uint256"
        },
        {
          "components": [
            {
              "internalType": "uint256",
              "name": "merkleTreeDepth",
              "type": "uint256"
            },
            {
              "internalType": "uint256",
              "name": "merkleTreeRoot",
              "type": "uint256"
            },
            {
              "internalType": "uint256",
              "name": "nullifier",
              "type": "uint256"
            },
            {
              "internalType": "uint256",
              "name": "message",
              "type": "uint256"
            },
            {
              "internalType": "uint256",
              "name": "scope",
              "type": "uint256"
            },
            {
              "internalType": "uint256[8]",
              "name": "points",
              "type": "uint256[8]"
            }
          ],
          "internalType": "struct ISemaphore.SemaphoreProof",
          "name": "proof",
          "type": "tuple"
        }
      ],
      "name": "verifyProof",
      "outputs": [
        {
          "internalType": "bool",
          "name": "",
          "type": "bool"
        }
      ],
      "stateMutability": "view",
      "type": "function"
    }
  ],
  "bytecode": "0x60806040523480156200001157600080fd5b50604051620034b7380380620034b78339818101604052810190620000379190620000fd565b80600260006101000a81548173ffffffffffffffffffffffffffffffffffffffff021916908373ffffffffffffffffffffffffffffffffffffffff160217905550506200012f565b600080fd5b600073ffffffffffffffffffffffffffffffffffffffff82169050919050565b6000620000b18262000084565b9050919050565b6000620000c582620000a4565b9050919050565b620000d781620000b8565b8114620000e357600080fd5b50565b600081519050620000f781620000cc565b92915050565b6000602082840312156200011657620001156200007f565b5b60006200012684828501620000e6565b91505092915050565b613378806200013f6000396000f3fe608060405234801561001057600080fd5b506004361061010b5760003560e01c80636cdd32fe116100a2578063b180517911610071578063b1805179146102da578063c96e71fb146102f6578063d0d898dd14610312578063dabc4d511461032e578063fcf0b6ec1461035e5761010b565b80636cdd32fe1461022e5780637ee35a0c1461024a57806390509d441461027a57806396324bd4146102aa5761010b565b80634178c4d5116100de5780634178c4d514610196578063456f4188146101b2578063568ee826146101e25780636389e107146101fe5761010b565b8063042453711461011057806306dd84851461012c5780631783efc31461015c5780632b7ac3f314610178575b600080fd5b61012a600480360381019061012591906126de565b61037a565b005b6101466004803603810190610141919061273e565b6103c4565b604051610153919061278d565b60405180910390f35b6101766004803603810190610171919061273e565b6103f2565b005b61018061043a565b60405161018d9190612827565b60405180910390f35b6101b060048036038101906101ab9190612842565b610460565b005b6101cc60048036038101906101c791906128ef565b6104ae565b6040516101d9919061294b565b60405180910390f35b6101fc60048036038101906101f791906129a4565b6108f3565b005b610218600480360381019061021391906129e4565b610901565b604051610225919061278d565b60405180910390f35b61024860048036038101906102439190612a11565b610920565b005b610264600480360381019061025f91906129e4565b61096c565b604051610271919061278d565b60405180910390f35b610294600480360381019061028f919061273e565b61098b565b6040516102a1919061294b565b60405180910390f35b6102c460048036038101906102bf91906129e4565b6109b9565b6040516102d1919061278d565b60405180910390f35b6102f460048036038101906102ef9190612a85565b6109d7565b005b610310600480360381019061030b91906129a4565b610a01565b005b61032c600480360381019061032791906128ef565b610a2c565b005b610348600480360381019061034391906129e4565b610c16565b604051610355919061278d565b60405180910390f35b6103786004803603810190610373919061273e565b610c39565b005b610385838383610de3565b600061039084610c16565b9050426003600086815260200190815260200160002060010160008381526020019081526020016000208190555050505050565b60006103ea82600080868152602001908152602001600020610e5f90919063ffffffff16565b905092915050565b6103fc8282610e8b565b600061040783610c16565b90504260036000858152602001908152602001600020600101600083815260200190815260200160002081905550505050565b600260009054906101000a900473ffffffffffffffffffffffffffffffffffffffff1681565b61046d8585858585611037565b600061047886610c16565b90504260036000888152602001908152602001600020600101600083815260200190815260200160002081905550505050505050565b600082600073ffffffffffffffffffffffffffffffffffffffff166001600083815260200190815260200160002060009054906101000a900473ffffffffffffffffffffffffffffffffffffffff1673ffffffffffffffffffffffffffffffffffffffff160361054a576040517f029f057900000000000000000000000000000000000000000000000000000000815260040160405180910390fd5b6001836000013510806105615750600c8360000135115b15610598576040517fecf64f1200000000000000000000000000000000000000000000000000000000815260040160405180910390fd5b60006105a38561096c565b9050600081036105df576040517fc8b02e0100000000000000000000000000000000000000000000000000000000815260040160405180910390fd5b60006105ea86610c16565b9050808560200135146106c4576000600360008881526020019081526020016000206001016000876020013581526020019081526020016000205490506000600360008981526020019081526020016000206000015490506000820361067c576040517f4d32958600000000000000000000000000000000000000000000000000000000815260040160405180910390fd5b80826106889190612b07565b4211156106c1576040517f9581a99000000000000000000000000000000000000000000000000000000000815260040160405180910390fd5b50505b600260009054906101000a900473ffffffffffffffffffffffffffffffffffffffff1673ffffffffffffffffffffffffffffffffffffffff1663a23f019960405180604001604052808860a00160006008811061072457610723612b3b565b5b602002013581526020018860a00160016008811061074557610744612b3b565b5b6020020135815250604051806040016040528060405180604001604052808b60a00160026008811061077a57610779612b3b565b5b602002013581526020018b60a00160036008811061079b5761079a612b3b565b5b6020020135815250815260200160405180604001604052808b60a0016004600881106107ca576107c9612b3b565b5b602002013581526020018b60a0016005600881106107eb576107ea612b3b565b5b602002013581525081525060405180604001604052808a60a00160066008811061081857610817612b3b565b5b602002013581526020018a60a00160076008811061083957610838612b3b565b5b602002013581525060405180608001604052808b6020013581526020018b60400135815260200161086d8c60600135611209565b815260200161087f8c60800135611209565b8152508a600001356040518663ffffffff1660e01b81526004016108a7959493929190612d97565b602060405180830381865afa1580156108c4573d6000803e3d6000fd5b505050506040513d601f19601f820116820180604052508101906108e89190612e19565b935050505092915050565b6108fd8282611240565b5050565b6000806000838152602001908152602001600020600101549050919050565b61092c84848484611426565b600061093785610c16565b905042600360008781526020019081526020016000206001016000838152602001908152602001600020819055505050505050565b6000806000838152602001908152602001600020600001549050919050565b60006109b1826000808681526020019081526020016000206115f390919063ffffffff16565b905092915050565b60036020528060005260406000206000915090508060000154905081565b6109e18383611616565b806003600085815260200190815260200160002060000181905550505050565b610a0b8282611616565b610e1060036000848152602001908152602001600020600001819055505050565b81600073ffffffffffffffffffffffffffffffffffffffff166001600083815260200190815260200160002060009054906101000a900473ffffffffffffffffffffffffffffffffffffffff1673ffffffffffffffffffffffffffffffffffffffff1603610ac6576040517f029f057900000000000000000000000000000000000000000000000000000000815260040160405180910390fd5b6003600084815260200190815260200160002060020160008360400135815260200190815260200160002060009054906101000a900460ff1615610b36576040517f208b15e800000000000000000000000000000000000000000000000000000000815260040160405180910390fd5b610b4083836104ae565b610b76576040517f4aa6bc4000000000000000000000000000000000000000000000000000000000815260040160405180910390fd5b60016003600085815260200190815260200160002060020160008460400135815260200190815260200160002060006101000a81548160ff02191690831515021790555081608001358260200135847f0c32e14cfe81a05d371c248d22de6b7ae849e981b76a1f8842e7b6da73fc405a8560000135866040013587606001358860a001604051610c099493929190612e60565b60405180910390a4505050565b6000610c3260008084815260200190815260200160002061178e565b9050919050565b81600073ffffffffffffffffffffffffffffffffffffffff166001600083815260200190815260200160002060009054906101000a900473ffffffffffffffffffffffffffffffffffffffff1673ffffffffffffffffffffffffffffffffffffffff1603610cd3576040517f029f057900000000000000000000000000000000000000000000000000000000815260040160405180910390fd5b823373ffffffffffffffffffffffffffffffffffffffff166001600083815260200190815260200160002060009054906101000a900473ffffffffffffffffffffffffffffffffffffffff1673ffffffffffffffffffffffffffffffffffffffff1614610d6c576040517fbb9bf27800000000000000000000000000000000000000000000000000000000815260040160405180910390fd5b600060036000868152602001908152602001600020600001549050836003600087815260200190815260200160002060000181905550847f264b2a8f6763c084235fe832ba903482b2ef1a521336881fc75b987c2dfd29c58286604051610dd4929190612ea6565b60405180910390a25050505050565b6000610dee8461096c565b90506000610e1884846000808981526020019081526020016000206117b19092919063ffffffff16565b9050847f61e5e8054e3daf084a0c6c646c065e8bf5e7ca4d5567bda942309bd1652f349d83868685604051610e509493929190612f41565b60405180910390a25050505050565b6000600183600301600084815260200190815260200160002054610e839190612f81565b905092915050565b81600073ffffffffffffffffffffffffffffffffffffffff166001600083815260200190815260200160002060009054906101000a900473ffffffffffffffffffffffffffffffffffffffff1673ffffffffffffffffffffffffffffffffffffffff1603610f25576040517f029f057900000000000000000000000000000000000000000000000000000000815260040160405180910390fd5b823373ffffffffffffffffffffffffffffffffffffffff166001600083815260200190815260200160002060009054906101000a900473ffffffffffffffffffffffffffffffffffffffff1673ffffffffffffffffffffffffffffffffffffffff1614610fbe576040517fbb9bf27800000000000000000000000000000000000000000000000000000000815260040160405180910390fd5b6000610fc98561096c565b90506000610ff185600080898152602001908152602001600020611dae90919063ffffffff16565b9050857f19239b3f93cd10558aaf11423af70c77763bf54f52bcc75bfa74d4d13548cde983878460405161102793929190612fb5565b60405180910390a2505050505050565b84600073ffffffffffffffffffffffffffffffffffffffff166001600083815260200190815260200160002060009054906101000a900473ffffffffffffffffffffffffffffffffffffffff1673ffffffffffffffffffffffffffffffffffffffff16036110d1576040517f029f057900000000000000000000000000000000000000000000000000000000815260040160405180910390fd5b853373ffffffffffffffffffffffffffffffffffffffff166001600083815260200190815260200160002060009054906101000a900473ffffffffffffffffffffffffffffffffffffffff1673ffffffffffffffffffffffffffffffffffffffff161461116a576040517fbb9bf27800000000000000000000000000000000000000000000000000000000815260040160405180910390fd5b6000611190876000808b8152602001908152602001600020610e5f90919063ffffffff16565b905060006111be888888886000808f815260200190815260200160002061202a90949392919063ffffffff16565b9050887fea3588e4a2a0c93d6a0e69dfeaf7496f43ccccf02ad9ce0a5b7627cbca4b61b1838a8a856040516111f69493929190612fec565b60405180910390a2505050505050505050565b600060088260405160200161121e9190613052565b6040516020818303038152906040528051906020012060001c901c9050919050565b81600073ffffffffffffffffffffffffffffffffffffffff166001600083815260200190815260200160002060009054906101000a900473ffffffffffffffffffffffffffffffffffffffff1673ffffffffffffffffffffffffffffffffffffffff16036112da576040517f029f057900000000000000000000000000000000000000000000000000000000815260040160405180910390fd5b823373ffffffffffffffffffffffffffffffffffffffff166001600083815260200190815260200160002060009054906101000a900473ffffffffffffffffffffffffffffffffffffffff1673ffffffffffffffffffffffffffffffffffffffff1614611373576040517fbb9bf27800000000000000000000000000000000000000000000000000000000815260040160405180910390fd5b826001600086815260200190815260200160002060006101000a81548173ffffffffffffffffffffffffffffffffffffffff021916908373ffffffffffffffffffffffffffffffffffffffff1602179055508273ffffffffffffffffffffffffffffffffffffffff163373ffffffffffffffffffffffffffffffffffffffff16857f0ba83579a0e79193ef649b9f5a8759d35af086ba62a3e207b52e4a8ae30d49e360405160405180910390a450505050565b83600073ffffffffffffffffffffffffffffffffffffffff166001600083815260200190815260200160002060009054906101000a900473ffffffffffffffffffffffffffffffffffffffff1673ffffffffffffffffffffffffffffffffffffffff16036114c0576040517f029f057900000000000000000000000000000000000000000000000000000000815260040160405180910390fd5b843373ffffffffffffffffffffffffffffffffffffffff166001600083815260200190815260200160002060009054906101000a900473ffffffffffffffffffffffffffffffffffffffff1673ffffffffffffffffffffffffffffffffffffffff1614611559576040517fbb9bf27800000000000000000000000000000000000000000000000000000000815260040160405180910390fd5b600061157f866000808a8152602001908152602001600020610e5f90919063ffffffff16565b905060006115ab8787876000808d815260200190815260200160002061261f909392919063ffffffff16565b9050877f3108849c053c77b8073a11256dffb5ffd5b55e93e105a355e1c9061db890d8718389846040516115e193929190612fb5565b60405180910390a25050505050505050565b600080836003016000848152602001908152602001600020541415905092915050565b600073ffffffffffffffffffffffffffffffffffffffff166001600084815260200190815260200160002060009054906101000a900473ffffffffffffffffffffffffffffffffffffffff1673ffffffffffffffffffffffffffffffffffffffff16146116af576040517f8121725b00000000000000000000000000000000000000000000000000000000815260040160405180910390fd5b806001600084815260200190815260200160002060006101000a81548173ffffffffffffffffffffffffffffffffffffffff021916908373ffffffffffffffffffffffffffffffffffffffff160217905550817ff0adfb94eab6daf835deb69c5738fe636150c3dfd08094a76f39b963dc8cb05a60405160405180910390a28073ffffffffffffffffffffffffffffffffffffffff16600073ffffffffffffffffffffffffffffffffffffffff16837f0ba83579a0e79193ef649b9f5a8759d35af086ba62a3e207b52e4a8ae30d49e360405160405180910390a45050565b600081600201600083600101548152602001908152602001600020549050919050565b600080600090505b8383905081101561193c577f30644e72e131a029b85045b68181585d2833e84879b9709143e1f593f00000018484838181106117f8576117f7612b3b565b5b9050602002013510611836576040517fc380a82e00000000000000000000000000000000000000000000000000000000815260040160405180910390fd5b600084848381811061184b5761184a612b3b565b5b9050602002013503611889576040517f29691be200000000000000000000000000000000000000000000000000000000815260040160405180910390fd5b6118ac858585848181106118a05761189f612b3b565b5b905060200201356115f3565b156118e3576040517f258a195a00000000000000000000000000000000000000000000000000000000815260040160405180910390fd5b80600186600001546118f59190612b07565b6118ff9190612b07565b85600301600086868581811061191857611917612b3b565b5b905060200201358152602001908152602001600020819055508060010190506117b9565b506060838380806020026020016040519081016040528093929190818152602001838360200280828437600081840152601f19601f8201169050808301925050505050505090505b8383905085600001546119979190612b07565b856001015460026119a891906131a0565b10156119cf5760018560010160008282546119c39190612b07565b92505081905550611984565b60008560000154905060008585905087600001546119ed9190612b07565b90506000600183901c90506000600180600185611a0a9190612f81565b901c611a169190612b07565b905060005b8960010154811015611d2c5760008383611a359190612f81565b905060008167ffffffffffffffff811115611a5357611a526131eb565b5b604051908082528060200260200182016040528015611a815781602001602082028036833780820191505090505b50905060005b82811015611c535760008088600160028a86611aa39190612b07565b611aad919061321a565b611ab79190612b07565b1015611b09578a8a600160028b87611acf9190612b07565b611ad9919061321a565b611ae39190612b07565b611aed9190612f81565b81518110611afe57611afd612b3b565b5b602002602001015191505b8960028985611b189190612b07565b611b22919061321a565b1015611b45578e6002016000878152602001908152602001600020549050611b85565b8a8a60028a86611b559190612b07565b611b5f919061321a565b611b699190612f81565b81518110611b7a57611b79612b3b565b5b602002602001015190505b6000808314611c215773__$75f79a42d9bcbdbb69ad79ebd80f556f39$__63561558fe6040518060400160405280858152602001868152506040518263ffffffff1660e01b8152600401611bd991906132e5565b602060405180830381865af4158015611bf6573d6000803e3d6000fd5b505050506040513d601f19601f82011682018060405250810190611c1a9190613315565b9050611c25565b8190505b80858581518110611c3957611c38612b3b565b5b602002602001018181525050836001019350505050611a87565b50600180871603611ca4578760018951611c6d9190612f81565b81518110611c7e57611c7d612b3b565b5b60200260200101518c600201600085815260200190815260200160002081905550611cf1565b600188511115611cf0578760028951611cbd9190612f81565b81518110611cce57611ccd612b3b565b5b60200260200101518c6002016000858152602001908152602001600020819055505b5b849650600185901c9450809750839550600180600186611d119190612f81565b901c611d1d9190612b07565b93508260010192505050611a1b565b5087879050896000016000828254611d449190612b07565b9250508190555084600081518110611d5f57611d5e612b3b565b5b60200260200101518960020160008b6001015481526020019081526020016000208190555084600081518110611d9857611d97612b3b565b5b6020026020010151955050505050509392505050565b60007f30644e72e131a029b85045b68181585d2833e84879b9709143e1f593f00000018210611e09576040517fc380a82e00000000000000000000000000000000000000000000000000000000815260040160405180910390fd5b60008203611e43576040517f29691be200000000000000000000000000000000000000000000000000000000815260040160405180910390fd5b611e4d83836115f3565b15611e84576040517f258a195a00000000000000000000000000000000000000000000000000000000815260040160405180910390fd5b5b60018360000154611e969190612b07565b83600101546002611ea791906131a0565b1015611ece576001836001016000828254611ec29190612b07565b92505081905550611e85565b600083600001549050600083905060005b8560010154811015611fc6576001808285901c1603611fa05773__$75f79a42d9bcbdbb69ad79ebd80f556f39$__63561558fe6040518060400160405280896002016000868152602001908152602001600020548152602001858152506040518263ffffffff1660e01b8152600401611f5891906132e5565b602060405180830381865af4158015611f75573d6000803e3d6000fd5b505050506040513d601f19601f82011682018060405250810190611f999190613315565b9150611fbb565b81866002016000838152602001908152602001600020819055505b806001019050611edf565b506001856000016000828254611fdc9190612b07565b92505081905550808560020160008760010154815260200190815260200160002081905550846000015485600301600086815260200190815260200160002081905550809250505092915050565b60007f30644e72e131a029b85045b68181585d2833e84879b9709143e1f593f00000018410612085576040517fc380a82e00000000000000000000000000000000000000000000000000000000815260040160405180910390fd5b61208f86866115f3565b6120c5576040517f7204756c00000000000000000000000000000000000000000000000000000000815260040160405180910390fd5b600084141580156120dc57506120db86856115f3565b5b15612113576040517f258a195a00000000000000000000000000000000000000000000000000000000815260040160405180910390fd5b60008383905003612150576040517f3fa930c600000000000000000000000000000000000000000000000000000000815260040160405180910390fd5b600061215c8787610e5f565b905060008590506000879050600060018a6000015461217b9190612f81565b90506000805b8b60010154811015612564576001808288901c1603612365577f30644e72e131a029b85045b68181585d2833e84879b9709143e1f593f00000018989848181106121ce576121cd612b3b565b5b905060200201351061220c576040517fc380a82e00000000000000000000000000000000000000000000000000000000815260040160405180910390fd5b73__$75f79a42d9bcbdbb69ad79ebd80f556f39$__63561558fe60405180604001604052808c8c8781811061224457612243612b3b565b5b905060200201358152602001888152506040518263ffffffff1660e01b815260040161227091906132e5565b602060405180830381865af415801561228d573d6000803e3d6000fd5b505050506040513d601f19601f820116820180604052508101906122b19190613315565b945073__$75f79a42d9bcbdbb69ad79ebd80f556f39$__63561558fe60405180604001604052808c8c878181106122eb576122ea612b3b565b5b905060200201358152602001878152506040518263ffffffff1660e01b815260040161231791906132e5565b602060405180830381865af4158015612334573d6000803e3d6000fd5b505050506040513d601f19601f820116820180604052508101906123589190613315565b9350816001019150612559565b8083901c8187901c1461253d577f30644e72e131a029b85045b68181585d2833e84879b9709143e1f593f00000018989848181106123a6576123a5612b3b565b5b90506020020135106123e4576040517fc380a82e00000000000000000000000000000000000000000000000000000000815260040160405180910390fd5b73__$75f79a42d9bcbdbb69ad79ebd80f556f39$__63561558fe60405180604001604052808881526020018c8c8781811061242257612421612b3b565b5b905060200201358152506040518263ffffffff1660e01b815260040161244891906132e5565b602060405180830381865af4158015612465573d6000803e3d6000fd5b505050506040513d601f19601f820116820180604052508101906124899190613315565b945073__$75f79a42d9bcbdbb69ad79ebd80f556f39$__63561558fe60405180604001604052808781526020018c8c878181106124c9576124c8612b3b565b5b905060200201358152506040518263ffffffff1660e01b81526004016124ef91906132e5565b602060405180830381865af415801561250c573d6000803e3d6000fd5b505050506040513d601f19601f820116820180604052508101906125309190613315565b9350816001019150612558565b848c6002016000848152602001908152602001600020819055505b5b806001019050612181565b5061256e8b61178e565b83146125a6576040517f3fa930c600000000000000000000000000000000000000000000000000000000815260040160405180910390fd5b838b60020160008d600101548152602001908152602001600020819055508a60030160008b8152602001908152602001600020548b60030160008b81526020019081526020016000208190555060008b60030160008c815260200190815260200160002081905550839550505050505095945050505050565b600061262f85856000868661202a565b9050949350505050565b600080fd5b600080fd5b6000819050919050565b61265681612643565b811461266157600080fd5b50565b6000813590506126738161264d565b92915050565b600080fd5b600080fd5b600080fd5b60008083601f84011261269e5761269d612679565b5b8235905067ffffffffffffffff8111156126bb576126ba61267e565b5b6020830191508360208202830111156126d7576126d6612683565b5b9250929050565b6000806000604084860312156126f7576126f6612639565b5b600061270586828701612664565b935050602084013567ffffffffffffffff8111156127265761272561263e565b5b61273286828701612688565b92509250509250925092565b6000806040838503121561275557612754612639565b5b600061276385828601612664565b925050602061277485828601612664565b9150509250929050565b61278781612643565b82525050565b60006020820190506127a2600083018461277e565b92915050565b600073ffffffffffffffffffffffffffffffffffffffff82169050919050565b6000819050919050565b60006127ed6127e86127e3846127a8565b6127c8565b6127a8565b9050919050565b60006127ff826127d2565b9050919050565b6000612811826127f4565b9050919050565b61282181612806565b82525050565b600060208201905061283c6000830184612818565b92915050565b60008060008060006080868803121561285e5761285d612639565b5b600061286c88828901612664565b955050602061287d88828901612664565b945050604061288e88828901612664565b935050606086013567ffffffffffffffff8111156128af576128ae61263e565b5b6128bb88828901612688565b92509250509295509295909350565b600080fd5b60006101a082840312156128e6576128e56128ca565b5b81905092915050565b6000806101c0838503121561290757612906612639565b5b600061291585828601612664565b9250506020612926858286016128cf565b9150509250929050565b60008115159050919050565b61294581612930565b82525050565b6000602082019050612960600083018461293c565b92915050565b6000612971826127a8565b9050919050565b61298181612966565b811461298c57600080fd5b50565b60008135905061299e81612978565b92915050565b600080604083850312156129bb576129ba612639565b5b60006129c985828601612664565b92505060206129da8582860161298f565b9150509250929050565b6000602082840312156129fa576129f9612639565b5b6000612a0884828501612664565b91505092915050565b60008060008060608587031215612a2b57612a2a612639565b5b6000612a3987828801612664565b9450506020612a4a87828801612664565b935050604085013567ffffffffffffffff811115612a6b57612a6a61263e565b5b612a7787828801612688565b925092505092959194509250565b600080600060608486031215612a9e57612a9d612639565b5b6000612aac86828701612664565b9350506020612abd8682870161298f565b9250506040612ace86828701612664565b9150509250925092565b7f4e487b7100000000000000000000000000000000000000000000000000000000600052601160045260246000fd5b6000612b1282612643565b9150612b1d83612643565b9250828201905080821115612b3557612b34612ad8565b5b92915050565b7f4e487b7100000000000000000000000000000000000000000000000000000000600052603260045260246000fd5b600060029050919050565b600081905092915050565b6000819050919050565b612b9381612643565b82525050565b6000612ba58383612b8a565b60208301905092915050565b6000602082019050919050565b612bc781612b6a565b612bd18184612b75565b9250612bdc82612b80565b8060005b83811015612c0d578151612bf48782612b99565b9650612bff83612bb1565b925050600181019050612be0565b505050505050565b600060029050919050565b600081905092915050565b6000819050919050565b600081905092915050565b612c4981612b6a565b612c538184612c35565b9250612c5e82612b80565b8060005b83811015612c8f578151612c768782612b99565b9650612c8183612bb1565b925050600181019050612c62565b505050505050565b6000612ca38383612c40565b60408301905092915050565b6000602082019050919050565b612cc581612c15565b612ccf8184612c20565b9250612cda82612c2b565b8060005b83811015612d0b578151612cf28782612c97565b9650612cfd83612caf565b925050600181019050612cde565b505050505050565b600060049050919050565b600081905092915050565b6000819050919050565b6000602082019050919050565b612d4981612d13565b612d538184612d1e565b9250612d5e82612d29565b8060005b83811015612d8f578151612d768782612b99565b9650612d8183612d33565b925050600181019050612d62565b505050505050565b60006101a082019050612dad6000830188612bbe565b612dba6040830187612cbc565b612dc760c0830186612bbe565b612dd5610100830185612d40565b612de361018083018461277e565b9695505050505050565b612df681612930565b8114612e0157600080fd5b50565b600081519050612e1381612ded565b92915050565b600060208284031215612e2f57612e2e612639565b5b6000612e3d84828501612e04565b91505092915050565b82818337505050565b612e5c6101008383612e46565b5050565b600061016082019050612e76600083018761277e565b612e83602083018661277e565b612e90604083018561277e565b612e9d6060830184612e4f565b95945050505050565b6000604082019050612ebb600083018561277e565b612ec8602083018461277e565b9392505050565b600082825260208201905092915050565b600080fd5b6000612ef18385612ecf565b93507f07ffffffffffffffffffffffffffffffffffffffffffffffffffffffffffffff831115612f2457612f23612ee0565b5b602083029250612f35838584612e46565b82840190509392505050565b6000606082019050612f56600083018761277e565b8181036020830152612f69818587612ee5565b9050612f78604083018461277e565b95945050505050565b6000612f8c82612643565b9150612f9783612643565b9250828203905081811115612faf57612fae612ad8565b5b92915050565b6000606082019050612fca600083018661277e565b612fd7602083018561277e565b612fe4604083018461277e565b949350505050565b6000608082019050613001600083018761277e565b61300e602083018661277e565b61301b604083018561277e565b613028606083018461277e565b95945050505050565b6000819050919050565b61304c61304782612643565b613031565b82525050565b600061305e828461303b565b60208201915081905092915050565b60008160011c9050919050565b6000808291508390505b60018511156130c4578086048111156130a05761309f612ad8565b5b60018516156130af5780820291505b80810290506130bd8561306d565b9450613084565b94509492505050565b6000826130dd5760019050613199565b816130eb5760009050613199565b8160018114613101576002811461310b5761313a565b6001915050613199565b60ff84111561311d5761311c612ad8565b5b8360020a91508482111561313457613133612ad8565b5b50613199565b5060208310610133831016604e8410600b841016171561316f5782820a90508381111561316a57613169612ad8565b5b613199565b61317c848484600161307a565b9250905081840481111561319357613192612ad8565b5b81810290505b9392505050565b60006131ab82612643565b91506131b683612643565b92506131e37fffffffffffffffffffffffffffffffffffffffffffffffffffffffffffffffff84846130cd565b905092915050565b7f4e487b7100000000000000000000000000000000000000000000000000000000600052604160045260246000fd5b600061322582612643565b915061323083612643565b925082820261323e81612643565b9150828204841483151761325557613254612ad8565b5b5092915050565b600081905092915050565b61327081612643565b82525050565b60006132828383613267565b60208301905092915050565b61329781612b6a565b6132a1818461325c565b92506132ac82612b80565b8060005b838110156132dd5781516132c48782613276565b96506132cf83612bb1565b9250506001810190506132b0565b505050505050565b60006040820190506132fa600083018461328e565b92915050565b60008151905061330f8161264d565b92915050565b60006020828403121561332b5761332a612639565b5b600061333984828501613300565b9150509291505056fea2646970667358221220e0b6222c33c29ae57a5eb66f9d83c18e32d11b0e99b53a5f7011850d51605d2d64736f6c63430008170033",
  "linkReferences": {
    "poseidon-solidity/PoseidonT3.sol": {
      "PoseidonT3": [
        {
          "length": 20,
          "start": 7375
        },
        {
          "length": 20,
          "start": 8249
        },
        {
          "length": 20,
          "start": 9037
        },
        {
          "length": 20,
          "start": 9204
        },
        {
          "length": 20,
          "start": 9509
        },
        {
          "length": 20,
          "start": 9676
        }
      ]
    }
  },
  "deployedLinkReferences": {
    "poseidon-solidity/PoseidonT3.sol": {
      "PoseidonT3": [
        {
          "length": 20,
          "start": 7056
        },
        {
          "length": 20,
          "start": 7930
        },
        {
          "length": 20,
          "start": 8718
        },
        {
          "length": 20,
          "start": 8885
        },
        {
          "length": 20,
          "start": 9190
        },
        {
          "length": 20,
          "start": 9357
        }
      ]
    }
  }
}