{
    "_format": "hh-sol-artifact-1",
    "contractName": "Feedback",
    "sourceName": "contracts/Feedback.sol",
    "abi": [
        {
            "inputs": [
                {
                    "internalType": "contract ISemaphore",
                    "name": "_semaphore",
                    "type": "address"
                },
                {
                    "internalType": "uint256",
                    "name": "_groupId",
                    "type": "uint256"
                }
            ],
            "stateMutability": "nonpayable",
            "type": "constructor"
        },
        {
            "inputs": [],
            "name": "groupId",
            "outputs": [
                {
                    "internalType": "uint256",
                    "name": "",
                    "type": "uint256"
                }
            ],
            "stateMutability": "view",
            "type": "function"
        },
        {
            "inputs": [
                {
                    "internalType": "uint256",
                    "name": "identityCommitment",
                    "type": "uint256"
                }
            ],
            "name": "joinGroup",
            "outputs": [],
            "stateMutability": "nonpayable",
            "type": "function"
        },
        {
            "inputs": [],
            "name": "semaphore",
            "outputs": [
                {
                    "internalType": "contract ISemaphore",
                    "name": "",
                    "type": "address"
                }
            ],
            "stateMutability": "view",
            "type": "function"
        },
        {
            "inputs": [
                {
                    "internalType": "uint256",
                    "name": "merkleTreeDepth",
                    "type": "uint256"
                },
                {
                    "internalType": "uint256",
                    "name": "merkleTreeRoot",
                    "type": "uint256"
                },
                {
                    "internalType": "uint256",
                    "name": "nullifier",
                    "type": "uint256"
                },
                {
                    "internalType": "uint256",
                    "name": "feedback",
                    "type": "uint256"
                },
                {
                    "internalType": "uint256[8]",
                    "name": "proof",
                    "type": "uint256[8]"
                }
            ],
            "name": "sendFeedback",
            "outputs": [],
            "stateMutability": "nonpayable",
            "type": "function"
        }
    ],
    "bytecode": "0x608060405234801561001057600080fd5b5060405161072b38038061072b833981810160405281019061003291906101ba565b816000806101000a81548173ffffffffffffffffffffffffffffffffffffffff021916908373ffffffffffffffffffffffffffffffffffffffff1602179055508060018190555060008054906101000a900473ffffffffffffffffffffffffffffffffffffffff1673ffffffffffffffffffffffffffffffffffffffff1663c96e71fb600154306040518363ffffffff1660e01b81526004016100d6929190610218565b600060405180830381600087803b1580156100f057600080fd5b505af1158015610104573d6000803e3d6000fd5b505050505050610241565b600080fd5b600073ffffffffffffffffffffffffffffffffffffffff82169050919050565b600061013f82610114565b9050919050565b600061015182610134565b9050919050565b61016181610146565b811461016c57600080fd5b50565b60008151905061017e81610158565b92915050565b6000819050919050565b61019781610184565b81146101a257600080fd5b50565b6000815190506101b48161018e565b92915050565b600080604083850312156101d1576101d061010f565b5b60006101df8582860161016f565b92505060206101f0858286016101a5565b9150509250929050565b61020381610184565b82525050565b61021281610134565b82525050565b600060408201905061022d60008301856101fa565b61023a6020830184610209565b9392505050565b6104db806102506000396000f3fe608060405234801561001057600080fd5b506004361061004c5760003560e01c80637b5d2534146100515780637b85d27a1461006f578063a0f44c921461008b578063eed02e4b146100a9575b600080fd5b6100596100c5565b60405161006691906102a2565b60405180910390f35b6100896004803603810190610084919061031f565b6100e9565b005b61009361018b565b6040516100a091906103aa565b60405180910390f35b6100c360048036038101906100be91906103c5565b610191565b005b60008054906101000a900473ffffffffffffffffffffffffffffffffffffffff1681565b60008054906101000a900473ffffffffffffffffffffffffffffffffffffffff1673ffffffffffffffffffffffffffffffffffffffff16632694b47660015487878787600154886040518863ffffffff1660e01b8152600401610152979695949392919061040c565b600060405180830381600087803b15801561016c57600080fd5b505af1158015610180573d6000803e3d6000fd5b505050505050505050565b60015481565b60008054906101000a900473ffffffffffffffffffffffffffffffffffffffff1673ffffffffffffffffffffffffffffffffffffffff16631783efc3600154836040518363ffffffff1660e01b81526004016101ee92919061047c565b600060405180830381600087803b15801561020857600080fd5b505af115801561021c573d6000803e3d6000fd5b5050505050565b600073ffffffffffffffffffffffffffffffffffffffff82169050919050565b6000819050919050565b600061026861026361025e84610223565b610243565b610223565b9050919050565b600061027a8261024d565b9050919050565b600061028c8261026f565b9050919050565b61029c81610281565b82525050565b60006020820190506102b76000830184610293565b92915050565b600080fd5b6000819050919050565b6102d5816102c2565b81146102e057600080fd5b50565b6000813590506102f2816102cc565b92915050565b600080fd5b600081905082602060080282011115610319576103186102f8565b5b92915050565b6000806000806000610180868803121561033c5761033b6102bd565b5b600061034a888289016102e3565b955050602061035b888289016102e3565b945050604061036c888289016102e3565b935050606061037d888289016102e3565b925050608061038e888289016102fd565b9150509295509295909350565b6103a4816102c2565b82525050565b60006020820190506103bf600083018461039b565b92915050565b6000602082840312156103db576103da6102bd565b5b60006103e9848285016102e3565b91505092915050565b82818337505050565b61040861010083836103f2565b5050565b60006101c082019050610422600083018a61039b565b61042f602083018961039b565b61043c604083018861039b565b610449606083018761039b565b610456608083018661039b565b61046360a083018561039b565b61047060c08301846103fb565b98975050505050505050565b6000604082019050610491600083018561039b565b61049e602083018461039b565b939250505056fea26469706673582212204e55122b6afd94ae34af34764263b41bcb463e4fc817ea7ab795705071f8e56f64736f6c63430008170033",
    "linkReferences": {},
    "deployedLinkReferences": {}
}