{
    "_format": "hh-sol-artifact-1",
    "contractName": "Feedback",
    "sourceName": "contracts/Feedback.sol",
    "abi": [
        {
            "inputs": [
                {
                    "internalType": "address",
                    "name": "semaphoreAddress",
                    "type": "address"
                },
                {
                    "internalType": "uint256",
                    "name": "_groupId",
                    "type": "uint256"
                }
            ],
            "stateMutability": "nonpayable",
            "type": "constructor"
        },
        {
            "inputs": [],
            "name": "groupId",
            "outputs": [
                {
                    "internalType": "uint256",
                    "name": "",
                    "type": "uint256"
                }
            ],
            "stateMutability": "view",
            "type": "function"
        },
        {
            "inputs": [
                {
                    "internalType": "uint256",
                    "name": "identityCommitment",
                    "type": "uint256"
                }
            ],
            "name": "joinGroup",
            "outputs": [],
            "stateMutability": "nonpayable",
            "type": "function"
        },
        {
            "inputs": [],
            "name": "semaphore",
            "outputs": [
                {
                    "internalType": "contract ISemaphore",
                    "name": "",
                    "type": "address"
                }
            ],
            "stateMutability": "view",
            "type": "function"
        },
        {
            "inputs": [
                {
                    "internalType": "uint256",
                    "name": "merkleTreeDepth",
                    "type": "uint256"
                },
                {
                    "internalType": "uint256",
                    "name": "merkleTreeRoot",
                    "type": "uint256"
                },
                {
                    "internalType": "uint256",
                    "name": "nullifier",
                    "type": "uint256"
                },
                {
                    "internalType": "uint256",
                    "name": "feedback",
                    "type": "uint256"
                },
                {
                    "internalType": "uint256[8]",
                    "name": "points",
                    "type": "uint256[8]"
                }
            ],
            "name": "sendFeedback",
            "outputs": [],
            "stateMutability": "nonpayable",
            "type": "function"
        }
    ],
    "bytecode": "0x608060405234801561001057600080fd5b5060405161083f38038061083f833981810160405281019061003291906101a8565b816000806101000a81548173ffffffffffffffffffffffffffffffffffffffff021916908373ffffffffffffffffffffffffffffffffffffffff1602179055508060018190555060008054906101000a900473ffffffffffffffffffffffffffffffffffffffff1673ffffffffffffffffffffffffffffffffffffffff1663c96e71fb600154306040518363ffffffff1660e01b81526004016100d6929190610206565b600060405180830381600087803b1580156100f057600080fd5b505af1158015610104573d6000803e3d6000fd5b50505050505061022f565b600080fd5b600073ffffffffffffffffffffffffffffffffffffffff82169050919050565b600061013f82610114565b9050919050565b61014f81610134565b811461015a57600080fd5b50565b60008151905061016c81610146565b92915050565b6000819050919050565b61018581610172565b811461019057600080fd5b50565b6000815190506101a28161017c565b92915050565b600080604083850312156101bf576101be61010f565b5b60006101cd8582860161015d565b92505060206101de85828601610193565b9150509250929050565b6101f181610172565b82525050565b61020081610134565b82525050565b600060408201905061021b60008301856101e8565b61022860208301846101f7565b9392505050565b6106018061023e6000396000f3fe608060405234801561001057600080fd5b506004361061004c5760003560e01c80637b5d2534146100515780637b85d27a1461006f578063a0f44c921461008b578063eed02e4b146100a9575b600080fd5b6100596100c5565b6040516100669190610301565b60405180910390f35b6100896004803603810190610084919061037e565b6100e9565b005b6100936101ea565b6040516100a09190610409565b60405180910390f35b6100c360048036038101906100be9190610424565b6101f0565b005b60008054906101000a900473ffffffffffffffffffffffffffffffffffffffff1681565b60006040518060c001604052808781526020018681526020018581526020018481526020016001548152602001836008806020026040519081016040528092919082600860200280828437600081840152601f19601f820116905080830192505050505050815250905060008054906101000a900473ffffffffffffffffffffffffffffffffffffffff1673ffffffffffffffffffffffffffffffffffffffff1663d0d898dd600154836040518363ffffffff1660e01b81526004016101b0929190610578565b600060405180830381600087803b1580156101ca57600080fd5b505af11580156101de573d6000803e3d6000fd5b50505050505050505050565b60015481565b60008054906101000a900473ffffffffffffffffffffffffffffffffffffffff1673ffffffffffffffffffffffffffffffffffffffff16631783efc3600154836040518363ffffffff1660e01b815260040161024d9291906105a2565b600060405180830381600087803b15801561026757600080fd5b505af115801561027b573d6000803e3d6000fd5b5050505050565b600073ffffffffffffffffffffffffffffffffffffffff82169050919050565b6000819050919050565b60006102c76102c26102bd84610282565b6102a2565b610282565b9050919050565b60006102d9826102ac565b9050919050565b60006102eb826102ce565b9050919050565b6102fb816102e0565b82525050565b600060208201905061031660008301846102f2565b92915050565b600080fd5b6000819050919050565b61033481610321565b811461033f57600080fd5b50565b6000813590506103518161032b565b92915050565b600080fd5b60008190508260206008028201111561037857610377610357565b5b92915050565b6000806000806000610180868803121561039b5761039a61031c565b5b60006103a988828901610342565b95505060206103ba88828901610342565b94505060406103cb88828901610342565b93505060606103dc88828901610342565b92505060806103ed8882890161035c565b9150509295509295909350565b61040381610321565b82525050565b600060208201905061041e60008301846103fa565b92915050565b60006020828403121561043a5761043961031c565b5b600061044884828501610342565b91505092915050565b61045a81610321565b82525050565b600060089050919050565b600081905092915050565b6000819050919050565b600061048c8383610451565b60208301905092915050565b6000602082019050919050565b6104ae81610460565b6104b8818461046b565b92506104c382610476565b8060005b838110156104f45781516104db8782610480565b96506104e683610498565b9250506001810190506104c7565b505050505050565b6101a0820160008201516105136000850182610451565b5060208201516105266020850182610451565b5060408201516105396040850182610451565b50606082015161054c6060850182610451565b50608082015161055f6080850182610451565b5060a082015161057260a08501826104a5565b50505050565b60006101c08201905061058e60008301856103fa565b61059b60208301846104fc565b9392505050565b60006040820190506105b760008301856103fa565b6105c460208301846103fa565b939250505056fea2646970667358221220f33606b2d5ad7c0dfc5d22afb43476e1974ea7fd160e1f28203a3e433f29cb4964736f6c63430008170033",
    "linkReferences": {},
    "deployedLinkReferences": {}
}