{
  "_format": "hh-sol-artifact-1",
  "contractName": "PoseidonT6Lib",
  "sourceName": "contracts/base/Poseidon.sol",
  "abi": [
    {
      "inputs": [
        {
          "internalType": "uint256[5]",
          "name": "input",
          "type": "uint256[5]"
        }
      ],
      "name": "poseidon",
      "outputs": [
        {
          "internalType": "uint256",
          "name": "",
          "type": "uint256"
        }
      ],
      "stateMutability": "pure",
      "type": "function"
    }
  ],
  "bytecode": "0x610291610053600b82828239805160001a607314610046577f4e487b7100000000000000000000000000000000000000000000000000000000600052600060045260246000fd5b30600052607381538281f3fe73000000000000000000000000000000000000000030146080604052600436106100355760003560e01c80634937a2581461003a575b600080fd5b610054600480360381019061004f9190610118565b61006a565b6040516100619190610154565b60405180910390f35b6000919050565b600061008461007f84610194565b61016f565b9050808285602086028201111561009e5761009d610229565b5b60005b858110156100ce57816100b48882610103565b8452602084019350602083019250506001810190506100a1565b5050509392505050565b600082601f8301126100ed576100ec610224565b5b60056100fa848285610071565b91505092915050565b60008135905061011281610244565b92915050565b600060a0828403121561012e5761012d61022e565b5b600061013c848285016100d8565b91505092915050565b61014e816101ba565b82525050565b60006020820190506101696000830184610145565b92915050565b600061017961018a565b905061018582826101c4565b919050565b6000604051905090565b600067ffffffffffffffff8211156101af576101ae6101f5565b5b602082029050919050565b6000819050919050565b6101cd82610233565b810181811067ffffffffffffffff821117156101ec576101eb6101f5565b5b80604052505050565b7f4e487b7100000000000000000000000000000000000000000000000000000000600052604160045260246000fd5b600080fd5b600080fd5b600080fd5b6000601f19601f8301169050919050565b61024d816101ba565b811461025857600080fd5b5056fea2646970667358221220c165e3f7bfca0228b1be83889cc5250a66742aee7ab416a8f2ad0fe123804f7364736f6c63430008060033",
  "linkReferences": {},
  "deployedLinkReferences": {}
}