{"contracts/extensions/SemaphoreVoting.sol":{"SemaphoreVoting":{"abi":[{"inputs":[{"components":[{"internalType":"address","name":"contractAddress","type":"address"},{"internalType":"uint256","name":"merkleTreeDepth","type":"uint256"}],"internalType":"struct ISemaphoreVoting.Verifier[]","name":"_verifiers","type":"tuple[]"}],"stateMutability":"nonpayable","type":"constructor"},{"inputs":[],"name":"Semaphore__CallerIsNotThePollCoordinator","type":"error"},{"inputs":[],"name":"Semaphore__GroupAlreadyExists","type":"error"},{"inputs":[],"name":"Semaphore__GroupDoesNotExist","type":"error"},{"inputs":[],"name":"Semaphore__GroupIdIsNotLessThanSnarkScalarField","type":"error"},{"inputs":[],"name":"Semaphore__InvalidCurrentChainRoot","type":"error"},{"inputs":[],"name":"Semaphore__InvalidEdgeChainRoot","type":"error"},{"inputs":[],"name":"Semaphore__MerkleTreeDepthIsNotSupported","type":"error"},{"inputs":[],"name":"Semaphore__PollHasAlreadyBeenStarted","type":"error"},{"inputs":[],"name":"Semaphore__PollIsNotOngoing","type":"error"},{"inputs":[],"name":"Semaphore__YouAreUsingTheSameNillifierTwice","type":"error"},{"anonymous":false,"inputs":[{"indexed":true,"internalType":"uint256","name":"groupId","type":"uint256"},{"indexed":false,"internalType":"uint256","name":"merkleTreeDepth","type":"uint256"},{"indexed":false,"internalType":"uint256","name":"merkleTreeRoot","type":"uint256"}],"name":"GroupCreated","type":"event"},{"anonymous":false,"inputs":[{"indexed":true,"internalType":"uint256","name":"groupId","type":"uint256"},{"indexed":false,"internalType":"uint256","name":"index","type":"uint256"},{"indexed":false,"internalType":"uint256","name":"identityCommitment","type":"uint256"},{"indexed":false,"internalType":"uint256","name":"merkleTreeRoot","type":"uint256"}],"name":"MemberAdded","type":"event"},{"anonymous":false,"inputs":[{"indexed":true,"internalType":"uint256","name":"groupId","type":"uint256"},{"indexed":false,"internalType":"uint256","name":"index","type":"uint256"},{"indexed":false,"internalType":"uint256","name":"identityCommitment","type":"uint256"},{"indexed":false,"internalType":"uint256","name":"merkleTreeRoot","type":"uint256"}],"name":"MemberRemoved","type":"event"},{"anonymous":false,"inputs":[{"indexed":true,"internalType":"uint256","name":"groupId","type":"uint256"},{"indexed":false,"internalType":"uint256","name":"index","type":"uint256"},{"indexed":false,"internalType":"uint256","name":"identityCommitment","type":"uint256"},{"indexed":false,"internalType":"uint256","name":"newIdentityCommitment","type":"uint256"},{"indexed":false,"internalType":"uint256","name":"merkleTreeRoot","type":"uint256"}],"name":"MemberUpdated","type":"event"},{"anonymous":false,"inputs":[{"indexed":false,"internalType":"uint256","name":"nullifierHash","type":"uint256"}],"name":"NullifierHashAdded","type":"event"},{"anonymous":false,"inputs":[{"indexed":false,"internalType":"uint256","name":"pollId","type":"uint256"},{"indexed":true,"internalType":"address","name":"coordinator","type":"address"}],"name":"PollCreated","type":"event"},{"anonymous":false,"inputs":[{"indexed":false,"internalType":"uint256","name":"pollId","type":"uint256"},{"indexed":true,"internalType":"address","name":"coordinator","type":"address"},{"indexed":false,"internalType":"uint256","name":"decryptionKey","type":"uint256"}],"name":"PollEnded","type":"event"},{"anonymous":false,"inputs":[{"indexed":false,"internalType":"uint256","name":"pollId","type":"uint256"},{"indexed":true,"internalType":"address","name":"coordinator","type":"address"},{"indexed":false,"internalType":"uint256","name":"encryptionKey","type":"uint256"}],"name":"PollStarted","type":"event"},{"anonymous":false,"inputs":[{"indexed":true,"internalType":"uint256","name":"pollId","type":"uint256"},{"indexed":false,"internalType":"bytes32","name":"vote","type":"bytes32"}],"name":"VoteAdded","type":"event"},{"inputs":[{"internalType":"uint256","name":"pollId","type":"uint256"},{"internalType":"uint256","name":"identityCommitment","type":"uint256"}],"name":"addVoter","outputs":[],"stateMutability":"nonpayable","type":"function"},{"inputs":[{"internalType":"bytes32","name":"vote","type":"bytes32"},{"internalType":"uint256","name":"nullifierHash","type":"uint256"},{"internalType":"uint256","name":"pollId","type":"uint256"},{"internalType":"bytes","name":"roots","type":"bytes"},{"internalType":"uint256[8]","name":"proof","type":"uint256[8]"}],"name":"castVote","outputs":[],"stateMutability":"nonpayable","type":"function"},{"inputs":[{"internalType":"uint256","name":"pollId","type":"uint256"},{"internalType":"uint256","name":"merkleTreeDepth","type":"uint256"},{"internalType":"address","name":"coordinator","type":"address"},{"internalType":"uint8","name":"maxEdges","type":"uint8"}],"name":"createPoll","outputs":[],"stateMutability":"nonpayable","type":"function"},{"inputs":[{"internalType":"uint256","name":"pollId","type":"uint256"},{"internalType":"uint256","name":"decryptionKey","type":"uint256"}],"name":"endPoll","outputs":[],"stateMutability":"nonpayable","type":"function"},{"inputs":[{"internalType":"uint256","name":"groupId","type":"uint256"}],"name":"getLatestNeighborEdges","outputs":[{"components":[{"internalType":"uint256","name":"chainID","type":"uint256"},{"internalType":"uint256","name":"root","type":"uint256"},{"internalType":"uint256","name":"latestLeafIndex","type":"uint256"},{"internalType":"bytes32","name":"srcResourceID","type":"bytes32"}],"internalType":"struct Edge[]","name":"","type":"tuple[]"}],"stateMutability":"view","type":"function"},{"inputs":[{"internalType":"uint256","name":"groupId","type":"uint256"}],"name":"getMaxEdges","outputs":[{"internalType":"uint8","name":"","type":"uint8"}],"stateMutability":"view","type":"function"},{"inputs":[{"internalType":"uint256","name":"groupId","type":"uint256"}],"name":"getMerkleTreeDepth","outputs":[{"internalType":"uint256","name":"","type":"uint256"}],"stateMutability":"view","type":"function"},{"inputs":[{"internalType":"uint256","name":"groupId","type":"uint256"}],"name":"getMerkleTreeRoot","outputs":[{"internalType":"uint256","name":"","type":"uint256"}],"stateMutability":"view","type":"function"},{"inputs":[{"internalType":"uint256","name":"groupId","type":"uint256"}],"name":"getNumberOfMerkleTreeLeaves","outputs":[{"internalType":"uint256","name":"","type":"uint256"}],"stateMutability":"view","type":"function"},{"inputs":[{"internalType":"uint256","name":"pollId","type":"uint256"},{"internalType":"uint256","name":"encryptionKey","type":"uint256"}],"name":"startPoll","outputs":[],"stateMutability":"nonpayable","type":"function"},{"inputs":[{"internalType":"uint256","name":"pollId","type":"uint256"},{"internalType":"uint256","name":"root","type":"uint256"},{"internalType":"uint32","name":"leafIndex","type":"uint32"},{"internalType":"bytes32","name":"typedChainId","type":"bytes32"}],"name":"updateEdge","outputs":[],"stateMutability":"nonpayable","type":"function"},{"inputs":[{"internalType":"uint256","name":"groupId","type":"uint256"},{"internalType":"bytes","name":"roots","type":"bytes"}],"name":"verifyRoots","outputs":[{"internalType":"bool","name":"","type":"bool"}],"stateMutability":"view","type":"function"}],"evm":{"bytecode":{"linkReferences":{"contracts/base/LinkableIncrementalBinaryTree.sol":{"LinkableIncrementalBinaryTree":[{"length":20,"start":2975},{"length":20,"start":4649},{"length":20,"start":5026},{"length":20,"start":5379},{"length":20,"start":6830},{"length":20,"start":6958}]},"contracts/base/Poseidon.sol":{"PoseidonT3Lib":[{"length":20,"start":7523}]},"contracts/base/SemaphoreInputEncoder.sol":{"SemaphoreInputEncoder":[{"length":20,"start":5992}]}},"object":"60806040523480156200001157600080fd5b506040516200479e3803806200479e83398181016040528101906200003791906200022a565b60005b81518160ff161015620000ed57818160ff168151811062000060576200005f62000347565b5b60200260200101516000015160016000848460ff168151811062000089576200008862000347565b5b602002602001015160200151815260200190815260200160002060006101000a81548173ffffffffffffffffffffffffffffffffffffffff021916908373ffffffffffffffffffffffffffffffffffffffff1602179055508060010190506200003a565b505062000403565b60006200010c6200010684620002a4565b6200027b565b90508083825260208201905082856040860282011115620001325762000131620003af565b5b60005b858110156200016657816200014b8882620001ba565b84526020840193506040830192505060018101905062000135565b5050509392505050565b6000815190506200018181620003cf565b92915050565b600082601f8301126200019f576200019e620003a5565b5b8151620001b1848260208601620000f5565b91505092915050565b600060408284031215620001d357620001d2620003aa565b5b620001df60406200027b565b90506000620001f18482850162000170565b6000830152506020620002078482850162000213565b60208301525092915050565b6000815190506200022481620003e9565b92915050565b600060208284031215620002435762000242620003b9565b5b600082015167ffffffffffffffff811115620002645762000263620003b4565b5b620002728482850162000187565b91505092915050565b6000620002876200029a565b905062000295828262000311565b919050565b6000604051905090565b600067ffffffffffffffff821115620002c257620002c162000376565b5b602082029050602081019050919050565b6000620002e082620002e7565b9050919050565b600073ffffffffffffffffffffffffffffffffffffffff82169050919050565b6000819050919050565b6200031c82620003be565b810181811067ffffffffffffffff821117156200033e576200033d62000376565b5b80604052505050565b7f4e487b7100000000000000000000000000000000000000000000000000000000600052603260045260246000fd5b7f4e487b7100000000000000000000000000000000000000000000000000000000600052604160045260246000fd5b600080fd5b600080fd5b600080fd5b600080fd5b600080fd5b6000601f19601f8301169050919050565b620003da81620002d3565b8114620003e657600080fd5b50565b620003f48162000307565b81146200040057600080fd5b50565b61438b80620004136000396000f3fe608060405234801561001057600080fd5b50600436106100b45760003560e01c80637815695311610071578063781569531461019d578063945f99bc146101cd578063b359dd43146101e9578063bbd8c7db14610205578063dabc4d5114610221578063fced271f14610251576100b4565b80630a120bb0146100b957806314f6d6e8146100d55780633a19c76a146100f1578063474664d11461010d578063638480be1461013d5780636389e1071461016d575b600080fd5b6100d360048036038101906100ce9190612e76565b610281565b005b6100ef60048036038101906100ea9190612f1d565b6103b4565b005b61010b60048036038101906101069190612ca9565b61046a565b005b61012760048036038101906101229190612dbc565b610776565b6040516101349190613599565b60405180910390f35b61015760048036038101906101529190612dbc565b61081e565b604051610164919061381b565b60405180910390f35b61018760048036038101906101829190612dbc565b61083d565b604051610194919061381b565b60405180910390f35b6101b760048036038101906101b29190612dbc565b61085c565b6040516101c491906138cd565b60405180910390f35b6101e760048036038101906101e29190612eb6565b610888565b005b61020360048036038101906101fe9190612e76565b610a83565b005b61021f600480360381019061021a9190612e76565b610c42565b005b61023b60048036038101906102369190612dbc565b610e00565b604051610248919061381b565b60405180910390f35b61026b60048036038101906102669190612e16565b610ea3565b6040516102789190613633565b60405180910390f35b8161028a611198565b73ffffffffffffffffffffffffffffffffffffffff166002600083815260200190815260200160002060000160009054906101000a900473ffffffffffffffffffffffffffffffffffffffff1673ffffffffffffffffffffffffffffffffffffffff1614610324576040517fe4a34e1500000000000000000000000000000000000000000000000000000000815260040160405180910390fd5b6000600281111561033857610337614023565b5b6002600085815260200190815260200160002060000160149054906101000a900460ff16600281111561036e5761036d614023565b5b146103a5576040517f67f5eebb00000000000000000000000000000000000000000000000000000000815260040160405180910390fd5b6103af83836111a0565b505050565b836103bd611198565b73ffffffffffffffffffffffffffffffffffffffff166002600083815260200190815260200160002060000160009054906101000a900473ffffffffffffffffffffffffffffffffffffffff1673ffffffffffffffffffffffffffffffffffffffff1614610457576040517fe4a34e1500000000000000000000000000000000000000000000000000000000815260040160405180910390fd5b6104638585858561126f565b5050505050565b83610473611198565b73ffffffffffffffffffffffffffffffffffffffff166002600083815260200190815260200160002060000160009054906101000a900473ffffffffffffffffffffffffffffffffffffffff1673ffffffffffffffffffffffffffffffffffffffff161461050d576040517fe4a34e1500000000000000000000000000000000000000000000000000000000815260040160405180910390fd5b60006105188661085c565b90506000600260008881526020019081526020016000206040518060600160405290816000820160009054906101000a900473ffffffffffffffffffffffffffffffffffffffff1673ffffffffffffffffffffffffffffffffffffffff1673ffffffffffffffffffffffffffffffffffffffff1681526020016000820160149054906101000a900460ff1660028111156105b5576105b4614023565b5b60028111156105c7576105c6614023565b5b81526020016000820160159054906101000a900460ff1660ff1660ff16815250509050600160028111156105fe576105fd614023565b5b8160200151600281111561061557610614614023565b5b1461064c576040517fe1b6c09100000000000000000000000000000000000000000000000000000000815260040160405180910390fd5b6003600089815260200190815260200160002060009054906101000a900460ff16156106a4576040517f948d067400000000000000000000000000000000000000000000000000000000815260040160405180910390fd5b60006106af8861083d565b90506106bc888888610ea3565b5060006001600083815260200190815260200160002060009054906101000a900473ffffffffffffffffffffffffffffffffffffffff1690506107058b8b8b8b8b8b878b61129d565b6001600360008c815260200190815260200160002060006101000a81548160ff021916908315150217905550887f9259c591af3680137739dc2b275c388eb1639a143b49022e7062fa162f14776d8c604051610761919061364e565b60405180910390a25050505050505050505050565b606060008083815260200190815260200160002073__$bb01d34dc76fba63df526a43121fcb267a$__63424c5fab90916040518263ffffffff1660e01b81526004016107c29190613769565b60006040518083038186803b1580156107da57600080fd5b505af41580156107ee573d6000803e3d6000fd5b505050506040513d6000823e3d601f19601f820116820180604052508101906108179190612bd8565b9050919050565b6000806000838152602001908152602001600020600401549050919050565b6000806000838152602001908152602001600020600101549050919050565b600080600083815260200190815260200160002060000160009054906101000a900460ff169050919050565b600073ffffffffffffffffffffffffffffffffffffffff166001600085815260200190815260200160002060009054906101000a900473ffffffffffffffffffffffffffffffffffffffff1673ffffffffffffffffffffffffffffffffffffffff161415610922576040517fecf64f1200000000000000000000000000000000000000000000000000000000815260040160405180910390fd5b61092d8484836115ec565b6109356126c7565b82816000019073ffffffffffffffffffffffffffffffffffffffff16908173ffffffffffffffffffffffffffffffffffffffff168152505081816040019060ff16908160ff1681525050806002600087815260200190815260200160002060008201518160000160006101000a81548173ffffffffffffffffffffffffffffffffffffffff021916908373ffffffffffffffffffffffffffffffffffffffff16021790555060208201518160000160146101000a81548160ff02191690836002811115610a0557610a04614023565b5b021790555060408201518160000160156101000a81548160ff021916908360ff1602179055509050508273ffffffffffffffffffffffffffffffffffffffff167fb447d309fd3b1a27466cdb08ccc02ee5188e9c71fc58af042bafe3e0bb45123086604051610a74919061381b565b60405180910390a25050505050565b81610a8c611198565b73ffffffffffffffffffffffffffffffffffffffff166002600083815260200190815260200160002060000160009054906101000a900473ffffffffffffffffffffffffffffffffffffffff1673ffffffffffffffffffffffffffffffffffffffff1614610b26576040517fe4a34e1500000000000000000000000000000000000000000000000000000000815260040160405180910390fd5b60006002811115610b3a57610b39614023565b5b6002600085815260200190815260200160002060000160149054906101000a900460ff166002811115610b7057610b6f614023565b5b14610ba7576040517f67f5eebb00000000000000000000000000000000000000000000000000000000815260040160405180910390fd5b60016002600085815260200190815260200160002060000160146101000a81548160ff02191690836002811115610be157610be0614023565b5b0217905550610bee611198565b73ffffffffffffffffffffffffffffffffffffffff167f426c5e6bd38728569cc4e1f0a309f506d4c1bc56189920d59343af2639b60d3e8484604051610c35929190613836565b60405180910390a2505050565b81610c4b611198565b73ffffffffffffffffffffffffffffffffffffffff166002600083815260200190815260200160002060000160009054906101000a900473ffffffffffffffffffffffffffffffffffffffff1673ffffffffffffffffffffffffffffffffffffffff1614610ce5576040517fe4a34e1500000000000000000000000000000000000000000000000000000000815260040160405180910390fd5b60016002811115610cf957610cf8614023565b5b6002600085815260200190815260200160002060000160149054906101000a900460ff166002811115610d2f57610d2e614023565b5b14610d66576040517fe1b6c09100000000000000000000000000000000000000000000000000000000815260040160405180910390fd5b600280600085815260200190815260200160002060000160146101000a81548160ff02191690836002811115610d9f57610d9e614023565b5b0217905550610dac611198565b73ffffffffffffffffffffffffffffffffffffffff167f4a0c303670c99ff9b9eab216bcca4f03007fbece83818599a2946ea62c541fde8484604051610df3929190613836565b60405180910390a2505050565b600080600083815260200190815260200160002073__$bb01d34dc76fba63df526a43121fcb267a$__63ce8f1f3590916040518263ffffffff1660e01b8152600401610e4c9190613769565b60206040518083038186803b158015610e6457600080fd5b505af4158015610e78573d6000803e3d6000fd5b505050506040513d601f19601f82011682018060405250810190610e9c9190612de9565b9050919050565b6000600160008086815260200190815260200160002060000160009054906101000a900460ff1660ff1614156110345760008383810190610ee49190612c21565b90506000600267ffffffffffffffff811115610f0357610f02614081565b5b604051908082528060200260200182016040528015610f315781602001602082028036833780820191505090505b50905060005b6002811015610f8a57828160028110610f5357610f52614052565b5b6020020151828281518110610f6b57610f6a614052565b5b6020026020010181815250508080610f8290613ee6565b915050610f37565b50600073__$bb01d34dc76fba63df526a43121fcb267a$__6374d4479e6000808a8152602001908152602001600020846040518363ffffffff1660e01b8152600401610fd79291906137bb565b60206040518083038186803b158015610fef57600080fd5b505af4158015611003573d6000803e3d6000fd5b505050506040513d601f19601f820116820180604052508101906110279190612c7c565b9050809350505050611191565b600083838101906110459190612c4e565b90506000600867ffffffffffffffff81111561106457611063614081565b5b6040519080825280602002602001820160405280156110925781602001602082028036833780820191505090505b50905060005b60088110156110eb578281600881106110b4576110b3614052565b5b60200201518282815181106110cc576110cb614052565b5b60200260200101818152505080806110e390613ee6565b915050611098565b50600073__$bb01d34dc76fba63df526a43121fcb267a$__6374d4479e6000808a8152602001908152602001600020846040518363ffffffff1660e01b81526004016111389291906137bb565b60206040518083038186803b15801561115057600080fd5b505af4158015611164573d6000803e3d6000fd5b505050506040513d601f19601f820116820180604052508101906111889190612c7c565b90508093505050505b9392505050565b600033905090565b60006111ab8361083d565b14156111e3576040517f029f057900000000000000000000000000000000000000000000000000000000815260040160405180910390fd5b611207816000808581526020019081526020016000206117e390919063ffffffff16565b600061121283610e00565b9050600060016112218561081e565b61122b9190613d83565b9050837f19239b3f93cd10558aaf11423af70c77763bf54f52bcc75bfa74d4d13548cde98285856040516112619392919061385f565b60405180910390a250505050565b611297838383600080898152602001908152602001600020611aa8909392919063ffffffff16565b50505050565b60006112a889611fea565b905060006040518060a00160405280866008806020026040519081016040528092919082600860200280828437600081840152601f19601f82011690508083019250505050505081526020018a815260200183815260200189815260200188888080601f016020809104026020016040519081016040528093929190818152602001838380828437600081840152601f19601f82011690508083019250505050505050815250905060008173__$2d408c303a7e487061c2c4d5102d665f73$__63f0d4020d9091866040518363ffffffff1660e01b815260040161138d9291906137eb565b60006040518083038186803b1580156113a557600080fd5b505af41580156113b9573d6000803e3d6000fd5b505050506040513d6000823e3d601f19601f820116820180604052508101906113e29190612d44565b50905060008573ffffffffffffffffffffffffffffffffffffffff1663b4b764f260405180604001604052808a60006008811061142257611421614052565b5b602002013581526020018a6001600881106114405761143f614052565b5b6020020135815250604051806040016040528060405180604001604052808d60026008811061147257611471614052565b5b602002013581526020018d6003600881106114905761148f614052565b5b6020020135815250815260200160405180604001604052808d6004600881106114bc576114bb614052565b5b602002013581526020018d6005600881106114da576114d9614052565b5b602002013581525081525060405180604001604052808c60066008811061150457611503614052565b5b602002013581526020018c60076008811061152257611521614052565b5b6020020135815250868a6040518663ffffffff1660e01b815260040161154c9594939291906135bb565b60206040518083038186803b15801561156457600080fd5b505afa158015611578573d6000803e3d6000fd5b505050506040513d601f19601f8201168201806040525081019061159c9190612c7c565b9050806115de576040517f08c379a00000000000000000000000000000000000000000000000000000000081526004016115d5906136c9565b60405180910390fd5b505050505050505050505050565b7f30644e72e131a029b85045b68181585d2833e84879b9709143e1f593f00000018310611645576040517fa61c78ca00000000000000000000000000000000000000000000000000000000815260040160405180910390fd5b60006116508461083d565b14611687576040517f8121725b00000000000000000000000000000000000000000000000000000000815260040160405180910390fd5b60008084815260200190815260200160002073__$bb01d34dc76fba63df526a43121fcb267a$__633330ca3a909184846040518463ffffffff1660e01b81526004016116d593929190613784565b60006040518083038186803b1580156116ed57600080fd5b505af4158015611701573d6000803e3d6000fd5b50505050600080600085815260200190815260200160002073__$bb01d34dc76fba63df526a43121fcb267a$__63ce8f1f3590916040518263ffffffff1660e01b81526004016117519190613769565b60206040518083038186803b15801561176957600080fd5b505af415801561177d573d6000803e3d6000fd5b505050506040513d601f19601f820116820180604052508101906117a19190612de9565b9050837f0d000126c26c1bbe400fd2332187f75d58b69306f9ec47b408686189d3a0083384836040516117d5929190613836565b60405180910390a250505050565b7f30644e72e131a029b85045b68181585d2833e84879b9709143e1f593f00000018110611845576040517f08c379a000000000000000000000000000000000000000000000000000000000815260040161183c90613689565b60405180910390fd5b816001015460026118569190613c65565b82600401541061189b576040517f08c379a000000000000000000000000000000000000000000000000000000000815260040161189290613729565b60405180910390fd5b600082600401549050600082905060005b84600101548160ff161015611a105760006002846118ca9190613f63565b141561191c5760405180604001604052808381526020016118ed8360ff16612021565b8152508560050160008360ff168152602001908152602001600020906002611916929190612713565b5061194e565b818560050160008360ff16815260200190815260200160002060016002811061194857611947614052565b5b01819055505b73__$7dbbf6f96c7ef3a793cfa7d9c67f652bb8$__6329a5f2f68660050160008460ff1681526020019081526020016000206040518263ffffffff1660e01b815260040161199c9190613618565b60206040518083038186803b1580156119b457600080fd5b505af41580156119c8573d6000803e3d6000fd5b505050506040513d601f19601f820116820180604052508101906119ec9190612de9565b91506002836119fb9190613be1565b92508080611a0890613f2f565b9150506118ac565b506000601e60018660020160009054906101000a900463ffffffff16611a369190613ba7565b611a409190613f94565b9050808560020160006101000a81548163ffffffff021916908363ffffffff160217905550818560030160008363ffffffff168152602001908152602001600020819055506001856004016000828254611a9a9190613b51565b925050819055505050505050565b6000611ab382612681565b9050611ac9858267ffffffffffffffff1661269a565b15611e0f578263ffffffff16856008018660060160008467ffffffffffffffff1681526020019081526020016000205481548110611b0a57611b09614052565b5b90600052602060002090600402016002015410611b5c576040517f08c379a0000000000000000000000000000000000000000000000000000000008152600401611b53906136e9565b60405180910390fd5b62010000856008018660060160008467ffffffffffffffff1681526020019081526020016000205481548110611b9557611b94614052565b5b906000526020600020906004020160020154611bb19190613b51565b8363ffffffff1610611bf8576040517f08c379a0000000000000000000000000000000000000000000000000000000008152600401611bef90613749565b60405180910390fd5b846008018560060160008367ffffffffffffffff1681526020019081526020016000205481548110611c2d57611c2c614052565b5b9060005260206000209060040201600301548214611c80576040517f08c379a0000000000000000000000000000000000000000000000000000000008152600401611c77906136a9565b60405180910390fd5b60008560060160008367ffffffffffffffff1681526020019081526020016000205490508363ffffffff16866008018281548110611cc157611cc0614052565b5b90600052602060002090600402016002018190555084866008018281548110611ced57611cec614052565b5b9060005260206000209060040201600101819055506000601e600188600a0160008667ffffffffffffffff16815260200190815260200160002060009054906101000a900463ffffffff16611d429190613ba7565b611d4c9190613f94565b90508087600a0160008567ffffffffffffffff16815260200190815260200160002060006101000a81548163ffffffff021916908363ffffffff160217905550858760090160008567ffffffffffffffff16815260200190815260200160002060008363ffffffff1663ffffffff168152602001908152602001600020819055507f918597b0fdca66b353a1b90d2287c2b06307c4d35c824dfcffeb4b675c961ce4838688604051611e0093929190613896565b60405180910390a15050611fe3565b8460000160009054906101000a900460ff1660ff16856008018054905010611e6c576040517f08c379a0000000000000000000000000000000000000000000000000000000008152600401611e6390613669565b60405180910390fd5b60018560070160008367ffffffffffffffff16815260200190815260200160002060006101000a81548160ff021916908315150217905550600085600801805490509050600060405180608001604052808467ffffffffffffffff1681526020018781526020018663ffffffff16815260200185815250905086600801819080600181540180825580915050600190039060005260206000209060040201600090919091909150600082015181600001556020820151816001015560408201518160020155606082015181600301555050818760060160008567ffffffffffffffff168152602001908152602001600020819055506000868860090160008667ffffffffffffffff16815260200190815260200160002060008363ffffffff1663ffffffff168152602001908152602001600020819055507f5fe2c40955fb42111954fb4f898e4db4998d64ebaae1c872141ff1943990418a848789604051611fd793929190613896565b60405180910390a15050505b5050505050565b6000600882604051602001611fff919061357e565b6040516020818303038152906040528051906020012060001c901c9050919050565b600080821415612053577f2fe54c60d3acabf3343a35b6eba15db4821b340f76e741e2249685ed4899af6c905061267c565b6001821415612084577f13e37f2d6cb86c78ccc1788607c2b199788c6bb0a615a21f2e7a8e88384222f8905061267c565b60028214156120b5577f217126fa352c326896e8c2803eec8fd63ad50cf65edfef27a41a9e32dc622765905061267c565b60038214156120e6577f0e28a61a9b3e91007d5a9e3ada18e1b24d6d230c618388ee5df34cacd7397eee905061267c565b6004821415612117577f27953447a6979839536badc5425ed15fadb0e292e9bc36f92f0aa5cfa5013587905061267c565b6005821415612148577f194191edbfb91d10f6a7afd315f33095410c7801c47175c2df6dc2cce0e3affc905061267c565b6006821415612179577f1733dece17d71190516dbaf1927936fa643dc7079fc0cc731de9d6845a47741f905061267c565b60078214156121aa577f267855a7dc75db39d81d17f95d0a7aa572bf5ae19f4db0e84221d2b2ef999219905061267c565b60088214156121db577f1184e11836b4c36ad8238a340ecc0985eeba665327e33e9b0e3641027c27620d905061267c565b600982141561220c577f0702ab83a135d7f55350ab1bfaa90babd8fc1d2b3e6a7215381a7b2213d6c5ce905061267c565b600a82141561223d577f2eecc0de814cfd8c57ce882babb2e30d1da56621aef7a47f3291cffeaec26ad7905061267c565b600b82141561226e577f280bc02145c155d5833585b6c7b08501055157dd30ce005319621dc462d33b47905061267c565b600c82141561229f577f045132221d1fa0a7f4aed8acd2cbec1e2189b7732ccb2ec272b9c60f0d5afc5b905061267c565b600d8214156122d0577f27f427ccbf58a44b1270abbe4eda6ba53bd6ac4d88cf1e00a13c4371ce71d366905061267c565b600e821415612301577f1617eaae5064f26e8f8a6493ae92bfded7fde71b65df1ca6d5dcec0df70b2cef905061267c565b600f821415612332577f20c6b400d0ea1b15435703c31c31ee63ad7ba5c8da66cec2796feacea575abca905061267c565b6010821415612363577f09589ddb438723f53a8e57bdada7c5f8ed67e8fece3889a73618732965645eec905061267c565b6011821415612393577e64b6a738a5ff537db7b220f3394f0ecbd35bfd355c5425dc1166bf3236079b905061267c565b60128214156123c4577f095de56281b1d5055e897c3574ff790d5ee81dbc5df784ad2d67795e557c9e9f905061267c565b60138214156123f5577f11cf2e2887aa21963a6ec14289183efe4d4c60f14ecd3d6fe0beebdf855a9b63905061267c565b6014821415612426577f2b0f6fc0179fa65b6f73627c0e1e84c7374d2eaec44c9a48f2571393ea77bcbb905061267c565b6015821415612457577f16fdb637c2abf9c0f988dbf2fd64258c46fb6a273d537b2cf1603ea460b13279905061267c565b6016821415612488577f21bbd7e944f6124dad4c376df9cc12e7ca66e47dff703ff7cedb1a454edcf0ff905061267c565b60178214156124b9577f2784f8220b1c963e468f590f137baaa1625b3b92a27ad9b6e84eb0d3454d9962905061267c565b60188214156124ea577f16ace1a65b7534142f8cc1aad810b3d6a7a74ca905d9c275cb98ba57e509fc10905061267c565b601982141561251b577f2328068c6a8c24265124debd8fe10d3f29f0665ea725a65e3638f6192a96a013905061267c565b601a82141561254c577f2ddb991be1f028022411b4c4d2c22043e5e751c120736f00adf54acab1c9ac14905061267c565b601b82141561257d577f0113798410eaeb95056a464f70521eb58377c0155f2fe518a5594d38cc209cc0905061267c565b601c8214156125ae577f202d1ae61526f0d0d01ef80fb5d4055a7af45721024c2c24cffd6a3798f54d50905061267c565b601d8214156125df577f23ab323453748129f2765f79615022f5bebd6f4096a796300aab049a60b0f187905061267c565b601e821415612610577f1f15585f8947e378bcf8bd918716799da909acdb944c57150b1eb4565fda8aa0905061267c565b601f821415612641577f1eb064b21055ac6a350cf41eb30e4ce2cb19680217df3a243617c2838185ad06905061267c565b6040517f08c379a000000000000000000000000000000000000000000000000000000000815260040161267390613709565b60405180910390fd5b919050565b600060d082901b60d01c65ffffffffffff169050919050565b600082600701600083815260200190815260200160002060009054906101000a900460ff16905092915050565b6040518060600160405280600073ffffffffffffffffffffffffffffffffffffffff1681526020016000600281111561270357612702614023565b5b8152602001600060ff1681525090565b8260028101928215612742579160200282015b82811115612741578251825591602001919060010190612726565b5b50905061274f9190612753565b5090565b5b8082111561276c576000816000905550600101612754565b5090565b600061278361277e8461390d565b6138e8565b905080838252602082019050828560208602820111156127a6576127a56140d2565b5b60005b858110156127d657816127bc8882612a73565b8452602084019350602083019250506001810190506127a9565b5050509392505050565b60006127f36127ee84613939565b6138e8565b90508083825260208201905082856080860282011115612816576128156140d2565b5b60005b85811015612846578161282c8882612b0c565b845260208401935060808301925050600181019050612819565b5050509392505050565b600061286361285e84613965565b6138e8565b9050808285602086028201111561287d5761287c6140d2565b5b60005b858110156128ad57816128938882612b84565b845260208401935060208301925050600181019050612880565b5050509392505050565b60006128ca6128c58461398b565b6138e8565b905080828560208602820111156128e4576128e36140d2565b5b60005b8581101561291457816128fa8882612b84565b8452602084019350602083019250506001810190506128e7565b5050509392505050565b600061293161292c846139b1565b6138e8565b90508281526020810184848401111561294d5761294c6140d7565b5b612958848285613e68565b509392505050565b60008135905061296f816142cb565b92915050565b600082601f83011261298a576129896140c8565b5b815161299a848260208601612770565b91505092915050565b600082601f8301126129b8576129b76140c8565b5b81516129c88482602086016127e0565b91505092915050565b600082601f8301126129e6576129e56140c8565b5b60026129f3848285612850565b91505092915050565b600081905082602060080282011115612a1857612a176140d2565b5b92915050565b600082601f830112612a3357612a326140c8565b5b6008612a408482856128b7565b91505092915050565b600081519050612a58816142e2565b92915050565b600081359050612a6d816142f9565b92915050565b600081519050612a82816142f9565b92915050565b60008083601f840112612a9e57612a9d6140c8565b5b8235905067ffffffffffffffff811115612abb57612aba6140c3565b5b602083019150836001820283011115612ad757612ad66140d2565b5b9250929050565b600082601f830112612af357612af26140c8565b5b8151612b0384826020860161291e565b91505092915050565b600060808284031215612b2257612b216140cd565b5b612b2c60806138e8565b90506000612b3c84828501612b99565b6000830152506020612b5084828501612b99565b6020830152506040612b6484828501612b99565b6040830152506060612b7884828501612a73565b60608301525092915050565b600081359050612b9381614310565b92915050565b600081519050612ba881614310565b92915050565b600081359050612bbd81614327565b92915050565b600081359050612bd28161433e565b92915050565b600060208284031215612bee57612bed6140e1565b5b600082015167ffffffffffffffff811115612c0c57612c0b6140dc565b5b612c18848285016129a3565b91505092915050565b600060408284031215612c3757612c366140e1565b5b6000612c45848285016129d1565b91505092915050565b60006101008284031215612c6557612c646140e1565b5b6000612c7384828501612a1e565b91505092915050565b600060208284031215612c9257612c916140e1565b5b6000612ca084828501612a49565b91505092915050565b6000806000806000806101808789031215612cc757612cc66140e1565b5b6000612cd589828a01612a5e565b9650506020612ce689828a01612b84565b9550506040612cf789828a01612b84565b945050606087013567ffffffffffffffff811115612d1857612d176140dc565b5b612d2489828a01612a88565b93509350506080612d3789828a016129fc565b9150509295509295509295565b60008060408385031215612d5b57612d5a6140e1565b5b600083015167ffffffffffffffff811115612d7957612d786140dc565b5b612d8585828601612ade565b925050602083015167ffffffffffffffff811115612da657612da56140dc565b5b612db285828601612975565b9150509250929050565b600060208284031215612dd257612dd16140e1565b5b6000612de084828501612b84565b91505092915050565b600060208284031215612dff57612dfe6140e1565b5b6000612e0d84828501612b99565b91505092915050565b600080600060408486031215612e2f57612e2e6140e1565b5b6000612e3d86828701612b84565b935050602084013567ffffffffffffffff811115612e5e57612e5d6140dc565b5b612e6a86828701612a88565b92509250509250925092565b60008060408385031215612e8d57612e8c6140e1565b5b6000612e9b85828601612b84565b9250506020612eac85828601612b84565b9150509250929050565b60008060008060808587031215612ed057612ecf6140e1565b5b6000612ede87828801612b84565b9450506020612eef87828801612b84565b9350506040612f0087828801612960565b9250506060612f1187828801612bc3565b91505092959194509250565b60008060008060808587031215612f3757612f366140e1565b5b6000612f4587828801612b84565b9450506020612f5687828801612b84565b9350506040612f6787828801612bae565b9250506060612f7887828801612a5e565b91505092959194509250565b6000612f908383613099565b60408301905092915050565b6000612fa88383613428565b60808301905092915050565b6000612fc08383613506565b60208301905092915050565b6000612fd88383613533565b60208301905092915050565b612fed81613a2a565b612ff78184613ac5565b9250613002826139e2565b8060005b8381101561303357815161301a8782612f84565b965061302583613a77565b925050600181019050613006565b505050505050565b600061304682613a35565b6130508185613ad0565b935061305b836139ec565b8060005b8381101561308c5781516130738882612f9c565b975061307e83613a84565b92505060018101905061305f565b5085935050505092915050565b6130a281613a40565b6130ac8184613ae1565b92506130b7826139fc565b8060005b838110156130e85781516130cf8782612fb4565b96506130da83613a91565b9250506001810190506130bb565b505050505050565b6130f981613a40565b6131038184613aec565b925061310e826139fc565b8060005b8381101561313f5781516131268782612fb4565b965061313183613a91565b925050600181019050613112565b505050505050565b61315081613a4b565b61315a8184613af7565b925061316582613a06565b8060005b8381101561319d5761317a826140b0565b6131848782612fcc565b965061318f83613a9e565b925050600181019050613169565b505050505050565b6131ae81613a56565b6131b88184613b02565b92506131c382613a10565b8060005b838110156131f45781516131db8782612fcc565b96506131e683613aab565b9250506001810190506131c7565b505050505050565b600061320782613a61565b6132118185613b0d565b935061321c83613a1a565b8060005b8381101561324d5781516132348882612fcc565b975061323f83613ab8565b925050600181019050613220565b5085935050505092915050565b61326381613dd3565b82525050565b61327281613ddf565b82525050565b61328181613ddf565b82525050565b61329861329382613ddf565b613f59565b82525050565b60006132a982613a6c565b6132b38185613b1e565b93506132c3818560208601613e68565b6132cc816140e6565b840191505092915050565b60006132e282613a6c565b6132ec8185613b2f565b93506132fc818560208601613e68565b613305816140e6565b840191505092915050565b600061331d601a83613b40565b915061332882614111565b602082019050919050565b6000613340604083613b40565b915061334b8261413a565b604082019050919050565b6000613363601e83613b40565b915061336e82614189565b602082019050919050565b6000613386600c83613b40565b9150613391826141b2565b602082019050919050565b60006133a9601e83613b40565b91506133b4826141db565b602082019050919050565b60006133cc601383613b40565b91506133d782614204565b602082019050919050565b60006133ef602b83613b40565b91506133fa8261422d565b604082019050919050565b6000613412602783613b40565b915061341d8261427c565b604082019050919050565b60808201600082015161343e6000850182613506565b5060208201516134516020850182613506565b5060408201516134646040850182613506565b5060608201516134776060850182613269565b50505050565b8082525050565b8082525050565b6000610180830160008301516134a460008601826131a5565b5060208301516134b8610100860182613533565b5060408301516134cc610120860182613533565b5060608301516134e0610140860182613533565b5060808301518482036101608601526134f982826132d7565b9150508091505092915050565b61350f81613e09565b82525050565b61351e81613e09565b82525050565b61352d81613e09565b82525050565b61353c81613e09565b82525050565b61354b81613e44565b82525050565b61355a81613e56565b82525050565b61356981613e37565b82525050565b61357881613e37565b82525050565b600061358a8284613287565b60208201915081905092915050565b600060208201905081810360008301526135b3818461303b565b905092915050565b6000610140820190506135d160008301886130f0565b6135de6040830187612fe4565b6135eb60c08301866130f0565b8181036101008301526135fe818561329e565b905061360e610120830184613560565b9695505050505050565b600060408201905061362d6000830184613147565b92915050565b6000602082019050613648600083018461325a565b92915050565b60006020820190506136636000830184613278565b92915050565b6000602082019050818103600083015261368281613310565b9050919050565b600060208201905081810360008301526136a281613333565b9050919050565b600060208201905081810360008301526136c281613356565b9050919050565b600060208201905081810360008301526136e281613379565b9050919050565b600060208201905081810360008301526137028161339c565b9050919050565b60006020820190508181036000830152613722816133bf565b9050919050565b60006020820190508181036000830152613742816133e2565b9050919050565b6000602082019050818103600083015261376281613405565b9050919050565b600060208201905061377e600083018461347d565b92915050565b6000606082019050613799600083018661347d565b6137a66020830185613524565b6137b3604083018461356f565b949350505050565b60006040820190506137d06000830185613484565b81810360208301526137e281846131fc565b90509392505050565b60006040820190508181036000830152613805818561348b565b9050613814602083018461356f565b9392505050565b60006020820190506138306000830184613515565b92915050565b600060408201905061384b6000830185613515565b6138586020830184613515565b9392505050565b60006060820190506138746000830186613515565b6138816020830185613515565b61388e6040830184613515565b949350505050565b60006060820190506138ab6000830186613551565b6138b86020830185613542565b6138c56040830184613515565b949350505050565b60006020820190506138e26000830184613560565b92915050565b60006138f2613903565b90506138fe8282613eb5565b919050565b6000604051905090565b600067ffffffffffffffff82111561392857613927614081565b5b602082029050602081019050919050565b600067ffffffffffffffff82111561395457613953614081565b5b602082029050602081019050919050565b600067ffffffffffffffff8211156139805761397f614081565b5b602082029050919050565b600067ffffffffffffffff8211156139a6576139a5614081565b5b602082029050919050565b600067ffffffffffffffff8211156139cc576139cb614081565b5b6139d5826140e6565b9050602081019050919050565b6000819050919050565b6000819050602082019050919050565b6000819050919050565b6000819050919050565b6000819050919050565b6000819050602082019050919050565b600060029050919050565b600081519050919050565b600060029050919050565b600060029050919050565b600060089050919050565b600081519050919050565b600081519050919050565b6000602082019050919050565b6000602082019050919050565b6000602082019050919050565b6000600182019050919050565b6000602082019050919050565b6000602082019050919050565b600081905092915050565b600082825260208201905092915050565b600081905092915050565b600081905092915050565b600081905092915050565b600081905092915050565b600082825260208201905092915050565b600082825260208201905092915050565b600082825260208201905092915050565b600082825260208201905092915050565b6000613b5c82613e09565b9150613b6783613e09565b9250827fffffffffffffffffffffffffffffffffffffffffffffffffffffffffffffffff03821115613b9c57613b9b613fc5565b5b828201905092915050565b6000613bb282613e13565b9150613bbd83613e13565b92508263ffffffff03821115613bd657613bd5613fc5565b5b828201905092915050565b6000613bec82613e09565b9150613bf783613e09565b925082613c0757613c06613ff4565b5b828204905092915050565b6000808291508390505b6001851115613c5c57808604811115613c3857613c37613fc5565b5b6001851615613c475780820291505b8081029050613c5585614104565b9450613c1c565b94509492505050565b6000613c7082613e09565b9150613c7b83613e09565b9250613ca87fffffffffffffffffffffffffffffffffffffffffffffffffffffffffffffffff8484613cb0565b905092915050565b600082613cc05760019050613d7c565b81613cce5760009050613d7c565b8160018114613ce45760028114613cee57613d1d565b6001915050613d7c565b60ff841115613d0057613cff613fc5565b5b8360020a915084821115613d1757613d16613fc5565b5b50613d7c565b5060208310610133831016604e8410600b8410161715613d525782820a905083811115613d4d57613d4c613fc5565b5b613d7c565b613d5f8484846001613c12565b92509050818404811115613d7657613d75613fc5565b5b81810290505b9392505050565b6000613d8e82613e09565b9150613d9983613e09565b925082821015613dac57613dab613fc5565b5b828203905092915050565b6000819050919050565b6000613dcc82613de9565b9050919050565b60008115159050919050565b6000819050919050565b600073ffffffffffffffffffffffffffffffffffffffff82169050919050565b6000819050919050565b600063ffffffff82169050919050565b600067ffffffffffffffff82169050919050565b600060ff82169050919050565b6000613e4f82613e13565b9050919050565b6000613e6182613e23565b9050919050565b60005b83811015613e86578082015181840152602081019050613e6b565b83811115613e95576000848401525b50505050565b6000613eae613ea9836140f7565b613db7565b9050919050565b613ebe826140e6565b810181811067ffffffffffffffff82111715613edd57613edc614081565b5b80604052505050565b6000613ef182613e09565b91507fffffffffffffffffffffffffffffffffffffffffffffffffffffffffffffffff821415613f2457613f23613fc5565b5b600182019050919050565b6000613f3a82613e37565b915060ff821415613f4e57613f4d613fc5565b5b600182019050919050565b6000819050919050565b6000613f6e82613e09565b9150613f7983613e09565b925082613f8957613f88613ff4565b5b828206905092915050565b6000613f9f82613e13565b9150613faa83613e13565b925082613fba57613fb9613ff4565b5b828206905092915050565b7f4e487b7100000000000000000000000000000000000000000000000000000000600052601160045260246000fd5b7f4e487b7100000000000000000000000000000000000000000000000000000000600052601260045260246000fd5b7f4e487b7100000000000000000000000000000000000000000000000000000000600052602160045260246000fd5b7f4e487b7100000000000000000000000000000000000000000000000000000000600052603260045260246000fd5b7f4e487b7100000000000000000000000000000000000000000000000000000000600052604160045260246000fd5b60006140bc8254613e9b565b9050919050565b600080fd5b600080fd5b600080fd5b600080fd5b600080fd5b600080fd5b600080fd5b6000601f19601f8301169050919050565b60008160001c9050919050565b60008160011c9050919050565b7f5468697320416e63686f72206973206174206361706163697479000000000000600082015250565b7f4c696e6b61626c65496e6372656d656e74616c42696e617279547265653a206c60008201527f656166206d757374206265203c20534e41524b5f5343414c41525f4649454c44602082015250565b7f7372635265736f757263654944206d757374206265207468652073616d650000600082015250565b7f696e76616c696450726f6f660000000000000000000000000000000000000000600082015250565b7f4e6577206c65616620696e646578206d75737420626520677265617465720000600082015250565b7f496e646578206f7574206f6620626f756e647300000000000000000000000000600082015250565b7f4c696e6b61626c65496e6372656d656e74616c42696e617279547265653a207460008201527f7265652069732066756c6c000000000000000000000000000000000000000000602082015250565b7f4e6577206c65616620696e646578206d7573742077697468696e20325e31362060008201527f7570646174657300000000000000000000000000000000000000000000000000602082015250565b6142d481613dc1565b81146142df57600080fd5b50565b6142eb81613dd3565b81146142f657600080fd5b50565b61430281613ddf565b811461430d57600080fd5b50565b61431981613e09565b811461432457600080fd5b50565b61433081613e13565b811461433b57600080fd5b50565b61434781613e37565b811461435257600080fd5b5056fea26469706673582212207dbb4b807cfa2d519673246c770d46909b760fd53392dc69b5c7e7fbbc3aa89d64736f6c63430008060033","opcodes":"PUSH1 0x80 PUSH1 0x40 MSTORE CALLVALUE DUP1 ISZERO PUSH3 0x11 JUMPI PUSH1 0x0 DUP1 REVERT JUMPDEST POP PUSH1 0x40 MLOAD PUSH3 0x479E CODESIZE SUB DUP1 PUSH3 0x479E DUP4 CODECOPY DUP2 DUP2 ADD PUSH1 0x40 MSTORE DUP2 ADD SWAP1 PUSH3 0x37 SWAP2 SWAP1 PUSH3 0x22A JUMP JUMPDEST PUSH1 0x0 JUMPDEST DUP2 MLOAD DUP2 PUSH1 0xFF AND LT ISZERO PUSH3 0xED JUMPI DUP2 DUP2 PUSH1 0xFF AND DUP2 MLOAD DUP2 LT PUSH3 0x60 JUMPI PUSH3 0x5F PUSH3 0x347 JUMP JUMPDEST JUMPDEST PUSH1 0x20 MUL PUSH1 0x20 ADD ADD MLOAD PUSH1 0x0 ADD MLOAD PUSH1 0x1 PUSH1 0x0 DUP5 DUP5 PUSH1 0xFF AND DUP2 MLOAD DUP2 LT PUSH3 0x89 JUMPI PUSH3 0x88 PUSH3 0x347 JUMP JUMPDEST JUMPDEST PUSH1 0x20 MUL PUSH1 0x20 ADD ADD MLOAD PUSH1 0x20 ADD MLOAD DUP2 MSTORE PUSH1 0x20 ADD SWAP1 DUP2 MSTORE PUSH1 0x20 ADD PUSH1 0x0 KECCAK256 PUSH1 0x0 PUSH2 0x100 EXP DUP2 SLOAD DUP2 PUSH20 0xFFFFFFFFFFFFFFFFFFFFFFFFFFFFFFFFFFFFFFFF MUL NOT AND SWAP1 DUP4 PUSH20 0xFFFFFFFFFFFFFFFFFFFFFFFFFFFFFFFFFFFFFFFF AND MUL OR SWAP1 SSTORE POP DUP1 PUSH1 0x1 ADD SWAP1 POP PUSH3 0x3A JUMP JUMPDEST POP POP PUSH3 0x403 JUMP JUMPDEST PUSH1 0x0 PUSH3 0x10C PUSH3 0x106 DUP5 PUSH3 0x2A4 JUMP JUMPDEST PUSH3 0x27B JUMP JUMPDEST SWAP1 POP DUP1 DUP4 DUP3 MSTORE PUSH1 0x20 DUP3 ADD SWAP1 POP DUP3 DUP6 PUSH1 0x40 DUP7 MUL DUP3 ADD GT ISZERO PUSH3 0x132 JUMPI PUSH3 0x131 PUSH3 0x3AF JUMP JUMPDEST JUMPDEST PUSH1 0x0 JUMPDEST DUP6 DUP2 LT ISZERO PUSH3 0x166 JUMPI DUP2 PUSH3 0x14B DUP9 DUP3 PUSH3 0x1BA JUMP JUMPDEST DUP5 MSTORE PUSH1 0x20 DUP5 ADD SWAP4 POP PUSH1 0x40 DUP4 ADD SWAP3 POP POP PUSH1 0x1 DUP2 ADD SWAP1 POP PUSH3 0x135 JUMP JUMPDEST POP POP POP SWAP4 SWAP3 POP POP POP JUMP JUMPDEST PUSH1 0x0 DUP2 MLOAD SWAP1 POP PUSH3 0x181 DUP2 PUSH3 0x3CF JUMP JUMPDEST SWAP3 SWAP2 POP POP JUMP JUMPDEST PUSH1 0x0 DUP3 PUSH1 0x1F DUP4 ADD SLT PUSH3 0x19F JUMPI PUSH3 0x19E PUSH3 0x3A5 JUMP JUMPDEST JUMPDEST DUP2 MLOAD PUSH3 0x1B1 DUP5 DUP3 PUSH1 0x20 DUP7 ADD PUSH3 0xF5 JUMP JUMPDEST SWAP2 POP POP SWAP3 SWAP2 POP POP JUMP JUMPDEST PUSH1 0x0 PUSH1 0x40 DUP3 DUP5 SUB SLT ISZERO PUSH3 0x1D3 JUMPI PUSH3 0x1D2 PUSH3 0x3AA JUMP JUMPDEST JUMPDEST PUSH3 0x1DF PUSH1 0x40 PUSH3 0x27B JUMP JUMPDEST SWAP1 POP PUSH1 0x0 PUSH3 0x1F1 DUP5 DUP3 DUP6 ADD PUSH3 0x170 JUMP JUMPDEST PUSH1 0x0 DUP4 ADD MSTORE POP PUSH1 0x20 PUSH3 0x207 DUP5 DUP3 DUP6 ADD PUSH3 0x213 JUMP JUMPDEST PUSH1 0x20 DUP4 ADD MSTORE POP SWAP3 SWAP2 POP POP JUMP JUMPDEST PUSH1 0x0 DUP2 MLOAD SWAP1 POP PUSH3 0x224 DUP2 PUSH3 0x3E9 JUMP JUMPDEST SWAP3 SWAP2 POP POP JUMP JUMPDEST PUSH1 0x0 PUSH1 0x20 DUP3 DUP5 SUB SLT ISZERO PUSH3 0x243 JUMPI PUSH3 0x242 PUSH3 0x3B9 JUMP JUMPDEST JUMPDEST PUSH1 0x0 DUP3 ADD MLOAD PUSH8 0xFFFFFFFFFFFFFFFF DUP2 GT ISZERO PUSH3 0x264 JUMPI PUSH3 0x263 PUSH3 0x3B4 JUMP JUMPDEST JUMPDEST PUSH3 0x272 DUP5 DUP3 DUP6 ADD PUSH3 0x187 JUMP JUMPDEST SWAP2 POP POP SWAP3 SWAP2 POP POP JUMP JUMPDEST PUSH1 0x0 PUSH3 0x287 PUSH3 0x29A JUMP JUMPDEST SWAP1 POP PUSH3 0x295 DUP3 DUP3 PUSH3 0x311 JUMP JUMPDEST SWAP2 SWAP1 POP JUMP JUMPDEST PUSH1 0x0 PUSH1 0x40 MLOAD SWAP1 POP SWAP1 JUMP JUMPDEST PUSH1 0x0 PUSH8 0xFFFFFFFFFFFFFFFF DUP3 GT ISZERO PUSH3 0x2C2 JUMPI PUSH3 0x2C1 PUSH3 0x376 JUMP JUMPDEST JUMPDEST PUSH1 0x20 DUP3 MUL SWAP1 POP PUSH1 0x20 DUP2 ADD SWAP1 POP SWAP2 SWAP1 POP JUMP JUMPDEST PUSH1 0x0 PUSH3 0x2E0 DUP3 PUSH3 0x2E7 JUMP JUMPDEST SWAP1 POP SWAP2 SWAP1 POP JUMP JUMPDEST PUSH1 0x0 PUSH20 0xFFFFFFFFFFFFFFFFFFFFFFFFFFFFFFFFFFFFFFFF DUP3 AND SWAP1 POP SWAP2 SWAP1 POP JUMP JUMPDEST PUSH1 0x0 DUP2 SWAP1 POP SWAP2 SWAP1 POP JUMP JUMPDEST PUSH3 0x31C DUP3 PUSH3 0x3BE JUMP JUMPDEST DUP2 ADD DUP2 DUP2 LT PUSH8 0xFFFFFFFFFFFFFFFF DUP3 GT OR ISZERO PUSH3 0x33E JUMPI PUSH3 0x33D PUSH3 0x376 JUMP JUMPDEST JUMPDEST DUP1 PUSH1 0x40 MSTORE POP POP POP JUMP JUMPDEST PUSH32 0x4E487B7100000000000000000000000000000000000000000000000000000000 PUSH1 0x0 MSTORE PUSH1 0x32 PUSH1 0x4 MSTORE PUSH1 0x24 PUSH1 0x0 REVERT JUMPDEST PUSH32 0x4E487B7100000000000000000000000000000000000000000000000000000000 PUSH1 0x0 MSTORE PUSH1 0x41 PUSH1 0x4 MSTORE PUSH1 0x24 PUSH1 0x0 REVERT JUMPDEST PUSH1 0x0 DUP1 REVERT JUMPDEST PUSH1 0x0 DUP1 REVERT JUMPDEST PUSH1 0x0 DUP1 REVERT JUMPDEST PUSH1 0x0 DUP1 REVERT JUMPDEST PUSH1 0x0 DUP1 REVERT JUMPDEST PUSH1 0x0 PUSH1 0x1F NOT PUSH1 0x1F DUP4 ADD AND SWAP1 POP SWAP2 SWAP1 POP JUMP JUMPDEST PUSH3 0x3DA DUP2 PUSH3 0x2D3 JUMP JUMPDEST DUP2 EQ PUSH3 0x3E6 JUMPI PUSH1 0x0 DUP1 REVERT JUMPDEST POP JUMP JUMPDEST PUSH3 0x3F4 DUP2 PUSH3 0x307 JUMP JUMPDEST DUP2 EQ PUSH3 0x400 JUMPI PUSH1 0x0 DUP1 REVERT JUMPDEST POP JUMP JUMPDEST PUSH2 0x438B DUP1 PUSH3 0x413 PUSH1 0x0 CODECOPY PUSH1 0x0 RETURN INVALID PUSH1 0x80 PUSH1 0x40 MSTORE CALLVALUE DUP1 ISZERO PUSH2 0x10 JUMPI PUSH1 0x0 DUP1 REVERT JUMPDEST POP PUSH1 0x4 CALLDATASIZE LT PUSH2 0xB4 JUMPI PUSH1 0x0 CALLDATALOAD PUSH1 0xE0 SHR DUP1 PUSH4 0x78156953 GT PUSH2 0x71 JUMPI DUP1 PUSH4 0x78156953 EQ PUSH2 0x19D JUMPI DUP1 PUSH4 0x945F99BC EQ PUSH2 0x1CD JUMPI DUP1 PUSH4 0xB359DD43 EQ PUSH2 0x1E9 JUMPI DUP1 PUSH4 0xBBD8C7DB EQ PUSH2 0x205 JUMPI DUP1 PUSH4 0xDABC4D51 EQ PUSH2 0x221 JUMPI DUP1 PUSH4 0xFCED271F EQ PUSH2 0x251 JUMPI PUSH2 0xB4 JUMP JUMPDEST DUP1 PUSH4 0xA120BB0 EQ PUSH2 0xB9 JUMPI DUP1 PUSH4 0x14F6D6E8 EQ PUSH2 0xD5 JUMPI DUP1 PUSH4 0x3A19C76A EQ PUSH2 0xF1 JUMPI DUP1 PUSH4 0x474664D1 EQ PUSH2 0x10D JUMPI DUP1 PUSH4 0x638480BE EQ PUSH2 0x13D JUMPI DUP1 PUSH4 0x6389E107 EQ PUSH2 0x16D JUMPI JUMPDEST PUSH1 0x0 DUP1 REVERT JUMPDEST PUSH2 0xD3 PUSH1 0x4 DUP1 CALLDATASIZE SUB DUP2 ADD SWAP1 PUSH2 0xCE SWAP2 SWAP1 PUSH2 0x2E76 JUMP JUMPDEST PUSH2 0x281 JUMP JUMPDEST STOP JUMPDEST PUSH2 0xEF PUSH1 0x4 DUP1 CALLDATASIZE SUB DUP2 ADD SWAP1 PUSH2 0xEA SWAP2 SWAP1 PUSH2 0x2F1D JUMP JUMPDEST PUSH2 0x3B4 JUMP JUMPDEST STOP JUMPDEST PUSH2 0x10B PUSH1 0x4 DUP1 CALLDATASIZE SUB DUP2 ADD SWAP1 PUSH2 0x106 SWAP2 SWAP1 PUSH2 0x2CA9 JUMP JUMPDEST PUSH2 0x46A JUMP JUMPDEST STOP JUMPDEST PUSH2 0x127 PUSH1 0x4 DUP1 CALLDATASIZE SUB DUP2 ADD SWAP1 PUSH2 0x122 SWAP2 SWAP1 PUSH2 0x2DBC JUMP JUMPDEST PUSH2 0x776 JUMP JUMPDEST PUSH1 0x40 MLOAD PUSH2 0x134 SWAP2 SWAP1 PUSH2 0x3599 JUMP JUMPDEST PUSH1 0x40 MLOAD DUP1 SWAP2 SUB SWAP1 RETURN JUMPDEST PUSH2 0x157 PUSH1 0x4 DUP1 CALLDATASIZE SUB DUP2 ADD SWAP1 PUSH2 0x152 SWAP2 SWAP1 PUSH2 0x2DBC JUMP JUMPDEST PUSH2 0x81E JUMP JUMPDEST PUSH1 0x40 MLOAD PUSH2 0x164 SWAP2 SWAP1 PUSH2 0x381B JUMP JUMPDEST PUSH1 0x40 MLOAD DUP1 SWAP2 SUB SWAP1 RETURN JUMPDEST PUSH2 0x187 PUSH1 0x4 DUP1 CALLDATASIZE SUB DUP2 ADD SWAP1 PUSH2 0x182 SWAP2 SWAP1 PUSH2 0x2DBC JUMP JUMPDEST PUSH2 0x83D JUMP JUMPDEST PUSH1 0x40 MLOAD PUSH2 0x194 SWAP2 SWAP1 PUSH2 0x381B JUMP JUMPDEST PUSH1 0x40 MLOAD DUP1 SWAP2 SUB SWAP1 RETURN JUMPDEST PUSH2 0x1B7 PUSH1 0x4 DUP1 CALLDATASIZE SUB DUP2 ADD SWAP1 PUSH2 0x1B2 SWAP2 SWAP1 PUSH2 0x2DBC JUMP JUMPDEST PUSH2 0x85C JUMP JUMPDEST PUSH1 0x40 MLOAD PUSH2 0x1C4 SWAP2 SWAP1 PUSH2 0x38CD JUMP JUMPDEST PUSH1 0x40 MLOAD DUP1 SWAP2 SUB SWAP1 RETURN JUMPDEST PUSH2 0x1E7 PUSH1 0x4 DUP1 CALLDATASIZE SUB DUP2 ADD SWAP1 PUSH2 0x1E2 SWAP2 SWAP1 PUSH2 0x2EB6 JUMP JUMPDEST PUSH2 0x888 JUMP JUMPDEST STOP JUMPDEST PUSH2 0x203 PUSH1 0x4 DUP1 CALLDATASIZE SUB DUP2 ADD SWAP1 PUSH2 0x1FE SWAP2 SWAP1 PUSH2 0x2E76 JUMP JUMPDEST PUSH2 0xA83 JUMP JUMPDEST STOP JUMPDEST PUSH2 0x21F PUSH1 0x4 DUP1 CALLDATASIZE SUB DUP2 ADD SWAP1 PUSH2 0x21A SWAP2 SWAP1 PUSH2 0x2E76 JUMP JUMPDEST PUSH2 0xC42 JUMP JUMPDEST STOP JUMPDEST PUSH2 0x23B PUSH1 0x4 DUP1 CALLDATASIZE SUB DUP2 ADD SWAP1 PUSH2 0x236 SWAP2 SWAP1 PUSH2 0x2DBC JUMP JUMPDEST PUSH2 0xE00 JUMP JUMPDEST PUSH1 0x40 MLOAD PUSH2 0x248 SWAP2 SWAP1 PUSH2 0x381B JUMP JUMPDEST PUSH1 0x40 MLOAD DUP1 SWAP2 SUB SWAP1 RETURN JUMPDEST PUSH2 0x26B PUSH1 0x4 DUP1 CALLDATASIZE SUB DUP2 ADD SWAP1 PUSH2 0x266 SWAP2 SWAP1 PUSH2 0x2E16 JUMP JUMPDEST PUSH2 0xEA3 JUMP JUMPDEST PUSH1 0x40 MLOAD PUSH2 0x278 SWAP2 SWAP1 PUSH2 0x3633 JUMP JUMPDEST PUSH1 0x40 MLOAD DUP1 SWAP2 SUB SWAP1 RETURN JUMPDEST DUP2 PUSH2 0x28A PUSH2 0x1198 JUMP JUMPDEST PUSH20 0xFFFFFFFFFFFFFFFFFFFFFFFFFFFFFFFFFFFFFFFF AND PUSH1 0x2 PUSH1 0x0 DUP4 DUP2 MSTORE PUSH1 0x20 ADD SWAP1 DUP2 MSTORE PUSH1 0x20 ADD PUSH1 0x0 KECCAK256 PUSH1 0x0 ADD PUSH1 0x0 SWAP1 SLOAD SWAP1 PUSH2 0x100 EXP SWAP1 DIV PUSH20 0xFFFFFFFFFFFFFFFFFFFFFFFFFFFFFFFFFFFFFFFF AND PUSH20 0xFFFFFFFFFFFFFFFFFFFFFFFFFFFFFFFFFFFFFFFF AND EQ PUSH2 0x324 JUMPI PUSH1 0x40 MLOAD PUSH32 0xE4A34E1500000000000000000000000000000000000000000000000000000000 DUP2 MSTORE PUSH1 0x4 ADD PUSH1 0x40 MLOAD DUP1 SWAP2 SUB SWAP1 REVERT JUMPDEST PUSH1 0x0 PUSH1 0x2 DUP2 GT ISZERO PUSH2 0x338 JUMPI PUSH2 0x337 PUSH2 0x4023 JUMP JUMPDEST JUMPDEST PUSH1 0x2 PUSH1 0x0 DUP6 DUP2 MSTORE PUSH1 0x20 ADD SWAP1 DUP2 MSTORE PUSH1 0x20 ADD PUSH1 0x0 KECCAK256 PUSH1 0x0 ADD PUSH1 0x14 SWAP1 SLOAD SWAP1 PUSH2 0x100 EXP SWAP1 DIV PUSH1 0xFF AND PUSH1 0x2 DUP2 GT ISZERO PUSH2 0x36E JUMPI PUSH2 0x36D PUSH2 0x4023 JUMP JUMPDEST JUMPDEST EQ PUSH2 0x3A5 JUMPI PUSH1 0x40 MLOAD PUSH32 0x67F5EEBB00000000000000000000000000000000000000000000000000000000 DUP2 MSTORE PUSH1 0x4 ADD PUSH1 0x40 MLOAD DUP1 SWAP2 SUB SWAP1 REVERT JUMPDEST PUSH2 0x3AF DUP4 DUP4 PUSH2 0x11A0 JUMP JUMPDEST POP POP POP JUMP JUMPDEST DUP4 PUSH2 0x3BD PUSH2 0x1198 JUMP JUMPDEST PUSH20 0xFFFFFFFFFFFFFFFFFFFFFFFFFFFFFFFFFFFFFFFF AND PUSH1 0x2 PUSH1 0x0 DUP4 DUP2 MSTORE PUSH1 0x20 ADD SWAP1 DUP2 MSTORE PUSH1 0x20 ADD PUSH1 0x0 KECCAK256 PUSH1 0x0 ADD PUSH1 0x0 SWAP1 SLOAD SWAP1 PUSH2 0x100 EXP SWAP1 DIV PUSH20 0xFFFFFFFFFFFFFFFFFFFFFFFFFFFFFFFFFFFFFFFF AND PUSH20 0xFFFFFFFFFFFFFFFFFFFFFFFFFFFFFFFFFFFFFFFF AND EQ PUSH2 0x457 JUMPI PUSH1 0x40 MLOAD PUSH32 0xE4A34E1500000000000000000000000000000000000000000000000000000000 DUP2 MSTORE PUSH1 0x4 ADD PUSH1 0x40 MLOAD DUP1 SWAP2 SUB SWAP1 REVERT JUMPDEST PUSH2 0x463 DUP6 DUP6 DUP6 DUP6 PUSH2 0x126F JUMP JUMPDEST POP POP POP POP POP JUMP JUMPDEST DUP4 PUSH2 0x473 PUSH2 0x1198 JUMP JUMPDEST PUSH20 0xFFFFFFFFFFFFFFFFFFFFFFFFFFFFFFFFFFFFFFFF AND PUSH1 0x2 PUSH1 0x0 DUP4 DUP2 MSTORE PUSH1 0x20 ADD SWAP1 DUP2 MSTORE PUSH1 0x20 ADD PUSH1 0x0 KECCAK256 PUSH1 0x0 ADD PUSH1 0x0 SWAP1 SLOAD SWAP1 PUSH2 0x100 EXP SWAP1 DIV PUSH20 0xFFFFFFFFFFFFFFFFFFFFFFFFFFFFFFFFFFFFFFFF AND PUSH20 0xFFFFFFFFFFFFFFFFFFFFFFFFFFFFFFFFFFFFFFFF AND EQ PUSH2 0x50D JUMPI PUSH1 0x40 MLOAD PUSH32 0xE4A34E1500000000000000000000000000000000000000000000000000000000 DUP2 MSTORE PUSH1 0x4 ADD PUSH1 0x40 MLOAD DUP1 SWAP2 SUB SWAP1 REVERT JUMPDEST PUSH1 0x0 PUSH2 0x518 DUP7 PUSH2 0x85C JUMP JUMPDEST SWAP1 POP PUSH1 0x0 PUSH1 0x2 PUSH1 0x0 DUP9 DUP2 MSTORE PUSH1 0x20 ADD SWAP1 DUP2 MSTORE PUSH1 0x20 ADD PUSH1 0x0 KECCAK256 PUSH1 0x40 MLOAD DUP1 PUSH1 0x60 ADD PUSH1 0x40 MSTORE SWAP1 DUP2 PUSH1 0x0 DUP3 ADD PUSH1 0x0 SWAP1 SLOAD SWAP1 PUSH2 0x100 EXP SWAP1 DIV PUSH20 0xFFFFFFFFFFFFFFFFFFFFFFFFFFFFFFFFFFFFFFFF AND PUSH20 0xFFFFFFFFFFFFFFFFFFFFFFFFFFFFFFFFFFFFFFFF AND PUSH20 0xFFFFFFFFFFFFFFFFFFFFFFFFFFFFFFFFFFFFFFFF AND DUP2 MSTORE PUSH1 0x20 ADD PUSH1 0x0 DUP3 ADD PUSH1 0x14 SWAP1 SLOAD SWAP1 PUSH2 0x100 EXP SWAP1 DIV PUSH1 0xFF AND PUSH1 0x2 DUP2 GT ISZERO PUSH2 0x5B5 JUMPI PUSH2 0x5B4 PUSH2 0x4023 JUMP JUMPDEST JUMPDEST PUSH1 0x2 DUP2 GT ISZERO PUSH2 0x5C7 JUMPI PUSH2 0x5C6 PUSH2 0x4023 JUMP JUMPDEST JUMPDEST DUP2 MSTORE PUSH1 0x20 ADD PUSH1 0x0 DUP3 ADD PUSH1 0x15 SWAP1 SLOAD SWAP1 PUSH2 0x100 EXP SWAP1 DIV PUSH1 0xFF AND PUSH1 0xFF AND PUSH1 0xFF AND DUP2 MSTORE POP POP SWAP1 POP PUSH1 0x1 PUSH1 0x2 DUP2 GT ISZERO PUSH2 0x5FE JUMPI PUSH2 0x5FD PUSH2 0x4023 JUMP JUMPDEST JUMPDEST DUP2 PUSH1 0x20 ADD MLOAD PUSH1 0x2 DUP2 GT ISZERO PUSH2 0x615 JUMPI PUSH2 0x614 PUSH2 0x4023 JUMP JUMPDEST JUMPDEST EQ PUSH2 0x64C JUMPI PUSH1 0x40 MLOAD PUSH32 0xE1B6C09100000000000000000000000000000000000000000000000000000000 DUP2 MSTORE PUSH1 0x4 ADD PUSH1 0x40 MLOAD DUP1 SWAP2 SUB SWAP1 REVERT JUMPDEST PUSH1 0x3 PUSH1 0x0 DUP10 DUP2 MSTORE PUSH1 0x20 ADD SWAP1 DUP2 MSTORE PUSH1 0x20 ADD PUSH1 0x0 KECCAK256 PUSH1 0x0 SWAP1 SLOAD SWAP1 PUSH2 0x100 EXP SWAP1 DIV PUSH1 0xFF AND ISZERO PUSH2 0x6A4 JUMPI PUSH1 0x40 MLOAD PUSH32 0x948D067400000000000000000000000000000000000000000000000000000000 DUP2 MSTORE PUSH1 0x4 ADD PUSH1 0x40 MLOAD DUP1 SWAP2 SUB SWAP1 REVERT JUMPDEST PUSH1 0x0 PUSH2 0x6AF DUP9 PUSH2 0x83D JUMP JUMPDEST SWAP1 POP PUSH2 0x6BC DUP9 DUP9 DUP9 PUSH2 0xEA3 JUMP JUMPDEST POP PUSH1 0x0 PUSH1 0x1 PUSH1 0x0 DUP4 DUP2 MSTORE PUSH1 0x20 ADD SWAP1 DUP2 MSTORE PUSH1 0x20 ADD PUSH1 0x0 KECCAK256 PUSH1 0x0 SWAP1 SLOAD SWAP1 PUSH2 0x100 EXP SWAP1 DIV PUSH20 0xFFFFFFFFFFFFFFFFFFFFFFFFFFFFFFFFFFFFFFFF AND SWAP1 POP PUSH2 0x705 DUP12 DUP12 DUP12 DUP12 DUP12 DUP12 DUP8 DUP12 PUSH2 0x129D JUMP JUMPDEST PUSH1 0x1 PUSH1 0x3 PUSH1 0x0 DUP13 DUP2 MSTORE PUSH1 0x20 ADD SWAP1 DUP2 MSTORE PUSH1 0x20 ADD PUSH1 0x0 KECCAK256 PUSH1 0x0 PUSH2 0x100 EXP DUP2 SLOAD DUP2 PUSH1 0xFF MUL NOT AND SWAP1 DUP4 ISZERO ISZERO MUL OR SWAP1 SSTORE POP DUP9 PUSH32 0x9259C591AF3680137739DC2B275C388EB1639A143B49022E7062FA162F14776D DUP13 PUSH1 0x40 MLOAD PUSH2 0x761 SWAP2 SWAP1 PUSH2 0x364E JUMP JUMPDEST PUSH1 0x40 MLOAD DUP1 SWAP2 SUB SWAP1 LOG2 POP POP POP POP POP POP POP POP POP POP POP JUMP JUMPDEST PUSH1 0x60 PUSH1 0x0 DUP1 DUP4 DUP2 MSTORE PUSH1 0x20 ADD SWAP1 DUP2 MSTORE PUSH1 0x20 ADD PUSH1 0x0 KECCAK256 PUSH20 0x0 PUSH4 0x424C5FAB SWAP1 SWAP2 PUSH1 0x40 MLOAD DUP3 PUSH4 0xFFFFFFFF AND PUSH1 0xE0 SHL DUP2 MSTORE PUSH1 0x4 ADD PUSH2 0x7C2 SWAP2 SWAP1 PUSH2 0x3769 JUMP JUMPDEST PUSH1 0x0 PUSH1 0x40 MLOAD DUP1 DUP4 SUB DUP2 DUP7 DUP1 EXTCODESIZE ISZERO DUP1 ISZERO PUSH2 0x7DA JUMPI PUSH1 0x0 DUP1 REVERT JUMPDEST POP GAS DELEGATECALL ISZERO DUP1 ISZERO PUSH2 0x7EE JUMPI RETURNDATASIZE PUSH1 0x0 DUP1 RETURNDATACOPY RETURNDATASIZE PUSH1 0x0 REVERT JUMPDEST POP POP POP POP PUSH1 0x40 MLOAD RETURNDATASIZE PUSH1 0x0 DUP3 RETURNDATACOPY RETURNDATASIZE PUSH1 0x1F NOT PUSH1 0x1F DUP3 ADD AND DUP3 ADD DUP1 PUSH1 0x40 MSTORE POP DUP2 ADD SWAP1 PUSH2 0x817 SWAP2 SWAP1 PUSH2 0x2BD8 JUMP JUMPDEST SWAP1 POP SWAP2 SWAP1 POP JUMP JUMPDEST PUSH1 0x0 DUP1 PUSH1 0x0 DUP4 DUP2 MSTORE PUSH1 0x20 ADD SWAP1 DUP2 MSTORE PUSH1 0x20 ADD PUSH1 0x0 KECCAK256 PUSH1 0x4 ADD SLOAD SWAP1 POP SWAP2 SWAP1 POP JUMP JUMPDEST PUSH1 0x0 DUP1 PUSH1 0x0 DUP4 DUP2 MSTORE PUSH1 0x20 ADD SWAP1 DUP2 MSTORE PUSH1 0x20 ADD PUSH1 0x0 KECCAK256 PUSH1 0x1 ADD SLOAD SWAP1 POP SWAP2 SWAP1 POP JUMP JUMPDEST PUSH1 0x0 DUP1 PUSH1 0x0 DUP4 DUP2 MSTORE PUSH1 0x20 ADD SWAP1 DUP2 MSTORE PUSH1 0x20 ADD PUSH1 0x0 KECCAK256 PUSH1 0x0 ADD PUSH1 0x0 SWAP1 SLOAD SWAP1 PUSH2 0x100 EXP SWAP1 DIV PUSH1 0xFF AND SWAP1 POP SWAP2 SWAP1 POP JUMP JUMPDEST PUSH1 0x0 PUSH20 0xFFFFFFFFFFFFFFFFFFFFFFFFFFFFFFFFFFFFFFFF AND PUSH1 0x1 PUSH1 0x0 DUP6 DUP2 MSTORE PUSH1 0x20 ADD SWAP1 DUP2 MSTORE PUSH1 0x20 ADD PUSH1 0x0 KECCAK256 PUSH1 0x0 SWAP1 SLOAD SWAP1 PUSH2 0x100 EXP SWAP1 DIV PUSH20 0xFFFFFFFFFFFFFFFFFFFFFFFFFFFFFFFFFFFFFFFF AND PUSH20 0xFFFFFFFFFFFFFFFFFFFFFFFFFFFFFFFFFFFFFFFF AND EQ ISZERO PUSH2 0x922 JUMPI PUSH1 0x40 MLOAD PUSH32 0xECF64F1200000000000000000000000000000000000000000000000000000000 DUP2 MSTORE PUSH1 0x4 ADD PUSH1 0x40 MLOAD DUP1 SWAP2 SUB SWAP1 REVERT JUMPDEST PUSH2 0x92D DUP5 DUP5 DUP4 PUSH2 0x15EC JUMP JUMPDEST PUSH2 0x935 PUSH2 0x26C7 JUMP JUMPDEST DUP3 DUP2 PUSH1 0x0 ADD SWAP1 PUSH20 0xFFFFFFFFFFFFFFFFFFFFFFFFFFFFFFFFFFFFFFFF AND SWAP1 DUP2 PUSH20 0xFFFFFFFFFFFFFFFFFFFFFFFFFFFFFFFFFFFFFFFF AND DUP2 MSTORE POP POP DUP2 DUP2 PUSH1 0x40 ADD SWAP1 PUSH1 0xFF AND SWAP1 DUP2 PUSH1 0xFF AND DUP2 MSTORE POP POP DUP1 PUSH1 0x2 PUSH1 0x0 DUP8 DUP2 MSTORE PUSH1 0x20 ADD SWAP1 DUP2 MSTORE PUSH1 0x20 ADD PUSH1 0x0 KECCAK256 PUSH1 0x0 DUP3 ADD MLOAD DUP2 PUSH1 0x0 ADD PUSH1 0x0 PUSH2 0x100 EXP DUP2 SLOAD DUP2 PUSH20 0xFFFFFFFFFFFFFFFFFFFFFFFFFFFFFFFFFFFFFFFF MUL NOT AND SWAP1 DUP4 PUSH20 0xFFFFFFFFFFFFFFFFFFFFFFFFFFFFFFFFFFFFFFFF AND MUL OR SWAP1 SSTORE POP PUSH1 0x20 DUP3 ADD MLOAD DUP2 PUSH1 0x0 ADD PUSH1 0x14 PUSH2 0x100 EXP DUP2 SLOAD DUP2 PUSH1 0xFF MUL NOT AND SWAP1 DUP4 PUSH1 0x2 DUP2 GT ISZERO PUSH2 0xA05 JUMPI PUSH2 0xA04 PUSH2 0x4023 JUMP JUMPDEST JUMPDEST MUL OR SWAP1 SSTORE POP PUSH1 0x40 DUP3 ADD MLOAD DUP2 PUSH1 0x0 ADD PUSH1 0x15 PUSH2 0x100 EXP DUP2 SLOAD DUP2 PUSH1 0xFF MUL NOT AND SWAP1 DUP4 PUSH1 0xFF AND MUL OR SWAP1 SSTORE POP SWAP1 POP POP DUP3 PUSH20 0xFFFFFFFFFFFFFFFFFFFFFFFFFFFFFFFFFFFFFFFF AND PUSH32 0xB447D309FD3B1A27466CDB08CCC02EE5188E9C71FC58AF042BAFE3E0BB451230 DUP7 PUSH1 0x40 MLOAD PUSH2 0xA74 SWAP2 SWAP1 PUSH2 0x381B JUMP JUMPDEST PUSH1 0x40 MLOAD DUP1 SWAP2 SUB SWAP1 LOG2 POP POP POP POP POP JUMP JUMPDEST DUP2 PUSH2 0xA8C PUSH2 0x1198 JUMP JUMPDEST PUSH20 0xFFFFFFFFFFFFFFFFFFFFFFFFFFFFFFFFFFFFFFFF AND PUSH1 0x2 PUSH1 0x0 DUP4 DUP2 MSTORE PUSH1 0x20 ADD SWAP1 DUP2 MSTORE PUSH1 0x20 ADD PUSH1 0x0 KECCAK256 PUSH1 0x0 ADD PUSH1 0x0 SWAP1 SLOAD SWAP1 PUSH2 0x100 EXP SWAP1 DIV PUSH20 0xFFFFFFFFFFFFFFFFFFFFFFFFFFFFFFFFFFFFFFFF AND PUSH20 0xFFFFFFFFFFFFFFFFFFFFFFFFFFFFFFFFFFFFFFFF AND EQ PUSH2 0xB26 JUMPI PUSH1 0x40 MLOAD PUSH32 0xE4A34E1500000000000000000000000000000000000000000000000000000000 DUP2 MSTORE PUSH1 0x4 ADD PUSH1 0x40 MLOAD DUP1 SWAP2 SUB SWAP1 REVERT JUMPDEST PUSH1 0x0 PUSH1 0x2 DUP2 GT ISZERO PUSH2 0xB3A JUMPI PUSH2 0xB39 PUSH2 0x4023 JUMP JUMPDEST JUMPDEST PUSH1 0x2 PUSH1 0x0 DUP6 DUP2 MSTORE PUSH1 0x20 ADD SWAP1 DUP2 MSTORE PUSH1 0x20 ADD PUSH1 0x0 KECCAK256 PUSH1 0x0 ADD PUSH1 0x14 SWAP1 SLOAD SWAP1 PUSH2 0x100 EXP SWAP1 DIV PUSH1 0xFF AND PUSH1 0x2 DUP2 GT ISZERO PUSH2 0xB70 JUMPI PUSH2 0xB6F PUSH2 0x4023 JUMP JUMPDEST JUMPDEST EQ PUSH2 0xBA7 JUMPI PUSH1 0x40 MLOAD PUSH32 0x67F5EEBB00000000000000000000000000000000000000000000000000000000 DUP2 MSTORE PUSH1 0x4 ADD PUSH1 0x40 MLOAD DUP1 SWAP2 SUB SWAP1 REVERT JUMPDEST PUSH1 0x1 PUSH1 0x2 PUSH1 0x0 DUP6 DUP2 MSTORE PUSH1 0x20 ADD SWAP1 DUP2 MSTORE PUSH1 0x20 ADD PUSH1 0x0 KECCAK256 PUSH1 0x0 ADD PUSH1 0x14 PUSH2 0x100 EXP DUP2 SLOAD DUP2 PUSH1 0xFF MUL NOT AND SWAP1 DUP4 PUSH1 0x2 DUP2 GT ISZERO PUSH2 0xBE1 JUMPI PUSH2 0xBE0 PUSH2 0x4023 JUMP JUMPDEST JUMPDEST MUL OR SWAP1 SSTORE POP PUSH2 0xBEE PUSH2 0x1198 JUMP JUMPDEST PUSH20 0xFFFFFFFFFFFFFFFFFFFFFFFFFFFFFFFFFFFFFFFF AND PUSH32 0x426C5E6BD38728569CC4E1F0A309F506D4C1BC56189920D59343AF2639B60D3E DUP5 DUP5 PUSH1 0x40 MLOAD PUSH2 0xC35 SWAP3 SWAP2 SWAP1 PUSH2 0x3836 JUMP JUMPDEST PUSH1 0x40 MLOAD DUP1 SWAP2 SUB SWAP1 LOG2 POP POP POP JUMP JUMPDEST DUP2 PUSH2 0xC4B PUSH2 0x1198 JUMP JUMPDEST PUSH20 0xFFFFFFFFFFFFFFFFFFFFFFFFFFFFFFFFFFFFFFFF AND PUSH1 0x2 PUSH1 0x0 DUP4 DUP2 MSTORE PUSH1 0x20 ADD SWAP1 DUP2 MSTORE PUSH1 0x20 ADD PUSH1 0x0 KECCAK256 PUSH1 0x0 ADD PUSH1 0x0 SWAP1 SLOAD SWAP1 PUSH2 0x100 EXP SWAP1 DIV PUSH20 0xFFFFFFFFFFFFFFFFFFFFFFFFFFFFFFFFFFFFFFFF AND PUSH20 0xFFFFFFFFFFFFFFFFFFFFFFFFFFFFFFFFFFFFFFFF AND EQ PUSH2 0xCE5 JUMPI PUSH1 0x40 MLOAD PUSH32 0xE4A34E1500000000000000000000000000000000000000000000000000000000 DUP2 MSTORE PUSH1 0x4 ADD PUSH1 0x40 MLOAD DUP1 SWAP2 SUB SWAP1 REVERT JUMPDEST PUSH1 0x1 PUSH1 0x2 DUP2 GT ISZERO PUSH2 0xCF9 JUMPI PUSH2 0xCF8 PUSH2 0x4023 JUMP JUMPDEST JUMPDEST PUSH1 0x2 PUSH1 0x0 DUP6 DUP2 MSTORE PUSH1 0x20 ADD SWAP1 DUP2 MSTORE PUSH1 0x20 ADD PUSH1 0x0 KECCAK256 PUSH1 0x0 ADD PUSH1 0x14 SWAP1 SLOAD SWAP1 PUSH2 0x100 EXP SWAP1 DIV PUSH1 0xFF AND PUSH1 0x2 DUP2 GT ISZERO PUSH2 0xD2F JUMPI PUSH2 0xD2E PUSH2 0x4023 JUMP JUMPDEST JUMPDEST EQ PUSH2 0xD66 JUMPI PUSH1 0x40 MLOAD PUSH32 0xE1B6C09100000000000000000000000000000000000000000000000000000000 DUP2 MSTORE PUSH1 0x4 ADD PUSH1 0x40 MLOAD DUP1 SWAP2 SUB SWAP1 REVERT JUMPDEST PUSH1 0x2 DUP1 PUSH1 0x0 DUP6 DUP2 MSTORE PUSH1 0x20 ADD SWAP1 DUP2 MSTORE PUSH1 0x20 ADD PUSH1 0x0 KECCAK256 PUSH1 0x0 ADD PUSH1 0x14 PUSH2 0x100 EXP DUP2 SLOAD DUP2 PUSH1 0xFF MUL NOT AND SWAP1 DUP4 PUSH1 0x2 DUP2 GT ISZERO PUSH2 0xD9F JUMPI PUSH2 0xD9E PUSH2 0x4023 JUMP JUMPDEST JUMPDEST MUL OR SWAP1 SSTORE POP PUSH2 0xDAC PUSH2 0x1198 JUMP JUMPDEST PUSH20 0xFFFFFFFFFFFFFFFFFFFFFFFFFFFFFFFFFFFFFFFF AND PUSH32 0x4A0C303670C99FF9B9EAB216BCCA4F03007FBECE83818599A2946EA62C541FDE DUP5 DUP5 PUSH1 0x40 MLOAD PUSH2 0xDF3 SWAP3 SWAP2 SWAP1 PUSH2 0x3836 JUMP JUMPDEST PUSH1 0x40 MLOAD DUP1 SWAP2 SUB SWAP1 LOG2 POP POP POP JUMP JUMPDEST PUSH1 0x0 DUP1 PUSH1 0x0 DUP4 DUP2 MSTORE PUSH1 0x20 ADD SWAP1 DUP2 MSTORE PUSH1 0x20 ADD PUSH1 0x0 KECCAK256 PUSH20 0x0 PUSH4 0xCE8F1F35 SWAP1 SWAP2 PUSH1 0x40 MLOAD DUP3 PUSH4 0xFFFFFFFF AND PUSH1 0xE0 SHL DUP2 MSTORE PUSH1 0x4 ADD PUSH2 0xE4C SWAP2 SWAP1 PUSH2 0x3769 JUMP JUMPDEST PUSH1 0x20 PUSH1 0x40 MLOAD DUP1 DUP4 SUB DUP2 DUP7 DUP1 EXTCODESIZE ISZERO DUP1 ISZERO PUSH2 0xE64 JUMPI PUSH1 0x0 DUP1 REVERT JUMPDEST POP GAS DELEGATECALL ISZERO DUP1 ISZERO PUSH2 0xE78 JUMPI RETURNDATASIZE PUSH1 0x0 DUP1 RETURNDATACOPY RETURNDATASIZE PUSH1 0x0 REVERT JUMPDEST POP POP POP POP PUSH1 0x40 MLOAD RETURNDATASIZE PUSH1 0x1F NOT PUSH1 0x1F DUP3 ADD AND DUP3 ADD DUP1 PUSH1 0x40 MSTORE POP DUP2 ADD SWAP1 PUSH2 0xE9C SWAP2 SWAP1 PUSH2 0x2DE9 JUMP JUMPDEST SWAP1 POP SWAP2 SWAP1 POP JUMP JUMPDEST PUSH1 0x0 PUSH1 0x1 PUSH1 0x0 DUP1 DUP7 DUP2 MSTORE PUSH1 0x20 ADD SWAP1 DUP2 MSTORE PUSH1 0x20 ADD PUSH1 0x0 KECCAK256 PUSH1 0x0 ADD PUSH1 0x0 SWAP1 SLOAD SWAP1 PUSH2 0x100 EXP SWAP1 DIV PUSH1 0xFF AND PUSH1 0xFF AND EQ ISZERO PUSH2 0x1034 JUMPI PUSH1 0x0 DUP4 DUP4 DUP2 ADD SWAP1 PUSH2 0xEE4 SWAP2 SWAP1 PUSH2 0x2C21 JUMP JUMPDEST SWAP1 POP PUSH1 0x0 PUSH1 0x2 PUSH8 0xFFFFFFFFFFFFFFFF DUP2 GT ISZERO PUSH2 0xF03 JUMPI PUSH2 0xF02 PUSH2 0x4081 JUMP JUMPDEST JUMPDEST PUSH1 0x40 MLOAD SWAP1 DUP1 DUP3 MSTORE DUP1 PUSH1 0x20 MUL PUSH1 0x20 ADD DUP3 ADD PUSH1 0x40 MSTORE DUP1 ISZERO PUSH2 0xF31 JUMPI DUP2 PUSH1 0x20 ADD PUSH1 0x20 DUP3 MUL DUP1 CALLDATASIZE DUP4 CALLDATACOPY DUP1 DUP3 ADD SWAP2 POP POP SWAP1 POP JUMPDEST POP SWAP1 POP PUSH1 0x0 JUMPDEST PUSH1 0x2 DUP2 LT ISZERO PUSH2 0xF8A JUMPI DUP3 DUP2 PUSH1 0x2 DUP2 LT PUSH2 0xF53 JUMPI PUSH2 0xF52 PUSH2 0x4052 JUMP JUMPDEST JUMPDEST PUSH1 0x20 MUL ADD MLOAD DUP3 DUP3 DUP2 MLOAD DUP2 LT PUSH2 0xF6B JUMPI PUSH2 0xF6A PUSH2 0x4052 JUMP JUMPDEST JUMPDEST PUSH1 0x20 MUL PUSH1 0x20 ADD ADD DUP2 DUP2 MSTORE POP POP DUP1 DUP1 PUSH2 0xF82 SWAP1 PUSH2 0x3EE6 JUMP JUMPDEST SWAP2 POP POP PUSH2 0xF37 JUMP JUMPDEST POP PUSH1 0x0 PUSH20 0x0 PUSH4 0x74D4479E PUSH1 0x0 DUP1 DUP11 DUP2 MSTORE PUSH1 0x20 ADD SWAP1 DUP2 MSTORE PUSH1 0x20 ADD PUSH1 0x0 KECCAK256 DUP5 PUSH1 0x40 MLOAD DUP4 PUSH4 0xFFFFFFFF AND PUSH1 0xE0 SHL DUP2 MSTORE PUSH1 0x4 ADD PUSH2 0xFD7 SWAP3 SWAP2 SWAP1 PUSH2 0x37BB JUMP JUMPDEST PUSH1 0x20 PUSH1 0x40 MLOAD DUP1 DUP4 SUB DUP2 DUP7 DUP1 EXTCODESIZE ISZERO DUP1 ISZERO PUSH2 0xFEF JUMPI PUSH1 0x0 DUP1 REVERT JUMPDEST POP GAS DELEGATECALL ISZERO DUP1 ISZERO PUSH2 0x1003 JUMPI RETURNDATASIZE PUSH1 0x0 DUP1 RETURNDATACOPY RETURNDATASIZE PUSH1 0x0 REVERT JUMPDEST POP POP POP POP PUSH1 0x40 MLOAD RETURNDATASIZE PUSH1 0x1F NOT PUSH1 0x1F DUP3 ADD AND DUP3 ADD DUP1 PUSH1 0x40 MSTORE POP DUP2 ADD SWAP1 PUSH2 0x1027 SWAP2 SWAP1 PUSH2 0x2C7C JUMP JUMPDEST SWAP1 POP DUP1 SWAP4 POP POP POP POP PUSH2 0x1191 JUMP JUMPDEST PUSH1 0x0 DUP4 DUP4 DUP2 ADD SWAP1 PUSH2 0x1045 SWAP2 SWAP1 PUSH2 0x2C4E JUMP JUMPDEST SWAP1 POP PUSH1 0x0 PUSH1 0x8 PUSH8 0xFFFFFFFFFFFFFFFF DUP2 GT ISZERO PUSH2 0x1064 JUMPI PUSH2 0x1063 PUSH2 0x4081 JUMP JUMPDEST JUMPDEST PUSH1 0x40 MLOAD SWAP1 DUP1 DUP3 MSTORE DUP1 PUSH1 0x20 MUL PUSH1 0x20 ADD DUP3 ADD PUSH1 0x40 MSTORE DUP1 ISZERO PUSH2 0x1092 JUMPI DUP2 PUSH1 0x20 ADD PUSH1 0x20 DUP3 MUL DUP1 CALLDATASIZE DUP4 CALLDATACOPY DUP1 DUP3 ADD SWAP2 POP POP SWAP1 POP JUMPDEST POP SWAP1 POP PUSH1 0x0 JUMPDEST PUSH1 0x8 DUP2 LT ISZERO PUSH2 0x10EB JUMPI DUP3 DUP2 PUSH1 0x8 DUP2 LT PUSH2 0x10B4 JUMPI PUSH2 0x10B3 PUSH2 0x4052 JUMP JUMPDEST JUMPDEST PUSH1 0x20 MUL ADD MLOAD DUP3 DUP3 DUP2 MLOAD DUP2 LT PUSH2 0x10CC JUMPI PUSH2 0x10CB PUSH2 0x4052 JUMP JUMPDEST JUMPDEST PUSH1 0x20 MUL PUSH1 0x20 ADD ADD DUP2 DUP2 MSTORE POP POP DUP1 DUP1 PUSH2 0x10E3 SWAP1 PUSH2 0x3EE6 JUMP JUMPDEST SWAP2 POP POP PUSH2 0x1098 JUMP JUMPDEST POP PUSH1 0x0 PUSH20 0x0 PUSH4 0x74D4479E PUSH1 0x0 DUP1 DUP11 DUP2 MSTORE PUSH1 0x20 ADD SWAP1 DUP2 MSTORE PUSH1 0x20 ADD PUSH1 0x0 KECCAK256 DUP5 PUSH1 0x40 MLOAD DUP4 PUSH4 0xFFFFFFFF AND PUSH1 0xE0 SHL DUP2 MSTORE PUSH1 0x4 ADD PUSH2 0x1138 SWAP3 SWAP2 SWAP1 PUSH2 0x37BB JUMP JUMPDEST PUSH1 0x20 PUSH1 0x40 MLOAD DUP1 DUP4 SUB DUP2 DUP7 DUP1 EXTCODESIZE ISZERO DUP1 ISZERO PUSH2 0x1150 JUMPI PUSH1 0x0 DUP1 REVERT JUMPDEST POP GAS DELEGATECALL ISZERO DUP1 ISZERO PUSH2 0x1164 JUMPI RETURNDATASIZE PUSH1 0x0 DUP1 RETURNDATACOPY RETURNDATASIZE PUSH1 0x0 REVERT JUMPDEST POP POP POP POP PUSH1 0x40 MLOAD RETURNDATASIZE PUSH1 0x1F NOT PUSH1 0x1F DUP3 ADD AND DUP3 ADD DUP1 PUSH1 0x40 MSTORE POP DUP2 ADD SWAP1 PUSH2 0x1188 SWAP2 SWAP1 PUSH2 0x2C7C JUMP JUMPDEST SWAP1 POP DUP1 SWAP4 POP POP POP POP JUMPDEST SWAP4 SWAP3 POP POP POP JUMP JUMPDEST PUSH1 0x0 CALLER SWAP1 POP SWAP1 JUMP JUMPDEST PUSH1 0x0 PUSH2 0x11AB DUP4 PUSH2 0x83D JUMP JUMPDEST EQ ISZERO PUSH2 0x11E3 JUMPI PUSH1 0x40 MLOAD PUSH32 0x29F057900000000000000000000000000000000000000000000000000000000 DUP2 MSTORE PUSH1 0x4 ADD PUSH1 0x40 MLOAD DUP1 SWAP2 SUB SWAP1 REVERT JUMPDEST PUSH2 0x1207 DUP2 PUSH1 0x0 DUP1 DUP6 DUP2 MSTORE PUSH1 0x20 ADD SWAP1 DUP2 MSTORE PUSH1 0x20 ADD PUSH1 0x0 KECCAK256 PUSH2 0x17E3 SWAP1 SWAP2 SWAP1 PUSH4 0xFFFFFFFF AND JUMP JUMPDEST PUSH1 0x0 PUSH2 0x1212 DUP4 PUSH2 0xE00 JUMP JUMPDEST SWAP1 POP PUSH1 0x0 PUSH1 0x1 PUSH2 0x1221 DUP6 PUSH2 0x81E JUMP JUMPDEST PUSH2 0x122B SWAP2 SWAP1 PUSH2 0x3D83 JUMP JUMPDEST SWAP1 POP DUP4 PUSH32 0x19239B3F93CD10558AAF11423AF70C77763BF54F52BCC75BFA74D4D13548CDE9 DUP3 DUP6 DUP6 PUSH1 0x40 MLOAD PUSH2 0x1261 SWAP4 SWAP3 SWAP2 SWAP1 PUSH2 0x385F JUMP JUMPDEST PUSH1 0x40 MLOAD DUP1 SWAP2 SUB SWAP1 LOG2 POP POP POP POP JUMP JUMPDEST PUSH2 0x1297 DUP4 DUP4 DUP4 PUSH1 0x0 DUP1 DUP10 DUP2 MSTORE PUSH1 0x20 ADD SWAP1 DUP2 MSTORE PUSH1 0x20 ADD PUSH1 0x0 KECCAK256 PUSH2 0x1AA8 SWAP1 SWAP4 SWAP3 SWAP2 SWAP1 PUSH4 0xFFFFFFFF AND JUMP JUMPDEST POP POP POP POP JUMP JUMPDEST PUSH1 0x0 PUSH2 0x12A8 DUP10 PUSH2 0x1FEA JUMP JUMPDEST SWAP1 POP PUSH1 0x0 PUSH1 0x40 MLOAD DUP1 PUSH1 0xA0 ADD PUSH1 0x40 MSTORE DUP1 DUP7 PUSH1 0x8 DUP1 PUSH1 0x20 MUL PUSH1 0x40 MLOAD SWAP1 DUP2 ADD PUSH1 0x40 MSTORE DUP1 SWAP3 SWAP2 SWAP1 DUP3 PUSH1 0x8 PUSH1 0x20 MUL DUP1 DUP3 DUP5 CALLDATACOPY PUSH1 0x0 DUP2 DUP5 ADD MSTORE PUSH1 0x1F NOT PUSH1 0x1F DUP3 ADD AND SWAP1 POP DUP1 DUP4 ADD SWAP3 POP POP POP POP POP POP DUP2 MSTORE PUSH1 0x20 ADD DUP11 DUP2 MSTORE PUSH1 0x20 ADD DUP4 DUP2 MSTORE PUSH1 0x20 ADD DUP10 DUP2 MSTORE PUSH1 0x20 ADD DUP9 DUP9 DUP1 DUP1 PUSH1 0x1F ADD PUSH1 0x20 DUP1 SWAP2 DIV MUL PUSH1 0x20 ADD PUSH1 0x40 MLOAD SWAP1 DUP2 ADD PUSH1 0x40 MSTORE DUP1 SWAP4 SWAP3 SWAP2 SWAP1 DUP2 DUP2 MSTORE PUSH1 0x20 ADD DUP4 DUP4 DUP1 DUP3 DUP5 CALLDATACOPY PUSH1 0x0 DUP2 DUP5 ADD MSTORE PUSH1 0x1F NOT PUSH1 0x1F DUP3 ADD AND SWAP1 POP DUP1 DUP4 ADD SWAP3 POP POP POP POP POP POP POP DUP2 MSTORE POP SWAP1 POP PUSH1 0x0 DUP2 PUSH20 0x0 PUSH4 0xF0D4020D SWAP1 SWAP2 DUP7 PUSH1 0x40 MLOAD DUP4 PUSH4 0xFFFFFFFF AND PUSH1 0xE0 SHL DUP2 MSTORE PUSH1 0x4 ADD PUSH2 0x138D SWAP3 SWAP2 SWAP1 PUSH2 0x37EB JUMP JUMPDEST PUSH1 0x0 PUSH1 0x40 MLOAD DUP1 DUP4 SUB DUP2 DUP7 DUP1 EXTCODESIZE ISZERO DUP1 ISZERO PUSH2 0x13A5 JUMPI PUSH1 0x0 DUP1 REVERT JUMPDEST POP GAS DELEGATECALL ISZERO DUP1 ISZERO PUSH2 0x13B9 JUMPI RETURNDATASIZE PUSH1 0x0 DUP1 RETURNDATACOPY RETURNDATASIZE PUSH1 0x0 REVERT JUMPDEST POP POP POP POP PUSH1 0x40 MLOAD RETURNDATASIZE PUSH1 0x0 DUP3 RETURNDATACOPY RETURNDATASIZE PUSH1 0x1F NOT PUSH1 0x1F DUP3 ADD AND DUP3 ADD DUP1 PUSH1 0x40 MSTORE POP DUP2 ADD SWAP1 PUSH2 0x13E2 SWAP2 SWAP1 PUSH2 0x2D44 JUMP JUMPDEST POP SWAP1 POP PUSH1 0x0 DUP6 PUSH20 0xFFFFFFFFFFFFFFFFFFFFFFFFFFFFFFFFFFFFFFFF AND PUSH4 0xB4B764F2 PUSH1 0x40 MLOAD DUP1 PUSH1 0x40 ADD PUSH1 0x40 MSTORE DUP1 DUP11 PUSH1 0x0 PUSH1 0x8 DUP2 LT PUSH2 0x1422 JUMPI PUSH2 0x1421 PUSH2 0x4052 JUMP JUMPDEST JUMPDEST PUSH1 0x20 MUL ADD CALLDATALOAD DUP2 MSTORE PUSH1 0x20 ADD DUP11 PUSH1 0x1 PUSH1 0x8 DUP2 LT PUSH2 0x1440 JUMPI PUSH2 0x143F PUSH2 0x4052 JUMP JUMPDEST JUMPDEST PUSH1 0x20 MUL ADD CALLDATALOAD DUP2 MSTORE POP PUSH1 0x40 MLOAD DUP1 PUSH1 0x40 ADD PUSH1 0x40 MSTORE DUP1 PUSH1 0x40 MLOAD DUP1 PUSH1 0x40 ADD PUSH1 0x40 MSTORE DUP1 DUP14 PUSH1 0x2 PUSH1 0x8 DUP2 LT PUSH2 0x1472 JUMPI PUSH2 0x1471 PUSH2 0x4052 JUMP JUMPDEST JUMPDEST PUSH1 0x20 MUL ADD CALLDATALOAD DUP2 MSTORE PUSH1 0x20 ADD DUP14 PUSH1 0x3 PUSH1 0x8 DUP2 LT PUSH2 0x1490 JUMPI PUSH2 0x148F PUSH2 0x4052 JUMP JUMPDEST JUMPDEST PUSH1 0x20 MUL ADD CALLDATALOAD DUP2 MSTORE POP DUP2 MSTORE PUSH1 0x20 ADD PUSH1 0x40 MLOAD DUP1 PUSH1 0x40 ADD PUSH1 0x40 MSTORE DUP1 DUP14 PUSH1 0x4 PUSH1 0x8 DUP2 LT PUSH2 0x14BC JUMPI PUSH2 0x14BB PUSH2 0x4052 JUMP JUMPDEST JUMPDEST PUSH1 0x20 MUL ADD CALLDATALOAD DUP2 MSTORE PUSH1 0x20 ADD DUP14 PUSH1 0x5 PUSH1 0x8 DUP2 LT PUSH2 0x14DA JUMPI PUSH2 0x14D9 PUSH2 0x4052 JUMP JUMPDEST JUMPDEST PUSH1 0x20 MUL ADD CALLDATALOAD DUP2 MSTORE POP DUP2 MSTORE POP PUSH1 0x40 MLOAD DUP1 PUSH1 0x40 ADD PUSH1 0x40 MSTORE DUP1 DUP13 PUSH1 0x6 PUSH1 0x8 DUP2 LT PUSH2 0x1504 JUMPI PUSH2 0x1503 PUSH2 0x4052 JUMP JUMPDEST JUMPDEST PUSH1 0x20 MUL ADD CALLDATALOAD DUP2 MSTORE PUSH1 0x20 ADD DUP13 PUSH1 0x7 PUSH1 0x8 DUP2 LT PUSH2 0x1522 JUMPI PUSH2 0x1521 PUSH2 0x4052 JUMP JUMPDEST JUMPDEST PUSH1 0x20 MUL ADD CALLDATALOAD DUP2 MSTORE POP DUP7 DUP11 PUSH1 0x40 MLOAD DUP7 PUSH4 0xFFFFFFFF AND PUSH1 0xE0 SHL DUP2 MSTORE PUSH1 0x4 ADD PUSH2 0x154C SWAP6 SWAP5 SWAP4 SWAP3 SWAP2 SWAP1 PUSH2 0x35BB JUMP JUMPDEST PUSH1 0x20 PUSH1 0x40 MLOAD DUP1 DUP4 SUB DUP2 DUP7 DUP1 EXTCODESIZE ISZERO DUP1 ISZERO PUSH2 0x1564 JUMPI PUSH1 0x0 DUP1 REVERT JUMPDEST POP GAS STATICCALL ISZERO DUP1 ISZERO PUSH2 0x1578 JUMPI RETURNDATASIZE PUSH1 0x0 DUP1 RETURNDATACOPY RETURNDATASIZE PUSH1 0x0 REVERT JUMPDEST POP POP POP POP PUSH1 0x40 MLOAD RETURNDATASIZE PUSH1 0x1F NOT PUSH1 0x1F DUP3 ADD AND DUP3 ADD DUP1 PUSH1 0x40 MSTORE POP DUP2 ADD SWAP1 PUSH2 0x159C SWAP2 SWAP1 PUSH2 0x2C7C JUMP JUMPDEST SWAP1 POP DUP1 PUSH2 0x15DE JUMPI PUSH1 0x40 MLOAD PUSH32 0x8C379A000000000000000000000000000000000000000000000000000000000 DUP2 MSTORE PUSH1 0x4 ADD PUSH2 0x15D5 SWAP1 PUSH2 0x36C9 JUMP JUMPDEST PUSH1 0x40 MLOAD DUP1 SWAP2 SUB SWAP1 REVERT JUMPDEST POP POP POP POP POP POP POP POP POP POP POP POP JUMP JUMPDEST PUSH32 0x30644E72E131A029B85045B68181585D2833E84879B9709143E1F593F0000001 DUP4 LT PUSH2 0x1645 JUMPI PUSH1 0x40 MLOAD PUSH32 0xA61C78CA00000000000000000000000000000000000000000000000000000000 DUP2 MSTORE PUSH1 0x4 ADD PUSH1 0x40 MLOAD DUP1 SWAP2 SUB SWAP1 REVERT JUMPDEST PUSH1 0x0 PUSH2 0x1650 DUP5 PUSH2 0x83D JUMP JUMPDEST EQ PUSH2 0x1687 JUMPI PUSH1 0x40 MLOAD PUSH32 0x8121725B00000000000000000000000000000000000000000000000000000000 DUP2 MSTORE PUSH1 0x4 ADD PUSH1 0x40 MLOAD DUP1 SWAP2 SUB SWAP1 REVERT JUMPDEST PUSH1 0x0 DUP1 DUP5 DUP2 MSTORE PUSH1 0x20 ADD SWAP1 DUP2 MSTORE PUSH1 0x20 ADD PUSH1 0x0 KECCAK256 PUSH20 0x0 PUSH4 0x3330CA3A SWAP1 SWAP2 DUP5 DUP5 PUSH1 0x40 MLOAD DUP5 PUSH4 0xFFFFFFFF AND PUSH1 0xE0 SHL DUP2 MSTORE PUSH1 0x4 ADD PUSH2 0x16D5 SWAP4 SWAP3 SWAP2 SWAP1 PUSH2 0x3784 JUMP JUMPDEST PUSH1 0x0 PUSH1 0x40 MLOAD DUP1 DUP4 SUB DUP2 DUP7 DUP1 EXTCODESIZE ISZERO DUP1 ISZERO PUSH2 0x16ED JUMPI PUSH1 0x0 DUP1 REVERT JUMPDEST POP GAS DELEGATECALL ISZERO DUP1 ISZERO PUSH2 0x1701 JUMPI RETURNDATASIZE PUSH1 0x0 DUP1 RETURNDATACOPY RETURNDATASIZE PUSH1 0x0 REVERT JUMPDEST POP POP POP POP PUSH1 0x0 DUP1 PUSH1 0x0 DUP6 DUP2 MSTORE PUSH1 0x20 ADD SWAP1 DUP2 MSTORE PUSH1 0x20 ADD PUSH1 0x0 KECCAK256 PUSH20 0x0 PUSH4 0xCE8F1F35 SWAP1 SWAP2 PUSH1 0x40 MLOAD DUP3 PUSH4 0xFFFFFFFF AND PUSH1 0xE0 SHL DUP2 MSTORE PUSH1 0x4 ADD PUSH2 0x1751 SWAP2 SWAP1 PUSH2 0x3769 JUMP JUMPDEST PUSH1 0x20 PUSH1 0x40 MLOAD DUP1 DUP4 SUB DUP2 DUP7 DUP1 EXTCODESIZE ISZERO DUP1 ISZERO PUSH2 0x1769 JUMPI PUSH1 0x0 DUP1 REVERT JUMPDEST POP GAS DELEGATECALL ISZERO DUP1 ISZERO PUSH2 0x177D JUMPI RETURNDATASIZE PUSH1 0x0 DUP1 RETURNDATACOPY RETURNDATASIZE PUSH1 0x0 REVERT JUMPDEST POP POP POP POP PUSH1 0x40 MLOAD RETURNDATASIZE PUSH1 0x1F NOT PUSH1 0x1F DUP3 ADD AND DUP3 ADD DUP1 PUSH1 0x40 MSTORE POP DUP2 ADD SWAP1 PUSH2 0x17A1 SWAP2 SWAP1 PUSH2 0x2DE9 JUMP JUMPDEST SWAP1 POP DUP4 PUSH32 0xD000126C26C1BBE400FD2332187F75D58B69306F9EC47B408686189D3A00833 DUP5 DUP4 PUSH1 0x40 MLOAD PUSH2 0x17D5 SWAP3 SWAP2 SWAP1 PUSH2 0x3836 JUMP JUMPDEST PUSH1 0x40 MLOAD DUP1 SWAP2 SUB SWAP1 LOG2 POP POP POP POP JUMP JUMPDEST PUSH32 0x30644E72E131A029B85045B68181585D2833E84879B9709143E1F593F0000001 DUP2 LT PUSH2 0x1845 JUMPI PUSH1 0x40 MLOAD PUSH32 0x8C379A000000000000000000000000000000000000000000000000000000000 DUP2 MSTORE PUSH1 0x4 ADD PUSH2 0x183C SWAP1 PUSH2 0x3689 JUMP JUMPDEST PUSH1 0x40 MLOAD DUP1 SWAP2 SUB SWAP1 REVERT JUMPDEST DUP2 PUSH1 0x1 ADD SLOAD PUSH1 0x2 PUSH2 0x1856 SWAP2 SWAP1 PUSH2 0x3C65 JUMP JUMPDEST DUP3 PUSH1 0x4 ADD SLOAD LT PUSH2 0x189B JUMPI PUSH1 0x40 MLOAD PUSH32 0x8C379A000000000000000000000000000000000000000000000000000000000 DUP2 MSTORE PUSH1 0x4 ADD PUSH2 0x1892 SWAP1 PUSH2 0x3729 JUMP JUMPDEST PUSH1 0x40 MLOAD DUP1 SWAP2 SUB SWAP1 REVERT JUMPDEST PUSH1 0x0 DUP3 PUSH1 0x4 ADD SLOAD SWAP1 POP PUSH1 0x0 DUP3 SWAP1 POP PUSH1 0x0 JUMPDEST DUP5 PUSH1 0x1 ADD SLOAD DUP2 PUSH1 0xFF AND LT ISZERO PUSH2 0x1A10 JUMPI PUSH1 0x0 PUSH1 0x2 DUP5 PUSH2 0x18CA SWAP2 SWAP1 PUSH2 0x3F63 JUMP JUMPDEST EQ ISZERO PUSH2 0x191C JUMPI PUSH1 0x40 MLOAD DUP1 PUSH1 0x40 ADD PUSH1 0x40 MSTORE DUP1 DUP4 DUP2 MSTORE PUSH1 0x20 ADD PUSH2 0x18ED DUP4 PUSH1 0xFF AND PUSH2 0x2021 JUMP JUMPDEST DUP2 MSTORE POP DUP6 PUSH1 0x5 ADD PUSH1 0x0 DUP4 PUSH1 0xFF AND DUP2 MSTORE PUSH1 0x20 ADD SWAP1 DUP2 MSTORE PUSH1 0x20 ADD PUSH1 0x0 KECCAK256 SWAP1 PUSH1 0x2 PUSH2 0x1916 SWAP3 SWAP2 SWAP1 PUSH2 0x2713 JUMP JUMPDEST POP PUSH2 0x194E JUMP JUMPDEST DUP2 DUP6 PUSH1 0x5 ADD PUSH1 0x0 DUP4 PUSH1 0xFF AND DUP2 MSTORE PUSH1 0x20 ADD SWAP1 DUP2 MSTORE PUSH1 0x20 ADD PUSH1 0x0 KECCAK256 PUSH1 0x1 PUSH1 0x2 DUP2 LT PUSH2 0x1948 JUMPI PUSH2 0x1947 PUSH2 0x4052 JUMP JUMPDEST JUMPDEST ADD DUP2 SWAP1 SSTORE POP JUMPDEST PUSH20 0x0 PUSH4 0x29A5F2F6 DUP7 PUSH1 0x5 ADD PUSH1 0x0 DUP5 PUSH1 0xFF AND DUP2 MSTORE PUSH1 0x20 ADD SWAP1 DUP2 MSTORE PUSH1 0x20 ADD PUSH1 0x0 KECCAK256 PUSH1 0x40 MLOAD DUP3 PUSH4 0xFFFFFFFF AND PUSH1 0xE0 SHL DUP2 MSTORE PUSH1 0x4 ADD PUSH2 0x199C SWAP2 SWAP1 PUSH2 0x3618 JUMP JUMPDEST PUSH1 0x20 PUSH1 0x40 MLOAD DUP1 DUP4 SUB DUP2 DUP7 DUP1 EXTCODESIZE ISZERO DUP1 ISZERO PUSH2 0x19B4 JUMPI PUSH1 0x0 DUP1 REVERT JUMPDEST POP GAS DELEGATECALL ISZERO DUP1 ISZERO PUSH2 0x19C8 JUMPI RETURNDATASIZE PUSH1 0x0 DUP1 RETURNDATACOPY RETURNDATASIZE PUSH1 0x0 REVERT JUMPDEST POP POP POP POP PUSH1 0x40 MLOAD RETURNDATASIZE PUSH1 0x1F NOT PUSH1 0x1F DUP3 ADD AND DUP3 ADD DUP1 PUSH1 0x40 MSTORE POP DUP2 ADD SWAP1 PUSH2 0x19EC SWAP2 SWAP1 PUSH2 0x2DE9 JUMP JUMPDEST SWAP2 POP PUSH1 0x2 DUP4 PUSH2 0x19FB SWAP2 SWAP1 PUSH2 0x3BE1 JUMP JUMPDEST SWAP3 POP DUP1 DUP1 PUSH2 0x1A08 SWAP1 PUSH2 0x3F2F JUMP JUMPDEST SWAP2 POP POP PUSH2 0x18AC JUMP JUMPDEST POP PUSH1 0x0 PUSH1 0x1E PUSH1 0x1 DUP7 PUSH1 0x2 ADD PUSH1 0x0 SWAP1 SLOAD SWAP1 PUSH2 0x100 EXP SWAP1 DIV PUSH4 0xFFFFFFFF AND PUSH2 0x1A36 SWAP2 SWAP1 PUSH2 0x3BA7 JUMP JUMPDEST PUSH2 0x1A40 SWAP2 SWAP1 PUSH2 0x3F94 JUMP JUMPDEST SWAP1 POP DUP1 DUP6 PUSH1 0x2 ADD PUSH1 0x0 PUSH2 0x100 EXP DUP2 SLOAD DUP2 PUSH4 0xFFFFFFFF MUL NOT AND SWAP1 DUP4 PUSH4 0xFFFFFFFF AND MUL OR SWAP1 SSTORE POP DUP2 DUP6 PUSH1 0x3 ADD PUSH1 0x0 DUP4 PUSH4 0xFFFFFFFF AND DUP2 MSTORE PUSH1 0x20 ADD SWAP1 DUP2 MSTORE PUSH1 0x20 ADD PUSH1 0x0 KECCAK256 DUP2 SWAP1 SSTORE POP PUSH1 0x1 DUP6 PUSH1 0x4 ADD PUSH1 0x0 DUP3 DUP3 SLOAD PUSH2 0x1A9A SWAP2 SWAP1 PUSH2 0x3B51 JUMP JUMPDEST SWAP3 POP POP DUP2 SWAP1 SSTORE POP POP POP POP POP POP JUMP JUMPDEST PUSH1 0x0 PUSH2 0x1AB3 DUP3 PUSH2 0x2681 JUMP JUMPDEST SWAP1 POP PUSH2 0x1AC9 DUP6 DUP3 PUSH8 0xFFFFFFFFFFFFFFFF AND PUSH2 0x269A JUMP JUMPDEST ISZERO PUSH2 0x1E0F JUMPI DUP3 PUSH4 0xFFFFFFFF AND DUP6 PUSH1 0x8 ADD DUP7 PUSH1 0x6 ADD PUSH1 0x0 DUP5 PUSH8 0xFFFFFFFFFFFFFFFF AND DUP2 MSTORE PUSH1 0x20 ADD SWAP1 DUP2 MSTORE PUSH1 0x20 ADD PUSH1 0x0 KECCAK256 SLOAD DUP2 SLOAD DUP2 LT PUSH2 0x1B0A JUMPI PUSH2 0x1B09 PUSH2 0x4052 JUMP JUMPDEST JUMPDEST SWAP1 PUSH1 0x0 MSTORE PUSH1 0x20 PUSH1 0x0 KECCAK256 SWAP1 PUSH1 0x4 MUL ADD PUSH1 0x2 ADD SLOAD LT PUSH2 0x1B5C JUMPI PUSH1 0x40 MLOAD PUSH32 0x8C379A000000000000000000000000000000000000000000000000000000000 DUP2 MSTORE PUSH1 0x4 ADD PUSH2 0x1B53 SWAP1 PUSH2 0x36E9 JUMP JUMPDEST PUSH1 0x40 MLOAD DUP1 SWAP2 SUB SWAP1 REVERT JUMPDEST PUSH3 0x10000 DUP6 PUSH1 0x8 ADD DUP7 PUSH1 0x6 ADD PUSH1 0x0 DUP5 PUSH8 0xFFFFFFFFFFFFFFFF AND DUP2 MSTORE PUSH1 0x20 ADD SWAP1 DUP2 MSTORE PUSH1 0x20 ADD PUSH1 0x0 KECCAK256 SLOAD DUP2 SLOAD DUP2 LT PUSH2 0x1B95 JUMPI PUSH2 0x1B94 PUSH2 0x4052 JUMP JUMPDEST JUMPDEST SWAP1 PUSH1 0x0 MSTORE PUSH1 0x20 PUSH1 0x0 KECCAK256 SWAP1 PUSH1 0x4 MUL ADD PUSH1 0x2 ADD SLOAD PUSH2 0x1BB1 SWAP2 SWAP1 PUSH2 0x3B51 JUMP JUMPDEST DUP4 PUSH4 0xFFFFFFFF AND LT PUSH2 0x1BF8 JUMPI PUSH1 0x40 MLOAD PUSH32 0x8C379A000000000000000000000000000000000000000000000000000000000 DUP2 MSTORE PUSH1 0x4 ADD PUSH2 0x1BEF SWAP1 PUSH2 0x3749 JUMP JUMPDEST PUSH1 0x40 MLOAD DUP1 SWAP2 SUB SWAP1 REVERT JUMPDEST DUP5 PUSH1 0x8 ADD DUP6 PUSH1 0x6 ADD PUSH1 0x0 DUP4 PUSH8 0xFFFFFFFFFFFFFFFF AND DUP2 MSTORE PUSH1 0x20 ADD SWAP1 DUP2 MSTORE PUSH1 0x20 ADD PUSH1 0x0 KECCAK256 SLOAD DUP2 SLOAD DUP2 LT PUSH2 0x1C2D JUMPI PUSH2 0x1C2C PUSH2 0x4052 JUMP JUMPDEST JUMPDEST SWAP1 PUSH1 0x0 MSTORE PUSH1 0x20 PUSH1 0x0 KECCAK256 SWAP1 PUSH1 0x4 MUL ADD PUSH1 0x3 ADD SLOAD DUP3 EQ PUSH2 0x1C80 JUMPI PUSH1 0x40 MLOAD PUSH32 0x8C379A000000000000000000000000000000000000000000000000000000000 DUP2 MSTORE PUSH1 0x4 ADD PUSH2 0x1C77 SWAP1 PUSH2 0x36A9 JUMP JUMPDEST PUSH1 0x40 MLOAD DUP1 SWAP2 SUB SWAP1 REVERT JUMPDEST PUSH1 0x0 DUP6 PUSH1 0x6 ADD PUSH1 0x0 DUP4 PUSH8 0xFFFFFFFFFFFFFFFF AND DUP2 MSTORE PUSH1 0x20 ADD SWAP1 DUP2 MSTORE PUSH1 0x20 ADD PUSH1 0x0 KECCAK256 SLOAD SWAP1 POP DUP4 PUSH4 0xFFFFFFFF AND DUP7 PUSH1 0x8 ADD DUP3 DUP2 SLOAD DUP2 LT PUSH2 0x1CC1 JUMPI PUSH2 0x1CC0 PUSH2 0x4052 JUMP JUMPDEST JUMPDEST SWAP1 PUSH1 0x0 MSTORE PUSH1 0x20 PUSH1 0x0 KECCAK256 SWAP1 PUSH1 0x4 MUL ADD PUSH1 0x2 ADD DUP2 SWAP1 SSTORE POP DUP5 DUP7 PUSH1 0x8 ADD DUP3 DUP2 SLOAD DUP2 LT PUSH2 0x1CED JUMPI PUSH2 0x1CEC PUSH2 0x4052 JUMP JUMPDEST JUMPDEST SWAP1 PUSH1 0x0 MSTORE PUSH1 0x20 PUSH1 0x0 KECCAK256 SWAP1 PUSH1 0x4 MUL ADD PUSH1 0x1 ADD DUP2 SWAP1 SSTORE POP PUSH1 0x0 PUSH1 0x1E PUSH1 0x1 DUP9 PUSH1 0xA ADD PUSH1 0x0 DUP7 PUSH8 0xFFFFFFFFFFFFFFFF AND DUP2 MSTORE PUSH1 0x20 ADD SWAP1 DUP2 MSTORE PUSH1 0x20 ADD PUSH1 0x0 KECCAK256 PUSH1 0x0 SWAP1 SLOAD SWAP1 PUSH2 0x100 EXP SWAP1 DIV PUSH4 0xFFFFFFFF AND PUSH2 0x1D42 SWAP2 SWAP1 PUSH2 0x3BA7 JUMP JUMPDEST PUSH2 0x1D4C SWAP2 SWAP1 PUSH2 0x3F94 JUMP JUMPDEST SWAP1 POP DUP1 DUP8 PUSH1 0xA ADD PUSH1 0x0 DUP6 PUSH8 0xFFFFFFFFFFFFFFFF AND DUP2 MSTORE PUSH1 0x20 ADD SWAP1 DUP2 MSTORE PUSH1 0x20 ADD PUSH1 0x0 KECCAK256 PUSH1 0x0 PUSH2 0x100 EXP DUP2 SLOAD DUP2 PUSH4 0xFFFFFFFF MUL NOT AND SWAP1 DUP4 PUSH4 0xFFFFFFFF AND MUL OR SWAP1 SSTORE POP DUP6 DUP8 PUSH1 0x9 ADD PUSH1 0x0 DUP6 PUSH8 0xFFFFFFFFFFFFFFFF AND DUP2 MSTORE PUSH1 0x20 ADD SWAP1 DUP2 MSTORE PUSH1 0x20 ADD PUSH1 0x0 KECCAK256 PUSH1 0x0 DUP4 PUSH4 0xFFFFFFFF AND PUSH4 0xFFFFFFFF AND DUP2 MSTORE PUSH1 0x20 ADD SWAP1 DUP2 MSTORE PUSH1 0x20 ADD PUSH1 0x0 KECCAK256 DUP2 SWAP1 SSTORE POP PUSH32 0x918597B0FDCA66B353A1B90D2287C2B06307C4D35C824DFCFFEB4B675C961CE4 DUP4 DUP7 DUP9 PUSH1 0x40 MLOAD PUSH2 0x1E00 SWAP4 SWAP3 SWAP2 SWAP1 PUSH2 0x3896 JUMP JUMPDEST PUSH1 0x40 MLOAD DUP1 SWAP2 SUB SWAP1 LOG1 POP POP PUSH2 0x1FE3 JUMP JUMPDEST DUP5 PUSH1 0x0 ADD PUSH1 0x0 SWAP1 SLOAD SWAP1 PUSH2 0x100 EXP SWAP1 DIV PUSH1 0xFF AND PUSH1 0xFF AND DUP6 PUSH1 0x8 ADD DUP1 SLOAD SWAP1 POP LT PUSH2 0x1E6C JUMPI PUSH1 0x40 MLOAD PUSH32 0x8C379A000000000000000000000000000000000000000000000000000000000 DUP2 MSTORE PUSH1 0x4 ADD PUSH2 0x1E63 SWAP1 PUSH2 0x3669 JUMP JUMPDEST PUSH1 0x40 MLOAD DUP1 SWAP2 SUB SWAP1 REVERT JUMPDEST PUSH1 0x1 DUP6 PUSH1 0x7 ADD PUSH1 0x0 DUP4 PUSH8 0xFFFFFFFFFFFFFFFF AND DUP2 MSTORE PUSH1 0x20 ADD SWAP1 DUP2 MSTORE PUSH1 0x20 ADD PUSH1 0x0 KECCAK256 PUSH1 0x0 PUSH2 0x100 EXP DUP2 SLOAD DUP2 PUSH1 0xFF MUL NOT AND SWAP1 DUP4 ISZERO ISZERO MUL OR SWAP1 SSTORE POP PUSH1 0x0 DUP6 PUSH1 0x8 ADD DUP1 SLOAD SWAP1 POP SWAP1 POP PUSH1 0x0 PUSH1 0x40 MLOAD DUP1 PUSH1 0x80 ADD PUSH1 0x40 MSTORE DUP1 DUP5 PUSH8 0xFFFFFFFFFFFFFFFF AND DUP2 MSTORE PUSH1 0x20 ADD DUP8 DUP2 MSTORE PUSH1 0x20 ADD DUP7 PUSH4 0xFFFFFFFF AND DUP2 MSTORE PUSH1 0x20 ADD DUP6 DUP2 MSTORE POP SWAP1 POP DUP7 PUSH1 0x8 ADD DUP2 SWAP1 DUP1 PUSH1 0x1 DUP2 SLOAD ADD DUP1 DUP3 SSTORE DUP1 SWAP2 POP POP PUSH1 0x1 SWAP1 SUB SWAP1 PUSH1 0x0 MSTORE PUSH1 0x20 PUSH1 0x0 KECCAK256 SWAP1 PUSH1 0x4 MUL ADD PUSH1 0x0 SWAP1 SWAP2 SWAP1 SWAP2 SWAP1 SWAP2 POP PUSH1 0x0 DUP3 ADD MLOAD DUP2 PUSH1 0x0 ADD SSTORE PUSH1 0x20 DUP3 ADD MLOAD DUP2 PUSH1 0x1 ADD SSTORE PUSH1 0x40 DUP3 ADD MLOAD DUP2 PUSH1 0x2 ADD SSTORE PUSH1 0x60 DUP3 ADD MLOAD DUP2 PUSH1 0x3 ADD SSTORE POP POP DUP2 DUP8 PUSH1 0x6 ADD PUSH1 0x0 DUP6 PUSH8 0xFFFFFFFFFFFFFFFF AND DUP2 MSTORE PUSH1 0x20 ADD SWAP1 DUP2 MSTORE PUSH1 0x20 ADD PUSH1 0x0 KECCAK256 DUP2 SWAP1 SSTORE POP PUSH1 0x0 DUP7 DUP9 PUSH1 0x9 ADD PUSH1 0x0 DUP7 PUSH8 0xFFFFFFFFFFFFFFFF AND DUP2 MSTORE PUSH1 0x20 ADD SWAP1 DUP2 MSTORE PUSH1 0x20 ADD PUSH1 0x0 KECCAK256 PUSH1 0x0 DUP4 PUSH4 0xFFFFFFFF AND PUSH4 0xFFFFFFFF AND DUP2 MSTORE PUSH1 0x20 ADD SWAP1 DUP2 MSTORE PUSH1 0x20 ADD PUSH1 0x0 KECCAK256 DUP2 SWAP1 SSTORE POP PUSH32 0x5FE2C40955FB42111954FB4F898E4DB4998D64EBAAE1C872141FF1943990418A DUP5 DUP8 DUP10 PUSH1 0x40 MLOAD PUSH2 0x1FD7 SWAP4 SWAP3 SWAP2 SWAP1 PUSH2 0x3896 JUMP JUMPDEST PUSH1 0x40 MLOAD DUP1 SWAP2 SUB SWAP1 LOG1 POP POP POP JUMPDEST POP POP POP POP POP JUMP JUMPDEST PUSH1 0x0 PUSH1 0x8 DUP3 PUSH1 0x40 MLOAD PUSH1 0x20 ADD PUSH2 0x1FFF SWAP2 SWAP1 PUSH2 0x357E JUMP JUMPDEST PUSH1 0x40 MLOAD PUSH1 0x20 DUP2 DUP4 SUB SUB DUP2 MSTORE SWAP1 PUSH1 0x40 MSTORE DUP1 MLOAD SWAP1 PUSH1 0x20 ADD KECCAK256 PUSH1 0x0 SHR SWAP1 SHR SWAP1 POP SWAP2 SWAP1 POP JUMP JUMPDEST PUSH1 0x0 DUP1 DUP3 EQ ISZERO PUSH2 0x2053 JUMPI PUSH32 0x2FE54C60D3ACABF3343A35B6EBA15DB4821B340F76E741E2249685ED4899AF6C SWAP1 POP PUSH2 0x267C JUMP JUMPDEST PUSH1 0x1 DUP3 EQ ISZERO PUSH2 0x2084 JUMPI PUSH32 0x13E37F2D6CB86C78CCC1788607C2B199788C6BB0A615A21F2E7A8E88384222F8 SWAP1 POP PUSH2 0x267C JUMP JUMPDEST PUSH1 0x2 DUP3 EQ ISZERO PUSH2 0x20B5 JUMPI PUSH32 0x217126FA352C326896E8C2803EEC8FD63AD50CF65EDFEF27A41A9E32DC622765 SWAP1 POP PUSH2 0x267C JUMP JUMPDEST PUSH1 0x3 DUP3 EQ ISZERO PUSH2 0x20E6 JUMPI PUSH32 0xE28A61A9B3E91007D5A9E3ADA18E1B24D6D230C618388EE5DF34CACD7397EEE SWAP1 POP PUSH2 0x267C JUMP JUMPDEST PUSH1 0x4 DUP3 EQ ISZERO PUSH2 0x2117 JUMPI PUSH32 0x27953447A6979839536BADC5425ED15FADB0E292E9BC36F92F0AA5CFA5013587 SWAP1 POP PUSH2 0x267C JUMP JUMPDEST PUSH1 0x5 DUP3 EQ ISZERO PUSH2 0x2148 JUMPI PUSH32 0x194191EDBFB91D10F6A7AFD315F33095410C7801C47175C2DF6DC2CCE0E3AFFC SWAP1 POP PUSH2 0x267C JUMP JUMPDEST PUSH1 0x6 DUP3 EQ ISZERO PUSH2 0x2179 JUMPI PUSH32 0x1733DECE17D71190516DBAF1927936FA643DC7079FC0CC731DE9D6845A47741F SWAP1 POP PUSH2 0x267C JUMP JUMPDEST PUSH1 0x7 DUP3 EQ ISZERO PUSH2 0x21AA JUMPI PUSH32 0x267855A7DC75DB39D81D17F95D0A7AA572BF5AE19F4DB0E84221D2B2EF999219 SWAP1 POP PUSH2 0x267C JUMP JUMPDEST PUSH1 0x8 DUP3 EQ ISZERO PUSH2 0x21DB JUMPI PUSH32 0x1184E11836B4C36AD8238A340ECC0985EEBA665327E33E9B0E3641027C27620D SWAP1 POP PUSH2 0x267C JUMP JUMPDEST PUSH1 0x9 DUP3 EQ ISZERO PUSH2 0x220C JUMPI PUSH32 0x702AB83A135D7F55350AB1BFAA90BABD8FC1D2B3E6A7215381A7B2213D6C5CE SWAP1 POP PUSH2 0x267C JUMP JUMPDEST PUSH1 0xA DUP3 EQ ISZERO PUSH2 0x223D JUMPI PUSH32 0x2EECC0DE814CFD8C57CE882BABB2E30D1DA56621AEF7A47F3291CFFEAEC26AD7 SWAP1 POP PUSH2 0x267C JUMP JUMPDEST PUSH1 0xB DUP3 EQ ISZERO PUSH2 0x226E JUMPI PUSH32 0x280BC02145C155D5833585B6C7B08501055157DD30CE005319621DC462D33B47 SWAP1 POP PUSH2 0x267C JUMP JUMPDEST PUSH1 0xC DUP3 EQ ISZERO PUSH2 0x229F JUMPI PUSH32 0x45132221D1FA0A7F4AED8ACD2CBEC1E2189B7732CCB2EC272B9C60F0D5AFC5B SWAP1 POP PUSH2 0x267C JUMP JUMPDEST PUSH1 0xD DUP3 EQ ISZERO PUSH2 0x22D0 JUMPI PUSH32 0x27F427CCBF58A44B1270ABBE4EDA6BA53BD6AC4D88CF1E00A13C4371CE71D366 SWAP1 POP PUSH2 0x267C JUMP JUMPDEST PUSH1 0xE DUP3 EQ ISZERO PUSH2 0x2301 JUMPI PUSH32 0x1617EAAE5064F26E8F8A6493AE92BFDED7FDE71B65DF1CA6D5DCEC0DF70B2CEF SWAP1 POP PUSH2 0x267C JUMP JUMPDEST PUSH1 0xF DUP3 EQ ISZERO PUSH2 0x2332 JUMPI PUSH32 0x20C6B400D0EA1B15435703C31C31EE63AD7BA5C8DA66CEC2796FEACEA575ABCA SWAP1 POP PUSH2 0x267C JUMP JUMPDEST PUSH1 0x10 DUP3 EQ ISZERO PUSH2 0x2363 JUMPI PUSH32 0x9589DDB438723F53A8E57BDADA7C5F8ED67E8FECE3889A73618732965645EEC SWAP1 POP PUSH2 0x267C JUMP JUMPDEST PUSH1 0x11 DUP3 EQ ISZERO PUSH2 0x2393 JUMPI PUSH31 0x64B6A738A5FF537DB7B220F3394F0ECBD35BFD355C5425DC1166BF3236079B SWAP1 POP PUSH2 0x267C JUMP JUMPDEST PUSH1 0x12 DUP3 EQ ISZERO PUSH2 0x23C4 JUMPI PUSH32 0x95DE56281B1D5055E897C3574FF790D5EE81DBC5DF784AD2D67795E557C9E9F SWAP1 POP PUSH2 0x267C JUMP JUMPDEST PUSH1 0x13 DUP3 EQ ISZERO PUSH2 0x23F5 JUMPI PUSH32 0x11CF2E2887AA21963A6EC14289183EFE4D4C60F14ECD3D6FE0BEEBDF855A9B63 SWAP1 POP PUSH2 0x267C JUMP JUMPDEST PUSH1 0x14 DUP3 EQ ISZERO PUSH2 0x2426 JUMPI PUSH32 0x2B0F6FC0179FA65B6F73627C0E1E84C7374D2EAEC44C9A48F2571393EA77BCBB SWAP1 POP PUSH2 0x267C JUMP JUMPDEST PUSH1 0x15 DUP3 EQ ISZERO PUSH2 0x2457 JUMPI PUSH32 0x16FDB637C2ABF9C0F988DBF2FD64258C46FB6A273D537B2CF1603EA460B13279 SWAP1 POP PUSH2 0x267C JUMP JUMPDEST PUSH1 0x16 DUP3 EQ ISZERO PUSH2 0x2488 JUMPI PUSH32 0x21BBD7E944F6124DAD4C376DF9CC12E7CA66E47DFF703FF7CEDB1A454EDCF0FF SWAP1 POP PUSH2 0x267C JUMP JUMPDEST PUSH1 0x17 DUP3 EQ ISZERO PUSH2 0x24B9 JUMPI PUSH32 0x2784F8220B1C963E468F590F137BAAA1625B3B92A27AD9B6E84EB0D3454D9962 SWAP1 POP PUSH2 0x267C JUMP JUMPDEST PUSH1 0x18 DUP3 EQ ISZERO PUSH2 0x24EA JUMPI PUSH32 0x16ACE1A65B7534142F8CC1AAD810B3D6A7A74CA905D9C275CB98BA57E509FC10 SWAP1 POP PUSH2 0x267C JUMP JUMPDEST PUSH1 0x19 DUP3 EQ ISZERO PUSH2 0x251B JUMPI PUSH32 0x2328068C6A8C24265124DEBD8FE10D3F29F0665EA725A65E3638F6192A96A013 SWAP1 POP PUSH2 0x267C JUMP JUMPDEST PUSH1 0x1A DUP3 EQ ISZERO PUSH2 0x254C JUMPI PUSH32 0x2DDB991BE1F028022411B4C4D2C22043E5E751C120736F00ADF54ACAB1C9AC14 SWAP1 POP PUSH2 0x267C JUMP JUMPDEST PUSH1 0x1B DUP3 EQ ISZERO PUSH2 0x257D JUMPI PUSH32 0x113798410EAEB95056A464F70521EB58377C0155F2FE518A5594D38CC209CC0 SWAP1 POP PUSH2 0x267C JUMP JUMPDEST PUSH1 0x1C DUP3 EQ ISZERO PUSH2 0x25AE JUMPI PUSH32 0x202D1AE61526F0D0D01EF80FB5D4055A7AF45721024C2C24CFFD6A3798F54D50 SWAP1 POP PUSH2 0x267C JUMP JUMPDEST PUSH1 0x1D DUP3 EQ ISZERO PUSH2 0x25DF JUMPI PUSH32 0x23AB323453748129F2765F79615022F5BEBD6F4096A796300AAB049A60B0F187 SWAP1 POP PUSH2 0x267C JUMP JUMPDEST PUSH1 0x1E DUP3 EQ ISZERO PUSH2 0x2610 JUMPI PUSH32 0x1F15585F8947E378BCF8BD918716799DA909ACDB944C57150B1EB4565FDA8AA0 SWAP1 POP PUSH2 0x267C JUMP JUMPDEST PUSH1 0x1F DUP3 EQ ISZERO PUSH2 0x2641 JUMPI PUSH32 0x1EB064B21055AC6A350CF41EB30E4CE2CB19680217DF3A243617C2838185AD06 SWAP1 POP PUSH2 0x267C JUMP JUMPDEST PUSH1 0x40 MLOAD PUSH32 0x8C379A000000000000000000000000000000000000000000000000000000000 DUP2 MSTORE PUSH1 0x4 ADD PUSH2 0x2673 SWAP1 PUSH2 0x3709 JUMP JUMPDEST PUSH1 0x40 MLOAD DUP1 SWAP2 SUB SWAP1 REVERT JUMPDEST SWAP2 SWAP1 POP JUMP JUMPDEST PUSH1 0x0 PUSH1 0xD0 DUP3 SWAP1 SHL PUSH1 0xD0 SHR PUSH6 0xFFFFFFFFFFFF AND SWAP1 POP SWAP2 SWAP1 POP JUMP JUMPDEST PUSH1 0x0 DUP3 PUSH1 0x7 ADD PUSH1 0x0 DUP4 DUP2 MSTORE PUSH1 0x20 ADD SWAP1 DUP2 MSTORE PUSH1 0x20 ADD PUSH1 0x0 KECCAK256 PUSH1 0x0 SWAP1 SLOAD SWAP1 PUSH2 0x100 EXP SWAP1 DIV PUSH1 0xFF AND SWAP1 POP SWAP3 SWAP2 POP POP JUMP JUMPDEST PUSH1 0x40 MLOAD DUP1 PUSH1 0x60 ADD PUSH1 0x40 MSTORE DUP1 PUSH1 0x0 PUSH20 0xFFFFFFFFFFFFFFFFFFFFFFFFFFFFFFFFFFFFFFFF AND DUP2 MSTORE PUSH1 0x20 ADD PUSH1 0x0 PUSH1 0x2 DUP2 GT ISZERO PUSH2 0x2703 JUMPI PUSH2 0x2702 PUSH2 0x4023 JUMP JUMPDEST JUMPDEST DUP2 MSTORE PUSH1 0x20 ADD PUSH1 0x0 PUSH1 0xFF AND DUP2 MSTORE POP SWAP1 JUMP JUMPDEST DUP3 PUSH1 0x2 DUP2 ADD SWAP3 DUP3 ISZERO PUSH2 0x2742 JUMPI SWAP2 PUSH1 0x20 MUL DUP3 ADD JUMPDEST DUP3 DUP2 GT ISZERO PUSH2 0x2741 JUMPI DUP3 MLOAD DUP3 SSTORE SWAP2 PUSH1 0x20 ADD SWAP2 SWAP1 PUSH1 0x1 ADD SWAP1 PUSH2 0x2726 JUMP JUMPDEST JUMPDEST POP SWAP1 POP PUSH2 0x274F SWAP2 SWAP1 PUSH2 0x2753 JUMP JUMPDEST POP SWAP1 JUMP JUMPDEST JUMPDEST DUP1 DUP3 GT ISZERO PUSH2 0x276C JUMPI PUSH1 0x0 DUP2 PUSH1 0x0 SWAP1 SSTORE POP PUSH1 0x1 ADD PUSH2 0x2754 JUMP JUMPDEST POP SWAP1 JUMP JUMPDEST PUSH1 0x0 PUSH2 0x2783 PUSH2 0x277E DUP5 PUSH2 0x390D JUMP JUMPDEST PUSH2 0x38E8 JUMP JUMPDEST SWAP1 POP DUP1 DUP4 DUP3 MSTORE PUSH1 0x20 DUP3 ADD SWAP1 POP DUP3 DUP6 PUSH1 0x20 DUP7 MUL DUP3 ADD GT ISZERO PUSH2 0x27A6 JUMPI PUSH2 0x27A5 PUSH2 0x40D2 JUMP JUMPDEST JUMPDEST PUSH1 0x0 JUMPDEST DUP6 DUP2 LT ISZERO PUSH2 0x27D6 JUMPI DUP2 PUSH2 0x27BC DUP9 DUP3 PUSH2 0x2A73 JUMP JUMPDEST DUP5 MSTORE PUSH1 0x20 DUP5 ADD SWAP4 POP PUSH1 0x20 DUP4 ADD SWAP3 POP POP PUSH1 0x1 DUP2 ADD SWAP1 POP PUSH2 0x27A9 JUMP JUMPDEST POP POP POP SWAP4 SWAP3 POP POP POP JUMP JUMPDEST PUSH1 0x0 PUSH2 0x27F3 PUSH2 0x27EE DUP5 PUSH2 0x3939 JUMP JUMPDEST PUSH2 0x38E8 JUMP JUMPDEST SWAP1 POP DUP1 DUP4 DUP3 MSTORE PUSH1 0x20 DUP3 ADD SWAP1 POP DUP3 DUP6 PUSH1 0x80 DUP7 MUL DUP3 ADD GT ISZERO PUSH2 0x2816 JUMPI PUSH2 0x2815 PUSH2 0x40D2 JUMP JUMPDEST JUMPDEST PUSH1 0x0 JUMPDEST DUP6 DUP2 LT ISZERO PUSH2 0x2846 JUMPI DUP2 PUSH2 0x282C DUP9 DUP3 PUSH2 0x2B0C JUMP JUMPDEST DUP5 MSTORE PUSH1 0x20 DUP5 ADD SWAP4 POP PUSH1 0x80 DUP4 ADD SWAP3 POP POP PUSH1 0x1 DUP2 ADD SWAP1 POP PUSH2 0x2819 JUMP JUMPDEST POP POP POP SWAP4 SWAP3 POP POP POP JUMP JUMPDEST PUSH1 0x0 PUSH2 0x2863 PUSH2 0x285E DUP5 PUSH2 0x3965 JUMP JUMPDEST PUSH2 0x38E8 JUMP JUMPDEST SWAP1 POP DUP1 DUP3 DUP6 PUSH1 0x20 DUP7 MUL DUP3 ADD GT ISZERO PUSH2 0x287D JUMPI PUSH2 0x287C PUSH2 0x40D2 JUMP JUMPDEST JUMPDEST PUSH1 0x0 JUMPDEST DUP6 DUP2 LT ISZERO PUSH2 0x28AD JUMPI DUP2 PUSH2 0x2893 DUP9 DUP3 PUSH2 0x2B84 JUMP JUMPDEST DUP5 MSTORE PUSH1 0x20 DUP5 ADD SWAP4 POP PUSH1 0x20 DUP4 ADD SWAP3 POP POP PUSH1 0x1 DUP2 ADD SWAP1 POP PUSH2 0x2880 JUMP JUMPDEST POP POP POP SWAP4 SWAP3 POP POP POP JUMP JUMPDEST PUSH1 0x0 PUSH2 0x28CA PUSH2 0x28C5 DUP5 PUSH2 0x398B JUMP JUMPDEST PUSH2 0x38E8 JUMP JUMPDEST SWAP1 POP DUP1 DUP3 DUP6 PUSH1 0x20 DUP7 MUL DUP3 ADD GT ISZERO PUSH2 0x28E4 JUMPI PUSH2 0x28E3 PUSH2 0x40D2 JUMP JUMPDEST JUMPDEST PUSH1 0x0 JUMPDEST DUP6 DUP2 LT ISZERO PUSH2 0x2914 JUMPI DUP2 PUSH2 0x28FA DUP9 DUP3 PUSH2 0x2B84 JUMP JUMPDEST DUP5 MSTORE PUSH1 0x20 DUP5 ADD SWAP4 POP PUSH1 0x20 DUP4 ADD SWAP3 POP POP PUSH1 0x1 DUP2 ADD SWAP1 POP PUSH2 0x28E7 JUMP JUMPDEST POP POP POP SWAP4 SWAP3 POP POP POP JUMP JUMPDEST PUSH1 0x0 PUSH2 0x2931 PUSH2 0x292C DUP5 PUSH2 0x39B1 JUMP JUMPDEST PUSH2 0x38E8 JUMP JUMPDEST SWAP1 POP DUP3 DUP2 MSTORE PUSH1 0x20 DUP2 ADD DUP5 DUP5 DUP5 ADD GT ISZERO PUSH2 0x294D JUMPI PUSH2 0x294C PUSH2 0x40D7 JUMP JUMPDEST JUMPDEST PUSH2 0x2958 DUP5 DUP3 DUP6 PUSH2 0x3E68 JUMP JUMPDEST POP SWAP4 SWAP3 POP POP POP JUMP JUMPDEST PUSH1 0x0 DUP2 CALLDATALOAD SWAP1 POP PUSH2 0x296F DUP2 PUSH2 0x42CB JUMP JUMPDEST SWAP3 SWAP2 POP POP JUMP JUMPDEST PUSH1 0x0 DUP3 PUSH1 0x1F DUP4 ADD SLT PUSH2 0x298A JUMPI PUSH2 0x2989 PUSH2 0x40C8 JUMP JUMPDEST JUMPDEST DUP2 MLOAD PUSH2 0x299A DUP5 DUP3 PUSH1 0x20 DUP7 ADD PUSH2 0x2770 JUMP JUMPDEST SWAP2 POP POP SWAP3 SWAP2 POP POP JUMP JUMPDEST PUSH1 0x0 DUP3 PUSH1 0x1F DUP4 ADD SLT PUSH2 0x29B8 JUMPI PUSH2 0x29B7 PUSH2 0x40C8 JUMP JUMPDEST JUMPDEST DUP2 MLOAD PUSH2 0x29C8 DUP5 DUP3 PUSH1 0x20 DUP7 ADD PUSH2 0x27E0 JUMP JUMPDEST SWAP2 POP POP SWAP3 SWAP2 POP POP JUMP JUMPDEST PUSH1 0x0 DUP3 PUSH1 0x1F DUP4 ADD SLT PUSH2 0x29E6 JUMPI PUSH2 0x29E5 PUSH2 0x40C8 JUMP JUMPDEST JUMPDEST PUSH1 0x2 PUSH2 0x29F3 DUP5 DUP3 DUP6 PUSH2 0x2850 JUMP JUMPDEST SWAP2 POP POP SWAP3 SWAP2 POP POP JUMP JUMPDEST PUSH1 0x0 DUP2 SWAP1 POP DUP3 PUSH1 0x20 PUSH1 0x8 MUL DUP3 ADD GT ISZERO PUSH2 0x2A18 JUMPI PUSH2 0x2A17 PUSH2 0x40D2 JUMP JUMPDEST JUMPDEST SWAP3 SWAP2 POP POP JUMP JUMPDEST PUSH1 0x0 DUP3 PUSH1 0x1F DUP4 ADD SLT PUSH2 0x2A33 JUMPI PUSH2 0x2A32 PUSH2 0x40C8 JUMP JUMPDEST JUMPDEST PUSH1 0x8 PUSH2 0x2A40 DUP5 DUP3 DUP6 PUSH2 0x28B7 JUMP JUMPDEST SWAP2 POP POP SWAP3 SWAP2 POP POP JUMP JUMPDEST PUSH1 0x0 DUP2 MLOAD SWAP1 POP PUSH2 0x2A58 DUP2 PUSH2 0x42E2 JUMP JUMPDEST SWAP3 SWAP2 POP POP JUMP JUMPDEST PUSH1 0x0 DUP2 CALLDATALOAD SWAP1 POP PUSH2 0x2A6D DUP2 PUSH2 0x42F9 JUMP JUMPDEST SWAP3 SWAP2 POP POP JUMP JUMPDEST PUSH1 0x0 DUP2 MLOAD SWAP1 POP PUSH2 0x2A82 DUP2 PUSH2 0x42F9 JUMP JUMPDEST SWAP3 SWAP2 POP POP JUMP JUMPDEST PUSH1 0x0 DUP1 DUP4 PUSH1 0x1F DUP5 ADD SLT PUSH2 0x2A9E JUMPI PUSH2 0x2A9D PUSH2 0x40C8 JUMP JUMPDEST JUMPDEST DUP3 CALLDATALOAD SWAP1 POP PUSH8 0xFFFFFFFFFFFFFFFF DUP2 GT ISZERO PUSH2 0x2ABB JUMPI PUSH2 0x2ABA PUSH2 0x40C3 JUMP JUMPDEST JUMPDEST PUSH1 0x20 DUP4 ADD SWAP2 POP DUP4 PUSH1 0x1 DUP3 MUL DUP4 ADD GT ISZERO PUSH2 0x2AD7 JUMPI PUSH2 0x2AD6 PUSH2 0x40D2 JUMP JUMPDEST JUMPDEST SWAP3 POP SWAP3 SWAP1 POP JUMP JUMPDEST PUSH1 0x0 DUP3 PUSH1 0x1F DUP4 ADD SLT PUSH2 0x2AF3 JUMPI PUSH2 0x2AF2 PUSH2 0x40C8 JUMP JUMPDEST JUMPDEST DUP2 MLOAD PUSH2 0x2B03 DUP5 DUP3 PUSH1 0x20 DUP7 ADD PUSH2 0x291E JUMP JUMPDEST SWAP2 POP POP SWAP3 SWAP2 POP POP JUMP JUMPDEST PUSH1 0x0 PUSH1 0x80 DUP3 DUP5 SUB SLT ISZERO PUSH2 0x2B22 JUMPI PUSH2 0x2B21 PUSH2 0x40CD JUMP JUMPDEST JUMPDEST PUSH2 0x2B2C PUSH1 0x80 PUSH2 0x38E8 JUMP JUMPDEST SWAP1 POP PUSH1 0x0 PUSH2 0x2B3C DUP5 DUP3 DUP6 ADD PUSH2 0x2B99 JUMP JUMPDEST PUSH1 0x0 DUP4 ADD MSTORE POP PUSH1 0x20 PUSH2 0x2B50 DUP5 DUP3 DUP6 ADD PUSH2 0x2B99 JUMP JUMPDEST PUSH1 0x20 DUP4 ADD MSTORE POP PUSH1 0x40 PUSH2 0x2B64 DUP5 DUP3 DUP6 ADD PUSH2 0x2B99 JUMP JUMPDEST PUSH1 0x40 DUP4 ADD MSTORE POP PUSH1 0x60 PUSH2 0x2B78 DUP5 DUP3 DUP6 ADD PUSH2 0x2A73 JUMP JUMPDEST PUSH1 0x60 DUP4 ADD MSTORE POP SWAP3 SWAP2 POP POP JUMP JUMPDEST PUSH1 0x0 DUP2 CALLDATALOAD SWAP1 POP PUSH2 0x2B93 DUP2 PUSH2 0x4310 JUMP JUMPDEST SWAP3 SWAP2 POP POP JUMP JUMPDEST PUSH1 0x0 DUP2 MLOAD SWAP1 POP PUSH2 0x2BA8 DUP2 PUSH2 0x4310 JUMP JUMPDEST SWAP3 SWAP2 POP POP JUMP JUMPDEST PUSH1 0x0 DUP2 CALLDATALOAD SWAP1 POP PUSH2 0x2BBD DUP2 PUSH2 0x4327 JUMP JUMPDEST SWAP3 SWAP2 POP POP JUMP JUMPDEST PUSH1 0x0 DUP2 CALLDATALOAD SWAP1 POP PUSH2 0x2BD2 DUP2 PUSH2 0x433E JUMP JUMPDEST SWAP3 SWAP2 POP POP JUMP JUMPDEST PUSH1 0x0 PUSH1 0x20 DUP3 DUP5 SUB SLT ISZERO PUSH2 0x2BEE JUMPI PUSH2 0x2BED PUSH2 0x40E1 JUMP JUMPDEST JUMPDEST PUSH1 0x0 DUP3 ADD MLOAD PUSH8 0xFFFFFFFFFFFFFFFF DUP2 GT ISZERO PUSH2 0x2C0C JUMPI PUSH2 0x2C0B PUSH2 0x40DC JUMP JUMPDEST JUMPDEST PUSH2 0x2C18 DUP5 DUP3 DUP6 ADD PUSH2 0x29A3 JUMP JUMPDEST SWAP2 POP POP SWAP3 SWAP2 POP POP JUMP JUMPDEST PUSH1 0x0 PUSH1 0x40 DUP3 DUP5 SUB SLT ISZERO PUSH2 0x2C37 JUMPI PUSH2 0x2C36 PUSH2 0x40E1 JUMP JUMPDEST JUMPDEST PUSH1 0x0 PUSH2 0x2C45 DUP5 DUP3 DUP6 ADD PUSH2 0x29D1 JUMP JUMPDEST SWAP2 POP POP SWAP3 SWAP2 POP POP JUMP JUMPDEST PUSH1 0x0 PUSH2 0x100 DUP3 DUP5 SUB SLT ISZERO PUSH2 0x2C65 JUMPI PUSH2 0x2C64 PUSH2 0x40E1 JUMP JUMPDEST JUMPDEST PUSH1 0x0 PUSH2 0x2C73 DUP5 DUP3 DUP6 ADD PUSH2 0x2A1E JUMP JUMPDEST SWAP2 POP POP SWAP3 SWAP2 POP POP JUMP JUMPDEST PUSH1 0x0 PUSH1 0x20 DUP3 DUP5 SUB SLT ISZERO PUSH2 0x2C92 JUMPI PUSH2 0x2C91 PUSH2 0x40E1 JUMP JUMPDEST JUMPDEST PUSH1 0x0 PUSH2 0x2CA0 DUP5 DUP3 DUP6 ADD PUSH2 0x2A49 JUMP JUMPDEST SWAP2 POP POP SWAP3 SWAP2 POP POP JUMP JUMPDEST PUSH1 0x0 DUP1 PUSH1 0x0 DUP1 PUSH1 0x0 DUP1 PUSH2 0x180 DUP8 DUP10 SUB SLT ISZERO PUSH2 0x2CC7 JUMPI PUSH2 0x2CC6 PUSH2 0x40E1 JUMP JUMPDEST JUMPDEST PUSH1 0x0 PUSH2 0x2CD5 DUP10 DUP3 DUP11 ADD PUSH2 0x2A5E JUMP JUMPDEST SWAP7 POP POP PUSH1 0x20 PUSH2 0x2CE6 DUP10 DUP3 DUP11 ADD PUSH2 0x2B84 JUMP JUMPDEST SWAP6 POP POP PUSH1 0x40 PUSH2 0x2CF7 DUP10 DUP3 DUP11 ADD PUSH2 0x2B84 JUMP JUMPDEST SWAP5 POP POP PUSH1 0x60 DUP8 ADD CALLDATALOAD PUSH8 0xFFFFFFFFFFFFFFFF DUP2 GT ISZERO PUSH2 0x2D18 JUMPI PUSH2 0x2D17 PUSH2 0x40DC JUMP JUMPDEST JUMPDEST PUSH2 0x2D24 DUP10 DUP3 DUP11 ADD PUSH2 0x2A88 JUMP JUMPDEST SWAP4 POP SWAP4 POP POP PUSH1 0x80 PUSH2 0x2D37 DUP10 DUP3 DUP11 ADD PUSH2 0x29FC JUMP JUMPDEST SWAP2 POP POP SWAP3 SWAP6 POP SWAP3 SWAP6 POP SWAP3 SWAP6 JUMP JUMPDEST PUSH1 0x0 DUP1 PUSH1 0x40 DUP4 DUP6 SUB SLT ISZERO PUSH2 0x2D5B JUMPI PUSH2 0x2D5A PUSH2 0x40E1 JUMP JUMPDEST JUMPDEST PUSH1 0x0 DUP4 ADD MLOAD PUSH8 0xFFFFFFFFFFFFFFFF DUP2 GT ISZERO PUSH2 0x2D79 JUMPI PUSH2 0x2D78 PUSH2 0x40DC JUMP JUMPDEST JUMPDEST PUSH2 0x2D85 DUP6 DUP3 DUP7 ADD PUSH2 0x2ADE JUMP JUMPDEST SWAP3 POP POP PUSH1 0x20 DUP4 ADD MLOAD PUSH8 0xFFFFFFFFFFFFFFFF DUP2 GT ISZERO PUSH2 0x2DA6 JUMPI PUSH2 0x2DA5 PUSH2 0x40DC JUMP JUMPDEST JUMPDEST PUSH2 0x2DB2 DUP6 DUP3 DUP7 ADD PUSH2 0x2975 JUMP JUMPDEST SWAP2 POP POP SWAP3 POP SWAP3 SWAP1 POP JUMP JUMPDEST PUSH1 0x0 PUSH1 0x20 DUP3 DUP5 SUB SLT ISZERO PUSH2 0x2DD2 JUMPI PUSH2 0x2DD1 PUSH2 0x40E1 JUMP JUMPDEST JUMPDEST PUSH1 0x0 PUSH2 0x2DE0 DUP5 DUP3 DUP6 ADD PUSH2 0x2B84 JUMP JUMPDEST SWAP2 POP POP SWAP3 SWAP2 POP POP JUMP JUMPDEST PUSH1 0x0 PUSH1 0x20 DUP3 DUP5 SUB SLT ISZERO PUSH2 0x2DFF JUMPI PUSH2 0x2DFE PUSH2 0x40E1 JUMP JUMPDEST JUMPDEST PUSH1 0x0 PUSH2 0x2E0D DUP5 DUP3 DUP6 ADD PUSH2 0x2B99 JUMP JUMPDEST SWAP2 POP POP SWAP3 SWAP2 POP POP JUMP JUMPDEST PUSH1 0x0 DUP1 PUSH1 0x0 PUSH1 0x40 DUP5 DUP7 SUB SLT ISZERO PUSH2 0x2E2F JUMPI PUSH2 0x2E2E PUSH2 0x40E1 JUMP JUMPDEST JUMPDEST PUSH1 0x0 PUSH2 0x2E3D DUP7 DUP3 DUP8 ADD PUSH2 0x2B84 JUMP JUMPDEST SWAP4 POP POP PUSH1 0x20 DUP5 ADD CALLDATALOAD PUSH8 0xFFFFFFFFFFFFFFFF DUP2 GT ISZERO PUSH2 0x2E5E JUMPI PUSH2 0x2E5D PUSH2 0x40DC JUMP JUMPDEST JUMPDEST PUSH2 0x2E6A DUP7 DUP3 DUP8 ADD PUSH2 0x2A88 JUMP JUMPDEST SWAP3 POP SWAP3 POP POP SWAP3 POP SWAP3 POP SWAP3 JUMP JUMPDEST PUSH1 0x0 DUP1 PUSH1 0x40 DUP4 DUP6 SUB SLT ISZERO PUSH2 0x2E8D JUMPI PUSH2 0x2E8C PUSH2 0x40E1 JUMP JUMPDEST JUMPDEST PUSH1 0x0 PUSH2 0x2E9B DUP6 DUP3 DUP7 ADD PUSH2 0x2B84 JUMP JUMPDEST SWAP3 POP POP PUSH1 0x20 PUSH2 0x2EAC DUP6 DUP3 DUP7 ADD PUSH2 0x2B84 JUMP JUMPDEST SWAP2 POP POP SWAP3 POP SWAP3 SWAP1 POP JUMP JUMPDEST PUSH1 0x0 DUP1 PUSH1 0x0 DUP1 PUSH1 0x80 DUP6 DUP8 SUB SLT ISZERO PUSH2 0x2ED0 JUMPI PUSH2 0x2ECF PUSH2 0x40E1 JUMP JUMPDEST JUMPDEST PUSH1 0x0 PUSH2 0x2EDE DUP8 DUP3 DUP9 ADD PUSH2 0x2B84 JUMP JUMPDEST SWAP5 POP POP PUSH1 0x20 PUSH2 0x2EEF DUP8 DUP3 DUP9 ADD PUSH2 0x2B84 JUMP JUMPDEST SWAP4 POP POP PUSH1 0x40 PUSH2 0x2F00 DUP8 DUP3 DUP9 ADD PUSH2 0x2960 JUMP JUMPDEST SWAP3 POP POP PUSH1 0x60 PUSH2 0x2F11 DUP8 DUP3 DUP9 ADD PUSH2 0x2BC3 JUMP JUMPDEST SWAP2 POP POP SWAP3 SWAP6 SWAP2 SWAP5 POP SWAP3 POP JUMP JUMPDEST PUSH1 0x0 DUP1 PUSH1 0x0 DUP1 PUSH1 0x80 DUP6 DUP8 SUB SLT ISZERO PUSH2 0x2F37 JUMPI PUSH2 0x2F36 PUSH2 0x40E1 JUMP JUMPDEST JUMPDEST PUSH1 0x0 PUSH2 0x2F45 DUP8 DUP3 DUP9 ADD PUSH2 0x2B84 JUMP JUMPDEST SWAP5 POP POP PUSH1 0x20 PUSH2 0x2F56 DUP8 DUP3 DUP9 ADD PUSH2 0x2B84 JUMP JUMPDEST SWAP4 POP POP PUSH1 0x40 PUSH2 0x2F67 DUP8 DUP3 DUP9 ADD PUSH2 0x2BAE JUMP JUMPDEST SWAP3 POP POP PUSH1 0x60 PUSH2 0x2F78 DUP8 DUP3 DUP9 ADD PUSH2 0x2A5E JUMP JUMPDEST SWAP2 POP POP SWAP3 SWAP6 SWAP2 SWAP5 POP SWAP3 POP JUMP JUMPDEST PUSH1 0x0 PUSH2 0x2F90 DUP4 DUP4 PUSH2 0x3099 JUMP JUMPDEST PUSH1 0x40 DUP4 ADD SWAP1 POP SWAP3 SWAP2 POP POP JUMP JUMPDEST PUSH1 0x0 PUSH2 0x2FA8 DUP4 DUP4 PUSH2 0x3428 JUMP JUMPDEST PUSH1 0x80 DUP4 ADD SWAP1 POP SWAP3 SWAP2 POP POP JUMP JUMPDEST PUSH1 0x0 PUSH2 0x2FC0 DUP4 DUP4 PUSH2 0x3506 JUMP JUMPDEST PUSH1 0x20 DUP4 ADD SWAP1 POP SWAP3 SWAP2 POP POP JUMP JUMPDEST PUSH1 0x0 PUSH2 0x2FD8 DUP4 DUP4 PUSH2 0x3533 JUMP JUMPDEST PUSH1 0x20 DUP4 ADD SWAP1 POP SWAP3 SWAP2 POP POP JUMP JUMPDEST PUSH2 0x2FED DUP2 PUSH2 0x3A2A JUMP JUMPDEST PUSH2 0x2FF7 DUP2 DUP5 PUSH2 0x3AC5 JUMP JUMPDEST SWAP3 POP PUSH2 0x3002 DUP3 PUSH2 0x39E2 JUMP JUMPDEST DUP1 PUSH1 0x0 JUMPDEST DUP4 DUP2 LT ISZERO PUSH2 0x3033 JUMPI DUP2 MLOAD PUSH2 0x301A DUP8 DUP3 PUSH2 0x2F84 JUMP JUMPDEST SWAP7 POP PUSH2 0x3025 DUP4 PUSH2 0x3A77 JUMP JUMPDEST SWAP3 POP POP PUSH1 0x1 DUP2 ADD SWAP1 POP PUSH2 0x3006 JUMP JUMPDEST POP POP POP POP POP POP JUMP JUMPDEST PUSH1 0x0 PUSH2 0x3046 DUP3 PUSH2 0x3A35 JUMP JUMPDEST PUSH2 0x3050 DUP2 DUP6 PUSH2 0x3AD0 JUMP JUMPDEST SWAP4 POP PUSH2 0x305B DUP4 PUSH2 0x39EC JUMP JUMPDEST DUP1 PUSH1 0x0 JUMPDEST DUP4 DUP2 LT ISZERO PUSH2 0x308C JUMPI DUP2 MLOAD PUSH2 0x3073 DUP9 DUP3 PUSH2 0x2F9C JUMP JUMPDEST SWAP8 POP PUSH2 0x307E DUP4 PUSH2 0x3A84 JUMP JUMPDEST SWAP3 POP POP PUSH1 0x1 DUP2 ADD SWAP1 POP PUSH2 0x305F JUMP JUMPDEST POP DUP6 SWAP4 POP POP POP POP SWAP3 SWAP2 POP POP JUMP JUMPDEST PUSH2 0x30A2 DUP2 PUSH2 0x3A40 JUMP JUMPDEST PUSH2 0x30AC DUP2 DUP5 PUSH2 0x3AE1 JUMP JUMPDEST SWAP3 POP PUSH2 0x30B7 DUP3 PUSH2 0x39FC JUMP JUMPDEST DUP1 PUSH1 0x0 JUMPDEST DUP4 DUP2 LT ISZERO PUSH2 0x30E8 JUMPI DUP2 MLOAD PUSH2 0x30CF DUP8 DUP3 PUSH2 0x2FB4 JUMP JUMPDEST SWAP7 POP PUSH2 0x30DA DUP4 PUSH2 0x3A91 JUMP JUMPDEST SWAP3 POP POP PUSH1 0x1 DUP2 ADD SWAP1 POP PUSH2 0x30BB JUMP JUMPDEST POP POP POP POP POP POP JUMP JUMPDEST PUSH2 0x30F9 DUP2 PUSH2 0x3A40 JUMP JUMPDEST PUSH2 0x3103 DUP2 DUP5 PUSH2 0x3AEC JUMP JUMPDEST SWAP3 POP PUSH2 0x310E DUP3 PUSH2 0x39FC JUMP JUMPDEST DUP1 PUSH1 0x0 JUMPDEST DUP4 DUP2 LT ISZERO PUSH2 0x313F JUMPI DUP2 MLOAD PUSH2 0x3126 DUP8 DUP3 PUSH2 0x2FB4 JUMP JUMPDEST SWAP7 POP PUSH2 0x3131 DUP4 PUSH2 0x3A91 JUMP JUMPDEST SWAP3 POP POP PUSH1 0x1 DUP2 ADD SWAP1 POP PUSH2 0x3112 JUMP JUMPDEST POP POP POP POP POP POP JUMP JUMPDEST PUSH2 0x3150 DUP2 PUSH2 0x3A4B JUMP JUMPDEST PUSH2 0x315A DUP2 DUP5 PUSH2 0x3AF7 JUMP JUMPDEST SWAP3 POP PUSH2 0x3165 DUP3 PUSH2 0x3A06 JUMP JUMPDEST DUP1 PUSH1 0x0 JUMPDEST DUP4 DUP2 LT ISZERO PUSH2 0x319D JUMPI PUSH2 0x317A DUP3 PUSH2 0x40B0 JUMP JUMPDEST PUSH2 0x3184 DUP8 DUP3 PUSH2 0x2FCC JUMP JUMPDEST SWAP7 POP PUSH2 0x318F DUP4 PUSH2 0x3A9E JUMP JUMPDEST SWAP3 POP POP PUSH1 0x1 DUP2 ADD SWAP1 POP PUSH2 0x3169 JUMP JUMPDEST POP POP POP POP POP POP JUMP JUMPDEST PUSH2 0x31AE DUP2 PUSH2 0x3A56 JUMP JUMPDEST PUSH2 0x31B8 DUP2 DUP5 PUSH2 0x3B02 JUMP JUMPDEST SWAP3 POP PUSH2 0x31C3 DUP3 PUSH2 0x3A10 JUMP JUMPDEST DUP1 PUSH1 0x0 JUMPDEST DUP4 DUP2 LT ISZERO PUSH2 0x31F4 JUMPI DUP2 MLOAD PUSH2 0x31DB DUP8 DUP3 PUSH2 0x2FCC JUMP JUMPDEST SWAP7 POP PUSH2 0x31E6 DUP4 PUSH2 0x3AAB JUMP JUMPDEST SWAP3 POP POP PUSH1 0x1 DUP2 ADD SWAP1 POP PUSH2 0x31C7 JUMP JUMPDEST POP POP POP POP POP POP JUMP JUMPDEST PUSH1 0x0 PUSH2 0x3207 DUP3 PUSH2 0x3A61 JUMP JUMPDEST PUSH2 0x3211 DUP2 DUP6 PUSH2 0x3B0D JUMP JUMPDEST SWAP4 POP PUSH2 0x321C DUP4 PUSH2 0x3A1A JUMP JUMPDEST DUP1 PUSH1 0x0 JUMPDEST DUP4 DUP2 LT ISZERO PUSH2 0x324D JUMPI DUP2 MLOAD PUSH2 0x3234 DUP9 DUP3 PUSH2 0x2FCC JUMP JUMPDEST SWAP8 POP PUSH2 0x323F DUP4 PUSH2 0x3AB8 JUMP JUMPDEST SWAP3 POP POP PUSH1 0x1 DUP2 ADD SWAP1 POP PUSH2 0x3220 JUMP JUMPDEST POP DUP6 SWAP4 POP POP POP POP SWAP3 SWAP2 POP POP JUMP JUMPDEST PUSH2 0x3263 DUP2 PUSH2 0x3DD3 JUMP JUMPDEST DUP3 MSTORE POP POP JUMP JUMPDEST PUSH2 0x3272 DUP2 PUSH2 0x3DDF JUMP JUMPDEST DUP3 MSTORE POP POP JUMP JUMPDEST PUSH2 0x3281 DUP2 PUSH2 0x3DDF JUMP JUMPDEST DUP3 MSTORE POP POP JUMP JUMPDEST PUSH2 0x3298 PUSH2 0x3293 DUP3 PUSH2 0x3DDF JUMP JUMPDEST PUSH2 0x3F59 JUMP JUMPDEST DUP3 MSTORE POP POP JUMP JUMPDEST PUSH1 0x0 PUSH2 0x32A9 DUP3 PUSH2 0x3A6C JUMP JUMPDEST PUSH2 0x32B3 DUP2 DUP6 PUSH2 0x3B1E JUMP JUMPDEST SWAP4 POP PUSH2 0x32C3 DUP2 DUP6 PUSH1 0x20 DUP7 ADD PUSH2 0x3E68 JUMP JUMPDEST PUSH2 0x32CC DUP2 PUSH2 0x40E6 JUMP JUMPDEST DUP5 ADD SWAP2 POP POP SWAP3 SWAP2 POP POP JUMP JUMPDEST PUSH1 0x0 PUSH2 0x32E2 DUP3 PUSH2 0x3A6C JUMP JUMPDEST PUSH2 0x32EC DUP2 DUP6 PUSH2 0x3B2F JUMP JUMPDEST SWAP4 POP PUSH2 0x32FC DUP2 DUP6 PUSH1 0x20 DUP7 ADD PUSH2 0x3E68 JUMP JUMPDEST PUSH2 0x3305 DUP2 PUSH2 0x40E6 JUMP JUMPDEST DUP5 ADD SWAP2 POP POP SWAP3 SWAP2 POP POP JUMP JUMPDEST PUSH1 0x0 PUSH2 0x331D PUSH1 0x1A DUP4 PUSH2 0x3B40 JUMP JUMPDEST SWAP2 POP PUSH2 0x3328 DUP3 PUSH2 0x4111 JUMP JUMPDEST PUSH1 0x20 DUP3 ADD SWAP1 POP SWAP2 SWAP1 POP JUMP JUMPDEST PUSH1 0x0 PUSH2 0x3340 PUSH1 0x40 DUP4 PUSH2 0x3B40 JUMP JUMPDEST SWAP2 POP PUSH2 0x334B DUP3 PUSH2 0x413A JUMP JUMPDEST PUSH1 0x40 DUP3 ADD SWAP1 POP SWAP2 SWAP1 POP JUMP JUMPDEST PUSH1 0x0 PUSH2 0x3363 PUSH1 0x1E DUP4 PUSH2 0x3B40 JUMP JUMPDEST SWAP2 POP PUSH2 0x336E DUP3 PUSH2 0x4189 JUMP JUMPDEST PUSH1 0x20 DUP3 ADD SWAP1 POP SWAP2 SWAP1 POP JUMP JUMPDEST PUSH1 0x0 PUSH2 0x3386 PUSH1 0xC DUP4 PUSH2 0x3B40 JUMP JUMPDEST SWAP2 POP PUSH2 0x3391 DUP3 PUSH2 0x41B2 JUMP JUMPDEST PUSH1 0x20 DUP3 ADD SWAP1 POP SWAP2 SWAP1 POP JUMP JUMPDEST PUSH1 0x0 PUSH2 0x33A9 PUSH1 0x1E DUP4 PUSH2 0x3B40 JUMP JUMPDEST SWAP2 POP PUSH2 0x33B4 DUP3 PUSH2 0x41DB JUMP JUMPDEST PUSH1 0x20 DUP3 ADD SWAP1 POP SWAP2 SWAP1 POP JUMP JUMPDEST PUSH1 0x0 PUSH2 0x33CC PUSH1 0x13 DUP4 PUSH2 0x3B40 JUMP JUMPDEST SWAP2 POP PUSH2 0x33D7 DUP3 PUSH2 0x4204 JUMP JUMPDEST PUSH1 0x20 DUP3 ADD SWAP1 POP SWAP2 SWAP1 POP JUMP JUMPDEST PUSH1 0x0 PUSH2 0x33EF PUSH1 0x2B DUP4 PUSH2 0x3B40 JUMP JUMPDEST SWAP2 POP PUSH2 0x33FA DUP3 PUSH2 0x422D JUMP JUMPDEST PUSH1 0x40 DUP3 ADD SWAP1 POP SWAP2 SWAP1 POP JUMP JUMPDEST PUSH1 0x0 PUSH2 0x3412 PUSH1 0x27 DUP4 PUSH2 0x3B40 JUMP JUMPDEST SWAP2 POP PUSH2 0x341D DUP3 PUSH2 0x427C JUMP JUMPDEST PUSH1 0x40 DUP3 ADD SWAP1 POP SWAP2 SWAP1 POP JUMP JUMPDEST PUSH1 0x80 DUP3 ADD PUSH1 0x0 DUP3 ADD MLOAD PUSH2 0x343E PUSH1 0x0 DUP6 ADD DUP3 PUSH2 0x3506 JUMP JUMPDEST POP PUSH1 0x20 DUP3 ADD MLOAD PUSH2 0x3451 PUSH1 0x20 DUP6 ADD DUP3 PUSH2 0x3506 JUMP JUMPDEST POP PUSH1 0x40 DUP3 ADD MLOAD PUSH2 0x3464 PUSH1 0x40 DUP6 ADD DUP3 PUSH2 0x3506 JUMP JUMPDEST POP PUSH1 0x60 DUP3 ADD MLOAD PUSH2 0x3477 PUSH1 0x60 DUP6 ADD DUP3 PUSH2 0x3269 JUMP JUMPDEST POP POP POP POP JUMP JUMPDEST DUP1 DUP3 MSTORE POP POP JUMP JUMPDEST DUP1 DUP3 MSTORE POP POP JUMP JUMPDEST PUSH1 0x0 PUSH2 0x180 DUP4 ADD PUSH1 0x0 DUP4 ADD MLOAD PUSH2 0x34A4 PUSH1 0x0 DUP7 ADD DUP3 PUSH2 0x31A5 JUMP JUMPDEST POP PUSH1 0x20 DUP4 ADD MLOAD PUSH2 0x34B8 PUSH2 0x100 DUP7 ADD DUP3 PUSH2 0x3533 JUMP JUMPDEST POP PUSH1 0x40 DUP4 ADD MLOAD PUSH2 0x34CC PUSH2 0x120 DUP7 ADD DUP3 PUSH2 0x3533 JUMP JUMPDEST POP PUSH1 0x60 DUP4 ADD MLOAD PUSH2 0x34E0 PUSH2 0x140 DUP7 ADD DUP3 PUSH2 0x3533 JUMP JUMPDEST POP PUSH1 0x80 DUP4 ADD MLOAD DUP5 DUP3 SUB PUSH2 0x160 DUP7 ADD MSTORE PUSH2 0x34F9 DUP3 DUP3 PUSH2 0x32D7 JUMP JUMPDEST SWAP2 POP POP DUP1 SWAP2 POP POP SWAP3 SWAP2 POP POP JUMP JUMPDEST PUSH2 0x350F DUP2 PUSH2 0x3E09 JUMP JUMPDEST DUP3 MSTORE POP POP JUMP JUMPDEST PUSH2 0x351E DUP2 PUSH2 0x3E09 JUMP JUMPDEST DUP3 MSTORE POP POP JUMP JUMPDEST PUSH2 0x352D DUP2 PUSH2 0x3E09 JUMP JUMPDEST DUP3 MSTORE POP POP JUMP JUMPDEST PUSH2 0x353C DUP2 PUSH2 0x3E09 JUMP JUMPDEST DUP3 MSTORE POP POP JUMP JUMPDEST PUSH2 0x354B DUP2 PUSH2 0x3E44 JUMP JUMPDEST DUP3 MSTORE POP POP JUMP JUMPDEST PUSH2 0x355A DUP2 PUSH2 0x3E56 JUMP JUMPDEST DUP3 MSTORE POP POP JUMP JUMPDEST PUSH2 0x3569 DUP2 PUSH2 0x3E37 JUMP JUMPDEST DUP3 MSTORE POP POP JUMP JUMPDEST PUSH2 0x3578 DUP2 PUSH2 0x3E37 JUMP JUMPDEST DUP3 MSTORE POP POP JUMP JUMPDEST PUSH1 0x0 PUSH2 0x358A DUP3 DUP5 PUSH2 0x3287 JUMP JUMPDEST PUSH1 0x20 DUP3 ADD SWAP2 POP DUP2 SWAP1 POP SWAP3 SWAP2 POP POP JUMP JUMPDEST PUSH1 0x0 PUSH1 0x20 DUP3 ADD SWAP1 POP DUP2 DUP2 SUB PUSH1 0x0 DUP4 ADD MSTORE PUSH2 0x35B3 DUP2 DUP5 PUSH2 0x303B JUMP JUMPDEST SWAP1 POP SWAP3 SWAP2 POP POP JUMP JUMPDEST PUSH1 0x0 PUSH2 0x140 DUP3 ADD SWAP1 POP PUSH2 0x35D1 PUSH1 0x0 DUP4 ADD DUP9 PUSH2 0x30F0 JUMP JUMPDEST PUSH2 0x35DE PUSH1 0x40 DUP4 ADD DUP8 PUSH2 0x2FE4 JUMP JUMPDEST PUSH2 0x35EB PUSH1 0xC0 DUP4 ADD DUP7 PUSH2 0x30F0 JUMP JUMPDEST DUP2 DUP2 SUB PUSH2 0x100 DUP4 ADD MSTORE PUSH2 0x35FE DUP2 DUP6 PUSH2 0x329E JUMP JUMPDEST SWAP1 POP PUSH2 0x360E PUSH2 0x120 DUP4 ADD DUP5 PUSH2 0x3560 JUMP JUMPDEST SWAP7 SWAP6 POP POP POP POP POP POP JUMP JUMPDEST PUSH1 0x0 PUSH1 0x40 DUP3 ADD SWAP1 POP PUSH2 0x362D PUSH1 0x0 DUP4 ADD DUP5 PUSH2 0x3147 JUMP JUMPDEST SWAP3 SWAP2 POP POP JUMP JUMPDEST PUSH1 0x0 PUSH1 0x20 DUP3 ADD SWAP1 POP PUSH2 0x3648 PUSH1 0x0 DUP4 ADD DUP5 PUSH2 0x325A JUMP JUMPDEST SWAP3 SWAP2 POP POP JUMP JUMPDEST PUSH1 0x0 PUSH1 0x20 DUP3 ADD SWAP1 POP PUSH2 0x3663 PUSH1 0x0 DUP4 ADD DUP5 PUSH2 0x3278 JUMP JUMPDEST SWAP3 SWAP2 POP POP JUMP JUMPDEST PUSH1 0x0 PUSH1 0x20 DUP3 ADD SWAP1 POP DUP2 DUP2 SUB PUSH1 0x0 DUP4 ADD MSTORE PUSH2 0x3682 DUP2 PUSH2 0x3310 JUMP JUMPDEST SWAP1 POP SWAP2 SWAP1 POP JUMP JUMPDEST PUSH1 0x0 PUSH1 0x20 DUP3 ADD SWAP1 POP DUP2 DUP2 SUB PUSH1 0x0 DUP4 ADD MSTORE PUSH2 0x36A2 DUP2 PUSH2 0x3333 JUMP JUMPDEST SWAP1 POP SWAP2 SWAP1 POP JUMP JUMPDEST PUSH1 0x0 PUSH1 0x20 DUP3 ADD SWAP1 POP DUP2 DUP2 SUB PUSH1 0x0 DUP4 ADD MSTORE PUSH2 0x36C2 DUP2 PUSH2 0x3356 JUMP JUMPDEST SWAP1 POP SWAP2 SWAP1 POP JUMP JUMPDEST PUSH1 0x0 PUSH1 0x20 DUP3 ADD SWAP1 POP DUP2 DUP2 SUB PUSH1 0x0 DUP4 ADD MSTORE PUSH2 0x36E2 DUP2 PUSH2 0x3379 JUMP JUMPDEST SWAP1 POP SWAP2 SWAP1 POP JUMP JUMPDEST PUSH1 0x0 PUSH1 0x20 DUP3 ADD SWAP1 POP DUP2 DUP2 SUB PUSH1 0x0 DUP4 ADD MSTORE PUSH2 0x3702 DUP2 PUSH2 0x339C JUMP JUMPDEST SWAP1 POP SWAP2 SWAP1 POP JUMP JUMPDEST PUSH1 0x0 PUSH1 0x20 DUP3 ADD SWAP1 POP DUP2 DUP2 SUB PUSH1 0x0 DUP4 ADD MSTORE PUSH2 0x3722 DUP2 PUSH2 0x33BF JUMP JUMPDEST SWAP1 POP SWAP2 SWAP1 POP JUMP JUMPDEST PUSH1 0x0 PUSH1 0x20 DUP3 ADD SWAP1 POP DUP2 DUP2 SUB PUSH1 0x0 DUP4 ADD MSTORE PUSH2 0x3742 DUP2 PUSH2 0x33E2 JUMP JUMPDEST SWAP1 POP SWAP2 SWAP1 POP JUMP JUMPDEST PUSH1 0x0 PUSH1 0x20 DUP3 ADD SWAP1 POP DUP2 DUP2 SUB PUSH1 0x0 DUP4 ADD MSTORE PUSH2 0x3762 DUP2 PUSH2 0x3405 JUMP JUMPDEST SWAP1 POP SWAP2 SWAP1 POP JUMP JUMPDEST PUSH1 0x0 PUSH1 0x20 DUP3 ADD SWAP1 POP PUSH2 0x377E PUSH1 0x0 DUP4 ADD DUP5 PUSH2 0x347D JUMP JUMPDEST SWAP3 SWAP2 POP POP JUMP JUMPDEST PUSH1 0x0 PUSH1 0x60 DUP3 ADD SWAP1 POP PUSH2 0x3799 PUSH1 0x0 DUP4 ADD DUP7 PUSH2 0x347D JUMP JUMPDEST PUSH2 0x37A6 PUSH1 0x20 DUP4 ADD DUP6 PUSH2 0x3524 JUMP JUMPDEST PUSH2 0x37B3 PUSH1 0x40 DUP4 ADD DUP5 PUSH2 0x356F JUMP JUMPDEST SWAP5 SWAP4 POP POP POP POP JUMP JUMPDEST PUSH1 0x0 PUSH1 0x40 DUP3 ADD SWAP1 POP PUSH2 0x37D0 PUSH1 0x0 DUP4 ADD DUP6 PUSH2 0x3484 JUMP JUMPDEST DUP2 DUP2 SUB PUSH1 0x20 DUP4 ADD MSTORE PUSH2 0x37E2 DUP2 DUP5 PUSH2 0x31FC JUMP JUMPDEST SWAP1 POP SWAP4 SWAP3 POP POP POP JUMP JUMPDEST PUSH1 0x0 PUSH1 0x40 DUP3 ADD SWAP1 POP DUP2 DUP2 SUB PUSH1 0x0 DUP4 ADD MSTORE PUSH2 0x3805 DUP2 DUP6 PUSH2 0x348B JUMP JUMPDEST SWAP1 POP PUSH2 0x3814 PUSH1 0x20 DUP4 ADD DUP5 PUSH2 0x356F JUMP JUMPDEST SWAP4 SWAP3 POP POP POP JUMP JUMPDEST PUSH1 0x0 PUSH1 0x20 DUP3 ADD SWAP1 POP PUSH2 0x3830 PUSH1 0x0 DUP4 ADD DUP5 PUSH2 0x3515 JUMP JUMPDEST SWAP3 SWAP2 POP POP JUMP JUMPDEST PUSH1 0x0 PUSH1 0x40 DUP3 ADD SWAP1 POP PUSH2 0x384B PUSH1 0x0 DUP4 ADD DUP6 PUSH2 0x3515 JUMP JUMPDEST PUSH2 0x3858 PUSH1 0x20 DUP4 ADD DUP5 PUSH2 0x3515 JUMP JUMPDEST SWAP4 SWAP3 POP POP POP JUMP JUMPDEST PUSH1 0x0 PUSH1 0x60 DUP3 ADD SWAP1 POP PUSH2 0x3874 PUSH1 0x0 DUP4 ADD DUP7 PUSH2 0x3515 JUMP JUMPDEST PUSH2 0x3881 PUSH1 0x20 DUP4 ADD DUP6 PUSH2 0x3515 JUMP JUMPDEST PUSH2 0x388E PUSH1 0x40 DUP4 ADD DUP5 PUSH2 0x3515 JUMP JUMPDEST SWAP5 SWAP4 POP POP POP POP JUMP JUMPDEST PUSH1 0x0 PUSH1 0x60 DUP3 ADD SWAP1 POP PUSH2 0x38AB PUSH1 0x0 DUP4 ADD DUP7 PUSH2 0x3551 JUMP JUMPDEST PUSH2 0x38B8 PUSH1 0x20 DUP4 ADD DUP6 PUSH2 0x3542 JUMP JUMPDEST PUSH2 0x38C5 PUSH1 0x40 DUP4 ADD DUP5 PUSH2 0x3515 JUMP JUMPDEST SWAP5 SWAP4 POP POP POP POP JUMP JUMPDEST PUSH1 0x0 PUSH1 0x20 DUP3 ADD SWAP1 POP PUSH2 0x38E2 PUSH1 0x0 DUP4 ADD DUP5 PUSH2 0x3560 JUMP JUMPDEST SWAP3 SWAP2 POP POP JUMP JUMPDEST PUSH1 0x0 PUSH2 0x38F2 PUSH2 0x3903 JUMP JUMPDEST SWAP1 POP PUSH2 0x38FE DUP3 DUP3 PUSH2 0x3EB5 JUMP JUMPDEST SWAP2 SWAP1 POP JUMP JUMPDEST PUSH1 0x0 PUSH1 0x40 MLOAD SWAP1 POP SWAP1 JUMP JUMPDEST PUSH1 0x0 PUSH8 0xFFFFFFFFFFFFFFFF DUP3 GT ISZERO PUSH2 0x3928 JUMPI PUSH2 0x3927 PUSH2 0x4081 JUMP JUMPDEST JUMPDEST PUSH1 0x20 DUP3 MUL SWAP1 POP PUSH1 0x20 DUP2 ADD SWAP1 POP SWAP2 SWAP1 POP JUMP JUMPDEST PUSH1 0x0 PUSH8 0xFFFFFFFFFFFFFFFF DUP3 GT ISZERO PUSH2 0x3954 JUMPI PUSH2 0x3953 PUSH2 0x4081 JUMP JUMPDEST JUMPDEST PUSH1 0x20 DUP3 MUL SWAP1 POP PUSH1 0x20 DUP2 ADD SWAP1 POP SWAP2 SWAP1 POP JUMP JUMPDEST PUSH1 0x0 PUSH8 0xFFFFFFFFFFFFFFFF DUP3 GT ISZERO PUSH2 0x3980 JUMPI PUSH2 0x397F PUSH2 0x4081 JUMP JUMPDEST JUMPDEST PUSH1 0x20 DUP3 MUL SWAP1 POP SWAP2 SWAP1 POP JUMP JUMPDEST PUSH1 0x0 PUSH8 0xFFFFFFFFFFFFFFFF DUP3 GT ISZERO PUSH2 0x39A6 JUMPI PUSH2 0x39A5 PUSH2 0x4081 JUMP JUMPDEST JUMPDEST PUSH1 0x20 DUP3 MUL SWAP1 POP SWAP2 SWAP1 POP JUMP JUMPDEST PUSH1 0x0 PUSH8 0xFFFFFFFFFFFFFFFF DUP3 GT ISZERO PUSH2 0x39CC JUMPI PUSH2 0x39CB PUSH2 0x4081 JUMP JUMPDEST JUMPDEST PUSH2 0x39D5 DUP3 PUSH2 0x40E6 JUMP JUMPDEST SWAP1 POP PUSH1 0x20 DUP2 ADD SWAP1 POP SWAP2 SWAP1 POP JUMP JUMPDEST PUSH1 0x0 DUP2 SWAP1 POP SWAP2 SWAP1 POP JUMP JUMPDEST PUSH1 0x0 DUP2 SWAP1 POP PUSH1 0x20 DUP3 ADD SWAP1 POP SWAP2 SWAP1 POP JUMP JUMPDEST PUSH1 0x0 DUP2 SWAP1 POP SWAP2 SWAP1 POP JUMP JUMPDEST PUSH1 0x0 DUP2 SWAP1 POP SWAP2 SWAP1 POP JUMP JUMPDEST PUSH1 0x0 DUP2 SWAP1 POP SWAP2 SWAP1 POP JUMP JUMPDEST PUSH1 0x0 DUP2 SWAP1 POP PUSH1 0x20 DUP3 ADD SWAP1 POP SWAP2 SWAP1 POP JUMP JUMPDEST PUSH1 0x0 PUSH1 0x2 SWAP1 POP SWAP2 SWAP1 POP JUMP JUMPDEST PUSH1 0x0 DUP2 MLOAD SWAP1 POP SWAP2 SWAP1 POP JUMP JUMPDEST PUSH1 0x0 PUSH1 0x2 SWAP1 POP SWAP2 SWAP1 POP JUMP JUMPDEST PUSH1 0x0 PUSH1 0x2 SWAP1 POP SWAP2 SWAP1 POP JUMP JUMPDEST PUSH1 0x0 PUSH1 0x8 SWAP1 POP SWAP2 SWAP1 POP JUMP JUMPDEST PUSH1 0x0 DUP2 MLOAD SWAP1 POP SWAP2 SWAP1 POP JUMP JUMPDEST PUSH1 0x0 DUP2 MLOAD SWAP1 POP SWAP2 SWAP1 POP JUMP JUMPDEST PUSH1 0x0 PUSH1 0x20 DUP3 ADD SWAP1 POP SWAP2 SWAP1 POP JUMP JUMPDEST PUSH1 0x0 PUSH1 0x20 DUP3 ADD SWAP1 POP SWAP2 SWAP1 POP JUMP JUMPDEST PUSH1 0x0 PUSH1 0x20 DUP3 ADD SWAP1 POP SWAP2 SWAP1 POP JUMP JUMPDEST PUSH1 0x0 PUSH1 0x1 DUP3 ADD SWAP1 POP SWAP2 SWAP1 POP JUMP JUMPDEST PUSH1 0x0 PUSH1 0x20 DUP3 ADD SWAP1 POP SWAP2 SWAP1 POP JUMP JUMPDEST PUSH1 0x0 PUSH1 0x20 DUP3 ADD SWAP1 POP SWAP2 SWAP1 POP JUMP JUMPDEST PUSH1 0x0 DUP2 SWAP1 POP SWAP3 SWAP2 POP POP JUMP JUMPDEST PUSH1 0x0 DUP3 DUP3 MSTORE PUSH1 0x20 DUP3 ADD SWAP1 POP SWAP3 SWAP2 POP POP JUMP JUMPDEST PUSH1 0x0 DUP2 SWAP1 POP SWAP3 SWAP2 POP POP JUMP JUMPDEST PUSH1 0x0 DUP2 SWAP1 POP SWAP3 SWAP2 POP POP JUMP JUMPDEST PUSH1 0x0 DUP2 SWAP1 POP SWAP3 SWAP2 POP POP JUMP JUMPDEST PUSH1 0x0 DUP2 SWAP1 POP SWAP3 SWAP2 POP POP JUMP JUMPDEST PUSH1 0x0 DUP3 DUP3 MSTORE PUSH1 0x20 DUP3 ADD SWAP1 POP SWAP3 SWAP2 POP POP JUMP JUMPDEST PUSH1 0x0 DUP3 DUP3 MSTORE PUSH1 0x20 DUP3 ADD SWAP1 POP SWAP3 SWAP2 POP POP JUMP JUMPDEST PUSH1 0x0 DUP3 DUP3 MSTORE PUSH1 0x20 DUP3 ADD SWAP1 POP SWAP3 SWAP2 POP POP JUMP JUMPDEST PUSH1 0x0 DUP3 DUP3 MSTORE PUSH1 0x20 DUP3 ADD SWAP1 POP SWAP3 SWAP2 POP POP JUMP JUMPDEST PUSH1 0x0 PUSH2 0x3B5C DUP3 PUSH2 0x3E09 JUMP JUMPDEST SWAP2 POP PUSH2 0x3B67 DUP4 PUSH2 0x3E09 JUMP JUMPDEST SWAP3 POP DUP3 PUSH32 0xFFFFFFFFFFFFFFFFFFFFFFFFFFFFFFFFFFFFFFFFFFFFFFFFFFFFFFFFFFFFFFFF SUB DUP3 GT ISZERO PUSH2 0x3B9C JUMPI PUSH2 0x3B9B PUSH2 0x3FC5 JUMP JUMPDEST JUMPDEST DUP3 DUP3 ADD SWAP1 POP SWAP3 SWAP2 POP POP JUMP JUMPDEST PUSH1 0x0 PUSH2 0x3BB2 DUP3 PUSH2 0x3E13 JUMP JUMPDEST SWAP2 POP PUSH2 0x3BBD DUP4 PUSH2 0x3E13 JUMP JUMPDEST SWAP3 POP DUP3 PUSH4 0xFFFFFFFF SUB DUP3 GT ISZERO PUSH2 0x3BD6 JUMPI PUSH2 0x3BD5 PUSH2 0x3FC5 JUMP JUMPDEST JUMPDEST DUP3 DUP3 ADD SWAP1 POP SWAP3 SWAP2 POP POP JUMP JUMPDEST PUSH1 0x0 PUSH2 0x3BEC DUP3 PUSH2 0x3E09 JUMP JUMPDEST SWAP2 POP PUSH2 0x3BF7 DUP4 PUSH2 0x3E09 JUMP JUMPDEST SWAP3 POP DUP3 PUSH2 0x3C07 JUMPI PUSH2 0x3C06 PUSH2 0x3FF4 JUMP JUMPDEST JUMPDEST DUP3 DUP3 DIV SWAP1 POP SWAP3 SWAP2 POP POP JUMP JUMPDEST PUSH1 0x0 DUP1 DUP3 SWAP2 POP DUP4 SWAP1 POP JUMPDEST PUSH1 0x1 DUP6 GT ISZERO PUSH2 0x3C5C JUMPI DUP1 DUP7 DIV DUP2 GT ISZERO PUSH2 0x3C38 JUMPI PUSH2 0x3C37 PUSH2 0x3FC5 JUMP JUMPDEST JUMPDEST PUSH1 0x1 DUP6 AND ISZERO PUSH2 0x3C47 JUMPI DUP1 DUP3 MUL SWAP2 POP JUMPDEST DUP1 DUP2 MUL SWAP1 POP PUSH2 0x3C55 DUP6 PUSH2 0x4104 JUMP JUMPDEST SWAP5 POP PUSH2 0x3C1C JUMP JUMPDEST SWAP5 POP SWAP5 SWAP3 POP POP POP JUMP JUMPDEST PUSH1 0x0 PUSH2 0x3C70 DUP3 PUSH2 0x3E09 JUMP JUMPDEST SWAP2 POP PUSH2 0x3C7B DUP4 PUSH2 0x3E09 JUMP JUMPDEST SWAP3 POP PUSH2 0x3CA8 PUSH32 0xFFFFFFFFFFFFFFFFFFFFFFFFFFFFFFFFFFFFFFFFFFFFFFFFFFFFFFFFFFFFFFFF DUP5 DUP5 PUSH2 0x3CB0 JUMP JUMPDEST SWAP1 POP SWAP3 SWAP2 POP POP JUMP JUMPDEST PUSH1 0x0 DUP3 PUSH2 0x3CC0 JUMPI PUSH1 0x1 SWAP1 POP PUSH2 0x3D7C JUMP JUMPDEST DUP2 PUSH2 0x3CCE JUMPI PUSH1 0x0 SWAP1 POP PUSH2 0x3D7C JUMP JUMPDEST DUP2 PUSH1 0x1 DUP2 EQ PUSH2 0x3CE4 JUMPI PUSH1 0x2 DUP2 EQ PUSH2 0x3CEE JUMPI PUSH2 0x3D1D JUMP JUMPDEST PUSH1 0x1 SWAP2 POP POP PUSH2 0x3D7C JUMP JUMPDEST PUSH1 0xFF DUP5 GT ISZERO PUSH2 0x3D00 JUMPI PUSH2 0x3CFF PUSH2 0x3FC5 JUMP JUMPDEST JUMPDEST DUP4 PUSH1 0x2 EXP SWAP2 POP DUP5 DUP3 GT ISZERO PUSH2 0x3D17 JUMPI PUSH2 0x3D16 PUSH2 0x3FC5 JUMP JUMPDEST JUMPDEST POP PUSH2 0x3D7C JUMP JUMPDEST POP PUSH1 0x20 DUP4 LT PUSH2 0x133 DUP4 LT AND PUSH1 0x4E DUP5 LT PUSH1 0xB DUP5 LT AND OR ISZERO PUSH2 0x3D52 JUMPI DUP3 DUP3 EXP SWAP1 POP DUP4 DUP2 GT ISZERO PUSH2 0x3D4D JUMPI PUSH2 0x3D4C PUSH2 0x3FC5 JUMP JUMPDEST JUMPDEST PUSH2 0x3D7C JUMP JUMPDEST PUSH2 0x3D5F DUP5 DUP5 DUP5 PUSH1 0x1 PUSH2 0x3C12 JUMP JUMPDEST SWAP3 POP SWAP1 POP DUP2 DUP5 DIV DUP2 GT ISZERO PUSH2 0x3D76 JUMPI PUSH2 0x3D75 PUSH2 0x3FC5 JUMP JUMPDEST JUMPDEST DUP2 DUP2 MUL SWAP1 POP JUMPDEST SWAP4 SWAP3 POP POP POP JUMP JUMPDEST PUSH1 0x0 PUSH2 0x3D8E DUP3 PUSH2 0x3E09 JUMP JUMPDEST SWAP2 POP PUSH2 0x3D99 DUP4 PUSH2 0x3E09 JUMP JUMPDEST SWAP3 POP DUP3 DUP3 LT ISZERO PUSH2 0x3DAC JUMPI PUSH2 0x3DAB PUSH2 0x3FC5 JUMP JUMPDEST JUMPDEST DUP3 DUP3 SUB SWAP1 POP SWAP3 SWAP2 POP POP JUMP JUMPDEST PUSH1 0x0 DUP2 SWAP1 POP SWAP2 SWAP1 POP JUMP JUMPDEST PUSH1 0x0 PUSH2 0x3DCC DUP3 PUSH2 0x3DE9 JUMP JUMPDEST SWAP1 POP SWAP2 SWAP1 POP JUMP JUMPDEST PUSH1 0x0 DUP2 ISZERO ISZERO SWAP1 POP SWAP2 SWAP1 POP JUMP JUMPDEST PUSH1 0x0 DUP2 SWAP1 POP SWAP2 SWAP1 POP JUMP JUMPDEST PUSH1 0x0 PUSH20 0xFFFFFFFFFFFFFFFFFFFFFFFFFFFFFFFFFFFFFFFF DUP3 AND SWAP1 POP SWAP2 SWAP1 POP JUMP JUMPDEST PUSH1 0x0 DUP2 SWAP1 POP SWAP2 SWAP1 POP JUMP JUMPDEST PUSH1 0x0 PUSH4 0xFFFFFFFF DUP3 AND SWAP1 POP SWAP2 SWAP1 POP JUMP JUMPDEST PUSH1 0x0 PUSH8 0xFFFFFFFFFFFFFFFF DUP3 AND SWAP1 POP SWAP2 SWAP1 POP JUMP JUMPDEST PUSH1 0x0 PUSH1 0xFF DUP3 AND SWAP1 POP SWAP2 SWAP1 POP JUMP JUMPDEST PUSH1 0x0 PUSH2 0x3E4F DUP3 PUSH2 0x3E13 JUMP JUMPDEST SWAP1 POP SWAP2 SWAP1 POP JUMP JUMPDEST PUSH1 0x0 PUSH2 0x3E61 DUP3 PUSH2 0x3E23 JUMP JUMPDEST SWAP1 POP SWAP2 SWAP1 POP JUMP JUMPDEST PUSH1 0x0 JUMPDEST DUP4 DUP2 LT ISZERO PUSH2 0x3E86 JUMPI DUP1 DUP3 ADD MLOAD DUP2 DUP5 ADD MSTORE PUSH1 0x20 DUP2 ADD SWAP1 POP PUSH2 0x3E6B JUMP JUMPDEST DUP4 DUP2 GT ISZERO PUSH2 0x3E95 JUMPI PUSH1 0x0 DUP5 DUP5 ADD MSTORE JUMPDEST POP POP POP POP JUMP JUMPDEST PUSH1 0x0 PUSH2 0x3EAE PUSH2 0x3EA9 DUP4 PUSH2 0x40F7 JUMP JUMPDEST PUSH2 0x3DB7 JUMP JUMPDEST SWAP1 POP SWAP2 SWAP1 POP JUMP JUMPDEST PUSH2 0x3EBE DUP3 PUSH2 0x40E6 JUMP JUMPDEST DUP2 ADD DUP2 DUP2 LT PUSH8 0xFFFFFFFFFFFFFFFF DUP3 GT OR ISZERO PUSH2 0x3EDD JUMPI PUSH2 0x3EDC PUSH2 0x4081 JUMP JUMPDEST JUMPDEST DUP1 PUSH1 0x40 MSTORE POP POP POP JUMP JUMPDEST PUSH1 0x0 PUSH2 0x3EF1 DUP3 PUSH2 0x3E09 JUMP JUMPDEST SWAP2 POP PUSH32 0xFFFFFFFFFFFFFFFFFFFFFFFFFFFFFFFFFFFFFFFFFFFFFFFFFFFFFFFFFFFFFFFF DUP3 EQ ISZERO PUSH2 0x3F24 JUMPI PUSH2 0x3F23 PUSH2 0x3FC5 JUMP JUMPDEST JUMPDEST PUSH1 0x1 DUP3 ADD SWAP1 POP SWAP2 SWAP1 POP JUMP JUMPDEST PUSH1 0x0 PUSH2 0x3F3A DUP3 PUSH2 0x3E37 JUMP JUMPDEST SWAP2 POP PUSH1 0xFF DUP3 EQ ISZERO PUSH2 0x3F4E JUMPI PUSH2 0x3F4D PUSH2 0x3FC5 JUMP JUMPDEST JUMPDEST PUSH1 0x1 DUP3 ADD SWAP1 POP SWAP2 SWAP1 POP JUMP JUMPDEST PUSH1 0x0 DUP2 SWAP1 POP SWAP2 SWAP1 POP JUMP JUMPDEST PUSH1 0x0 PUSH2 0x3F6E DUP3 PUSH2 0x3E09 JUMP JUMPDEST SWAP2 POP PUSH2 0x3F79 DUP4 PUSH2 0x3E09 JUMP JUMPDEST SWAP3 POP DUP3 PUSH2 0x3F89 JUMPI PUSH2 0x3F88 PUSH2 0x3FF4 JUMP JUMPDEST JUMPDEST DUP3 DUP3 MOD SWAP1 POP SWAP3 SWAP2 POP POP JUMP JUMPDEST PUSH1 0x0 PUSH2 0x3F9F DUP3 PUSH2 0x3E13 JUMP JUMPDEST SWAP2 POP PUSH2 0x3FAA DUP4 PUSH2 0x3E13 JUMP JUMPDEST SWAP3 POP DUP3 PUSH2 0x3FBA JUMPI PUSH2 0x3FB9 PUSH2 0x3FF4 JUMP JUMPDEST JUMPDEST DUP3 DUP3 MOD SWAP1 POP SWAP3 SWAP2 POP POP JUMP JUMPDEST PUSH32 0x4E487B7100000000000000000000000000000000000000000000000000000000 PUSH1 0x0 MSTORE PUSH1 0x11 PUSH1 0x4 MSTORE PUSH1 0x24 PUSH1 0x0 REVERT JUMPDEST PUSH32 0x4E487B7100000000000000000000000000000000000000000000000000000000 PUSH1 0x0 MSTORE PUSH1 0x12 PUSH1 0x4 MSTORE PUSH1 0x24 PUSH1 0x0 REVERT JUMPDEST PUSH32 0x4E487B7100000000000000000000000000000000000000000000000000000000 PUSH1 0x0 MSTORE PUSH1 0x21 PUSH1 0x4 MSTORE PUSH1 0x24 PUSH1 0x0 REVERT JUMPDEST PUSH32 0x4E487B7100000000000000000000000000000000000000000000000000000000 PUSH1 0x0 MSTORE PUSH1 0x32 PUSH1 0x4 MSTORE PUSH1 0x24 PUSH1 0x0 REVERT JUMPDEST PUSH32 0x4E487B7100000000000000000000000000000000000000000000000000000000 PUSH1 0x0 MSTORE PUSH1 0x41 PUSH1 0x4 MSTORE PUSH1 0x24 PUSH1 0x0 REVERT JUMPDEST PUSH1 0x0 PUSH2 0x40BC DUP3 SLOAD PUSH2 0x3E9B JUMP JUMPDEST SWAP1 POP SWAP2 SWAP1 POP JUMP JUMPDEST PUSH1 0x0 DUP1 REVERT JUMPDEST PUSH1 0x0 DUP1 REVERT JUMPDEST PUSH1 0x0 DUP1 REVERT JUMPDEST PUSH1 0x0 DUP1 REVERT JUMPDEST PUSH1 0x0 DUP1 REVERT JUMPDEST PUSH1 0x0 DUP1 REVERT JUMPDEST PUSH1 0x0 DUP1 REVERT JUMPDEST PUSH1 0x0 PUSH1 0x1F NOT PUSH1 0x1F DUP4 ADD AND SWAP1 POP SWAP2 SWAP1 POP JUMP JUMPDEST PUSH1 0x0 DUP2 PUSH1 0x0 SHR SWAP1 POP SWAP2 SWAP1 POP JUMP JUMPDEST PUSH1 0x0 DUP2 PUSH1 0x1 SHR SWAP1 POP SWAP2 SWAP1 POP JUMP JUMPDEST PUSH32 0x5468697320416E63686F72206973206174206361706163697479000000000000 PUSH1 0x0 DUP3 ADD MSTORE POP JUMP JUMPDEST PUSH32 0x4C696E6B61626C65496E6372656D656E74616C42696E617279547265653A206C PUSH1 0x0 DUP3 ADD MSTORE PUSH32 0x656166206D757374206265203C20534E41524B5F5343414C41525F4649454C44 PUSH1 0x20 DUP3 ADD MSTORE POP JUMP JUMPDEST PUSH32 0x7372635265736F757263654944206D757374206265207468652073616D650000 PUSH1 0x0 DUP3 ADD MSTORE POP JUMP JUMPDEST PUSH32 0x696E76616C696450726F6F660000000000000000000000000000000000000000 PUSH1 0x0 DUP3 ADD MSTORE POP JUMP JUMPDEST PUSH32 0x4E6577206C65616620696E646578206D75737420626520677265617465720000 PUSH1 0x0 DUP3 ADD MSTORE POP JUMP JUMPDEST PUSH32 0x496E646578206F7574206F6620626F756E647300000000000000000000000000 PUSH1 0x0 DUP3 ADD MSTORE POP JUMP JUMPDEST PUSH32 0x4C696E6B61626C65496E6372656D656E74616C42696E617279547265653A2074 PUSH1 0x0 DUP3 ADD MSTORE PUSH32 0x7265652069732066756C6C000000000000000000000000000000000000000000 PUSH1 0x20 DUP3 ADD MSTORE POP JUMP JUMPDEST PUSH32 0x4E6577206C65616620696E646578206D7573742077697468696E20325E313620 PUSH1 0x0 DUP3 ADD MSTORE PUSH32 0x7570646174657300000000000000000000000000000000000000000000000000 PUSH1 0x20 DUP3 ADD MSTORE POP JUMP JUMPDEST PUSH2 0x42D4 DUP2 PUSH2 0x3DC1 JUMP JUMPDEST DUP2 EQ PUSH2 0x42DF JUMPI PUSH1 0x0 DUP1 REVERT JUMPDEST POP JUMP JUMPDEST PUSH2 0x42EB DUP2 PUSH2 0x3DD3 JUMP JUMPDEST DUP2 EQ PUSH2 0x42F6 JUMPI PUSH1 0x0 DUP1 REVERT JUMPDEST POP JUMP JUMPDEST PUSH2 0x4302 DUP2 PUSH2 0x3DDF JUMP JUMPDEST DUP2 EQ PUSH2 0x430D JUMPI PUSH1 0x0 DUP1 REVERT JUMPDEST POP JUMP JUMPDEST PUSH2 0x4319 DUP2 PUSH2 0x3E09 JUMP JUMPDEST DUP2 EQ PUSH2 0x4324 JUMPI PUSH1 0x0 DUP1 REVERT JUMPDEST POP JUMP JUMPDEST PUSH2 0x4330 DUP2 PUSH2 0x3E13 JUMP JUMPDEST DUP2 EQ PUSH2 0x433B JUMPI PUSH1 0x0 DUP1 REVERT JUMPDEST POP JUMP JUMPDEST PUSH2 0x4347 DUP2 PUSH2 0x3E37 JUMP JUMPDEST DUP2 EQ PUSH2 0x4352 JUMPI PUSH1 0x0 DUP1 REVERT JUMPDEST POP JUMP INVALID LOG2 PUSH5 0x6970667358 0x22 SLT KECCAK256 PUSH30 0xBB4B807CFA2D519673246C770D46909B760FD53392DC69B5C7E7FBBC3AA8 SWAP14 PUSH5 0x736F6C6343 STOP ADDMOD MOD STOP CALLER "},"methodIdentifiers":{"addVoter(uint256,uint256)":"0a120bb0","castVote(bytes32,uint256,uint256,bytes,uint256[8])":"3a19c76a","createPoll(uint256,uint256,address,uint8)":"945f99bc","endPoll(uint256,uint256)":"bbd8c7db","getLatestNeighborEdges(uint256)":"474664d1","getMaxEdges(uint256)":"78156953","getMerkleTreeDepth(uint256)":"6389e107","getMerkleTreeRoot(uint256)":"dabc4d51","getNumberOfMerkleTreeLeaves(uint256)":"638480be","startPoll(uint256,uint256)":"b359dd43","updateEdge(uint256,uint256,uint32,bytes32)":"14f6d6e8","verifyRoots(uint256,bytes)":"fced271f"}}}}}