{"contracts/base/SemaphoreInputEncoder.sol":{"SemaphoreInputEncoder":{"abi":[{"inputs":[],"name":"EVM_CHAIN_ID_TYPE","outputs":[{"internalType":"bytes2","name":"","type":"bytes2"}],"stateMutability":"view","type":"function"},{"inputs":[{"components":[{"internalType":"uint256[8]","name":"proof","type":"uint256[8]"},{"internalType":"uint256","name":"nullifierHash","type":"uint256"},{"internalType":"uint256","name":"signalHash","type":"uint256"},{"internalType":"uint256","name":"externalNullifier","type":"uint256"},{"internalType":"bytes","name":"roots","type":"bytes"}],"internalType":"struct SemaphoreInputEncoder.Proof","name":"_args","type":"tuple"},{"internalType":"uint8","name":"_maxEdges","type":"uint8"}],"name":"_encodeInputs","outputs":[{"internalType":"bytes","name":"","type":"bytes"},{"internalType":"bytes32[]","name":"","type":"bytes32[]"}],"stateMutability":"view","type":"function"},{"inputs":[],"name":"getChainId","outputs":[{"internalType":"uint256","name":"","type":"uint256"}],"stateMutability":"view","type":"function"},{"inputs":[],"name":"getChainIdType","outputs":[{"internalType":"uint48","name":"","type":"uint48"}],"stateMutability":"view","type":"function"}],"evm":{"bytecode":{"linkReferences":{},"object":"61146c610053600b82828239805160001a607314610046577f4e487b7100000000000000000000000000000000000000000000000000000000600052600060045260246000fd5b30600052607381538281f3fe73000000000000000000000000000000000000000030146080604052600436106100565760003560e01c80633408e4701461005b5780634c830cbd146100795780638b7e878214610097578063f0d4020d146100b5575b600080fd5b6100636100e6565b6040516100709190610f3b565b60405180910390f35b6100816100f3565b60405161008e9190610f56565b60405180910390f35b61009f610148565b6040516100ac9190610ec9565b60405180910390f35b6100cf60048036038101906100ca9190610bf9565b610151565b6040516100dd929190610ee4565b60405180910390f35b6000804690508091505090565b6000806100fe6100e6565b60e01b9050600061010060f01b905060008183604051602001610122929190610e9d565b60405160208183030381529060405290508061013d906111f7565b60d01c935050505090565b61010060f01b81565b606080600061015e6100f3565b65ffffffffffff16905060006001856101779190611109565b60ff1667ffffffffffffffff81111561019357610192611343565b5b6040519080825280602002602001820160405280156101c15781602001602082028036833780820191505090505b509050606060018660ff161415610387576101da610847565b600088608001518060200190518101906101f49190610b9e565b90508060006002811061020a57610209611314565b5b60200201518460008151811061022357610222611314565b5b6020026020010181815250508060016002811061024357610242611314565b5b60200201518460018151811061025c5761025b611314565b5b60200260200101818152505088602001518260006006811061028157610280611314565b5b6020020181815250508860400151826001600681106102a3576102a2611314565b5b6020020181815250508860600151826002600681106102c5576102c4611314565b5b602002018181525050806000600281106102e2576102e1611314565b5b602002015160001c826003600681106102fe576102fd611314565b5b6020020181815250508060016002811061031b5761031a611314565b5b602002015160001c8260046006811061033757610336611314565b5b602002018181525050848260056006811061035557610354611314565b5b6020020181815250508160405160200161036f9190610e82565b60405160208183030381529060405292505050610837565b60078660ff1614156107f45761039b610869565b600088608001518060200190518101906103b59190610bcb565b9050806000600881106103cb576103ca611314565b5b6020020151846000815181106103e4576103e3611314565b5b6020026020010181815250508060016008811061040457610403611314565b5b60200201518460018151811061041d5761041c611314565b5b6020026020010181815250508060026008811061043d5761043c611314565b5b60200201518460028151811061045657610455611314565b5b6020026020010181815250508060036008811061047657610475611314565b5b60200201518460038151811061048f5761048e611314565b5b602002602001018181525050806004600881106104af576104ae611314565b5b6020020151846004815181106104c8576104c7611314565b5b602002602001018181525050806005600881106104e8576104e7611314565b5b60200201518460058151811061050157610500611314565b5b6020026020010181815250508060066008811061052157610520611314565b5b60200201518460068151811061053a57610539611314565b5b6020026020010181815250508060076008811061055a57610559611314565b5b60200201518460078151811061057357610572611314565b5b6020026020010181815250508860200151826000600c811061059857610597611314565b5b6020020181815250508860400151826001600c81106105ba576105b9611314565b5b6020020181815250508860600151826002600c81106105dc576105db611314565b5b602002018181525050806000600881106105f9576105f8611314565b5b602002015160001c826003600c811061061557610614611314565b5b6020020181815250508060016008811061063257610631611314565b5b602002015160001c826004600c811061064e5761064d611314565b5b6020020181815250508060026008811061066b5761066a611314565b5b602002015160001c826005600c811061068757610686611314565b5b602002018181525050806003600881106106a4576106a3611314565b5b602002015160001c826006600c81106106c0576106bf611314565b5b602002018181525050806004600881106106dd576106dc611314565b5b602002015160001c826007600c81106106f9576106f8611314565b5b6020020181815250508060056008811061071657610715611314565b5b602002015160001c826008600c811061073257610731611314565b5b6020020181815250508060066008811061074f5761074e611314565b5b602002015160001c826009600c811061076b5761076a611314565b5b6020020181815250508060076008811061078857610787611314565b5b602002015160001c82600a600c81106107a4576107a3611314565b5b6020020181815250508482600b600c81106107c2576107c1611314565b5b602002018181525050816040516020016107dc9190610e66565b60405160208183030381529060405292505050610836565b6000610835576040517f08c379a000000000000000000000000000000000000000000000000000000000815260040161082c90610f1b565b60405180910390fd5b5b5b8082945094505050509250929050565b6040518060c00160405280600690602082028036833780820191505090505090565b604051806101800160405280600c90602082028036833780820191505090505090565b600061089f61089a84610f96565b610f71565b905080828560208602820111156108b9576108b8611396565b5b60005b858110156108e957816108cf8882610a84565b8452602084019350602083019250506001810190506108bc565b5050509392505050565b600061090661090184610fbc565b610f71565b905080828560208602820111156109205761091f611396565b5b60005b8581101561095057816109368882610a84565b845260208401935060208301925050600181019050610923565b5050509392505050565b600061096d61096884610fe2565b610f71565b9050808285602086028201111561098757610986611396565b5b60005b858110156109b7578161099d8882610b74565b84526020840193506020830192505060018101905061098a565b5050509392505050565b60006109d46109cf84611008565b610f71565b9050828152602081018484840111156109f0576109ef61139b565b5b6109fb84828561125e565b509392505050565b600082601f830112610a1857610a17611387565b5b6002610a2584828561088c565b91505092915050565b600082601f830112610a4357610a42611387565b5b6008610a508482856108f3565b91505092915050565b600082601f830112610a6e57610a6d611387565b5b6008610a7b84828561095a565b91505092915050565b600081519050610a93816113f1565b92915050565b600082601f830112610aae57610aad611387565b5b8135610abe8482602086016109c1565b91505092915050565b60006101808284031215610ade57610add61138c565b5b610ae860a0610f71565b90506000610af884828501610a59565b600083015250610100610b0d84828501610b74565b602083015250610120610b2284828501610b74565b604083015250610140610b3784828501610b74565b60608301525061016082013567ffffffffffffffff811115610b5c57610b5b611391565b5b610b6884828501610a99565b60808301525092915050565b600081359050610b8381611408565b92915050565b600081359050610b988161141f565b92915050565b600060408284031215610bb457610bb36113a5565b5b6000610bc284828501610a03565b91505092915050565b60006101008284031215610be257610be16113a5565b5b6000610bf084828501610a2e565b91505092915050565b60008060408385031215610c1057610c0f6113a5565b5b600083013567ffffffffffffffff811115610c2e57610c2d6113a0565b5b610c3a85828601610ac7565b9250506020610c4b85828601610b89565b9150509250929050565b6000610c618383610db7565b60208301905092915050565b6000610c798383610e48565b60208301905092915050565b6000610c908261106d565b610c9a81856110c0565b9350610ca583611039565b8060005b83811015610cd6578151610cbd8882610c55565b9750610cc883611099565b925050600181019050610ca9565b5085935050505092915050565b610cec81611078565b610cf681846110d1565b9250610d0182611049565b8060005b83811015610d32578151610d198782610c6d565b9650610d24836110a6565b925050600181019050610d05565b505050505050565b610d4381611083565b610d4d81846110dc565b9250610d5882611053565b8060005b83811015610d89578151610d708782610c6d565b9650610d7b836110b3565b925050600181019050610d5c565b505050505050565b610d9a81611140565b82525050565b610db1610dac82611140565b6112d1565b82525050565b610dc08161116c565b82525050565b610dd7610dd282611176565b6112db565b82525050565b6000610de88261108e565b610df281856110e7565b9350610e0281856020860161126d565b610e0b816113aa565b840191505092915050565b6000610e23600d836110f8565b9150610e2e826113c8565b602082019050919050565b610e42816111ce565b82525050565b610e51816111ce565b82525050565b610e60816111d8565b82525050565b6000610e728284610ce3565b6101808201915081905092915050565b6000610e8e8284610d3a565b60c08201915081905092915050565b6000610ea98285610da0565b600282019150610eb98284610dc6565b6004820191508190509392505050565b6000602082019050610ede6000830184610d91565b92915050565b60006040820190508181036000830152610efe8185610ddd565b90508181036020830152610f128184610c85565b90509392505050565b60006020820190508181036000830152610f3481610e16565b9050919050565b6000602082019050610f506000830184610e39565b92915050565b6000602082019050610f6b6000830184610e57565b92915050565b6000610f7b610f8c565b9050610f8782826112a0565b919050565b6000604051905090565b600067ffffffffffffffff821115610fb157610fb0611343565b5b602082029050919050565b600067ffffffffffffffff821115610fd757610fd6611343565b5b602082029050919050565b600067ffffffffffffffff821115610ffd57610ffc611343565b5b602082029050919050565b600067ffffffffffffffff82111561102357611022611343565b5b61102c826113aa565b9050602081019050919050565b6000819050602082019050919050565b6000819050919050565b6000819050919050565b6000819050602082019050919050565b600081519050919050565b6000600c9050919050565b600060069050919050565b600081519050919050565b6000602082019050919050565b6000602082019050919050565b6000602082019050919050565b600082825260208201905092915050565b600081905092915050565b600081905092915050565b600082825260208201905092915050565b600082825260208201905092915050565b6000611114826111ea565b915061111f836111ea565b92508260ff03821115611135576111346112e5565b5b828201905092915050565b60007fffff00000000000000000000000000000000000000000000000000000000000082169050919050565b6000819050919050565b60007fffffffff0000000000000000000000000000000000000000000000000000000082169050919050565b60007fffffffffffff000000000000000000000000000000000000000000000000000082169050919050565b6000819050919050565b600065ffffffffffff82169050919050565b600060ff82169050919050565b60006112028261108e565b8261120c8461105d565b905061121781611372565b92506006821015611257576112527fffffffffffff0000000000000000000000000000000000000000000000000000836006036008026113bb565b831692505b5050919050565b82818337600083830152505050565b60005b8381101561128b578082015181840152602081019050611270565b8381111561129a576000848401525b50505050565b6112a9826113aa565b810181811067ffffffffffffffff821117156112c8576112c7611343565b5b80604052505050565b6000819050919050565b6000819050919050565b7f4e487b7100000000000000000000000000000000000000000000000000000000600052601160045260246000fd5b7f4e487b7100000000000000000000000000000000000000000000000000000000600052603260045260246000fd5b7f4e487b7100000000000000000000000000000000000000000000000000000000600052604160045260246000fd5b600061137e82516111a2565b80915050919050565b600080fd5b600080fd5b600080fd5b600080fd5b600080fd5b600080fd5b600080fd5b6000601f19601f8301169050919050565b600082821b905092915050565b7f496e76616c696420656467657300000000000000000000000000000000000000600082015250565b6113fa8161116c565b811461140557600080fd5b50565b611411816111ce565b811461141c57600080fd5b50565b611428816111ea565b811461143357600080fd5b5056fea26469706673582212207ccd69d0447f249facc5473dbb25a36bac1ffc82375a4bc8a3ded7202210304964736f6c63430008060033","opcodes":"PUSH2 0x146C PUSH2 0x53 PUSH1 0xB DUP3 DUP3 DUP3 CODECOPY DUP1 MLOAD PUSH1 0x0 BYTE PUSH1 0x73 EQ PUSH2 0x46 JUMPI PUSH32 0x4E487B7100000000000000000000000000000000000000000000000000000000 PUSH1 0x0 MSTORE PUSH1 0x0 PUSH1 0x4 MSTORE PUSH1 0x24 PUSH1 0x0 REVERT JUMPDEST ADDRESS PUSH1 0x0 MSTORE PUSH1 0x73 DUP2 MSTORE8 DUP3 DUP2 RETURN INVALID PUSH20 0x0 ADDRESS EQ PUSH1 0x80 PUSH1 0x40 MSTORE PUSH1 0x4 CALLDATASIZE LT PUSH2 0x56 JUMPI PUSH1 0x0 CALLDATALOAD PUSH1 0xE0 SHR DUP1 PUSH4 0x3408E470 EQ PUSH2 0x5B JUMPI DUP1 PUSH4 0x4C830CBD EQ PUSH2 0x79 JUMPI DUP1 PUSH4 0x8B7E8782 EQ PUSH2 0x97 JUMPI DUP1 PUSH4 0xF0D4020D EQ PUSH2 0xB5 JUMPI JUMPDEST PUSH1 0x0 DUP1 REVERT JUMPDEST PUSH2 0x63 PUSH2 0xE6 JUMP JUMPDEST PUSH1 0x40 MLOAD PUSH2 0x70 SWAP2 SWAP1 PUSH2 0xF3B JUMP JUMPDEST PUSH1 0x40 MLOAD DUP1 SWAP2 SUB SWAP1 RETURN JUMPDEST PUSH2 0x81 PUSH2 0xF3 JUMP JUMPDEST PUSH1 0x40 MLOAD PUSH2 0x8E SWAP2 SWAP1 PUSH2 0xF56 JUMP JUMPDEST PUSH1 0x40 MLOAD DUP1 SWAP2 SUB SWAP1 RETURN JUMPDEST PUSH2 0x9F PUSH2 0x148 JUMP JUMPDEST PUSH1 0x40 MLOAD PUSH2 0xAC SWAP2 SWAP1 PUSH2 0xEC9 JUMP JUMPDEST PUSH1 0x40 MLOAD DUP1 SWAP2 SUB SWAP1 RETURN JUMPDEST PUSH2 0xCF PUSH1 0x4 DUP1 CALLDATASIZE SUB DUP2 ADD SWAP1 PUSH2 0xCA SWAP2 SWAP1 PUSH2 0xBF9 JUMP JUMPDEST PUSH2 0x151 JUMP JUMPDEST PUSH1 0x40 MLOAD PUSH2 0xDD SWAP3 SWAP2 SWAP1 PUSH2 0xEE4 JUMP JUMPDEST PUSH1 0x40 MLOAD DUP1 SWAP2 SUB SWAP1 RETURN JUMPDEST PUSH1 0x0 DUP1 CHAINID SWAP1 POP DUP1 SWAP2 POP POP SWAP1 JUMP JUMPDEST PUSH1 0x0 DUP1 PUSH2 0xFE PUSH2 0xE6 JUMP JUMPDEST PUSH1 0xE0 SHL SWAP1 POP PUSH1 0x0 PUSH2 0x100 PUSH1 0xF0 SHL SWAP1 POP PUSH1 0x0 DUP2 DUP4 PUSH1 0x40 MLOAD PUSH1 0x20 ADD PUSH2 0x122 SWAP3 SWAP2 SWAP1 PUSH2 0xE9D JUMP JUMPDEST PUSH1 0x40 MLOAD PUSH1 0x20 DUP2 DUP4 SUB SUB DUP2 MSTORE SWAP1 PUSH1 0x40 MSTORE SWAP1 POP DUP1 PUSH2 0x13D SWAP1 PUSH2 0x11F7 JUMP JUMPDEST PUSH1 0xD0 SHR SWAP4 POP POP POP POP SWAP1 JUMP JUMPDEST PUSH2 0x100 PUSH1 0xF0 SHL DUP2 JUMP JUMPDEST PUSH1 0x60 DUP1 PUSH1 0x0 PUSH2 0x15E PUSH2 0xF3 JUMP JUMPDEST PUSH6 0xFFFFFFFFFFFF AND SWAP1 POP PUSH1 0x0 PUSH1 0x1 DUP6 PUSH2 0x177 SWAP2 SWAP1 PUSH2 0x1109 JUMP JUMPDEST PUSH1 0xFF AND PUSH8 0xFFFFFFFFFFFFFFFF DUP2 GT ISZERO PUSH2 0x193 JUMPI PUSH2 0x192 PUSH2 0x1343 JUMP JUMPDEST JUMPDEST PUSH1 0x40 MLOAD SWAP1 DUP1 DUP3 MSTORE DUP1 PUSH1 0x20 MUL PUSH1 0x20 ADD DUP3 ADD PUSH1 0x40 MSTORE DUP1 ISZERO PUSH2 0x1C1 JUMPI DUP2 PUSH1 0x20 ADD PUSH1 0x20 DUP3 MUL DUP1 CALLDATASIZE DUP4 CALLDATACOPY DUP1 DUP3 ADD SWAP2 POP POP SWAP1 POP JUMPDEST POP SWAP1 POP PUSH1 0x60 PUSH1 0x1 DUP7 PUSH1 0xFF AND EQ ISZERO PUSH2 0x387 JUMPI PUSH2 0x1DA PUSH2 0x847 JUMP JUMPDEST PUSH1 0x0 DUP9 PUSH1 0x80 ADD MLOAD DUP1 PUSH1 0x20 ADD SWAP1 MLOAD DUP2 ADD SWAP1 PUSH2 0x1F4 SWAP2 SWAP1 PUSH2 0xB9E JUMP JUMPDEST SWAP1 POP DUP1 PUSH1 0x0 PUSH1 0x2 DUP2 LT PUSH2 0x20A JUMPI PUSH2 0x209 PUSH2 0x1314 JUMP JUMPDEST JUMPDEST PUSH1 0x20 MUL ADD MLOAD DUP5 PUSH1 0x0 DUP2 MLOAD DUP2 LT PUSH2 0x223 JUMPI PUSH2 0x222 PUSH2 0x1314 JUMP JUMPDEST JUMPDEST PUSH1 0x20 MUL PUSH1 0x20 ADD ADD DUP2 DUP2 MSTORE POP POP DUP1 PUSH1 0x1 PUSH1 0x2 DUP2 LT PUSH2 0x243 JUMPI PUSH2 0x242 PUSH2 0x1314 JUMP JUMPDEST JUMPDEST PUSH1 0x20 MUL ADD MLOAD DUP5 PUSH1 0x1 DUP2 MLOAD DUP2 LT PUSH2 0x25C JUMPI PUSH2 0x25B PUSH2 0x1314 JUMP JUMPDEST JUMPDEST PUSH1 0x20 MUL PUSH1 0x20 ADD ADD DUP2 DUP2 MSTORE POP POP DUP9 PUSH1 0x20 ADD MLOAD DUP3 PUSH1 0x0 PUSH1 0x6 DUP2 LT PUSH2 0x281 JUMPI PUSH2 0x280 PUSH2 0x1314 JUMP JUMPDEST JUMPDEST PUSH1 0x20 MUL ADD DUP2 DUP2 MSTORE POP POP DUP9 PUSH1 0x40 ADD MLOAD DUP3 PUSH1 0x1 PUSH1 0x6 DUP2 LT PUSH2 0x2A3 JUMPI PUSH2 0x2A2 PUSH2 0x1314 JUMP JUMPDEST JUMPDEST PUSH1 0x20 MUL ADD DUP2 DUP2 MSTORE POP POP DUP9 PUSH1 0x60 ADD MLOAD DUP3 PUSH1 0x2 PUSH1 0x6 DUP2 LT PUSH2 0x2C5 JUMPI PUSH2 0x2C4 PUSH2 0x1314 JUMP JUMPDEST JUMPDEST PUSH1 0x20 MUL ADD DUP2 DUP2 MSTORE POP POP DUP1 PUSH1 0x0 PUSH1 0x2 DUP2 LT PUSH2 0x2E2 JUMPI PUSH2 0x2E1 PUSH2 0x1314 JUMP JUMPDEST JUMPDEST PUSH1 0x20 MUL ADD MLOAD PUSH1 0x0 SHR DUP3 PUSH1 0x3 PUSH1 0x6 DUP2 LT PUSH2 0x2FE JUMPI PUSH2 0x2FD PUSH2 0x1314 JUMP JUMPDEST JUMPDEST PUSH1 0x20 MUL ADD DUP2 DUP2 MSTORE POP POP DUP1 PUSH1 0x1 PUSH1 0x2 DUP2 LT PUSH2 0x31B JUMPI PUSH2 0x31A PUSH2 0x1314 JUMP JUMPDEST JUMPDEST PUSH1 0x20 MUL ADD MLOAD PUSH1 0x0 SHR DUP3 PUSH1 0x4 PUSH1 0x6 DUP2 LT PUSH2 0x337 JUMPI PUSH2 0x336 PUSH2 0x1314 JUMP JUMPDEST JUMPDEST PUSH1 0x20 MUL ADD DUP2 DUP2 MSTORE POP POP DUP5 DUP3 PUSH1 0x5 PUSH1 0x6 DUP2 LT PUSH2 0x355 JUMPI PUSH2 0x354 PUSH2 0x1314 JUMP JUMPDEST JUMPDEST PUSH1 0x20 MUL ADD DUP2 DUP2 MSTORE POP POP DUP2 PUSH1 0x40 MLOAD PUSH1 0x20 ADD PUSH2 0x36F SWAP2 SWAP1 PUSH2 0xE82 JUMP JUMPDEST PUSH1 0x40 MLOAD PUSH1 0x20 DUP2 DUP4 SUB SUB DUP2 MSTORE SWAP1 PUSH1 0x40 MSTORE SWAP3 POP POP POP PUSH2 0x837 JUMP JUMPDEST PUSH1 0x7 DUP7 PUSH1 0xFF AND EQ ISZERO PUSH2 0x7F4 JUMPI PUSH2 0x39B PUSH2 0x869 JUMP JUMPDEST PUSH1 0x0 DUP9 PUSH1 0x80 ADD MLOAD DUP1 PUSH1 0x20 ADD SWAP1 MLOAD DUP2 ADD SWAP1 PUSH2 0x3B5 SWAP2 SWAP1 PUSH2 0xBCB JUMP JUMPDEST SWAP1 POP DUP1 PUSH1 0x0 PUSH1 0x8 DUP2 LT PUSH2 0x3CB JUMPI PUSH2 0x3CA PUSH2 0x1314 JUMP JUMPDEST JUMPDEST PUSH1 0x20 MUL ADD MLOAD DUP5 PUSH1 0x0 DUP2 MLOAD DUP2 LT PUSH2 0x3E4 JUMPI PUSH2 0x3E3 PUSH2 0x1314 JUMP JUMPDEST JUMPDEST PUSH1 0x20 MUL PUSH1 0x20 ADD ADD DUP2 DUP2 MSTORE POP POP DUP1 PUSH1 0x1 PUSH1 0x8 DUP2 LT PUSH2 0x404 JUMPI PUSH2 0x403 PUSH2 0x1314 JUMP JUMPDEST JUMPDEST PUSH1 0x20 MUL ADD MLOAD DUP5 PUSH1 0x1 DUP2 MLOAD DUP2 LT PUSH2 0x41D JUMPI PUSH2 0x41C PUSH2 0x1314 JUMP JUMPDEST JUMPDEST PUSH1 0x20 MUL PUSH1 0x20 ADD ADD DUP2 DUP2 MSTORE POP POP DUP1 PUSH1 0x2 PUSH1 0x8 DUP2 LT PUSH2 0x43D JUMPI PUSH2 0x43C PUSH2 0x1314 JUMP JUMPDEST JUMPDEST PUSH1 0x20 MUL ADD MLOAD DUP5 PUSH1 0x2 DUP2 MLOAD DUP2 LT PUSH2 0x456 JUMPI PUSH2 0x455 PUSH2 0x1314 JUMP JUMPDEST JUMPDEST PUSH1 0x20 MUL PUSH1 0x20 ADD ADD DUP2 DUP2 MSTORE POP POP DUP1 PUSH1 0x3 PUSH1 0x8 DUP2 LT PUSH2 0x476 JUMPI PUSH2 0x475 PUSH2 0x1314 JUMP JUMPDEST JUMPDEST PUSH1 0x20 MUL ADD MLOAD DUP5 PUSH1 0x3 DUP2 MLOAD DUP2 LT PUSH2 0x48F JUMPI PUSH2 0x48E PUSH2 0x1314 JUMP JUMPDEST JUMPDEST PUSH1 0x20 MUL PUSH1 0x20 ADD ADD DUP2 DUP2 MSTORE POP POP DUP1 PUSH1 0x4 PUSH1 0x8 DUP2 LT PUSH2 0x4AF JUMPI PUSH2 0x4AE PUSH2 0x1314 JUMP JUMPDEST JUMPDEST PUSH1 0x20 MUL ADD MLOAD DUP5 PUSH1 0x4 DUP2 MLOAD DUP2 LT PUSH2 0x4C8 JUMPI PUSH2 0x4C7 PUSH2 0x1314 JUMP JUMPDEST JUMPDEST PUSH1 0x20 MUL PUSH1 0x20 ADD ADD DUP2 DUP2 MSTORE POP POP DUP1 PUSH1 0x5 PUSH1 0x8 DUP2 LT PUSH2 0x4E8 JUMPI PUSH2 0x4E7 PUSH2 0x1314 JUMP JUMPDEST JUMPDEST PUSH1 0x20 MUL ADD MLOAD DUP5 PUSH1 0x5 DUP2 MLOAD DUP2 LT PUSH2 0x501 JUMPI PUSH2 0x500 PUSH2 0x1314 JUMP JUMPDEST JUMPDEST PUSH1 0x20 MUL PUSH1 0x20 ADD ADD DUP2 DUP2 MSTORE POP POP DUP1 PUSH1 0x6 PUSH1 0x8 DUP2 LT PUSH2 0x521 JUMPI PUSH2 0x520 PUSH2 0x1314 JUMP JUMPDEST JUMPDEST PUSH1 0x20 MUL ADD MLOAD DUP5 PUSH1 0x6 DUP2 MLOAD DUP2 LT PUSH2 0x53A JUMPI PUSH2 0x539 PUSH2 0x1314 JUMP JUMPDEST JUMPDEST PUSH1 0x20 MUL PUSH1 0x20 ADD ADD DUP2 DUP2 MSTORE POP POP DUP1 PUSH1 0x7 PUSH1 0x8 DUP2 LT PUSH2 0x55A JUMPI PUSH2 0x559 PUSH2 0x1314 JUMP JUMPDEST JUMPDEST PUSH1 0x20 MUL ADD MLOAD DUP5 PUSH1 0x7 DUP2 MLOAD DUP2 LT PUSH2 0x573 JUMPI PUSH2 0x572 PUSH2 0x1314 JUMP JUMPDEST JUMPDEST PUSH1 0x20 MUL PUSH1 0x20 ADD ADD DUP2 DUP2 MSTORE POP POP DUP9 PUSH1 0x20 ADD MLOAD DUP3 PUSH1 0x0 PUSH1 0xC DUP2 LT PUSH2 0x598 JUMPI PUSH2 0x597 PUSH2 0x1314 JUMP JUMPDEST JUMPDEST PUSH1 0x20 MUL ADD DUP2 DUP2 MSTORE POP POP DUP9 PUSH1 0x40 ADD MLOAD DUP3 PUSH1 0x1 PUSH1 0xC DUP2 LT PUSH2 0x5BA JUMPI PUSH2 0x5B9 PUSH2 0x1314 JUMP JUMPDEST JUMPDEST PUSH1 0x20 MUL ADD DUP2 DUP2 MSTORE POP POP DUP9 PUSH1 0x60 ADD MLOAD DUP3 PUSH1 0x2 PUSH1 0xC DUP2 LT PUSH2 0x5DC JUMPI PUSH2 0x5DB PUSH2 0x1314 JUMP JUMPDEST JUMPDEST PUSH1 0x20 MUL ADD DUP2 DUP2 MSTORE POP POP DUP1 PUSH1 0x0 PUSH1 0x8 DUP2 LT PUSH2 0x5F9 JUMPI PUSH2 0x5F8 PUSH2 0x1314 JUMP JUMPDEST JUMPDEST PUSH1 0x20 MUL ADD MLOAD PUSH1 0x0 SHR DUP3 PUSH1 0x3 PUSH1 0xC DUP2 LT PUSH2 0x615 JUMPI PUSH2 0x614 PUSH2 0x1314 JUMP JUMPDEST JUMPDEST PUSH1 0x20 MUL ADD DUP2 DUP2 MSTORE POP POP DUP1 PUSH1 0x1 PUSH1 0x8 DUP2 LT PUSH2 0x632 JUMPI PUSH2 0x631 PUSH2 0x1314 JUMP JUMPDEST JUMPDEST PUSH1 0x20 MUL ADD MLOAD PUSH1 0x0 SHR DUP3 PUSH1 0x4 PUSH1 0xC DUP2 LT PUSH2 0x64E JUMPI PUSH2 0x64D PUSH2 0x1314 JUMP JUMPDEST JUMPDEST PUSH1 0x20 MUL ADD DUP2 DUP2 MSTORE POP POP DUP1 PUSH1 0x2 PUSH1 0x8 DUP2 LT PUSH2 0x66B JUMPI PUSH2 0x66A PUSH2 0x1314 JUMP JUMPDEST JUMPDEST PUSH1 0x20 MUL ADD MLOAD PUSH1 0x0 SHR DUP3 PUSH1 0x5 PUSH1 0xC DUP2 LT PUSH2 0x687 JUMPI PUSH2 0x686 PUSH2 0x1314 JUMP JUMPDEST JUMPDEST PUSH1 0x20 MUL ADD DUP2 DUP2 MSTORE POP POP DUP1 PUSH1 0x3 PUSH1 0x8 DUP2 LT PUSH2 0x6A4 JUMPI PUSH2 0x6A3 PUSH2 0x1314 JUMP JUMPDEST JUMPDEST PUSH1 0x20 MUL ADD MLOAD PUSH1 0x0 SHR DUP3 PUSH1 0x6 PUSH1 0xC DUP2 LT PUSH2 0x6C0 JUMPI PUSH2 0x6BF PUSH2 0x1314 JUMP JUMPDEST JUMPDEST PUSH1 0x20 MUL ADD DUP2 DUP2 MSTORE POP POP DUP1 PUSH1 0x4 PUSH1 0x8 DUP2 LT PUSH2 0x6DD JUMPI PUSH2 0x6DC PUSH2 0x1314 JUMP JUMPDEST JUMPDEST PUSH1 0x20 MUL ADD MLOAD PUSH1 0x0 SHR DUP3 PUSH1 0x7 PUSH1 0xC DUP2 LT PUSH2 0x6F9 JUMPI PUSH2 0x6F8 PUSH2 0x1314 JUMP JUMPDEST JUMPDEST PUSH1 0x20 MUL ADD DUP2 DUP2 MSTORE POP POP DUP1 PUSH1 0x5 PUSH1 0x8 DUP2 LT PUSH2 0x716 JUMPI PUSH2 0x715 PUSH2 0x1314 JUMP JUMPDEST JUMPDEST PUSH1 0x20 MUL ADD MLOAD PUSH1 0x0 SHR DUP3 PUSH1 0x8 PUSH1 0xC DUP2 LT PUSH2 0x732 JUMPI PUSH2 0x731 PUSH2 0x1314 JUMP JUMPDEST JUMPDEST PUSH1 0x20 MUL ADD DUP2 DUP2 MSTORE POP POP DUP1 PUSH1 0x6 PUSH1 0x8 DUP2 LT PUSH2 0x74F JUMPI PUSH2 0x74E PUSH2 0x1314 JUMP JUMPDEST JUMPDEST PUSH1 0x20 MUL ADD MLOAD PUSH1 0x0 SHR DUP3 PUSH1 0x9 PUSH1 0xC DUP2 LT PUSH2 0x76B JUMPI PUSH2 0x76A PUSH2 0x1314 JUMP JUMPDEST JUMPDEST PUSH1 0x20 MUL ADD DUP2 DUP2 MSTORE POP POP DUP1 PUSH1 0x7 PUSH1 0x8 DUP2 LT PUSH2 0x788 JUMPI PUSH2 0x787 PUSH2 0x1314 JUMP JUMPDEST JUMPDEST PUSH1 0x20 MUL ADD MLOAD PUSH1 0x0 SHR DUP3 PUSH1 0xA PUSH1 0xC DUP2 LT PUSH2 0x7A4 JUMPI PUSH2 0x7A3 PUSH2 0x1314 JUMP JUMPDEST JUMPDEST PUSH1 0x20 MUL ADD DUP2 DUP2 MSTORE POP POP DUP5 DUP3 PUSH1 0xB PUSH1 0xC DUP2 LT PUSH2 0x7C2 JUMPI PUSH2 0x7C1 PUSH2 0x1314 JUMP JUMPDEST JUMPDEST PUSH1 0x20 MUL ADD DUP2 DUP2 MSTORE POP POP DUP2 PUSH1 0x40 MLOAD PUSH1 0x20 ADD PUSH2 0x7DC SWAP2 SWAP1 PUSH2 0xE66 JUMP JUMPDEST PUSH1 0x40 MLOAD PUSH1 0x20 DUP2 DUP4 SUB SUB DUP2 MSTORE SWAP1 PUSH1 0x40 MSTORE SWAP3 POP POP POP PUSH2 0x836 JUMP JUMPDEST PUSH1 0x0 PUSH2 0x835 JUMPI PUSH1 0x40 MLOAD PUSH32 0x8C379A000000000000000000000000000000000000000000000000000000000 DUP2 MSTORE PUSH1 0x4 ADD PUSH2 0x82C SWAP1 PUSH2 0xF1B JUMP JUMPDEST PUSH1 0x40 MLOAD DUP1 SWAP2 SUB SWAP1 REVERT JUMPDEST JUMPDEST JUMPDEST DUP1 DUP3 SWAP5 POP SWAP5 POP POP POP POP SWAP3 POP SWAP3 SWAP1 POP JUMP JUMPDEST PUSH1 0x40 MLOAD DUP1 PUSH1 0xC0 ADD PUSH1 0x40 MSTORE DUP1 PUSH1 0x6 SWAP1 PUSH1 0x20 DUP3 MUL DUP1 CALLDATASIZE DUP4 CALLDATACOPY DUP1 DUP3 ADD SWAP2 POP POP SWAP1 POP POP SWAP1 JUMP JUMPDEST PUSH1 0x40 MLOAD DUP1 PUSH2 0x180 ADD PUSH1 0x40 MSTORE DUP1 PUSH1 0xC SWAP1 PUSH1 0x20 DUP3 MUL DUP1 CALLDATASIZE DUP4 CALLDATACOPY DUP1 DUP3 ADD SWAP2 POP POP SWAP1 POP POP SWAP1 JUMP JUMPDEST PUSH1 0x0 PUSH2 0x89F PUSH2 0x89A DUP5 PUSH2 0xF96 JUMP JUMPDEST PUSH2 0xF71 JUMP JUMPDEST SWAP1 POP DUP1 DUP3 DUP6 PUSH1 0x20 DUP7 MUL DUP3 ADD GT ISZERO PUSH2 0x8B9 JUMPI PUSH2 0x8B8 PUSH2 0x1396 JUMP JUMPDEST JUMPDEST PUSH1 0x0 JUMPDEST DUP6 DUP2 LT ISZERO PUSH2 0x8E9 JUMPI DUP2 PUSH2 0x8CF DUP9 DUP3 PUSH2 0xA84 JUMP JUMPDEST DUP5 MSTORE PUSH1 0x20 DUP5 ADD SWAP4 POP PUSH1 0x20 DUP4 ADD SWAP3 POP POP PUSH1 0x1 DUP2 ADD SWAP1 POP PUSH2 0x8BC JUMP JUMPDEST POP POP POP SWAP4 SWAP3 POP POP POP JUMP JUMPDEST PUSH1 0x0 PUSH2 0x906 PUSH2 0x901 DUP5 PUSH2 0xFBC JUMP JUMPDEST PUSH2 0xF71 JUMP JUMPDEST SWAP1 POP DUP1 DUP3 DUP6 PUSH1 0x20 DUP7 MUL DUP3 ADD GT ISZERO PUSH2 0x920 JUMPI PUSH2 0x91F PUSH2 0x1396 JUMP JUMPDEST JUMPDEST PUSH1 0x0 JUMPDEST DUP6 DUP2 LT ISZERO PUSH2 0x950 JUMPI DUP2 PUSH2 0x936 DUP9 DUP3 PUSH2 0xA84 JUMP JUMPDEST DUP5 MSTORE PUSH1 0x20 DUP5 ADD SWAP4 POP PUSH1 0x20 DUP4 ADD SWAP3 POP POP PUSH1 0x1 DUP2 ADD SWAP1 POP PUSH2 0x923 JUMP JUMPDEST POP POP POP SWAP4 SWAP3 POP POP POP JUMP JUMPDEST PUSH1 0x0 PUSH2 0x96D PUSH2 0x968 DUP5 PUSH2 0xFE2 JUMP JUMPDEST PUSH2 0xF71 JUMP JUMPDEST SWAP1 POP DUP1 DUP3 DUP6 PUSH1 0x20 DUP7 MUL DUP3 ADD GT ISZERO PUSH2 0x987 JUMPI PUSH2 0x986 PUSH2 0x1396 JUMP JUMPDEST JUMPDEST PUSH1 0x0 JUMPDEST DUP6 DUP2 LT ISZERO PUSH2 0x9B7 JUMPI DUP2 PUSH2 0x99D DUP9 DUP3 PUSH2 0xB74 JUMP JUMPDEST DUP5 MSTORE PUSH1 0x20 DUP5 ADD SWAP4 POP PUSH1 0x20 DUP4 ADD SWAP3 POP POP PUSH1 0x1 DUP2 ADD SWAP1 POP PUSH2 0x98A JUMP JUMPDEST POP POP POP SWAP4 SWAP3 POP POP POP JUMP JUMPDEST PUSH1 0x0 PUSH2 0x9D4 PUSH2 0x9CF DUP5 PUSH2 0x1008 JUMP JUMPDEST PUSH2 0xF71 JUMP JUMPDEST SWAP1 POP DUP3 DUP2 MSTORE PUSH1 0x20 DUP2 ADD DUP5 DUP5 DUP5 ADD GT ISZERO PUSH2 0x9F0 JUMPI PUSH2 0x9EF PUSH2 0x139B JUMP JUMPDEST JUMPDEST PUSH2 0x9FB DUP5 DUP3 DUP6 PUSH2 0x125E JUMP JUMPDEST POP SWAP4 SWAP3 POP POP POP JUMP JUMPDEST PUSH1 0x0 DUP3 PUSH1 0x1F DUP4 ADD SLT PUSH2 0xA18 JUMPI PUSH2 0xA17 PUSH2 0x1387 JUMP JUMPDEST JUMPDEST PUSH1 0x2 PUSH2 0xA25 DUP5 DUP3 DUP6 PUSH2 0x88C JUMP JUMPDEST SWAP2 POP POP SWAP3 SWAP2 POP POP JUMP JUMPDEST PUSH1 0x0 DUP3 PUSH1 0x1F DUP4 ADD SLT PUSH2 0xA43 JUMPI PUSH2 0xA42 PUSH2 0x1387 JUMP JUMPDEST JUMPDEST PUSH1 0x8 PUSH2 0xA50 DUP5 DUP3 DUP6 PUSH2 0x8F3 JUMP JUMPDEST SWAP2 POP POP SWAP3 SWAP2 POP POP JUMP JUMPDEST PUSH1 0x0 DUP3 PUSH1 0x1F DUP4 ADD SLT PUSH2 0xA6E JUMPI PUSH2 0xA6D PUSH2 0x1387 JUMP JUMPDEST JUMPDEST PUSH1 0x8 PUSH2 0xA7B DUP5 DUP3 DUP6 PUSH2 0x95A JUMP JUMPDEST SWAP2 POP POP SWAP3 SWAP2 POP POP JUMP JUMPDEST PUSH1 0x0 DUP2 MLOAD SWAP1 POP PUSH2 0xA93 DUP2 PUSH2 0x13F1 JUMP JUMPDEST SWAP3 SWAP2 POP POP JUMP JUMPDEST PUSH1 0x0 DUP3 PUSH1 0x1F DUP4 ADD SLT PUSH2 0xAAE JUMPI PUSH2 0xAAD PUSH2 0x1387 JUMP JUMPDEST JUMPDEST DUP2 CALLDATALOAD PUSH2 0xABE DUP5 DUP3 PUSH1 0x20 DUP7 ADD PUSH2 0x9C1 JUMP JUMPDEST SWAP2 POP POP SWAP3 SWAP2 POP POP JUMP JUMPDEST PUSH1 0x0 PUSH2 0x180 DUP3 DUP5 SUB SLT ISZERO PUSH2 0xADE JUMPI PUSH2 0xADD PUSH2 0x138C JUMP JUMPDEST JUMPDEST PUSH2 0xAE8 PUSH1 0xA0 PUSH2 0xF71 JUMP JUMPDEST SWAP1 POP PUSH1 0x0 PUSH2 0xAF8 DUP5 DUP3 DUP6 ADD PUSH2 0xA59 JUMP JUMPDEST PUSH1 0x0 DUP4 ADD MSTORE POP PUSH2 0x100 PUSH2 0xB0D DUP5 DUP3 DUP6 ADD PUSH2 0xB74 JUMP JUMPDEST PUSH1 0x20 DUP4 ADD MSTORE POP PUSH2 0x120 PUSH2 0xB22 DUP5 DUP3 DUP6 ADD PUSH2 0xB74 JUMP JUMPDEST PUSH1 0x40 DUP4 ADD MSTORE POP PUSH2 0x140 PUSH2 0xB37 DUP5 DUP3 DUP6 ADD PUSH2 0xB74 JUMP JUMPDEST PUSH1 0x60 DUP4 ADD MSTORE POP PUSH2 0x160 DUP3 ADD CALLDATALOAD PUSH8 0xFFFFFFFFFFFFFFFF DUP2 GT ISZERO PUSH2 0xB5C JUMPI PUSH2 0xB5B PUSH2 0x1391 JUMP JUMPDEST JUMPDEST PUSH2 0xB68 DUP5 DUP3 DUP6 ADD PUSH2 0xA99 JUMP JUMPDEST PUSH1 0x80 DUP4 ADD MSTORE POP SWAP3 SWAP2 POP POP JUMP JUMPDEST PUSH1 0x0 DUP2 CALLDATALOAD SWAP1 POP PUSH2 0xB83 DUP2 PUSH2 0x1408 JUMP JUMPDEST SWAP3 SWAP2 POP POP JUMP JUMPDEST PUSH1 0x0 DUP2 CALLDATALOAD SWAP1 POP PUSH2 0xB98 DUP2 PUSH2 0x141F JUMP JUMPDEST SWAP3 SWAP2 POP POP JUMP JUMPDEST PUSH1 0x0 PUSH1 0x40 DUP3 DUP5 SUB SLT ISZERO PUSH2 0xBB4 JUMPI PUSH2 0xBB3 PUSH2 0x13A5 JUMP JUMPDEST JUMPDEST PUSH1 0x0 PUSH2 0xBC2 DUP5 DUP3 DUP6 ADD PUSH2 0xA03 JUMP JUMPDEST SWAP2 POP POP SWAP3 SWAP2 POP POP JUMP JUMPDEST PUSH1 0x0 PUSH2 0x100 DUP3 DUP5 SUB SLT ISZERO PUSH2 0xBE2 JUMPI PUSH2 0xBE1 PUSH2 0x13A5 JUMP JUMPDEST JUMPDEST PUSH1 0x0 PUSH2 0xBF0 DUP5 DUP3 DUP6 ADD PUSH2 0xA2E JUMP JUMPDEST SWAP2 POP POP SWAP3 SWAP2 POP POP JUMP JUMPDEST PUSH1 0x0 DUP1 PUSH1 0x40 DUP4 DUP6 SUB SLT ISZERO PUSH2 0xC10 JUMPI PUSH2 0xC0F PUSH2 0x13A5 JUMP JUMPDEST JUMPDEST PUSH1 0x0 DUP4 ADD CALLDATALOAD PUSH8 0xFFFFFFFFFFFFFFFF DUP2 GT ISZERO PUSH2 0xC2E JUMPI PUSH2 0xC2D PUSH2 0x13A0 JUMP JUMPDEST JUMPDEST PUSH2 0xC3A DUP6 DUP3 DUP7 ADD PUSH2 0xAC7 JUMP JUMPDEST SWAP3 POP POP PUSH1 0x20 PUSH2 0xC4B DUP6 DUP3 DUP7 ADD PUSH2 0xB89 JUMP JUMPDEST SWAP2 POP POP SWAP3 POP SWAP3 SWAP1 POP JUMP JUMPDEST PUSH1 0x0 PUSH2 0xC61 DUP4 DUP4 PUSH2 0xDB7 JUMP JUMPDEST PUSH1 0x20 DUP4 ADD SWAP1 POP SWAP3 SWAP2 POP POP JUMP JUMPDEST PUSH1 0x0 PUSH2 0xC79 DUP4 DUP4 PUSH2 0xE48 JUMP JUMPDEST PUSH1 0x20 DUP4 ADD SWAP1 POP SWAP3 SWAP2 POP POP JUMP JUMPDEST PUSH1 0x0 PUSH2 0xC90 DUP3 PUSH2 0x106D JUMP JUMPDEST PUSH2 0xC9A DUP2 DUP6 PUSH2 0x10C0 JUMP JUMPDEST SWAP4 POP PUSH2 0xCA5 DUP4 PUSH2 0x1039 JUMP JUMPDEST DUP1 PUSH1 0x0 JUMPDEST DUP4 DUP2 LT ISZERO PUSH2 0xCD6 JUMPI DUP2 MLOAD PUSH2 0xCBD DUP9 DUP3 PUSH2 0xC55 JUMP JUMPDEST SWAP8 POP PUSH2 0xCC8 DUP4 PUSH2 0x1099 JUMP JUMPDEST SWAP3 POP POP PUSH1 0x1 DUP2 ADD SWAP1 POP PUSH2 0xCA9 JUMP JUMPDEST POP DUP6 SWAP4 POP POP POP POP SWAP3 SWAP2 POP POP JUMP JUMPDEST PUSH2 0xCEC DUP2 PUSH2 0x1078 JUMP JUMPDEST PUSH2 0xCF6 DUP2 DUP5 PUSH2 0x10D1 JUMP JUMPDEST SWAP3 POP PUSH2 0xD01 DUP3 PUSH2 0x1049 JUMP JUMPDEST DUP1 PUSH1 0x0 JUMPDEST DUP4 DUP2 LT ISZERO PUSH2 0xD32 JUMPI DUP2 MLOAD PUSH2 0xD19 DUP8 DUP3 PUSH2 0xC6D JUMP JUMPDEST SWAP7 POP PUSH2 0xD24 DUP4 PUSH2 0x10A6 JUMP JUMPDEST SWAP3 POP POP PUSH1 0x1 DUP2 ADD SWAP1 POP PUSH2 0xD05 JUMP JUMPDEST POP POP POP POP POP POP JUMP JUMPDEST PUSH2 0xD43 DUP2 PUSH2 0x1083 JUMP JUMPDEST PUSH2 0xD4D DUP2 DUP5 PUSH2 0x10DC JUMP JUMPDEST SWAP3 POP PUSH2 0xD58 DUP3 PUSH2 0x1053 JUMP JUMPDEST DUP1 PUSH1 0x0 JUMPDEST DUP4 DUP2 LT ISZERO PUSH2 0xD89 JUMPI DUP2 MLOAD PUSH2 0xD70 DUP8 DUP3 PUSH2 0xC6D JUMP JUMPDEST SWAP7 POP PUSH2 0xD7B DUP4 PUSH2 0x10B3 JUMP JUMPDEST SWAP3 POP POP PUSH1 0x1 DUP2 ADD SWAP1 POP PUSH2 0xD5C JUMP JUMPDEST POP POP POP POP POP POP JUMP JUMPDEST PUSH2 0xD9A DUP2 PUSH2 0x1140 JUMP JUMPDEST DUP3 MSTORE POP POP JUMP JUMPDEST PUSH2 0xDB1 PUSH2 0xDAC DUP3 PUSH2 0x1140 JUMP JUMPDEST PUSH2 0x12D1 JUMP JUMPDEST DUP3 MSTORE POP POP JUMP JUMPDEST PUSH2 0xDC0 DUP2 PUSH2 0x116C JUMP JUMPDEST DUP3 MSTORE POP POP JUMP JUMPDEST PUSH2 0xDD7 PUSH2 0xDD2 DUP3 PUSH2 0x1176 JUMP JUMPDEST PUSH2 0x12DB JUMP JUMPDEST DUP3 MSTORE POP POP JUMP JUMPDEST PUSH1 0x0 PUSH2 0xDE8 DUP3 PUSH2 0x108E JUMP JUMPDEST PUSH2 0xDF2 DUP2 DUP6 PUSH2 0x10E7 JUMP JUMPDEST SWAP4 POP PUSH2 0xE02 DUP2 DUP6 PUSH1 0x20 DUP7 ADD PUSH2 0x126D JUMP JUMPDEST PUSH2 0xE0B DUP2 PUSH2 0x13AA JUMP JUMPDEST DUP5 ADD SWAP2 POP POP SWAP3 SWAP2 POP POP JUMP JUMPDEST PUSH1 0x0 PUSH2 0xE23 PUSH1 0xD DUP4 PUSH2 0x10F8 JUMP JUMPDEST SWAP2 POP PUSH2 0xE2E DUP3 PUSH2 0x13C8 JUMP JUMPDEST PUSH1 0x20 DUP3 ADD SWAP1 POP SWAP2 SWAP1 POP JUMP JUMPDEST PUSH2 0xE42 DUP2 PUSH2 0x11CE JUMP JUMPDEST DUP3 MSTORE POP POP JUMP JUMPDEST PUSH2 0xE51 DUP2 PUSH2 0x11CE JUMP JUMPDEST DUP3 MSTORE POP POP JUMP JUMPDEST PUSH2 0xE60 DUP2 PUSH2 0x11D8 JUMP JUMPDEST DUP3 MSTORE POP POP JUMP JUMPDEST PUSH1 0x0 PUSH2 0xE72 DUP3 DUP5 PUSH2 0xCE3 JUMP JUMPDEST PUSH2 0x180 DUP3 ADD SWAP2 POP DUP2 SWAP1 POP SWAP3 SWAP2 POP POP JUMP JUMPDEST PUSH1 0x0 PUSH2 0xE8E DUP3 DUP5 PUSH2 0xD3A JUMP JUMPDEST PUSH1 0xC0 DUP3 ADD SWAP2 POP DUP2 SWAP1 POP SWAP3 SWAP2 POP POP JUMP JUMPDEST PUSH1 0x0 PUSH2 0xEA9 DUP3 DUP6 PUSH2 0xDA0 JUMP JUMPDEST PUSH1 0x2 DUP3 ADD SWAP2 POP PUSH2 0xEB9 DUP3 DUP5 PUSH2 0xDC6 JUMP JUMPDEST PUSH1 0x4 DUP3 ADD SWAP2 POP DUP2 SWAP1 POP SWAP4 SWAP3 POP POP POP JUMP JUMPDEST PUSH1 0x0 PUSH1 0x20 DUP3 ADD SWAP1 POP PUSH2 0xEDE PUSH1 0x0 DUP4 ADD DUP5 PUSH2 0xD91 JUMP JUMPDEST SWAP3 SWAP2 POP POP JUMP JUMPDEST PUSH1 0x0 PUSH1 0x40 DUP3 ADD SWAP1 POP DUP2 DUP2 SUB PUSH1 0x0 DUP4 ADD MSTORE PUSH2 0xEFE DUP2 DUP6 PUSH2 0xDDD JUMP JUMPDEST SWAP1 POP DUP2 DUP2 SUB PUSH1 0x20 DUP4 ADD MSTORE PUSH2 0xF12 DUP2 DUP5 PUSH2 0xC85 JUMP JUMPDEST SWAP1 POP SWAP4 SWAP3 POP POP POP JUMP JUMPDEST PUSH1 0x0 PUSH1 0x20 DUP3 ADD SWAP1 POP DUP2 DUP2 SUB PUSH1 0x0 DUP4 ADD MSTORE PUSH2 0xF34 DUP2 PUSH2 0xE16 JUMP JUMPDEST SWAP1 POP SWAP2 SWAP1 POP JUMP JUMPDEST PUSH1 0x0 PUSH1 0x20 DUP3 ADD SWAP1 POP PUSH2 0xF50 PUSH1 0x0 DUP4 ADD DUP5 PUSH2 0xE39 JUMP JUMPDEST SWAP3 SWAP2 POP POP JUMP JUMPDEST PUSH1 0x0 PUSH1 0x20 DUP3 ADD SWAP1 POP PUSH2 0xF6B PUSH1 0x0 DUP4 ADD DUP5 PUSH2 0xE57 JUMP JUMPDEST SWAP3 SWAP2 POP POP JUMP JUMPDEST PUSH1 0x0 PUSH2 0xF7B PUSH2 0xF8C JUMP JUMPDEST SWAP1 POP PUSH2 0xF87 DUP3 DUP3 PUSH2 0x12A0 JUMP JUMPDEST SWAP2 SWAP1 POP JUMP JUMPDEST PUSH1 0x0 PUSH1 0x40 MLOAD SWAP1 POP SWAP1 JUMP JUMPDEST PUSH1 0x0 PUSH8 0xFFFFFFFFFFFFFFFF DUP3 GT ISZERO PUSH2 0xFB1 JUMPI PUSH2 0xFB0 PUSH2 0x1343 JUMP JUMPDEST JUMPDEST PUSH1 0x20 DUP3 MUL SWAP1 POP SWAP2 SWAP1 POP JUMP JUMPDEST PUSH1 0x0 PUSH8 0xFFFFFFFFFFFFFFFF DUP3 GT ISZERO PUSH2 0xFD7 JUMPI PUSH2 0xFD6 PUSH2 0x1343 JUMP JUMPDEST JUMPDEST PUSH1 0x20 DUP3 MUL SWAP1 POP SWAP2 SWAP1 POP JUMP JUMPDEST PUSH1 0x0 PUSH8 0xFFFFFFFFFFFFFFFF DUP3 GT ISZERO PUSH2 0xFFD JUMPI PUSH2 0xFFC PUSH2 0x1343 JUMP JUMPDEST JUMPDEST PUSH1 0x20 DUP3 MUL SWAP1 POP SWAP2 SWAP1 POP JUMP JUMPDEST PUSH1 0x0 PUSH8 0xFFFFFFFFFFFFFFFF DUP3 GT ISZERO PUSH2 0x1023 JUMPI PUSH2 0x1022 PUSH2 0x1343 JUMP JUMPDEST JUMPDEST PUSH2 0x102C DUP3 PUSH2 0x13AA JUMP JUMPDEST SWAP1 POP PUSH1 0x20 DUP2 ADD SWAP1 POP SWAP2 SWAP1 POP JUMP JUMPDEST PUSH1 0x0 DUP2 SWAP1 POP PUSH1 0x20 DUP3 ADD SWAP1 POP SWAP2 SWAP1 POP JUMP JUMPDEST PUSH1 0x0 DUP2 SWAP1 POP SWAP2 SWAP1 POP JUMP JUMPDEST PUSH1 0x0 DUP2 SWAP1 POP SWAP2 SWAP1 POP JUMP JUMPDEST PUSH1 0x0 DUP2 SWAP1 POP PUSH1 0x20 DUP3 ADD SWAP1 POP SWAP2 SWAP1 POP JUMP JUMPDEST PUSH1 0x0 DUP2 MLOAD SWAP1 POP SWAP2 SWAP1 POP JUMP JUMPDEST PUSH1 0x0 PUSH1 0xC SWAP1 POP SWAP2 SWAP1 POP JUMP JUMPDEST PUSH1 0x0 PUSH1 0x6 SWAP1 POP SWAP2 SWAP1 POP JUMP JUMPDEST PUSH1 0x0 DUP2 MLOAD SWAP1 POP SWAP2 SWAP1 POP JUMP JUMPDEST PUSH1 0x0 PUSH1 0x20 DUP3 ADD SWAP1 POP SWAP2 SWAP1 POP JUMP JUMPDEST PUSH1 0x0 PUSH1 0x20 DUP3 ADD SWAP1 POP SWAP2 SWAP1 POP JUMP JUMPDEST PUSH1 0x0 PUSH1 0x20 DUP3 ADD SWAP1 POP SWAP2 SWAP1 POP JUMP JUMPDEST PUSH1 0x0 DUP3 DUP3 MSTORE PUSH1 0x20 DUP3 ADD SWAP1 POP SWAP3 SWAP2 POP POP JUMP JUMPDEST PUSH1 0x0 DUP2 SWAP1 POP SWAP3 SWAP2 POP POP JUMP JUMPDEST PUSH1 0x0 DUP2 SWAP1 POP SWAP3 SWAP2 POP POP JUMP JUMPDEST PUSH1 0x0 DUP3 DUP3 MSTORE PUSH1 0x20 DUP3 ADD SWAP1 POP SWAP3 SWAP2 POP POP JUMP JUMPDEST PUSH1 0x0 DUP3 DUP3 MSTORE PUSH1 0x20 DUP3 ADD SWAP1 POP SWAP3 SWAP2 POP POP JUMP JUMPDEST PUSH1 0x0 PUSH2 0x1114 DUP3 PUSH2 0x11EA JUMP JUMPDEST SWAP2 POP PUSH2 0x111F DUP4 PUSH2 0x11EA JUMP JUMPDEST SWAP3 POP DUP3 PUSH1 0xFF SUB DUP3 GT ISZERO PUSH2 0x1135 JUMPI PUSH2 0x1134 PUSH2 0x12E5 JUMP JUMPDEST JUMPDEST DUP3 DUP3 ADD SWAP1 POP SWAP3 SWAP2 POP POP JUMP JUMPDEST PUSH1 0x0 PUSH32 0xFFFF000000000000000000000000000000000000000000000000000000000000 DUP3 AND SWAP1 POP SWAP2 SWAP1 POP JUMP JUMPDEST PUSH1 0x0 DUP2 SWAP1 POP SWAP2 SWAP1 POP JUMP JUMPDEST PUSH1 0x0 PUSH32 0xFFFFFFFF00000000000000000000000000000000000000000000000000000000 DUP3 AND SWAP1 POP SWAP2 SWAP1 POP JUMP JUMPDEST PUSH1 0x0 PUSH32 0xFFFFFFFFFFFF0000000000000000000000000000000000000000000000000000 DUP3 AND SWAP1 POP SWAP2 SWAP1 POP JUMP JUMPDEST PUSH1 0x0 DUP2 SWAP1 POP SWAP2 SWAP1 POP JUMP JUMPDEST PUSH1 0x0 PUSH6 0xFFFFFFFFFFFF DUP3 AND SWAP1 POP SWAP2 SWAP1 POP JUMP JUMPDEST PUSH1 0x0 PUSH1 0xFF DUP3 AND SWAP1 POP SWAP2 SWAP1 POP JUMP JUMPDEST PUSH1 0x0 PUSH2 0x1202 DUP3 PUSH2 0x108E JUMP JUMPDEST DUP3 PUSH2 0x120C DUP5 PUSH2 0x105D JUMP JUMPDEST SWAP1 POP PUSH2 0x1217 DUP2 PUSH2 0x1372 JUMP JUMPDEST SWAP3 POP PUSH1 0x6 DUP3 LT ISZERO PUSH2 0x1257 JUMPI PUSH2 0x1252 PUSH32 0xFFFFFFFFFFFF0000000000000000000000000000000000000000000000000000 DUP4 PUSH1 0x6 SUB PUSH1 0x8 MUL PUSH2 0x13BB JUMP JUMPDEST DUP4 AND SWAP3 POP JUMPDEST POP POP SWAP2 SWAP1 POP JUMP JUMPDEST DUP3 DUP2 DUP4 CALLDATACOPY PUSH1 0x0 DUP4 DUP4 ADD MSTORE POP POP POP JUMP JUMPDEST PUSH1 0x0 JUMPDEST DUP4 DUP2 LT ISZERO PUSH2 0x128B JUMPI DUP1 DUP3 ADD MLOAD DUP2 DUP5 ADD MSTORE PUSH1 0x20 DUP2 ADD SWAP1 POP PUSH2 0x1270 JUMP JUMPDEST DUP4 DUP2 GT ISZERO PUSH2 0x129A JUMPI PUSH1 0x0 DUP5 DUP5 ADD MSTORE JUMPDEST POP POP POP POP JUMP JUMPDEST PUSH2 0x12A9 DUP3 PUSH2 0x13AA JUMP JUMPDEST DUP2 ADD DUP2 DUP2 LT PUSH8 0xFFFFFFFFFFFFFFFF DUP3 GT OR ISZERO PUSH2 0x12C8 JUMPI PUSH2 0x12C7 PUSH2 0x1343 JUMP JUMPDEST JUMPDEST DUP1 PUSH1 0x40 MSTORE POP POP POP JUMP JUMPDEST PUSH1 0x0 DUP2 SWAP1 POP SWAP2 SWAP1 POP JUMP JUMPDEST PUSH1 0x0 DUP2 SWAP1 POP SWAP2 SWAP1 POP JUMP JUMPDEST PUSH32 0x4E487B7100000000000000000000000000000000000000000000000000000000 PUSH1 0x0 MSTORE PUSH1 0x11 PUSH1 0x4 MSTORE PUSH1 0x24 PUSH1 0x0 REVERT JUMPDEST PUSH32 0x4E487B7100000000000000000000000000000000000000000000000000000000 PUSH1 0x0 MSTORE PUSH1 0x32 PUSH1 0x4 MSTORE PUSH1 0x24 PUSH1 0x0 REVERT JUMPDEST PUSH32 0x4E487B7100000000000000000000000000000000000000000000000000000000 PUSH1 0x0 MSTORE PUSH1 0x41 PUSH1 0x4 MSTORE PUSH1 0x24 PUSH1 0x0 REVERT JUMPDEST PUSH1 0x0 PUSH2 0x137E DUP3 MLOAD PUSH2 0x11A2 JUMP JUMPDEST DUP1 SWAP2 POP POP SWAP2 SWAP1 POP JUMP JUMPDEST PUSH1 0x0 DUP1 REVERT JUMPDEST PUSH1 0x0 DUP1 REVERT JUMPDEST PUSH1 0x0 DUP1 REVERT JUMPDEST PUSH1 0x0 DUP1 REVERT JUMPDEST PUSH1 0x0 DUP1 REVERT JUMPDEST PUSH1 0x0 DUP1 REVERT JUMPDEST PUSH1 0x0 DUP1 REVERT JUMPDEST PUSH1 0x0 PUSH1 0x1F NOT PUSH1 0x1F DUP4 ADD AND SWAP1 POP SWAP2 SWAP1 POP JUMP JUMPDEST PUSH1 0x0 DUP3 DUP3 SHL SWAP1 POP SWAP3 SWAP2 POP POP JUMP JUMPDEST PUSH32 0x496E76616C696420656467657300000000000000000000000000000000000000 PUSH1 0x0 DUP3 ADD MSTORE POP JUMP JUMPDEST PUSH2 0x13FA DUP2 PUSH2 0x116C JUMP JUMPDEST DUP2 EQ PUSH2 0x1405 JUMPI PUSH1 0x0 DUP1 REVERT JUMPDEST POP JUMP JUMPDEST PUSH2 0x1411 DUP2 PUSH2 0x11CE JUMP JUMPDEST DUP2 EQ PUSH2 0x141C JUMPI PUSH1 0x0 DUP1 REVERT JUMPDEST POP JUMP JUMPDEST PUSH2 0x1428 DUP2 PUSH2 0x11EA JUMP JUMPDEST DUP2 EQ PUSH2 0x1433 JUMPI PUSH1 0x0 DUP1 REVERT JUMPDEST POP JUMP INVALID LOG2 PUSH5 0x6970667358 0x22 SLT KECCAK256 PUSH29 0xCD69D0447F249FACC5473DBB25A36BAC1FFC82375A4BC8A3DED7202210 ADDRESS 0x49 PUSH5 0x736F6C6343 STOP ADDMOD MOD STOP CALLER "},"methodIdentifiers":{"EVM_CHAIN_ID_TYPE()":"8b7e8782","_encodeInputs(SemaphoreInputEncoder.Proof,uint8)":"f0d4020d","getChainId()":"3408e470","getChainIdType()":"4c830cbd"}}}}}