{"contracts/base/LinkableIncrementalBinaryTree.sol":{"LinkableIncrementalBinaryTree":{"abi":[{"anonymous":false,"inputs":[{"indexed":false,"internalType":"uint256","name":"chainID","type":"uint256"},{"indexed":false,"internalType":"uint256","name":"latestLeafIndex","type":"uint256"},{"indexed":false,"internalType":"uint256","name":"merkleRoot","type":"uint256"}],"name":"EdgeAddition","type":"event"},{"anonymous":false,"inputs":[{"indexed":false,"internalType":"uint256","name":"chainID","type":"uint256"},{"indexed":false,"internalType":"uint256","name":"latestLeafIndex","type":"uint256"},{"indexed":false,"internalType":"uint256","name":"merkleRoot","type":"uint256"}],"name":"EdgeUpdate","type":"event"},{"inputs":[],"name":"EVM_CHAIN_ID_TYPE","outputs":[{"internalType":"bytes2","name":"","type":"bytes2"}],"stateMutability":"view","type":"function"},{"inputs":[],"name":"getChainId","outputs":[{"internalType":"uint256","name":"","type":"uint256"}],"stateMutability":"view","type":"function"},{"inputs":[],"name":"getChainIdType","outputs":[{"internalType":"uint48","name":"","type":"uint48"}],"stateMutability":"view","type":"function"},{"inputs":[{"internalType":"bytes32","name":"_resourceId","type":"bytes32"}],"name":"parseChainIdFromResourceId","outputs":[{"internalType":"uint64","name":"","type":"uint64"}],"stateMutability":"pure","type":"function"},{"inputs":[{"internalType":"uint256","name":"i","type":"uint256"}],"name":"zeros","outputs":[{"internalType":"uint256","name":"","type":"uint256"}],"stateMutability":"pure","type":"function"}],"evm":{"bytecode":{"linkReferences":{"contracts/base/Poseidon.sol":{"PoseidonT3Lib":[{"length":20,"start":3250},{"length":20,"start":3570},{"length":20,"start":6064},{"length":20,"start":6254}]}},"object":"612c6c610053600b82828239805160001a607314610046577f4e487b7100000000000000000000000000000000000000000000000000000000600052600060045260246000fd5b30600052607381538281f3fe73000000000000000000000000000000000000000030146080604052600436106100f45760003560e01c806374d4479e11610096578063c2230d6e11610070578063c2230d6e14610295578063ce8f1f35146102c5578063e4f91356146102f5578063e829558814610325576100f4565b806374d4479e1461021e57806384c5969f1461024e5780638b7e878214610277576100f4565b80633408e470116100d25780633408e47014610182578063424c5fab146101a05780634c830cbd146101d05780635e295f54146101ee576100f4565b806311bcbf8e146100f9578063243de1f1146101295780633330ca3a14610159575b600080fd5b610113600480360381019061010e9190611bfa565b610355565b604051610120919061221e565b60405180910390f35b610143600480360381019061013e9190611b31565b610421565b60405161015091906121fc565b60405180910390f35b81801561016557600080fd5b50610180600480360381019061017b9190611d09565b610553565b005b61018a6105f3565b60405161019791906123b4565b60405180910390f35b6101ba60048036038101906101b59190611b31565b610600565b6040516101c791906121bf565b60405180910390f35b6101d861078f565b6040516101e591906123cf565b60405180910390f35b61020860048036038101906102039190611bba565b6107e4565b604051610215919061221e565b60405180910390f35b61023860048036038101906102339190611b5e565b610887565b604051610245919061221e565b60405180910390f35b81801561025a57600080fd5b5061027560048036038101906102709190611c4d565b610afc565b005b61027f610ee9565b60405161028c9190612239565b60405180910390f35b6102af60048036038101906102aa9190611b04565b610ef2565b6040516102bc91906123ea565b60405180910390f35b6102df60048036038101906102da9190611b31565b610f0b565b6040516102ec91906123b4565b60405180910390f35b61030f600480360381019061030a9190611bba565b610f44565b60405161031c919061221e565b60405180910390f35b61033f600480360381019061033a9190611d5c565b610f71565b60405161034c91906123b4565b60405180910390f35b600080821415610368576000905061041a565b600084600a01600085815260200190815260200160002060009054906101000a900463ffffffff16905060008190505b85600901600086815260200190815260200160002060008263ffffffff1663ffffffff168152602001908152602001600020548414156103dd5760019250505061041a565b60008163ffffffff1614156103f157601e90505b80806103fc90612706565b9150508163ffffffff168163ffffffff161415610398576000925050505b9392505050565b606060008260000160009054906101000a900460ff1660ff1667ffffffffffffffff81111561045357610452612846565b5b6040519080825280602002602001820160405280156104815781602001602082028036833780820191505090505b50905060005b8360000160009054906101000a900460ff1660ff16811015610549576001816104b09190612521565b846008018054905010610509578360080181815481106104d3576104d2612817565b5b9060005260206000209060040201600101548282815181106104f8576104f7612817565b5b602002602001018181525050610536565b6105168460010154610f71565b82828151811061052957610528612817565b5b6020026020010181815250505b808061054190612761565b915050610487565b5080915050919050565b6000821180156105675750602060ff168211155b6105a6576040517f08c379a000000000000000000000000000000000000000000000000000000000815260040161059d906122d4565b60405180910390fd5b8183600101819055506105b882610f71565b83600301600080815260200190815260200160002081905550808360000160006101000a81548160ff021916908360ff160217905550505050565b6000804690508091505090565b606060008260000160009054906101000a900460ff1660ff1667ffffffffffffffff81111561063257610631612846565b5b60405190808252806020026020018201604052801561066b57816020015b610658611926565b8152602001906001900390816106505790505b50905060005b8360000160009054906101000a900460ff1660ff168110156107855760018161069a9190612521565b846008018054905010610721578360080181815481106106bd576106bc612817565b5b906000526020600020906004020160405180608001604052908160008201548152602001600182015481526020016002820154815260200160038201548152505082828151811061071157610710612817565b5b6020026020010181905250610772565b6040518060800160405280600081526020016107408660010154610f71565b8152602001600081526020016000801b81525082828151811061076657610765612817565b5b60200260200101819052505b808061077d90612761565b915050610671565b5080915050919050565b60008061079a6105f3565b60e01b9050600061010060f01b9050600081836040516020016107be929190612193565b6040516020818303038152906040529050806107d99061269f565b60d01c935050505090565b6000808214156107f75760009050610881565b60008360020160009054906101000a900463ffffffff16905060008190505b8460030160008263ffffffff1681526020019081526020016000205484141561084457600192505050610881565b60008163ffffffff16141561085857601e90505b808061086390612706565b9150508163ffffffff168163ffffffff161415610816576000925050505b92915050565b60006108ae83836000815181106108a1576108a0612817565b5b60200260200101516107e4565b6108ed576040517f08c379a00000000000000000000000000000000000000000000000000000000081526004016108e4906122b4565b60405180910390fd5b60018360000160009054906101000a900460ff1661090b9190612577565b60ff16825114610950576040517f08c379a000000000000000000000000000000000000000000000000000000000815260040161094790612354565b60405180910390fd5b60006001905060005b8460080180549050811015610a4d5760008560080182815481106109805761097f612817565b5b906000526020600020906004020160405180608001604052908160008201548152602001600182015481526020016002820154815260200160038201548152505090506109ec8682600001518786815181106109df576109de612817565b5b6020026020010151610355565b610a2b576040517f08c379a0000000000000000000000000000000000000000000000000000000008152600401610a22906122f4565b60405180910390fd5b8280610a3690612761565b935050508080610a4590612761565b915050610959565b505b60018460000160009054906101000a900460ff16610a6d9190612577565b60ff168114610af157610a838460010154610f71565b838281518110610a9657610a95612817565b5b602002602001015114610ade576040517f08c379a0000000000000000000000000000000000000000000000000000000008152600401610ad590612314565b60405180910390fd5b8080610ae990612761565b915050610a4f565b600191505092915050565b610b0a8787868686866115d1565b610b49576040517f08c379a0000000000000000000000000000000000000000000000000000000008152600401610b4090612254565b60405180910390fd5b6000876001015490506000869050600080600090505b838160ff161015610e62578060ff16600187878460ff16818110610b8657610b85612817565b5b9050602002016020810190610b9b9190611db6565b1660ff16901b82179150600086868360ff16818110610bbd57610bbc612817565b5b9050602002016020810190610bd29190611db6565b60ff161415610d1b578a60050160008260ff168152602001908152602001600020600160028110610c0657610c05612817565b5b015488888360ff16818110610c1e57610c1d612817565b5b905060200201351415610c5d57828b60050160008360ff168152602001908152602001600020600060028110610c5757610c56612817565b5b01819055505b73__$7dbbf6f96c7ef3a793cfa7d9c67f652bb8$__6329a5f2f660405180604001604052808681526020018b8b8660ff16818110610c9e57610c9d612817565b5b905060200201358152506040518263ffffffff1660e01b8152600401610cc491906121e1565b60206040518083038186803b158015610cdc57600080fd5b505af4158015610cf0573d6000803e3d6000fd5b505050506040513d601f19601f82011682018060405250810190610d149190611d89565b9250610e57565b8a60050160008260ff168152602001908152602001600020600060028110610d4657610d45612817565b5b015488888360ff16818110610d5e57610d5d612817565b5b905060200201351415610d9d57828b60050160008360ff168152602001908152602001600020600160028110610d9757610d96612817565b5b01819055505b73__$7dbbf6f96c7ef3a793cfa7d9c67f652bb8$__6329a5f2f660405180604001604052808b8b8660ff16818110610dd857610dd7612817565b5b905060200201358152602001868152506040518263ffffffff1660e01b8152600401610e0491906121e1565b60206040518083038186803b158015610e1c57600080fd5b505af4158015610e30573d6000803e3d6000fd5b505050506040513d601f19601f82011682018060405250810190610e549190611d89565b92505b806001019050610b5f565b5089600401548110610ea9576040517f08c379a0000000000000000000000000000000000000000000000000000000008152600401610ea090612334565b60405180910390fd5b818a60030160008c60020160009054906101000a900463ffffffff1663ffffffff1681526020019081526020016000208190555050505050505050505050565b61010060f01b81565b600060d082901b60d01c65ffffffffffff169050919050565b60008160030160008360020160009054906101000a900463ffffffff1663ffffffff168152602001908152602001600020549050919050565b600082600701600083815260200190815260200160002060009054906101000a900460ff16905092915050565b600080821415610fa3577f2fe54c60d3acabf3343a35b6eba15db4821b340f76e741e2249685ed4899af6c90506115cc565b6001821415610fd4577f13e37f2d6cb86c78ccc1788607c2b199788c6bb0a615a21f2e7a8e88384222f890506115cc565b6002821415611005577f217126fa352c326896e8c2803eec8fd63ad50cf65edfef27a41a9e32dc62276590506115cc565b6003821415611036577f0e28a61a9b3e91007d5a9e3ada18e1b24d6d230c618388ee5df34cacd7397eee90506115cc565b6004821415611067577f27953447a6979839536badc5425ed15fadb0e292e9bc36f92f0aa5cfa501358790506115cc565b6005821415611098577f194191edbfb91d10f6a7afd315f33095410c7801c47175c2df6dc2cce0e3affc90506115cc565b60068214156110c9577f1733dece17d71190516dbaf1927936fa643dc7079fc0cc731de9d6845a47741f90506115cc565b60078214156110fa577f267855a7dc75db39d81d17f95d0a7aa572bf5ae19f4db0e84221d2b2ef99921990506115cc565b600882141561112b577f1184e11836b4c36ad8238a340ecc0985eeba665327e33e9b0e3641027c27620d90506115cc565b600982141561115c577f0702ab83a135d7f55350ab1bfaa90babd8fc1d2b3e6a7215381a7b2213d6c5ce90506115cc565b600a82141561118d577f2eecc0de814cfd8c57ce882babb2e30d1da56621aef7a47f3291cffeaec26ad790506115cc565b600b8214156111be577f280bc02145c155d5833585b6c7b08501055157dd30ce005319621dc462d33b4790506115cc565b600c8214156111ef577f045132221d1fa0a7f4aed8acd2cbec1e2189b7732ccb2ec272b9c60f0d5afc5b90506115cc565b600d821415611220577f27f427ccbf58a44b1270abbe4eda6ba53bd6ac4d88cf1e00a13c4371ce71d36690506115cc565b600e821415611251577f1617eaae5064f26e8f8a6493ae92bfded7fde71b65df1ca6d5dcec0df70b2cef90506115cc565b600f821415611282577f20c6b400d0ea1b15435703c31c31ee63ad7ba5c8da66cec2796feacea575abca90506115cc565b60108214156112b3577f09589ddb438723f53a8e57bdada7c5f8ed67e8fece3889a73618732965645eec90506115cc565b60118214156112e3577e64b6a738a5ff537db7b220f3394f0ecbd35bfd355c5425dc1166bf3236079b90506115cc565b6012821415611314577f095de56281b1d5055e897c3574ff790d5ee81dbc5df784ad2d67795e557c9e9f90506115cc565b6013821415611345577f11cf2e2887aa21963a6ec14289183efe4d4c60f14ecd3d6fe0beebdf855a9b6390506115cc565b6014821415611376577f2b0f6fc0179fa65b6f73627c0e1e84c7374d2eaec44c9a48f2571393ea77bcbb90506115cc565b60158214156113a7577f16fdb637c2abf9c0f988dbf2fd64258c46fb6a273d537b2cf1603ea460b1327990506115cc565b60168214156113d8577f21bbd7e944f6124dad4c376df9cc12e7ca66e47dff703ff7cedb1a454edcf0ff90506115cc565b6017821415611409577f2784f8220b1c963e468f590f137baaa1625b3b92a27ad9b6e84eb0d3454d996290506115cc565b601882141561143a577f16ace1a65b7534142f8cc1aad810b3d6a7a74ca905d9c275cb98ba57e509fc1090506115cc565b601982141561146b577f2328068c6a8c24265124debd8fe10d3f29f0665ea725a65e3638f6192a96a01390506115cc565b601a82141561149c577f2ddb991be1f028022411b4c4d2c22043e5e751c120736f00adf54acab1c9ac1490506115cc565b601b8214156114cd577f0113798410eaeb95056a464f70521eb58377c0155f2fe518a5594d38cc209cc090506115cc565b601c8214156114fe577f202d1ae61526f0d0d01ef80fb5d4055a7af45721024c2c24cffd6a3798f54d5090506115cc565b601d82141561152f577f23ab323453748129f2765f79615022f5bebd6f4096a796300aab049a60b0f18790506115cc565b601e821415611560577f1f15585f8947e378bcf8bd918716799da909acdb944c57150b1eb4565fda8aa090506115cc565b601f821415611591577f1eb064b21055ac6a350cf41eb30e4ce2cb19680217df3a243617c2838185ad0690506115cc565b6040517f08c379a00000000000000000000000000000000000000000000000000000000081526004016115c390612394565b60405180910390fd5b919050565b60007f30644e72e131a029b85045b68181585d2833e84879b9709143e1f593f00000018610611635576040517f08c379a000000000000000000000000000000000000000000000000000000000815260040161162c90612274565b60405180910390fd5b8660010154838390501480156116515750866001015485859050145b611690576040517f08c379a000000000000000000000000000000000000000000000000000000000815260040161168790612374565b60405180910390fd5b600086905060005b88600101548160ff1610156118e6577f30644e72e131a029b85045b68181585d2833e84879b9709143e1f593f000000187878360ff168181106116de576116dd612817565b5b9050602002013510611725576040517f08c379a000000000000000000000000000000000000000000000000000000000815260040161171c90612294565b60405180910390fd5b600085858360ff1681811061173d5761173c612817565b5b90506020020160208101906117529190611db6565b60ff1614156118195773__$7dbbf6f96c7ef3a793cfa7d9c67f652bb8$__6329a5f2f660405180604001604052808581526020018a8a8660ff1681811061179c5761179b612817565b5b905060200201358152506040518263ffffffff1660e01b81526004016117c291906121e1565b60206040518083038186803b1580156117da57600080fd5b505af41580156117ee573d6000803e3d6000fd5b505050506040513d601f19601f820116820180604052508101906118129190611d89565b91506118d3565b73__$7dbbf6f96c7ef3a793cfa7d9c67f652bb8$__6329a5f2f660405180604001604052808a8a8660ff1681811061185457611853612817565b5b905060200201358152602001858152506040518263ffffffff1660e01b815260040161188091906121e1565b60206040518083038186803b15801561189857600080fd5b505af41580156118ac573d6000803e3d6000fd5b505050506040513d601f19601f820116820180604052508101906118d09190611d89565b91505b80806118de906127aa565b915050611698565b508760030160008960020160009054906101000a900463ffffffff1663ffffffff1681526020019081526020016000205481149150509695505050505050565b6040518060800160405280600081526020016000815260200160008152602001600080191681525090565b600061196461195f8461242a565b612405565b9050808382526020820190508285602086028201111561198757611986612894565b5b60005b858110156119b7578161199d8882611ac5565b84526020840193506020830192505060018101905061198a565b5050509392505050565b60008083601f8401126119d7576119d661288f565b5b8235905067ffffffffffffffff8111156119f4576119f361288a565b5b602083019150836020820283011115611a1057611a0f612894565b5b9250929050565b600082601f830112611a2c57611a2b61288f565b5b8135611a3c848260208601611951565b91505092915050565b60008083601f840112611a5b57611a5a61288f565b5b8235905067ffffffffffffffff811115611a7857611a7761288a565b5b602083019150836020820283011115611a9457611a93612894565b5b9250929050565b600081359050611aaa81612bda565b92915050565b600081359050611abf81612bf1565b92915050565b600081359050611ad481612c08565b92915050565b600081519050611ae981612c08565b92915050565b600081359050611afe81612c1f565b92915050565b600060208284031215611b1a57611b1961289e565b5b6000611b2884828501611a9b565b91505092915050565b600060208284031215611b4757611b4661289e565b5b6000611b5584828501611ab0565b91505092915050565b60008060408385031215611b7557611b7461289e565b5b6000611b8385828601611ab0565b925050602083013567ffffffffffffffff811115611ba457611ba3612899565b5b611bb085828601611a17565b9150509250929050565b60008060408385031215611bd157611bd061289e565b5b6000611bdf85828601611ab0565b9250506020611bf085828601611ac5565b9150509250929050565b600080600060608486031215611c1357611c1261289e565b5b6000611c2186828701611ab0565b9350506020611c3286828701611ac5565b9250506040611c4386828701611ac5565b9150509250925092565b600080600080600080600060a0888a031215611c6c57611c6b61289e565b5b6000611c7a8a828b01611ab0565b9750506020611c8b8a828b01611ac5565b9650506040611c9c8a828b01611ac5565b955050606088013567ffffffffffffffff811115611cbd57611cbc612899565b5b611cc98a828b016119c1565b9450945050608088013567ffffffffffffffff811115611cec57611ceb612899565b5b611cf88a828b01611a45565b925092505092959891949750929550565b600080600060608486031215611d2257611d2161289e565b5b6000611d3086828701611ab0565b9350506020611d4186828701611ac5565b9250506040611d5286828701611aef565b9150509250925092565b600060208284031215611d7257611d7161289e565b5b6000611d8084828501611ac5565b91505092915050565b600060208284031215611d9f57611d9e61289e565b5b6000611dad84828501611ada565b91505092915050565b600060208284031215611dcc57611dcb61289e565b5b6000611dda84828501611aef565b91505092915050565b6000611def8383612102565b60808301905092915050565b6000611e078383612166565b60208301905092915050565b6000611e1e82612490565b611e2881856124e3565b9350611e3383612456565b8060005b83811015611e64578151611e4b8882611de3565b9750611e56836124bc565b925050600181019050611e37565b5085935050505092915050565b611e7a8161249b565b611e8481846124f4565b9250611e8f82612466565b8060005b83811015611ec0578151611ea78782611dfb565b9650611eb2836124c9565b925050600181019050611e93565b505050505050565b6000611ed3826124a6565b611edd81856124ff565b9350611ee883612470565b8060005b83811015611f19578151611f008882611dfb565b9750611f0b836124d6565b925050600181019050611eec565b5085935050505092915050565b611f2f816125ae565b82525050565b611f3e816125ba565b82525050565b611f55611f50826125ba565b6127d4565b82525050565b611f64816125e6565b82525050565b611f7b611f76826125f0565b6127de565b82525050565b6000611f8e603b83612510565b9150611f99826128c1565b604082019050919050565b6000611fb1604083612510565b9150611fbc82612910565b604082019050919050565b6000611fd4604883612510565b9150611fdf8261295f565b606082019050919050565b6000611ff7601c83612510565b9150612002826129d4565b602082019050919050565b600061201a604283612510565b9150612025826129fd565b606082019050919050565b600061203d601883612510565b915061204882612a72565b602082019050919050565b6000612060603083612510565b915061206b82612a9b565b604082019050919050565b6000612083602e83612510565b915061208e82612aea565b604082019050919050565b60006120a6601b83612510565b91506120b182612b39565b602082019050919050565b60006120c9603c83612510565b91506120d482612b62565b604082019050919050565b60006120ec601383612510565b91506120f782612bb1565b602082019050919050565b6080820160008201516121186000850182612166565b50602082015161212b6020850182612166565b50604082015161213e6040850182612166565b5060608201516121516060850182611f5b565b50505050565b61216081612652565b82525050565b61216f81612652565b82525050565b61217e8161266c565b82525050565b61218d8161267e565b82525050565b600061219f8285611f44565b6002820191506121af8284611f6a565b6004820191508190509392505050565b600060208201905081810360008301526121d98184611e13565b905092915050565b60006040820190506121f66000830184611e71565b92915050565b600060208201905081810360008301526122168184611ec8565b905092915050565b60006020820190506122336000830184611f26565b92915050565b600060208201905061224e6000830184611f35565b92915050565b6000602082019050818103600083015261226d81611f81565b9050919050565b6000602082019050818103600083015261228d81611fa4565b9050919050565b600060208201905081810360008301526122ad81611fc7565b9050919050565b600060208201905081810360008301526122cd81611fea565b9050919050565b600060208201905081810360008301526122ed8161200d565b9050919050565b6000602082019050818103600083015261230d81612030565b9050919050565b6000602082019050818103600083015261232d81612053565b9050919050565b6000602082019050818103600083015261234d81612076565b9050919050565b6000602082019050818103600083015261236d81612099565b9050919050565b6000602082019050818103600083015261238d816120bc565b9050919050565b600060208201905081810360008301526123ad816120df565b9050919050565b60006020820190506123c96000830184612157565b92915050565b60006020820190506123e46000830184612175565b92915050565b60006020820190506123ff6000830184612184565b92915050565b600061240f612420565b905061241b8282612730565b919050565b6000604051905090565b600067ffffffffffffffff82111561244557612444612846565b5b602082029050602081019050919050565b6000819050602082019050919050565b6000819050919050565b6000819050602082019050919050565b6000819050602082019050919050565b600081519050919050565b600060029050919050565b600081519050919050565b600081519050919050565b6000602082019050919050565b6000602082019050919050565b6000602082019050919050565b600082825260208201905092915050565b600081905092915050565b600082825260208201905092915050565b600082825260208201905092915050565b600061252c82612652565b915061253783612652565b9250827fffffffffffffffffffffffffffffffffffffffffffffffffffffffffffffffff0382111561256c5761256b6127e8565b5b828201905092915050565b600061258282612692565b915061258d83612692565b92508260ff038211156125a3576125a26127e8565b5b828201905092915050565b60008115159050919050565b60007fffff00000000000000000000000000000000000000000000000000000000000082169050919050565b6000819050919050565b60007fffffffff0000000000000000000000000000000000000000000000000000000082169050919050565b60007fffffffffffff000000000000000000000000000000000000000000000000000082169050919050565b6000819050919050565b6000819050919050565b600063ffffffff82169050919050565b600065ffffffffffff82169050919050565b600067ffffffffffffffff82169050919050565b600060ff82169050919050565b60006126aa826124b1565b826126b484612480565b90506126bf81612875565b925060068210156126ff576126fa7fffffffffffff0000000000000000000000000000000000000000000000000000836006036008026128b4565b831692505b5050919050565b60006127118261265c565b91506000821415612725576127246127e8565b5b600182039050919050565b612739826128a3565b810181811067ffffffffffffffff8211171561275857612757612846565b5b80604052505050565b600061276c82612652565b91507fffffffffffffffffffffffffffffffffffffffffffffffffffffffffffffffff82141561279f5761279e6127e8565b5b600182019050919050565b60006127b582612692565b915060ff8214156127c9576127c86127e8565b5b600182019050919050565b6000819050919050565b6000819050919050565b7f4e487b7100000000000000000000000000000000000000000000000000000000600052601160045260246000fd5b7f4e487b7100000000000000000000000000000000000000000000000000000000600052603260045260246000fd5b7f4e487b7100000000000000000000000000000000000000000000000000000000600052604160045260246000fd5b6000612881825161261c565b80915050919050565b600080fd5b600080fd5b600080fd5b600080fd5b600080fd5b6000601f19601f8301169050919050565b600082821b905092915050565b7f4c696e6b61626c65496e6372656d656e74616c42696e617279547265653a206c60008201527f656166206973206e6f742070617274206f662074686520747265650000000000602082015250565b7f4c696e6b61626c65496e6372656d656e74616c42696e617279547265653a206c60008201527f656166206d757374206265203c20534e41524b5f5343414c41525f4649454c44602082015250565b7f4c696e6b61626c65496e6372656d656e74616c42696e617279547265653a207360008201527f69626c696e67206e6f6465206d757374206265203c20534e41524b5f5343414c60208201527f41525f4649454c44000000000000000000000000000000000000000000000000604082015250565b7f43616e6e6f742066696e6420796f7572206d65726b6c6520726f6f7400000000600082015250565b7f4c696e6b61626c65496e6372656d656e74616c42696e617279547265653a207460008201527f726565206465707468206d757374206265206265747765656e203120616e642060208201527f3332000000000000000000000000000000000000000000000000000000000000604082015250565b7f4e65696768626f757220726f6f74206e6f7420666f756e640000000000000000600082015250565b7f6e6f6e2d6578697374656e742065646765206973206e6f742073657420746f2060008201527f7468652064656661756c7420726f6f7400000000000000000000000000000000602082015250565b7f496e6372656d656e74616c42696e617279547265653a206c65616620696e646560008201527f78206f7574206f662072616e6765000000000000000000000000000000000000602082015250565b7f496e636f727265637420726f6f74206172726179206c656e6774680000000000600082015250565b7f4c696e6b61626c65496e6372656d656e74616c42696e617279547265653a206c60008201527f656e677468206f662070617468206973206e6f7420636f727265637400000000602082015250565b7f496e646578206f7574206f6620626f756e647300000000000000000000000000600082015250565b612be3816125e6565b8114612bee57600080fd5b50565b612bfa81612648565b8114612c0557600080fd5b50565b612c1181612652565b8114612c1c57600080fd5b50565b612c2881612692565b8114612c3357600080fd5b5056fea26469706673582212205a06039b819790851bf535df2c7d7bb84c96ccfa1beff0ee8eb2bb4e9a7af73664736f6c63430008060033","opcodes":"PUSH2 0x2C6C PUSH2 0x53 PUSH1 0xB DUP3 DUP3 DUP3 CODECOPY DUP1 MLOAD PUSH1 0x0 BYTE PUSH1 0x73 EQ PUSH2 0x46 JUMPI PUSH32 0x4E487B7100000000000000000000000000000000000000000000000000000000 PUSH1 0x0 MSTORE PUSH1 0x0 PUSH1 0x4 MSTORE PUSH1 0x24 PUSH1 0x0 REVERT JUMPDEST ADDRESS PUSH1 0x0 MSTORE PUSH1 0x73 DUP2 MSTORE8 DUP3 DUP2 RETURN INVALID PUSH20 0x0 ADDRESS EQ PUSH1 0x80 PUSH1 0x40 MSTORE PUSH1 0x4 CALLDATASIZE LT PUSH2 0xF4 JUMPI PUSH1 0x0 CALLDATALOAD PUSH1 0xE0 SHR DUP1 PUSH4 0x74D4479E GT PUSH2 0x96 JUMPI DUP1 PUSH4 0xC2230D6E GT PUSH2 0x70 JUMPI DUP1 PUSH4 0xC2230D6E EQ PUSH2 0x295 JUMPI DUP1 PUSH4 0xCE8F1F35 EQ PUSH2 0x2C5 JUMPI DUP1 PUSH4 0xE4F91356 EQ PUSH2 0x2F5 JUMPI DUP1 PUSH4 0xE8295588 EQ PUSH2 0x325 JUMPI PUSH2 0xF4 JUMP JUMPDEST DUP1 PUSH4 0x74D4479E EQ PUSH2 0x21E JUMPI DUP1 PUSH4 0x84C5969F EQ PUSH2 0x24E JUMPI DUP1 PUSH4 0x8B7E8782 EQ PUSH2 0x277 JUMPI PUSH2 0xF4 JUMP JUMPDEST DUP1 PUSH4 0x3408E470 GT PUSH2 0xD2 JUMPI DUP1 PUSH4 0x3408E470 EQ PUSH2 0x182 JUMPI DUP1 PUSH4 0x424C5FAB EQ PUSH2 0x1A0 JUMPI DUP1 PUSH4 0x4C830CBD EQ PUSH2 0x1D0 JUMPI DUP1 PUSH4 0x5E295F54 EQ PUSH2 0x1EE JUMPI PUSH2 0xF4 JUMP JUMPDEST DUP1 PUSH4 0x11BCBF8E EQ PUSH2 0xF9 JUMPI DUP1 PUSH4 0x243DE1F1 EQ PUSH2 0x129 JUMPI DUP1 PUSH4 0x3330CA3A EQ PUSH2 0x159 JUMPI JUMPDEST PUSH1 0x0 DUP1 REVERT JUMPDEST PUSH2 0x113 PUSH1 0x4 DUP1 CALLDATASIZE SUB DUP2 ADD SWAP1 PUSH2 0x10E SWAP2 SWAP1 PUSH2 0x1BFA JUMP JUMPDEST PUSH2 0x355 JUMP JUMPDEST PUSH1 0x40 MLOAD PUSH2 0x120 SWAP2 SWAP1 PUSH2 0x221E JUMP JUMPDEST PUSH1 0x40 MLOAD DUP1 SWAP2 SUB SWAP1 RETURN JUMPDEST PUSH2 0x143 PUSH1 0x4 DUP1 CALLDATASIZE SUB DUP2 ADD SWAP1 PUSH2 0x13E SWAP2 SWAP1 PUSH2 0x1B31 JUMP JUMPDEST PUSH2 0x421 JUMP JUMPDEST PUSH1 0x40 MLOAD PUSH2 0x150 SWAP2 SWAP1 PUSH2 0x21FC JUMP JUMPDEST PUSH1 0x40 MLOAD DUP1 SWAP2 SUB SWAP1 RETURN JUMPDEST DUP2 DUP1 ISZERO PUSH2 0x165 JUMPI PUSH1 0x0 DUP1 REVERT JUMPDEST POP PUSH2 0x180 PUSH1 0x4 DUP1 CALLDATASIZE SUB DUP2 ADD SWAP1 PUSH2 0x17B SWAP2 SWAP1 PUSH2 0x1D09 JUMP JUMPDEST PUSH2 0x553 JUMP JUMPDEST STOP JUMPDEST PUSH2 0x18A PUSH2 0x5F3 JUMP JUMPDEST PUSH1 0x40 MLOAD PUSH2 0x197 SWAP2 SWAP1 PUSH2 0x23B4 JUMP JUMPDEST PUSH1 0x40 MLOAD DUP1 SWAP2 SUB SWAP1 RETURN JUMPDEST PUSH2 0x1BA PUSH1 0x4 DUP1 CALLDATASIZE SUB DUP2 ADD SWAP1 PUSH2 0x1B5 SWAP2 SWAP1 PUSH2 0x1B31 JUMP JUMPDEST PUSH2 0x600 JUMP JUMPDEST PUSH1 0x40 MLOAD PUSH2 0x1C7 SWAP2 SWAP1 PUSH2 0x21BF JUMP JUMPDEST PUSH1 0x40 MLOAD DUP1 SWAP2 SUB SWAP1 RETURN JUMPDEST PUSH2 0x1D8 PUSH2 0x78F JUMP JUMPDEST PUSH1 0x40 MLOAD PUSH2 0x1E5 SWAP2 SWAP1 PUSH2 0x23CF JUMP JUMPDEST PUSH1 0x40 MLOAD DUP1 SWAP2 SUB SWAP1 RETURN JUMPDEST PUSH2 0x208 PUSH1 0x4 DUP1 CALLDATASIZE SUB DUP2 ADD SWAP1 PUSH2 0x203 SWAP2 SWAP1 PUSH2 0x1BBA JUMP JUMPDEST PUSH2 0x7E4 JUMP JUMPDEST PUSH1 0x40 MLOAD PUSH2 0x215 SWAP2 SWAP1 PUSH2 0x221E JUMP JUMPDEST PUSH1 0x40 MLOAD DUP1 SWAP2 SUB SWAP1 RETURN JUMPDEST PUSH2 0x238 PUSH1 0x4 DUP1 CALLDATASIZE SUB DUP2 ADD SWAP1 PUSH2 0x233 SWAP2 SWAP1 PUSH2 0x1B5E JUMP JUMPDEST PUSH2 0x887 JUMP JUMPDEST PUSH1 0x40 MLOAD PUSH2 0x245 SWAP2 SWAP1 PUSH2 0x221E JUMP JUMPDEST PUSH1 0x40 MLOAD DUP1 SWAP2 SUB SWAP1 RETURN JUMPDEST DUP2 DUP1 ISZERO PUSH2 0x25A JUMPI PUSH1 0x0 DUP1 REVERT JUMPDEST POP PUSH2 0x275 PUSH1 0x4 DUP1 CALLDATASIZE SUB DUP2 ADD SWAP1 PUSH2 0x270 SWAP2 SWAP1 PUSH2 0x1C4D JUMP JUMPDEST PUSH2 0xAFC JUMP JUMPDEST STOP JUMPDEST PUSH2 0x27F PUSH2 0xEE9 JUMP JUMPDEST PUSH1 0x40 MLOAD PUSH2 0x28C SWAP2 SWAP1 PUSH2 0x2239 JUMP JUMPDEST PUSH1 0x40 MLOAD DUP1 SWAP2 SUB SWAP1 RETURN JUMPDEST PUSH2 0x2AF PUSH1 0x4 DUP1 CALLDATASIZE SUB DUP2 ADD SWAP1 PUSH2 0x2AA SWAP2 SWAP1 PUSH2 0x1B04 JUMP JUMPDEST PUSH2 0xEF2 JUMP JUMPDEST PUSH1 0x40 MLOAD PUSH2 0x2BC SWAP2 SWAP1 PUSH2 0x23EA JUMP JUMPDEST PUSH1 0x40 MLOAD DUP1 SWAP2 SUB SWAP1 RETURN JUMPDEST PUSH2 0x2DF PUSH1 0x4 DUP1 CALLDATASIZE SUB DUP2 ADD SWAP1 PUSH2 0x2DA SWAP2 SWAP1 PUSH2 0x1B31 JUMP JUMPDEST PUSH2 0xF0B JUMP JUMPDEST PUSH1 0x40 MLOAD PUSH2 0x2EC SWAP2 SWAP1 PUSH2 0x23B4 JUMP JUMPDEST PUSH1 0x40 MLOAD DUP1 SWAP2 SUB SWAP1 RETURN JUMPDEST PUSH2 0x30F PUSH1 0x4 DUP1 CALLDATASIZE SUB DUP2 ADD SWAP1 PUSH2 0x30A SWAP2 SWAP1 PUSH2 0x1BBA JUMP JUMPDEST PUSH2 0xF44 JUMP JUMPDEST PUSH1 0x40 MLOAD PUSH2 0x31C SWAP2 SWAP1 PUSH2 0x221E JUMP JUMPDEST PUSH1 0x40 MLOAD DUP1 SWAP2 SUB SWAP1 RETURN JUMPDEST PUSH2 0x33F PUSH1 0x4 DUP1 CALLDATASIZE SUB DUP2 ADD SWAP1 PUSH2 0x33A SWAP2 SWAP1 PUSH2 0x1D5C JUMP JUMPDEST PUSH2 0xF71 JUMP JUMPDEST PUSH1 0x40 MLOAD PUSH2 0x34C SWAP2 SWAP1 PUSH2 0x23B4 JUMP JUMPDEST PUSH1 0x40 MLOAD DUP1 SWAP2 SUB SWAP1 RETURN JUMPDEST PUSH1 0x0 DUP1 DUP3 EQ ISZERO PUSH2 0x368 JUMPI PUSH1 0x0 SWAP1 POP PUSH2 0x41A JUMP JUMPDEST PUSH1 0x0 DUP5 PUSH1 0xA ADD PUSH1 0x0 DUP6 DUP2 MSTORE PUSH1 0x20 ADD SWAP1 DUP2 MSTORE PUSH1 0x20 ADD PUSH1 0x0 KECCAK256 PUSH1 0x0 SWAP1 SLOAD SWAP1 PUSH2 0x100 EXP SWAP1 DIV PUSH4 0xFFFFFFFF AND SWAP1 POP PUSH1 0x0 DUP2 SWAP1 POP JUMPDEST DUP6 PUSH1 0x9 ADD PUSH1 0x0 DUP7 DUP2 MSTORE PUSH1 0x20 ADD SWAP1 DUP2 MSTORE PUSH1 0x20 ADD PUSH1 0x0 KECCAK256 PUSH1 0x0 DUP3 PUSH4 0xFFFFFFFF AND PUSH4 0xFFFFFFFF AND DUP2 MSTORE PUSH1 0x20 ADD SWAP1 DUP2 MSTORE PUSH1 0x20 ADD PUSH1 0x0 KECCAK256 SLOAD DUP5 EQ ISZERO PUSH2 0x3DD JUMPI PUSH1 0x1 SWAP3 POP POP POP PUSH2 0x41A JUMP JUMPDEST PUSH1 0x0 DUP2 PUSH4 0xFFFFFFFF AND EQ ISZERO PUSH2 0x3F1 JUMPI PUSH1 0x1E SWAP1 POP JUMPDEST DUP1 DUP1 PUSH2 0x3FC SWAP1 PUSH2 0x2706 JUMP JUMPDEST SWAP2 POP POP DUP2 PUSH4 0xFFFFFFFF AND DUP2 PUSH4 0xFFFFFFFF AND EQ ISZERO PUSH2 0x398 JUMPI PUSH1 0x0 SWAP3 POP POP POP JUMPDEST SWAP4 SWAP3 POP POP POP JUMP JUMPDEST PUSH1 0x60 PUSH1 0x0 DUP3 PUSH1 0x0 ADD PUSH1 0x0 SWAP1 SLOAD SWAP1 PUSH2 0x100 EXP SWAP1 DIV PUSH1 0xFF AND PUSH1 0xFF AND PUSH8 0xFFFFFFFFFFFFFFFF DUP2 GT ISZERO PUSH2 0x453 JUMPI PUSH2 0x452 PUSH2 0x2846 JUMP JUMPDEST JUMPDEST PUSH1 0x40 MLOAD SWAP1 DUP1 DUP3 MSTORE DUP1 PUSH1 0x20 MUL PUSH1 0x20 ADD DUP3 ADD PUSH1 0x40 MSTORE DUP1 ISZERO PUSH2 0x481 JUMPI DUP2 PUSH1 0x20 ADD PUSH1 0x20 DUP3 MUL DUP1 CALLDATASIZE DUP4 CALLDATACOPY DUP1 DUP3 ADD SWAP2 POP POP SWAP1 POP JUMPDEST POP SWAP1 POP PUSH1 0x0 JUMPDEST DUP4 PUSH1 0x0 ADD PUSH1 0x0 SWAP1 SLOAD SWAP1 PUSH2 0x100 EXP SWAP1 DIV PUSH1 0xFF AND PUSH1 0xFF AND DUP2 LT ISZERO PUSH2 0x549 JUMPI PUSH1 0x1 DUP2 PUSH2 0x4B0 SWAP2 SWAP1 PUSH2 0x2521 JUMP JUMPDEST DUP5 PUSH1 0x8 ADD DUP1 SLOAD SWAP1 POP LT PUSH2 0x509 JUMPI DUP4 PUSH1 0x8 ADD DUP2 DUP2 SLOAD DUP2 LT PUSH2 0x4D3 JUMPI PUSH2 0x4D2 PUSH2 0x2817 JUMP JUMPDEST JUMPDEST SWAP1 PUSH1 0x0 MSTORE PUSH1 0x20 PUSH1 0x0 KECCAK256 SWAP1 PUSH1 0x4 MUL ADD PUSH1 0x1 ADD SLOAD DUP3 DUP3 DUP2 MLOAD DUP2 LT PUSH2 0x4F8 JUMPI PUSH2 0x4F7 PUSH2 0x2817 JUMP JUMPDEST JUMPDEST PUSH1 0x20 MUL PUSH1 0x20 ADD ADD DUP2 DUP2 MSTORE POP POP PUSH2 0x536 JUMP JUMPDEST PUSH2 0x516 DUP5 PUSH1 0x1 ADD SLOAD PUSH2 0xF71 JUMP JUMPDEST DUP3 DUP3 DUP2 MLOAD DUP2 LT PUSH2 0x529 JUMPI PUSH2 0x528 PUSH2 0x2817 JUMP JUMPDEST JUMPDEST PUSH1 0x20 MUL PUSH1 0x20 ADD ADD DUP2 DUP2 MSTORE POP POP JUMPDEST DUP1 DUP1 PUSH2 0x541 SWAP1 PUSH2 0x2761 JUMP JUMPDEST SWAP2 POP POP PUSH2 0x487 JUMP JUMPDEST POP DUP1 SWAP2 POP POP SWAP2 SWAP1 POP JUMP JUMPDEST PUSH1 0x0 DUP3 GT DUP1 ISZERO PUSH2 0x567 JUMPI POP PUSH1 0x20 PUSH1 0xFF AND DUP3 GT ISZERO JUMPDEST PUSH2 0x5A6 JUMPI PUSH1 0x40 MLOAD PUSH32 0x8C379A000000000000000000000000000000000000000000000000000000000 DUP2 MSTORE PUSH1 0x4 ADD PUSH2 0x59D SWAP1 PUSH2 0x22D4 JUMP JUMPDEST PUSH1 0x40 MLOAD DUP1 SWAP2 SUB SWAP1 REVERT JUMPDEST DUP2 DUP4 PUSH1 0x1 ADD DUP2 SWAP1 SSTORE POP PUSH2 0x5B8 DUP3 PUSH2 0xF71 JUMP JUMPDEST DUP4 PUSH1 0x3 ADD PUSH1 0x0 DUP1 DUP2 MSTORE PUSH1 0x20 ADD SWAP1 DUP2 MSTORE PUSH1 0x20 ADD PUSH1 0x0 KECCAK256 DUP2 SWAP1 SSTORE POP DUP1 DUP4 PUSH1 0x0 ADD PUSH1 0x0 PUSH2 0x100 EXP DUP2 SLOAD DUP2 PUSH1 0xFF MUL NOT AND SWAP1 DUP4 PUSH1 0xFF AND MUL OR SWAP1 SSTORE POP POP POP POP JUMP JUMPDEST PUSH1 0x0 DUP1 CHAINID SWAP1 POP DUP1 SWAP2 POP POP SWAP1 JUMP JUMPDEST PUSH1 0x60 PUSH1 0x0 DUP3 PUSH1 0x0 ADD PUSH1 0x0 SWAP1 SLOAD SWAP1 PUSH2 0x100 EXP SWAP1 DIV PUSH1 0xFF AND PUSH1 0xFF AND PUSH8 0xFFFFFFFFFFFFFFFF DUP2 GT ISZERO PUSH2 0x632 JUMPI PUSH2 0x631 PUSH2 0x2846 JUMP JUMPDEST JUMPDEST PUSH1 0x40 MLOAD SWAP1 DUP1 DUP3 MSTORE DUP1 PUSH1 0x20 MUL PUSH1 0x20 ADD DUP3 ADD PUSH1 0x40 MSTORE DUP1 ISZERO PUSH2 0x66B JUMPI DUP2 PUSH1 0x20 ADD JUMPDEST PUSH2 0x658 PUSH2 0x1926 JUMP JUMPDEST DUP2 MSTORE PUSH1 0x20 ADD SWAP1 PUSH1 0x1 SWAP1 SUB SWAP1 DUP2 PUSH2 0x650 JUMPI SWAP1 POP JUMPDEST POP SWAP1 POP PUSH1 0x0 JUMPDEST DUP4 PUSH1 0x0 ADD PUSH1 0x0 SWAP1 SLOAD SWAP1 PUSH2 0x100 EXP SWAP1 DIV PUSH1 0xFF AND PUSH1 0xFF AND DUP2 LT ISZERO PUSH2 0x785 JUMPI PUSH1 0x1 DUP2 PUSH2 0x69A SWAP2 SWAP1 PUSH2 0x2521 JUMP JUMPDEST DUP5 PUSH1 0x8 ADD DUP1 SLOAD SWAP1 POP LT PUSH2 0x721 JUMPI DUP4 PUSH1 0x8 ADD DUP2 DUP2 SLOAD DUP2 LT PUSH2 0x6BD JUMPI PUSH2 0x6BC PUSH2 0x2817 JUMP JUMPDEST JUMPDEST SWAP1 PUSH1 0x0 MSTORE PUSH1 0x20 PUSH1 0x0 KECCAK256 SWAP1 PUSH1 0x4 MUL ADD PUSH1 0x40 MLOAD DUP1 PUSH1 0x80 ADD PUSH1 0x40 MSTORE SWAP1 DUP2 PUSH1 0x0 DUP3 ADD SLOAD DUP2 MSTORE PUSH1 0x20 ADD PUSH1 0x1 DUP3 ADD SLOAD DUP2 MSTORE PUSH1 0x20 ADD PUSH1 0x2 DUP3 ADD SLOAD DUP2 MSTORE PUSH1 0x20 ADD PUSH1 0x3 DUP3 ADD SLOAD DUP2 MSTORE POP POP DUP3 DUP3 DUP2 MLOAD DUP2 LT PUSH2 0x711 JUMPI PUSH2 0x710 PUSH2 0x2817 JUMP JUMPDEST JUMPDEST PUSH1 0x20 MUL PUSH1 0x20 ADD ADD DUP2 SWAP1 MSTORE POP PUSH2 0x772 JUMP JUMPDEST PUSH1 0x40 MLOAD DUP1 PUSH1 0x80 ADD PUSH1 0x40 MSTORE DUP1 PUSH1 0x0 DUP2 MSTORE PUSH1 0x20 ADD PUSH2 0x740 DUP7 PUSH1 0x1 ADD SLOAD PUSH2 0xF71 JUMP JUMPDEST DUP2 MSTORE PUSH1 0x20 ADD PUSH1 0x0 DUP2 MSTORE PUSH1 0x20 ADD PUSH1 0x0 DUP1 SHL DUP2 MSTORE POP DUP3 DUP3 DUP2 MLOAD DUP2 LT PUSH2 0x766 JUMPI PUSH2 0x765 PUSH2 0x2817 JUMP JUMPDEST JUMPDEST PUSH1 0x20 MUL PUSH1 0x20 ADD ADD DUP2 SWAP1 MSTORE POP JUMPDEST DUP1 DUP1 PUSH2 0x77D SWAP1 PUSH2 0x2761 JUMP JUMPDEST SWAP2 POP POP PUSH2 0x671 JUMP JUMPDEST POP DUP1 SWAP2 POP POP SWAP2 SWAP1 POP JUMP JUMPDEST PUSH1 0x0 DUP1 PUSH2 0x79A PUSH2 0x5F3 JUMP JUMPDEST PUSH1 0xE0 SHL SWAP1 POP PUSH1 0x0 PUSH2 0x100 PUSH1 0xF0 SHL SWAP1 POP PUSH1 0x0 DUP2 DUP4 PUSH1 0x40 MLOAD PUSH1 0x20 ADD PUSH2 0x7BE SWAP3 SWAP2 SWAP1 PUSH2 0x2193 JUMP JUMPDEST PUSH1 0x40 MLOAD PUSH1 0x20 DUP2 DUP4 SUB SUB DUP2 MSTORE SWAP1 PUSH1 0x40 MSTORE SWAP1 POP DUP1 PUSH2 0x7D9 SWAP1 PUSH2 0x269F JUMP JUMPDEST PUSH1 0xD0 SHR SWAP4 POP POP POP POP SWAP1 JUMP JUMPDEST PUSH1 0x0 DUP1 DUP3 EQ ISZERO PUSH2 0x7F7 JUMPI PUSH1 0x0 SWAP1 POP PUSH2 0x881 JUMP JUMPDEST PUSH1 0x0 DUP4 PUSH1 0x2 ADD PUSH1 0x0 SWAP1 SLOAD SWAP1 PUSH2 0x100 EXP SWAP1 DIV PUSH4 0xFFFFFFFF AND SWAP1 POP PUSH1 0x0 DUP2 SWAP1 POP JUMPDEST DUP5 PUSH1 0x3 ADD PUSH1 0x0 DUP3 PUSH4 0xFFFFFFFF AND DUP2 MSTORE PUSH1 0x20 ADD SWAP1 DUP2 MSTORE PUSH1 0x20 ADD PUSH1 0x0 KECCAK256 SLOAD DUP5 EQ ISZERO PUSH2 0x844 JUMPI PUSH1 0x1 SWAP3 POP POP POP PUSH2 0x881 JUMP JUMPDEST PUSH1 0x0 DUP2 PUSH4 0xFFFFFFFF AND EQ ISZERO PUSH2 0x858 JUMPI PUSH1 0x1E SWAP1 POP JUMPDEST DUP1 DUP1 PUSH2 0x863 SWAP1 PUSH2 0x2706 JUMP JUMPDEST SWAP2 POP POP DUP2 PUSH4 0xFFFFFFFF AND DUP2 PUSH4 0xFFFFFFFF AND EQ ISZERO PUSH2 0x816 JUMPI PUSH1 0x0 SWAP3 POP POP POP JUMPDEST SWAP3 SWAP2 POP POP JUMP JUMPDEST PUSH1 0x0 PUSH2 0x8AE DUP4 DUP4 PUSH1 0x0 DUP2 MLOAD DUP2 LT PUSH2 0x8A1 JUMPI PUSH2 0x8A0 PUSH2 0x2817 JUMP JUMPDEST JUMPDEST PUSH1 0x20 MUL PUSH1 0x20 ADD ADD MLOAD PUSH2 0x7E4 JUMP JUMPDEST PUSH2 0x8ED JUMPI PUSH1 0x40 MLOAD PUSH32 0x8C379A000000000000000000000000000000000000000000000000000000000 DUP2 MSTORE PUSH1 0x4 ADD PUSH2 0x8E4 SWAP1 PUSH2 0x22B4 JUMP JUMPDEST PUSH1 0x40 MLOAD DUP1 SWAP2 SUB SWAP1 REVERT JUMPDEST PUSH1 0x1 DUP4 PUSH1 0x0 ADD PUSH1 0x0 SWAP1 SLOAD SWAP1 PUSH2 0x100 EXP SWAP1 DIV PUSH1 0xFF AND PUSH2 0x90B SWAP2 SWAP1 PUSH2 0x2577 JUMP JUMPDEST PUSH1 0xFF AND DUP3 MLOAD EQ PUSH2 0x950 JUMPI PUSH1 0x40 MLOAD PUSH32 0x8C379A000000000000000000000000000000000000000000000000000000000 DUP2 MSTORE PUSH1 0x4 ADD PUSH2 0x947 SWAP1 PUSH2 0x2354 JUMP JUMPDEST PUSH1 0x40 MLOAD DUP1 SWAP2 SUB SWAP1 REVERT JUMPDEST PUSH1 0x0 PUSH1 0x1 SWAP1 POP PUSH1 0x0 JUMPDEST DUP5 PUSH1 0x8 ADD DUP1 SLOAD SWAP1 POP DUP2 LT ISZERO PUSH2 0xA4D JUMPI PUSH1 0x0 DUP6 PUSH1 0x8 ADD DUP3 DUP2 SLOAD DUP2 LT PUSH2 0x980 JUMPI PUSH2 0x97F PUSH2 0x2817 JUMP JUMPDEST JUMPDEST SWAP1 PUSH1 0x0 MSTORE PUSH1 0x20 PUSH1 0x0 KECCAK256 SWAP1 PUSH1 0x4 MUL ADD PUSH1 0x40 MLOAD DUP1 PUSH1 0x80 ADD PUSH1 0x40 MSTORE SWAP1 DUP2 PUSH1 0x0 DUP3 ADD SLOAD DUP2 MSTORE PUSH1 0x20 ADD PUSH1 0x1 DUP3 ADD SLOAD DUP2 MSTORE PUSH1 0x20 ADD PUSH1 0x2 DUP3 ADD SLOAD DUP2 MSTORE PUSH1 0x20 ADD PUSH1 0x3 DUP3 ADD SLOAD DUP2 MSTORE POP POP SWAP1 POP PUSH2 0x9EC DUP7 DUP3 PUSH1 0x0 ADD MLOAD DUP8 DUP7 DUP2 MLOAD DUP2 LT PUSH2 0x9DF JUMPI PUSH2 0x9DE PUSH2 0x2817 JUMP JUMPDEST JUMPDEST PUSH1 0x20 MUL PUSH1 0x20 ADD ADD MLOAD PUSH2 0x355 JUMP JUMPDEST PUSH2 0xA2B JUMPI PUSH1 0x40 MLOAD PUSH32 0x8C379A000000000000000000000000000000000000000000000000000000000 DUP2 MSTORE PUSH1 0x4 ADD PUSH2 0xA22 SWAP1 PUSH2 0x22F4 JUMP JUMPDEST PUSH1 0x40 MLOAD DUP1 SWAP2 SUB SWAP1 REVERT JUMPDEST DUP3 DUP1 PUSH2 0xA36 SWAP1 PUSH2 0x2761 JUMP JUMPDEST SWAP4 POP POP POP DUP1 DUP1 PUSH2 0xA45 SWAP1 PUSH2 0x2761 JUMP JUMPDEST SWAP2 POP POP PUSH2 0x959 JUMP JUMPDEST POP JUMPDEST PUSH1 0x1 DUP5 PUSH1 0x0 ADD PUSH1 0x0 SWAP1 SLOAD SWAP1 PUSH2 0x100 EXP SWAP1 DIV PUSH1 0xFF AND PUSH2 0xA6D SWAP2 SWAP1 PUSH2 0x2577 JUMP JUMPDEST PUSH1 0xFF AND DUP2 EQ PUSH2 0xAF1 JUMPI PUSH2 0xA83 DUP5 PUSH1 0x1 ADD SLOAD PUSH2 0xF71 JUMP JUMPDEST DUP4 DUP3 DUP2 MLOAD DUP2 LT PUSH2 0xA96 JUMPI PUSH2 0xA95 PUSH2 0x2817 JUMP JUMPDEST JUMPDEST PUSH1 0x20 MUL PUSH1 0x20 ADD ADD MLOAD EQ PUSH2 0xADE JUMPI PUSH1 0x40 MLOAD PUSH32 0x8C379A000000000000000000000000000000000000000000000000000000000 DUP2 MSTORE PUSH1 0x4 ADD PUSH2 0xAD5 SWAP1 PUSH2 0x2314 JUMP JUMPDEST PUSH1 0x40 MLOAD DUP1 SWAP2 SUB SWAP1 REVERT JUMPDEST DUP1 DUP1 PUSH2 0xAE9 SWAP1 PUSH2 0x2761 JUMP JUMPDEST SWAP2 POP POP PUSH2 0xA4F JUMP JUMPDEST PUSH1 0x1 SWAP2 POP POP SWAP3 SWAP2 POP POP JUMP JUMPDEST PUSH2 0xB0A DUP8 DUP8 DUP7 DUP7 DUP7 DUP7 PUSH2 0x15D1 JUMP JUMPDEST PUSH2 0xB49 JUMPI PUSH1 0x40 MLOAD PUSH32 0x8C379A000000000000000000000000000000000000000000000000000000000 DUP2 MSTORE PUSH1 0x4 ADD PUSH2 0xB40 SWAP1 PUSH2 0x2254 JUMP JUMPDEST PUSH1 0x40 MLOAD DUP1 SWAP2 SUB SWAP1 REVERT JUMPDEST PUSH1 0x0 DUP8 PUSH1 0x1 ADD SLOAD SWAP1 POP PUSH1 0x0 DUP7 SWAP1 POP PUSH1 0x0 DUP1 PUSH1 0x0 SWAP1 POP JUMPDEST DUP4 DUP2 PUSH1 0xFF AND LT ISZERO PUSH2 0xE62 JUMPI DUP1 PUSH1 0xFF AND PUSH1 0x1 DUP8 DUP8 DUP5 PUSH1 0xFF AND DUP2 DUP2 LT PUSH2 0xB86 JUMPI PUSH2 0xB85 PUSH2 0x2817 JUMP JUMPDEST JUMPDEST SWAP1 POP PUSH1 0x20 MUL ADD PUSH1 0x20 DUP2 ADD SWAP1 PUSH2 0xB9B SWAP2 SWAP1 PUSH2 0x1DB6 JUMP JUMPDEST AND PUSH1 0xFF AND SWAP1 SHL DUP3 OR SWAP2 POP PUSH1 0x0 DUP7 DUP7 DUP4 PUSH1 0xFF AND DUP2 DUP2 LT PUSH2 0xBBD JUMPI PUSH2 0xBBC PUSH2 0x2817 JUMP JUMPDEST JUMPDEST SWAP1 POP PUSH1 0x20 MUL ADD PUSH1 0x20 DUP2 ADD SWAP1 PUSH2 0xBD2 SWAP2 SWAP1 PUSH2 0x1DB6 JUMP JUMPDEST PUSH1 0xFF AND EQ ISZERO PUSH2 0xD1B JUMPI DUP11 PUSH1 0x5 ADD PUSH1 0x0 DUP3 PUSH1 0xFF AND DUP2 MSTORE PUSH1 0x20 ADD SWAP1 DUP2 MSTORE PUSH1 0x20 ADD PUSH1 0x0 KECCAK256 PUSH1 0x1 PUSH1 0x2 DUP2 LT PUSH2 0xC06 JUMPI PUSH2 0xC05 PUSH2 0x2817 JUMP JUMPDEST JUMPDEST ADD SLOAD DUP9 DUP9 DUP4 PUSH1 0xFF AND DUP2 DUP2 LT PUSH2 0xC1E JUMPI PUSH2 0xC1D PUSH2 0x2817 JUMP JUMPDEST JUMPDEST SWAP1 POP PUSH1 0x20 MUL ADD CALLDATALOAD EQ ISZERO PUSH2 0xC5D JUMPI DUP3 DUP12 PUSH1 0x5 ADD PUSH1 0x0 DUP4 PUSH1 0xFF AND DUP2 MSTORE PUSH1 0x20 ADD SWAP1 DUP2 MSTORE PUSH1 0x20 ADD PUSH1 0x0 KECCAK256 PUSH1 0x0 PUSH1 0x2 DUP2 LT PUSH2 0xC57 JUMPI PUSH2 0xC56 PUSH2 0x2817 JUMP JUMPDEST JUMPDEST ADD DUP2 SWAP1 SSTORE POP JUMPDEST PUSH20 0x0 PUSH4 0x29A5F2F6 PUSH1 0x40 MLOAD DUP1 PUSH1 0x40 ADD PUSH1 0x40 MSTORE DUP1 DUP7 DUP2 MSTORE PUSH1 0x20 ADD DUP12 DUP12 DUP7 PUSH1 0xFF AND DUP2 DUP2 LT PUSH2 0xC9E JUMPI PUSH2 0xC9D PUSH2 0x2817 JUMP JUMPDEST JUMPDEST SWAP1 POP PUSH1 0x20 MUL ADD CALLDATALOAD DUP2 MSTORE POP PUSH1 0x40 MLOAD DUP3 PUSH4 0xFFFFFFFF AND PUSH1 0xE0 SHL DUP2 MSTORE PUSH1 0x4 ADD PUSH2 0xCC4 SWAP2 SWAP1 PUSH2 0x21E1 JUMP JUMPDEST PUSH1 0x20 PUSH1 0x40 MLOAD DUP1 DUP4 SUB DUP2 DUP7 DUP1 EXTCODESIZE ISZERO DUP1 ISZERO PUSH2 0xCDC JUMPI PUSH1 0x0 DUP1 REVERT JUMPDEST POP GAS DELEGATECALL ISZERO DUP1 ISZERO PUSH2 0xCF0 JUMPI RETURNDATASIZE PUSH1 0x0 DUP1 RETURNDATACOPY RETURNDATASIZE PUSH1 0x0 REVERT JUMPDEST POP POP POP POP PUSH1 0x40 MLOAD RETURNDATASIZE PUSH1 0x1F NOT PUSH1 0x1F DUP3 ADD AND DUP3 ADD DUP1 PUSH1 0x40 MSTORE POP DUP2 ADD SWAP1 PUSH2 0xD14 SWAP2 SWAP1 PUSH2 0x1D89 JUMP JUMPDEST SWAP3 POP PUSH2 0xE57 JUMP JUMPDEST DUP11 PUSH1 0x5 ADD PUSH1 0x0 DUP3 PUSH1 0xFF AND DUP2 MSTORE PUSH1 0x20 ADD SWAP1 DUP2 MSTORE PUSH1 0x20 ADD PUSH1 0x0 KECCAK256 PUSH1 0x0 PUSH1 0x2 DUP2 LT PUSH2 0xD46 JUMPI PUSH2 0xD45 PUSH2 0x2817 JUMP JUMPDEST JUMPDEST ADD SLOAD DUP9 DUP9 DUP4 PUSH1 0xFF AND DUP2 DUP2 LT PUSH2 0xD5E JUMPI PUSH2 0xD5D PUSH2 0x2817 JUMP JUMPDEST JUMPDEST SWAP1 POP PUSH1 0x20 MUL ADD CALLDATALOAD EQ ISZERO PUSH2 0xD9D JUMPI DUP3 DUP12 PUSH1 0x5 ADD PUSH1 0x0 DUP4 PUSH1 0xFF AND DUP2 MSTORE PUSH1 0x20 ADD SWAP1 DUP2 MSTORE PUSH1 0x20 ADD PUSH1 0x0 KECCAK256 PUSH1 0x1 PUSH1 0x2 DUP2 LT PUSH2 0xD97 JUMPI PUSH2 0xD96 PUSH2 0x2817 JUMP JUMPDEST JUMPDEST ADD DUP2 SWAP1 SSTORE POP JUMPDEST PUSH20 0x0 PUSH4 0x29A5F2F6 PUSH1 0x40 MLOAD DUP1 PUSH1 0x40 ADD PUSH1 0x40 MSTORE DUP1 DUP12 DUP12 DUP7 PUSH1 0xFF AND DUP2 DUP2 LT PUSH2 0xDD8 JUMPI PUSH2 0xDD7 PUSH2 0x2817 JUMP JUMPDEST JUMPDEST SWAP1 POP PUSH1 0x20 MUL ADD CALLDATALOAD DUP2 MSTORE PUSH1 0x20 ADD DUP7 DUP2 MSTORE POP PUSH1 0x40 MLOAD DUP3 PUSH4 0xFFFFFFFF AND PUSH1 0xE0 SHL DUP2 MSTORE PUSH1 0x4 ADD PUSH2 0xE04 SWAP2 SWAP1 PUSH2 0x21E1 JUMP JUMPDEST PUSH1 0x20 PUSH1 0x40 MLOAD DUP1 DUP4 SUB DUP2 DUP7 DUP1 EXTCODESIZE ISZERO DUP1 ISZERO PUSH2 0xE1C JUMPI PUSH1 0x0 DUP1 REVERT JUMPDEST POP GAS DELEGATECALL ISZERO DUP1 ISZERO PUSH2 0xE30 JUMPI RETURNDATASIZE PUSH1 0x0 DUP1 RETURNDATACOPY RETURNDATASIZE PUSH1 0x0 REVERT JUMPDEST POP POP POP POP PUSH1 0x40 MLOAD RETURNDATASIZE PUSH1 0x1F NOT PUSH1 0x1F DUP3 ADD AND DUP3 ADD DUP1 PUSH1 0x40 MSTORE POP DUP2 ADD SWAP1 PUSH2 0xE54 SWAP2 SWAP1 PUSH2 0x1D89 JUMP JUMPDEST SWAP3 POP JUMPDEST DUP1 PUSH1 0x1 ADD SWAP1 POP PUSH2 0xB5F JUMP JUMPDEST POP DUP10 PUSH1 0x4 ADD SLOAD DUP2 LT PUSH2 0xEA9 JUMPI PUSH1 0x40 MLOAD PUSH32 0x8C379A000000000000000000000000000000000000000000000000000000000 DUP2 MSTORE PUSH1 0x4 ADD PUSH2 0xEA0 SWAP1 PUSH2 0x2334 JUMP JUMPDEST PUSH1 0x40 MLOAD DUP1 SWAP2 SUB SWAP1 REVERT JUMPDEST DUP2 DUP11 PUSH1 0x3 ADD PUSH1 0x0 DUP13 PUSH1 0x2 ADD PUSH1 0x0 SWAP1 SLOAD SWAP1 PUSH2 0x100 EXP SWAP1 DIV PUSH4 0xFFFFFFFF AND PUSH4 0xFFFFFFFF AND DUP2 MSTORE PUSH1 0x20 ADD SWAP1 DUP2 MSTORE PUSH1 0x20 ADD PUSH1 0x0 KECCAK256 DUP2 SWAP1 SSTORE POP POP POP POP POP POP POP POP POP POP POP JUMP JUMPDEST PUSH2 0x100 PUSH1 0xF0 SHL DUP2 JUMP JUMPDEST PUSH1 0x0 PUSH1 0xD0 DUP3 SWAP1 SHL PUSH1 0xD0 SHR PUSH6 0xFFFFFFFFFFFF AND SWAP1 POP SWAP2 SWAP1 POP JUMP JUMPDEST PUSH1 0x0 DUP2 PUSH1 0x3 ADD PUSH1 0x0 DUP4 PUSH1 0x2 ADD PUSH1 0x0 SWAP1 SLOAD SWAP1 PUSH2 0x100 EXP SWAP1 DIV PUSH4 0xFFFFFFFF AND PUSH4 0xFFFFFFFF AND DUP2 MSTORE PUSH1 0x20 ADD SWAP1 DUP2 MSTORE PUSH1 0x20 ADD PUSH1 0x0 KECCAK256 SLOAD SWAP1 POP SWAP2 SWAP1 POP JUMP JUMPDEST PUSH1 0x0 DUP3 PUSH1 0x7 ADD PUSH1 0x0 DUP4 DUP2 MSTORE PUSH1 0x20 ADD SWAP1 DUP2 MSTORE PUSH1 0x20 ADD PUSH1 0x0 KECCAK256 PUSH1 0x0 SWAP1 SLOAD SWAP1 PUSH2 0x100 EXP SWAP1 DIV PUSH1 0xFF AND SWAP1 POP SWAP3 SWAP2 POP POP JUMP JUMPDEST PUSH1 0x0 DUP1 DUP3 EQ ISZERO PUSH2 0xFA3 JUMPI PUSH32 0x2FE54C60D3ACABF3343A35B6EBA15DB4821B340F76E741E2249685ED4899AF6C SWAP1 POP PUSH2 0x15CC JUMP JUMPDEST PUSH1 0x1 DUP3 EQ ISZERO PUSH2 0xFD4 JUMPI PUSH32 0x13E37F2D6CB86C78CCC1788607C2B199788C6BB0A615A21F2E7A8E88384222F8 SWAP1 POP PUSH2 0x15CC JUMP JUMPDEST PUSH1 0x2 DUP3 EQ ISZERO PUSH2 0x1005 JUMPI PUSH32 0x217126FA352C326896E8C2803EEC8FD63AD50CF65EDFEF27A41A9E32DC622765 SWAP1 POP PUSH2 0x15CC JUMP JUMPDEST PUSH1 0x3 DUP3 EQ ISZERO PUSH2 0x1036 JUMPI PUSH32 0xE28A61A9B3E91007D5A9E3ADA18E1B24D6D230C618388EE5DF34CACD7397EEE SWAP1 POP PUSH2 0x15CC JUMP JUMPDEST PUSH1 0x4 DUP3 EQ ISZERO PUSH2 0x1067 JUMPI PUSH32 0x27953447A6979839536BADC5425ED15FADB0E292E9BC36F92F0AA5CFA5013587 SWAP1 POP PUSH2 0x15CC JUMP JUMPDEST PUSH1 0x5 DUP3 EQ ISZERO PUSH2 0x1098 JUMPI PUSH32 0x194191EDBFB91D10F6A7AFD315F33095410C7801C47175C2DF6DC2CCE0E3AFFC SWAP1 POP PUSH2 0x15CC JUMP JUMPDEST PUSH1 0x6 DUP3 EQ ISZERO PUSH2 0x10C9 JUMPI PUSH32 0x1733DECE17D71190516DBAF1927936FA643DC7079FC0CC731DE9D6845A47741F SWAP1 POP PUSH2 0x15CC JUMP JUMPDEST PUSH1 0x7 DUP3 EQ ISZERO PUSH2 0x10FA JUMPI PUSH32 0x267855A7DC75DB39D81D17F95D0A7AA572BF5AE19F4DB0E84221D2B2EF999219 SWAP1 POP PUSH2 0x15CC JUMP JUMPDEST PUSH1 0x8 DUP3 EQ ISZERO PUSH2 0x112B JUMPI PUSH32 0x1184E11836B4C36AD8238A340ECC0985EEBA665327E33E9B0E3641027C27620D SWAP1 POP PUSH2 0x15CC JUMP JUMPDEST PUSH1 0x9 DUP3 EQ ISZERO PUSH2 0x115C JUMPI PUSH32 0x702AB83A135D7F55350AB1BFAA90BABD8FC1D2B3E6A7215381A7B2213D6C5CE SWAP1 POP PUSH2 0x15CC JUMP JUMPDEST PUSH1 0xA DUP3 EQ ISZERO PUSH2 0x118D JUMPI PUSH32 0x2EECC0DE814CFD8C57CE882BABB2E30D1DA56621AEF7A47F3291CFFEAEC26AD7 SWAP1 POP PUSH2 0x15CC JUMP JUMPDEST PUSH1 0xB DUP3 EQ ISZERO PUSH2 0x11BE JUMPI PUSH32 0x280BC02145C155D5833585B6C7B08501055157DD30CE005319621DC462D33B47 SWAP1 POP PUSH2 0x15CC JUMP JUMPDEST PUSH1 0xC DUP3 EQ ISZERO PUSH2 0x11EF JUMPI PUSH32 0x45132221D1FA0A7F4AED8ACD2CBEC1E2189B7732CCB2EC272B9C60F0D5AFC5B SWAP1 POP PUSH2 0x15CC JUMP JUMPDEST PUSH1 0xD DUP3 EQ ISZERO PUSH2 0x1220 JUMPI PUSH32 0x27F427CCBF58A44B1270ABBE4EDA6BA53BD6AC4D88CF1E00A13C4371CE71D366 SWAP1 POP PUSH2 0x15CC JUMP JUMPDEST PUSH1 0xE DUP3 EQ ISZERO PUSH2 0x1251 JUMPI PUSH32 0x1617EAAE5064F26E8F8A6493AE92BFDED7FDE71B65DF1CA6D5DCEC0DF70B2CEF SWAP1 POP PUSH2 0x15CC JUMP JUMPDEST PUSH1 0xF DUP3 EQ ISZERO PUSH2 0x1282 JUMPI PUSH32 0x20C6B400D0EA1B15435703C31C31EE63AD7BA5C8DA66CEC2796FEACEA575ABCA SWAP1 POP PUSH2 0x15CC JUMP JUMPDEST PUSH1 0x10 DUP3 EQ ISZERO PUSH2 0x12B3 JUMPI PUSH32 0x9589DDB438723F53A8E57BDADA7C5F8ED67E8FECE3889A73618732965645EEC SWAP1 POP PUSH2 0x15CC JUMP JUMPDEST PUSH1 0x11 DUP3 EQ ISZERO PUSH2 0x12E3 JUMPI PUSH31 0x64B6A738A5FF537DB7B220F3394F0ECBD35BFD355C5425DC1166BF3236079B SWAP1 POP PUSH2 0x15CC JUMP JUMPDEST PUSH1 0x12 DUP3 EQ ISZERO PUSH2 0x1314 JUMPI PUSH32 0x95DE56281B1D5055E897C3574FF790D5EE81DBC5DF784AD2D67795E557C9E9F SWAP1 POP PUSH2 0x15CC JUMP JUMPDEST PUSH1 0x13 DUP3 EQ ISZERO PUSH2 0x1345 JUMPI PUSH32 0x11CF2E2887AA21963A6EC14289183EFE4D4C60F14ECD3D6FE0BEEBDF855A9B63 SWAP1 POP PUSH2 0x15CC JUMP JUMPDEST PUSH1 0x14 DUP3 EQ ISZERO PUSH2 0x1376 JUMPI PUSH32 0x2B0F6FC0179FA65B6F73627C0E1E84C7374D2EAEC44C9A48F2571393EA77BCBB SWAP1 POP PUSH2 0x15CC JUMP JUMPDEST PUSH1 0x15 DUP3 EQ ISZERO PUSH2 0x13A7 JUMPI PUSH32 0x16FDB637C2ABF9C0F988DBF2FD64258C46FB6A273D537B2CF1603EA460B13279 SWAP1 POP PUSH2 0x15CC JUMP JUMPDEST PUSH1 0x16 DUP3 EQ ISZERO PUSH2 0x13D8 JUMPI PUSH32 0x21BBD7E944F6124DAD4C376DF9CC12E7CA66E47DFF703FF7CEDB1A454EDCF0FF SWAP1 POP PUSH2 0x15CC JUMP JUMPDEST PUSH1 0x17 DUP3 EQ ISZERO PUSH2 0x1409 JUMPI PUSH32 0x2784F8220B1C963E468F590F137BAAA1625B3B92A27AD9B6E84EB0D3454D9962 SWAP1 POP PUSH2 0x15CC JUMP JUMPDEST PUSH1 0x18 DUP3 EQ ISZERO PUSH2 0x143A JUMPI PUSH32 0x16ACE1A65B7534142F8CC1AAD810B3D6A7A74CA905D9C275CB98BA57E509FC10 SWAP1 POP PUSH2 0x15CC JUMP JUMPDEST PUSH1 0x19 DUP3 EQ ISZERO PUSH2 0x146B JUMPI PUSH32 0x2328068C6A8C24265124DEBD8FE10D3F29F0665EA725A65E3638F6192A96A013 SWAP1 POP PUSH2 0x15CC JUMP JUMPDEST PUSH1 0x1A DUP3 EQ ISZERO PUSH2 0x149C JUMPI PUSH32 0x2DDB991BE1F028022411B4C4D2C22043E5E751C120736F00ADF54ACAB1C9AC14 SWAP1 POP PUSH2 0x15CC JUMP JUMPDEST PUSH1 0x1B DUP3 EQ ISZERO PUSH2 0x14CD JUMPI PUSH32 0x113798410EAEB95056A464F70521EB58377C0155F2FE518A5594D38CC209CC0 SWAP1 POP PUSH2 0x15CC JUMP JUMPDEST PUSH1 0x1C DUP3 EQ ISZERO PUSH2 0x14FE JUMPI PUSH32 0x202D1AE61526F0D0D01EF80FB5D4055A7AF45721024C2C24CFFD6A3798F54D50 SWAP1 POP PUSH2 0x15CC JUMP JUMPDEST PUSH1 0x1D DUP3 EQ ISZERO PUSH2 0x152F JUMPI PUSH32 0x23AB323453748129F2765F79615022F5BEBD6F4096A796300AAB049A60B0F187 SWAP1 POP PUSH2 0x15CC JUMP JUMPDEST PUSH1 0x1E DUP3 EQ ISZERO PUSH2 0x1560 JUMPI PUSH32 0x1F15585F8947E378BCF8BD918716799DA909ACDB944C57150B1EB4565FDA8AA0 SWAP1 POP PUSH2 0x15CC JUMP JUMPDEST PUSH1 0x1F DUP3 EQ ISZERO PUSH2 0x1591 JUMPI PUSH32 0x1EB064B21055AC6A350CF41EB30E4CE2CB19680217DF3A243617C2838185AD06 SWAP1 POP PUSH2 0x15CC JUMP JUMPDEST PUSH1 0x40 MLOAD PUSH32 0x8C379A000000000000000000000000000000000000000000000000000000000 DUP2 MSTORE PUSH1 0x4 ADD PUSH2 0x15C3 SWAP1 PUSH2 0x2394 JUMP JUMPDEST PUSH1 0x40 MLOAD DUP1 SWAP2 SUB SWAP1 REVERT JUMPDEST SWAP2 SWAP1 POP JUMP JUMPDEST PUSH1 0x0 PUSH32 0x30644E72E131A029B85045B68181585D2833E84879B9709143E1F593F0000001 DUP7 LT PUSH2 0x1635 JUMPI PUSH1 0x40 MLOAD PUSH32 0x8C379A000000000000000000000000000000000000000000000000000000000 DUP2 MSTORE PUSH1 0x4 ADD PUSH2 0x162C SWAP1 PUSH2 0x2274 JUMP JUMPDEST PUSH1 0x40 MLOAD DUP1 SWAP2 SUB SWAP1 REVERT JUMPDEST DUP7 PUSH1 0x1 ADD SLOAD DUP4 DUP4 SWAP1 POP EQ DUP1 ISZERO PUSH2 0x1651 JUMPI POP DUP7 PUSH1 0x1 ADD SLOAD DUP6 DUP6 SWAP1 POP EQ JUMPDEST PUSH2 0x1690 JUMPI PUSH1 0x40 MLOAD PUSH32 0x8C379A000000000000000000000000000000000000000000000000000000000 DUP2 MSTORE PUSH1 0x4 ADD PUSH2 0x1687 SWAP1 PUSH2 0x2374 JUMP JUMPDEST PUSH1 0x40 MLOAD DUP1 SWAP2 SUB SWAP1 REVERT JUMPDEST PUSH1 0x0 DUP7 SWAP1 POP PUSH1 0x0 JUMPDEST DUP9 PUSH1 0x1 ADD SLOAD DUP2 PUSH1 0xFF AND LT ISZERO PUSH2 0x18E6 JUMPI PUSH32 0x30644E72E131A029B85045B68181585D2833E84879B9709143E1F593F0000001 DUP8 DUP8 DUP4 PUSH1 0xFF AND DUP2 DUP2 LT PUSH2 0x16DE JUMPI PUSH2 0x16DD PUSH2 0x2817 JUMP JUMPDEST JUMPDEST SWAP1 POP PUSH1 0x20 MUL ADD CALLDATALOAD LT PUSH2 0x1725 JUMPI PUSH1 0x40 MLOAD PUSH32 0x8C379A000000000000000000000000000000000000000000000000000000000 DUP2 MSTORE PUSH1 0x4 ADD PUSH2 0x171C SWAP1 PUSH2 0x2294 JUMP JUMPDEST PUSH1 0x40 MLOAD DUP1 SWAP2 SUB SWAP1 REVERT JUMPDEST PUSH1 0x0 DUP6 DUP6 DUP4 PUSH1 0xFF AND DUP2 DUP2 LT PUSH2 0x173D JUMPI PUSH2 0x173C PUSH2 0x2817 JUMP JUMPDEST JUMPDEST SWAP1 POP PUSH1 0x20 MUL ADD PUSH1 0x20 DUP2 ADD SWAP1 PUSH2 0x1752 SWAP2 SWAP1 PUSH2 0x1DB6 JUMP JUMPDEST PUSH1 0xFF AND EQ ISZERO PUSH2 0x1819 JUMPI PUSH20 0x0 PUSH4 0x29A5F2F6 PUSH1 0x40 MLOAD DUP1 PUSH1 0x40 ADD PUSH1 0x40 MSTORE DUP1 DUP6 DUP2 MSTORE PUSH1 0x20 ADD DUP11 DUP11 DUP7 PUSH1 0xFF AND DUP2 DUP2 LT PUSH2 0x179C JUMPI PUSH2 0x179B PUSH2 0x2817 JUMP JUMPDEST JUMPDEST SWAP1 POP PUSH1 0x20 MUL ADD CALLDATALOAD DUP2 MSTORE POP PUSH1 0x40 MLOAD DUP3 PUSH4 0xFFFFFFFF AND PUSH1 0xE0 SHL DUP2 MSTORE PUSH1 0x4 ADD PUSH2 0x17C2 SWAP2 SWAP1 PUSH2 0x21E1 JUMP JUMPDEST PUSH1 0x20 PUSH1 0x40 MLOAD DUP1 DUP4 SUB DUP2 DUP7 DUP1 EXTCODESIZE ISZERO DUP1 ISZERO PUSH2 0x17DA JUMPI PUSH1 0x0 DUP1 REVERT JUMPDEST POP GAS DELEGATECALL ISZERO DUP1 ISZERO PUSH2 0x17EE JUMPI RETURNDATASIZE PUSH1 0x0 DUP1 RETURNDATACOPY RETURNDATASIZE PUSH1 0x0 REVERT JUMPDEST POP POP POP POP PUSH1 0x40 MLOAD RETURNDATASIZE PUSH1 0x1F NOT PUSH1 0x1F DUP3 ADD AND DUP3 ADD DUP1 PUSH1 0x40 MSTORE POP DUP2 ADD SWAP1 PUSH2 0x1812 SWAP2 SWAP1 PUSH2 0x1D89 JUMP JUMPDEST SWAP2 POP PUSH2 0x18D3 JUMP JUMPDEST PUSH20 0x0 PUSH4 0x29A5F2F6 PUSH1 0x40 MLOAD DUP1 PUSH1 0x40 ADD PUSH1 0x40 MSTORE DUP1 DUP11 DUP11 DUP7 PUSH1 0xFF AND DUP2 DUP2 LT PUSH2 0x1854 JUMPI PUSH2 0x1853 PUSH2 0x2817 JUMP JUMPDEST JUMPDEST SWAP1 POP PUSH1 0x20 MUL ADD CALLDATALOAD DUP2 MSTORE PUSH1 0x20 ADD DUP6 DUP2 MSTORE POP PUSH1 0x40 MLOAD DUP3 PUSH4 0xFFFFFFFF AND PUSH1 0xE0 SHL DUP2 MSTORE PUSH1 0x4 ADD PUSH2 0x1880 SWAP2 SWAP1 PUSH2 0x21E1 JUMP JUMPDEST PUSH1 0x20 PUSH1 0x40 MLOAD DUP1 DUP4 SUB DUP2 DUP7 DUP1 EXTCODESIZE ISZERO DUP1 ISZERO PUSH2 0x1898 JUMPI PUSH1 0x0 DUP1 REVERT JUMPDEST POP GAS DELEGATECALL ISZERO DUP1 ISZERO PUSH2 0x18AC JUMPI RETURNDATASIZE PUSH1 0x0 DUP1 RETURNDATACOPY RETURNDATASIZE PUSH1 0x0 REVERT JUMPDEST POP POP POP POP PUSH1 0x40 MLOAD RETURNDATASIZE PUSH1 0x1F NOT PUSH1 0x1F DUP3 ADD AND DUP3 ADD DUP1 PUSH1 0x40 MSTORE POP DUP2 ADD SWAP1 PUSH2 0x18D0 SWAP2 SWAP1 PUSH2 0x1D89 JUMP JUMPDEST SWAP2 POP JUMPDEST DUP1 DUP1 PUSH2 0x18DE SWAP1 PUSH2 0x27AA JUMP JUMPDEST SWAP2 POP POP PUSH2 0x1698 JUMP JUMPDEST POP DUP8 PUSH1 0x3 ADD PUSH1 0x0 DUP10 PUSH1 0x2 ADD PUSH1 0x0 SWAP1 SLOAD SWAP1 PUSH2 0x100 EXP SWAP1 DIV PUSH4 0xFFFFFFFF AND PUSH4 0xFFFFFFFF AND DUP2 MSTORE PUSH1 0x20 ADD SWAP1 DUP2 MSTORE PUSH1 0x20 ADD PUSH1 0x0 KECCAK256 SLOAD DUP2 EQ SWAP2 POP POP SWAP7 SWAP6 POP POP POP POP POP POP JUMP JUMPDEST PUSH1 0x40 MLOAD DUP1 PUSH1 0x80 ADD PUSH1 0x40 MSTORE DUP1 PUSH1 0x0 DUP2 MSTORE PUSH1 0x20 ADD PUSH1 0x0 DUP2 MSTORE PUSH1 0x20 ADD PUSH1 0x0 DUP2 MSTORE PUSH1 0x20 ADD PUSH1 0x0 DUP1 NOT AND DUP2 MSTORE POP SWAP1 JUMP JUMPDEST PUSH1 0x0 PUSH2 0x1964 PUSH2 0x195F DUP5 PUSH2 0x242A JUMP JUMPDEST PUSH2 0x2405 JUMP JUMPDEST SWAP1 POP DUP1 DUP4 DUP3 MSTORE PUSH1 0x20 DUP3 ADD SWAP1 POP DUP3 DUP6 PUSH1 0x20 DUP7 MUL DUP3 ADD GT ISZERO PUSH2 0x1987 JUMPI PUSH2 0x1986 PUSH2 0x2894 JUMP JUMPDEST JUMPDEST PUSH1 0x0 JUMPDEST DUP6 DUP2 LT ISZERO PUSH2 0x19B7 JUMPI DUP2 PUSH2 0x199D DUP9 DUP3 PUSH2 0x1AC5 JUMP JUMPDEST DUP5 MSTORE PUSH1 0x20 DUP5 ADD SWAP4 POP PUSH1 0x20 DUP4 ADD SWAP3 POP POP PUSH1 0x1 DUP2 ADD SWAP1 POP PUSH2 0x198A JUMP JUMPDEST POP POP POP SWAP4 SWAP3 POP POP POP JUMP JUMPDEST PUSH1 0x0 DUP1 DUP4 PUSH1 0x1F DUP5 ADD SLT PUSH2 0x19D7 JUMPI PUSH2 0x19D6 PUSH2 0x288F JUMP JUMPDEST JUMPDEST DUP3 CALLDATALOAD SWAP1 POP PUSH8 0xFFFFFFFFFFFFFFFF DUP2 GT ISZERO PUSH2 0x19F4 JUMPI PUSH2 0x19F3 PUSH2 0x288A JUMP JUMPDEST JUMPDEST PUSH1 0x20 DUP4 ADD SWAP2 POP DUP4 PUSH1 0x20 DUP3 MUL DUP4 ADD GT ISZERO PUSH2 0x1A10 JUMPI PUSH2 0x1A0F PUSH2 0x2894 JUMP JUMPDEST JUMPDEST SWAP3 POP SWAP3 SWAP1 POP JUMP JUMPDEST PUSH1 0x0 DUP3 PUSH1 0x1F DUP4 ADD SLT PUSH2 0x1A2C JUMPI PUSH2 0x1A2B PUSH2 0x288F JUMP JUMPDEST JUMPDEST DUP2 CALLDATALOAD PUSH2 0x1A3C DUP5 DUP3 PUSH1 0x20 DUP7 ADD PUSH2 0x1951 JUMP JUMPDEST SWAP2 POP POP SWAP3 SWAP2 POP POP JUMP JUMPDEST PUSH1 0x0 DUP1 DUP4 PUSH1 0x1F DUP5 ADD SLT PUSH2 0x1A5B JUMPI PUSH2 0x1A5A PUSH2 0x288F JUMP JUMPDEST JUMPDEST DUP3 CALLDATALOAD SWAP1 POP PUSH8 0xFFFFFFFFFFFFFFFF DUP2 GT ISZERO PUSH2 0x1A78 JUMPI PUSH2 0x1A77 PUSH2 0x288A JUMP JUMPDEST JUMPDEST PUSH1 0x20 DUP4 ADD SWAP2 POP DUP4 PUSH1 0x20 DUP3 MUL DUP4 ADD GT ISZERO PUSH2 0x1A94 JUMPI PUSH2 0x1A93 PUSH2 0x2894 JUMP JUMPDEST JUMPDEST SWAP3 POP SWAP3 SWAP1 POP JUMP JUMPDEST PUSH1 0x0 DUP2 CALLDATALOAD SWAP1 POP PUSH2 0x1AAA DUP2 PUSH2 0x2BDA JUMP JUMPDEST SWAP3 SWAP2 POP POP JUMP JUMPDEST PUSH1 0x0 DUP2 CALLDATALOAD SWAP1 POP PUSH2 0x1ABF DUP2 PUSH2 0x2BF1 JUMP JUMPDEST SWAP3 SWAP2 POP POP JUMP JUMPDEST PUSH1 0x0 DUP2 CALLDATALOAD SWAP1 POP PUSH2 0x1AD4 DUP2 PUSH2 0x2C08 JUMP JUMPDEST SWAP3 SWAP2 POP POP JUMP JUMPDEST PUSH1 0x0 DUP2 MLOAD SWAP1 POP PUSH2 0x1AE9 DUP2 PUSH2 0x2C08 JUMP JUMPDEST SWAP3 SWAP2 POP POP JUMP JUMPDEST PUSH1 0x0 DUP2 CALLDATALOAD SWAP1 POP PUSH2 0x1AFE DUP2 PUSH2 0x2C1F JUMP JUMPDEST SWAP3 SWAP2 POP POP JUMP JUMPDEST PUSH1 0x0 PUSH1 0x20 DUP3 DUP5 SUB SLT ISZERO PUSH2 0x1B1A JUMPI PUSH2 0x1B19 PUSH2 0x289E JUMP JUMPDEST JUMPDEST PUSH1 0x0 PUSH2 0x1B28 DUP5 DUP3 DUP6 ADD PUSH2 0x1A9B JUMP JUMPDEST SWAP2 POP POP SWAP3 SWAP2 POP POP JUMP JUMPDEST PUSH1 0x0 PUSH1 0x20 DUP3 DUP5 SUB SLT ISZERO PUSH2 0x1B47 JUMPI PUSH2 0x1B46 PUSH2 0x289E JUMP JUMPDEST JUMPDEST PUSH1 0x0 PUSH2 0x1B55 DUP5 DUP3 DUP6 ADD PUSH2 0x1AB0 JUMP JUMPDEST SWAP2 POP POP SWAP3 SWAP2 POP POP JUMP JUMPDEST PUSH1 0x0 DUP1 PUSH1 0x40 DUP4 DUP6 SUB SLT ISZERO PUSH2 0x1B75 JUMPI PUSH2 0x1B74 PUSH2 0x289E JUMP JUMPDEST JUMPDEST PUSH1 0x0 PUSH2 0x1B83 DUP6 DUP3 DUP7 ADD PUSH2 0x1AB0 JUMP JUMPDEST SWAP3 POP POP PUSH1 0x20 DUP4 ADD CALLDATALOAD PUSH8 0xFFFFFFFFFFFFFFFF DUP2 GT ISZERO PUSH2 0x1BA4 JUMPI PUSH2 0x1BA3 PUSH2 0x2899 JUMP JUMPDEST JUMPDEST PUSH2 0x1BB0 DUP6 DUP3 DUP7 ADD PUSH2 0x1A17 JUMP JUMPDEST SWAP2 POP POP SWAP3 POP SWAP3 SWAP1 POP JUMP JUMPDEST PUSH1 0x0 DUP1 PUSH1 0x40 DUP4 DUP6 SUB SLT ISZERO PUSH2 0x1BD1 JUMPI PUSH2 0x1BD0 PUSH2 0x289E JUMP JUMPDEST JUMPDEST PUSH1 0x0 PUSH2 0x1BDF DUP6 DUP3 DUP7 ADD PUSH2 0x1AB0 JUMP JUMPDEST SWAP3 POP POP PUSH1 0x20 PUSH2 0x1BF0 DUP6 DUP3 DUP7 ADD PUSH2 0x1AC5 JUMP JUMPDEST SWAP2 POP POP SWAP3 POP SWAP3 SWAP1 POP JUMP JUMPDEST PUSH1 0x0 DUP1 PUSH1 0x0 PUSH1 0x60 DUP5 DUP7 SUB SLT ISZERO PUSH2 0x1C13 JUMPI PUSH2 0x1C12 PUSH2 0x289E JUMP JUMPDEST JUMPDEST PUSH1 0x0 PUSH2 0x1C21 DUP7 DUP3 DUP8 ADD PUSH2 0x1AB0 JUMP JUMPDEST SWAP4 POP POP PUSH1 0x20 PUSH2 0x1C32 DUP7 DUP3 DUP8 ADD PUSH2 0x1AC5 JUMP JUMPDEST SWAP3 POP POP PUSH1 0x40 PUSH2 0x1C43 DUP7 DUP3 DUP8 ADD PUSH2 0x1AC5 JUMP JUMPDEST SWAP2 POP POP SWAP3 POP SWAP3 POP SWAP3 JUMP JUMPDEST PUSH1 0x0 DUP1 PUSH1 0x0 DUP1 PUSH1 0x0 DUP1 PUSH1 0x0 PUSH1 0xA0 DUP9 DUP11 SUB SLT ISZERO PUSH2 0x1C6C JUMPI PUSH2 0x1C6B PUSH2 0x289E JUMP JUMPDEST JUMPDEST PUSH1 0x0 PUSH2 0x1C7A DUP11 DUP3 DUP12 ADD PUSH2 0x1AB0 JUMP JUMPDEST SWAP8 POP POP PUSH1 0x20 PUSH2 0x1C8B DUP11 DUP3 DUP12 ADD PUSH2 0x1AC5 JUMP JUMPDEST SWAP7 POP POP PUSH1 0x40 PUSH2 0x1C9C DUP11 DUP3 DUP12 ADD PUSH2 0x1AC5 JUMP JUMPDEST SWAP6 POP POP PUSH1 0x60 DUP9 ADD CALLDATALOAD PUSH8 0xFFFFFFFFFFFFFFFF DUP2 GT ISZERO PUSH2 0x1CBD JUMPI PUSH2 0x1CBC PUSH2 0x2899 JUMP JUMPDEST JUMPDEST PUSH2 0x1CC9 DUP11 DUP3 DUP12 ADD PUSH2 0x19C1 JUMP JUMPDEST SWAP5 POP SWAP5 POP POP PUSH1 0x80 DUP9 ADD CALLDATALOAD PUSH8 0xFFFFFFFFFFFFFFFF DUP2 GT ISZERO PUSH2 0x1CEC JUMPI PUSH2 0x1CEB PUSH2 0x2899 JUMP JUMPDEST JUMPDEST PUSH2 0x1CF8 DUP11 DUP3 DUP12 ADD PUSH2 0x1A45 JUMP JUMPDEST SWAP3 POP SWAP3 POP POP SWAP3 SWAP6 SWAP9 SWAP2 SWAP5 SWAP8 POP SWAP3 SWAP6 POP JUMP JUMPDEST PUSH1 0x0 DUP1 PUSH1 0x0 PUSH1 0x60 DUP5 DUP7 SUB SLT ISZERO PUSH2 0x1D22 JUMPI PUSH2 0x1D21 PUSH2 0x289E JUMP JUMPDEST JUMPDEST PUSH1 0x0 PUSH2 0x1D30 DUP7 DUP3 DUP8 ADD PUSH2 0x1AB0 JUMP JUMPDEST SWAP4 POP POP PUSH1 0x20 PUSH2 0x1D41 DUP7 DUP3 DUP8 ADD PUSH2 0x1AC5 JUMP JUMPDEST SWAP3 POP POP PUSH1 0x40 PUSH2 0x1D52 DUP7 DUP3 DUP8 ADD PUSH2 0x1AEF JUMP JUMPDEST SWAP2 POP POP SWAP3 POP SWAP3 POP SWAP3 JUMP JUMPDEST PUSH1 0x0 PUSH1 0x20 DUP3 DUP5 SUB SLT ISZERO PUSH2 0x1D72 JUMPI PUSH2 0x1D71 PUSH2 0x289E JUMP JUMPDEST JUMPDEST PUSH1 0x0 PUSH2 0x1D80 DUP5 DUP3 DUP6 ADD PUSH2 0x1AC5 JUMP JUMPDEST SWAP2 POP POP SWAP3 SWAP2 POP POP JUMP JUMPDEST PUSH1 0x0 PUSH1 0x20 DUP3 DUP5 SUB SLT ISZERO PUSH2 0x1D9F JUMPI PUSH2 0x1D9E PUSH2 0x289E JUMP JUMPDEST JUMPDEST PUSH1 0x0 PUSH2 0x1DAD DUP5 DUP3 DUP6 ADD PUSH2 0x1ADA JUMP JUMPDEST SWAP2 POP POP SWAP3 SWAP2 POP POP JUMP JUMPDEST PUSH1 0x0 PUSH1 0x20 DUP3 DUP5 SUB SLT ISZERO PUSH2 0x1DCC JUMPI PUSH2 0x1DCB PUSH2 0x289E JUMP JUMPDEST JUMPDEST PUSH1 0x0 PUSH2 0x1DDA DUP5 DUP3 DUP6 ADD PUSH2 0x1AEF JUMP JUMPDEST SWAP2 POP POP SWAP3 SWAP2 POP POP JUMP JUMPDEST PUSH1 0x0 PUSH2 0x1DEF DUP4 DUP4 PUSH2 0x2102 JUMP JUMPDEST PUSH1 0x80 DUP4 ADD SWAP1 POP SWAP3 SWAP2 POP POP JUMP JUMPDEST PUSH1 0x0 PUSH2 0x1E07 DUP4 DUP4 PUSH2 0x2166 JUMP JUMPDEST PUSH1 0x20 DUP4 ADD SWAP1 POP SWAP3 SWAP2 POP POP JUMP JUMPDEST PUSH1 0x0 PUSH2 0x1E1E DUP3 PUSH2 0x2490 JUMP JUMPDEST PUSH2 0x1E28 DUP2 DUP6 PUSH2 0x24E3 JUMP JUMPDEST SWAP4 POP PUSH2 0x1E33 DUP4 PUSH2 0x2456 JUMP JUMPDEST DUP1 PUSH1 0x0 JUMPDEST DUP4 DUP2 LT ISZERO PUSH2 0x1E64 JUMPI DUP2 MLOAD PUSH2 0x1E4B DUP9 DUP3 PUSH2 0x1DE3 JUMP JUMPDEST SWAP8 POP PUSH2 0x1E56 DUP4 PUSH2 0x24BC JUMP JUMPDEST SWAP3 POP POP PUSH1 0x1 DUP2 ADD SWAP1 POP PUSH2 0x1E37 JUMP JUMPDEST POP DUP6 SWAP4 POP POP POP POP SWAP3 SWAP2 POP POP JUMP JUMPDEST PUSH2 0x1E7A DUP2 PUSH2 0x249B JUMP JUMPDEST PUSH2 0x1E84 DUP2 DUP5 PUSH2 0x24F4 JUMP JUMPDEST SWAP3 POP PUSH2 0x1E8F DUP3 PUSH2 0x2466 JUMP JUMPDEST DUP1 PUSH1 0x0 JUMPDEST DUP4 DUP2 LT ISZERO PUSH2 0x1EC0 JUMPI DUP2 MLOAD PUSH2 0x1EA7 DUP8 DUP3 PUSH2 0x1DFB JUMP JUMPDEST SWAP7 POP PUSH2 0x1EB2 DUP4 PUSH2 0x24C9 JUMP JUMPDEST SWAP3 POP POP PUSH1 0x1 DUP2 ADD SWAP1 POP PUSH2 0x1E93 JUMP JUMPDEST POP POP POP POP POP POP JUMP JUMPDEST PUSH1 0x0 PUSH2 0x1ED3 DUP3 PUSH2 0x24A6 JUMP JUMPDEST PUSH2 0x1EDD DUP2 DUP6 PUSH2 0x24FF JUMP JUMPDEST SWAP4 POP PUSH2 0x1EE8 DUP4 PUSH2 0x2470 JUMP JUMPDEST DUP1 PUSH1 0x0 JUMPDEST DUP4 DUP2 LT ISZERO PUSH2 0x1F19 JUMPI DUP2 MLOAD PUSH2 0x1F00 DUP9 DUP3 PUSH2 0x1DFB JUMP JUMPDEST SWAP8 POP PUSH2 0x1F0B DUP4 PUSH2 0x24D6 JUMP JUMPDEST SWAP3 POP POP PUSH1 0x1 DUP2 ADD SWAP1 POP PUSH2 0x1EEC JUMP JUMPDEST POP DUP6 SWAP4 POP POP POP POP SWAP3 SWAP2 POP POP JUMP JUMPDEST PUSH2 0x1F2F DUP2 PUSH2 0x25AE JUMP JUMPDEST DUP3 MSTORE POP POP JUMP JUMPDEST PUSH2 0x1F3E DUP2 PUSH2 0x25BA JUMP JUMPDEST DUP3 MSTORE POP POP JUMP JUMPDEST PUSH2 0x1F55 PUSH2 0x1F50 DUP3 PUSH2 0x25BA JUMP JUMPDEST PUSH2 0x27D4 JUMP JUMPDEST DUP3 MSTORE POP POP JUMP JUMPDEST PUSH2 0x1F64 DUP2 PUSH2 0x25E6 JUMP JUMPDEST DUP3 MSTORE POP POP JUMP JUMPDEST PUSH2 0x1F7B PUSH2 0x1F76 DUP3 PUSH2 0x25F0 JUMP JUMPDEST PUSH2 0x27DE JUMP JUMPDEST DUP3 MSTORE POP POP JUMP JUMPDEST PUSH1 0x0 PUSH2 0x1F8E PUSH1 0x3B DUP4 PUSH2 0x2510 JUMP JUMPDEST SWAP2 POP PUSH2 0x1F99 DUP3 PUSH2 0x28C1 JUMP JUMPDEST PUSH1 0x40 DUP3 ADD SWAP1 POP SWAP2 SWAP1 POP JUMP JUMPDEST PUSH1 0x0 PUSH2 0x1FB1 PUSH1 0x40 DUP4 PUSH2 0x2510 JUMP JUMPDEST SWAP2 POP PUSH2 0x1FBC DUP3 PUSH2 0x2910 JUMP JUMPDEST PUSH1 0x40 DUP3 ADD SWAP1 POP SWAP2 SWAP1 POP JUMP JUMPDEST PUSH1 0x0 PUSH2 0x1FD4 PUSH1 0x48 DUP4 PUSH2 0x2510 JUMP JUMPDEST SWAP2 POP PUSH2 0x1FDF DUP3 PUSH2 0x295F JUMP JUMPDEST PUSH1 0x60 DUP3 ADD SWAP1 POP SWAP2 SWAP1 POP JUMP JUMPDEST PUSH1 0x0 PUSH2 0x1FF7 PUSH1 0x1C DUP4 PUSH2 0x2510 JUMP JUMPDEST SWAP2 POP PUSH2 0x2002 DUP3 PUSH2 0x29D4 JUMP JUMPDEST PUSH1 0x20 DUP3 ADD SWAP1 POP SWAP2 SWAP1 POP JUMP JUMPDEST PUSH1 0x0 PUSH2 0x201A PUSH1 0x42 DUP4 PUSH2 0x2510 JUMP JUMPDEST SWAP2 POP PUSH2 0x2025 DUP3 PUSH2 0x29FD JUMP JUMPDEST PUSH1 0x60 DUP3 ADD SWAP1 POP SWAP2 SWAP1 POP JUMP JUMPDEST PUSH1 0x0 PUSH2 0x203D PUSH1 0x18 DUP4 PUSH2 0x2510 JUMP JUMPDEST SWAP2 POP PUSH2 0x2048 DUP3 PUSH2 0x2A72 JUMP JUMPDEST PUSH1 0x20 DUP3 ADD SWAP1 POP SWAP2 SWAP1 POP JUMP JUMPDEST PUSH1 0x0 PUSH2 0x2060 PUSH1 0x30 DUP4 PUSH2 0x2510 JUMP JUMPDEST SWAP2 POP PUSH2 0x206B DUP3 PUSH2 0x2A9B JUMP JUMPDEST PUSH1 0x40 DUP3 ADD SWAP1 POP SWAP2 SWAP1 POP JUMP JUMPDEST PUSH1 0x0 PUSH2 0x2083 PUSH1 0x2E DUP4 PUSH2 0x2510 JUMP JUMPDEST SWAP2 POP PUSH2 0x208E DUP3 PUSH2 0x2AEA JUMP JUMPDEST PUSH1 0x40 DUP3 ADD SWAP1 POP SWAP2 SWAP1 POP JUMP JUMPDEST PUSH1 0x0 PUSH2 0x20A6 PUSH1 0x1B DUP4 PUSH2 0x2510 JUMP JUMPDEST SWAP2 POP PUSH2 0x20B1 DUP3 PUSH2 0x2B39 JUMP JUMPDEST PUSH1 0x20 DUP3 ADD SWAP1 POP SWAP2 SWAP1 POP JUMP JUMPDEST PUSH1 0x0 PUSH2 0x20C9 PUSH1 0x3C DUP4 PUSH2 0x2510 JUMP JUMPDEST SWAP2 POP PUSH2 0x20D4 DUP3 PUSH2 0x2B62 JUMP JUMPDEST PUSH1 0x40 DUP3 ADD SWAP1 POP SWAP2 SWAP1 POP JUMP JUMPDEST PUSH1 0x0 PUSH2 0x20EC PUSH1 0x13 DUP4 PUSH2 0x2510 JUMP JUMPDEST SWAP2 POP PUSH2 0x20F7 DUP3 PUSH2 0x2BB1 JUMP JUMPDEST PUSH1 0x20 DUP3 ADD SWAP1 POP SWAP2 SWAP1 POP JUMP JUMPDEST PUSH1 0x80 DUP3 ADD PUSH1 0x0 DUP3 ADD MLOAD PUSH2 0x2118 PUSH1 0x0 DUP6 ADD DUP3 PUSH2 0x2166 JUMP JUMPDEST POP PUSH1 0x20 DUP3 ADD MLOAD PUSH2 0x212B PUSH1 0x20 DUP6 ADD DUP3 PUSH2 0x2166 JUMP JUMPDEST POP PUSH1 0x40 DUP3 ADD MLOAD PUSH2 0x213E PUSH1 0x40 DUP6 ADD DUP3 PUSH2 0x2166 JUMP JUMPDEST POP PUSH1 0x60 DUP3 ADD MLOAD PUSH2 0x2151 PUSH1 0x60 DUP6 ADD DUP3 PUSH2 0x1F5B JUMP JUMPDEST POP POP POP POP JUMP JUMPDEST PUSH2 0x2160 DUP2 PUSH2 0x2652 JUMP JUMPDEST DUP3 MSTORE POP POP JUMP JUMPDEST PUSH2 0x216F DUP2 PUSH2 0x2652 JUMP JUMPDEST DUP3 MSTORE POP POP JUMP JUMPDEST PUSH2 0x217E DUP2 PUSH2 0x266C JUMP JUMPDEST DUP3 MSTORE POP POP JUMP JUMPDEST PUSH2 0x218D DUP2 PUSH2 0x267E JUMP JUMPDEST DUP3 MSTORE POP POP JUMP JUMPDEST PUSH1 0x0 PUSH2 0x219F DUP3 DUP6 PUSH2 0x1F44 JUMP JUMPDEST PUSH1 0x2 DUP3 ADD SWAP2 POP PUSH2 0x21AF DUP3 DUP5 PUSH2 0x1F6A JUMP JUMPDEST PUSH1 0x4 DUP3 ADD SWAP2 POP DUP2 SWAP1 POP SWAP4 SWAP3 POP POP POP JUMP JUMPDEST PUSH1 0x0 PUSH1 0x20 DUP3 ADD SWAP1 POP DUP2 DUP2 SUB PUSH1 0x0 DUP4 ADD MSTORE PUSH2 0x21D9 DUP2 DUP5 PUSH2 0x1E13 JUMP JUMPDEST SWAP1 POP SWAP3 SWAP2 POP POP JUMP JUMPDEST PUSH1 0x0 PUSH1 0x40 DUP3 ADD SWAP1 POP PUSH2 0x21F6 PUSH1 0x0 DUP4 ADD DUP5 PUSH2 0x1E71 JUMP JUMPDEST SWAP3 SWAP2 POP POP JUMP JUMPDEST PUSH1 0x0 PUSH1 0x20 DUP3 ADD SWAP1 POP DUP2 DUP2 SUB PUSH1 0x0 DUP4 ADD MSTORE PUSH2 0x2216 DUP2 DUP5 PUSH2 0x1EC8 JUMP JUMPDEST SWAP1 POP SWAP3 SWAP2 POP POP JUMP JUMPDEST PUSH1 0x0 PUSH1 0x20 DUP3 ADD SWAP1 POP PUSH2 0x2233 PUSH1 0x0 DUP4 ADD DUP5 PUSH2 0x1F26 JUMP JUMPDEST SWAP3 SWAP2 POP POP JUMP JUMPDEST PUSH1 0x0 PUSH1 0x20 DUP3 ADD SWAP1 POP PUSH2 0x224E PUSH1 0x0 DUP4 ADD DUP5 PUSH2 0x1F35 JUMP JUMPDEST SWAP3 SWAP2 POP POP JUMP JUMPDEST PUSH1 0x0 PUSH1 0x20 DUP3 ADD SWAP1 POP DUP2 DUP2 SUB PUSH1 0x0 DUP4 ADD MSTORE PUSH2 0x226D DUP2 PUSH2 0x1F81 JUMP JUMPDEST SWAP1 POP SWAP2 SWAP1 POP JUMP JUMPDEST PUSH1 0x0 PUSH1 0x20 DUP3 ADD SWAP1 POP DUP2 DUP2 SUB PUSH1 0x0 DUP4 ADD MSTORE PUSH2 0x228D DUP2 PUSH2 0x1FA4 JUMP JUMPDEST SWAP1 POP SWAP2 SWAP1 POP JUMP JUMPDEST PUSH1 0x0 PUSH1 0x20 DUP3 ADD SWAP1 POP DUP2 DUP2 SUB PUSH1 0x0 DUP4 ADD MSTORE PUSH2 0x22AD DUP2 PUSH2 0x1FC7 JUMP JUMPDEST SWAP1 POP SWAP2 SWAP1 POP JUMP JUMPDEST PUSH1 0x0 PUSH1 0x20 DUP3 ADD SWAP1 POP DUP2 DUP2 SUB PUSH1 0x0 DUP4 ADD MSTORE PUSH2 0x22CD DUP2 PUSH2 0x1FEA JUMP JUMPDEST SWAP1 POP SWAP2 SWAP1 POP JUMP JUMPDEST PUSH1 0x0 PUSH1 0x20 DUP3 ADD SWAP1 POP DUP2 DUP2 SUB PUSH1 0x0 DUP4 ADD MSTORE PUSH2 0x22ED DUP2 PUSH2 0x200D JUMP JUMPDEST SWAP1 POP SWAP2 SWAP1 POP JUMP JUMPDEST PUSH1 0x0 PUSH1 0x20 DUP3 ADD SWAP1 POP DUP2 DUP2 SUB PUSH1 0x0 DUP4 ADD MSTORE PUSH2 0x230D DUP2 PUSH2 0x2030 JUMP JUMPDEST SWAP1 POP SWAP2 SWAP1 POP JUMP JUMPDEST PUSH1 0x0 PUSH1 0x20 DUP3 ADD SWAP1 POP DUP2 DUP2 SUB PUSH1 0x0 DUP4 ADD MSTORE PUSH2 0x232D DUP2 PUSH2 0x2053 JUMP JUMPDEST SWAP1 POP SWAP2 SWAP1 POP JUMP JUMPDEST PUSH1 0x0 PUSH1 0x20 DUP3 ADD SWAP1 POP DUP2 DUP2 SUB PUSH1 0x0 DUP4 ADD MSTORE PUSH2 0x234D DUP2 PUSH2 0x2076 JUMP JUMPDEST SWAP1 POP SWAP2 SWAP1 POP JUMP JUMPDEST PUSH1 0x0 PUSH1 0x20 DUP3 ADD SWAP1 POP DUP2 DUP2 SUB PUSH1 0x0 DUP4 ADD MSTORE PUSH2 0x236D DUP2 PUSH2 0x2099 JUMP JUMPDEST SWAP1 POP SWAP2 SWAP1 POP JUMP JUMPDEST PUSH1 0x0 PUSH1 0x20 DUP3 ADD SWAP1 POP DUP2 DUP2 SUB PUSH1 0x0 DUP4 ADD MSTORE PUSH2 0x238D DUP2 PUSH2 0x20BC JUMP JUMPDEST SWAP1 POP SWAP2 SWAP1 POP JUMP JUMPDEST PUSH1 0x0 PUSH1 0x20 DUP3 ADD SWAP1 POP DUP2 DUP2 SUB PUSH1 0x0 DUP4 ADD MSTORE PUSH2 0x23AD DUP2 PUSH2 0x20DF JUMP JUMPDEST SWAP1 POP SWAP2 SWAP1 POP JUMP JUMPDEST PUSH1 0x0 PUSH1 0x20 DUP3 ADD SWAP1 POP PUSH2 0x23C9 PUSH1 0x0 DUP4 ADD DUP5 PUSH2 0x2157 JUMP JUMPDEST SWAP3 SWAP2 POP POP JUMP JUMPDEST PUSH1 0x0 PUSH1 0x20 DUP3 ADD SWAP1 POP PUSH2 0x23E4 PUSH1 0x0 DUP4 ADD DUP5 PUSH2 0x2175 JUMP JUMPDEST SWAP3 SWAP2 POP POP JUMP JUMPDEST PUSH1 0x0 PUSH1 0x20 DUP3 ADD SWAP1 POP PUSH2 0x23FF PUSH1 0x0 DUP4 ADD DUP5 PUSH2 0x2184 JUMP JUMPDEST SWAP3 SWAP2 POP POP JUMP JUMPDEST PUSH1 0x0 PUSH2 0x240F PUSH2 0x2420 JUMP JUMPDEST SWAP1 POP PUSH2 0x241B DUP3 DUP3 PUSH2 0x2730 JUMP JUMPDEST SWAP2 SWAP1 POP JUMP JUMPDEST PUSH1 0x0 PUSH1 0x40 MLOAD SWAP1 POP SWAP1 JUMP JUMPDEST PUSH1 0x0 PUSH8 0xFFFFFFFFFFFFFFFF DUP3 GT ISZERO PUSH2 0x2445 JUMPI PUSH2 0x2444 PUSH2 0x2846 JUMP JUMPDEST JUMPDEST PUSH1 0x20 DUP3 MUL SWAP1 POP PUSH1 0x20 DUP2 ADD SWAP1 POP SWAP2 SWAP1 POP JUMP JUMPDEST PUSH1 0x0 DUP2 SWAP1 POP PUSH1 0x20 DUP3 ADD SWAP1 POP SWAP2 SWAP1 POP JUMP JUMPDEST PUSH1 0x0 DUP2 SWAP1 POP SWAP2 SWAP1 POP JUMP JUMPDEST PUSH1 0x0 DUP2 SWAP1 POP PUSH1 0x20 DUP3 ADD SWAP1 POP SWAP2 SWAP1 POP JUMP JUMPDEST PUSH1 0x0 DUP2 SWAP1 POP PUSH1 0x20 DUP3 ADD SWAP1 POP SWAP2 SWAP1 POP JUMP JUMPDEST PUSH1 0x0 DUP2 MLOAD SWAP1 POP SWAP2 SWAP1 POP JUMP JUMPDEST PUSH1 0x0 PUSH1 0x2 SWAP1 POP SWAP2 SWAP1 POP JUMP JUMPDEST PUSH1 0x0 DUP2 MLOAD SWAP1 POP SWAP2 SWAP1 POP JUMP JUMPDEST PUSH1 0x0 DUP2 MLOAD SWAP1 POP SWAP2 SWAP1 POP JUMP JUMPDEST PUSH1 0x0 PUSH1 0x20 DUP3 ADD SWAP1 POP SWAP2 SWAP1 POP JUMP JUMPDEST PUSH1 0x0 PUSH1 0x20 DUP3 ADD SWAP1 POP SWAP2 SWAP1 POP JUMP JUMPDEST PUSH1 0x0 PUSH1 0x20 DUP3 ADD SWAP1 POP SWAP2 SWAP1 POP JUMP JUMPDEST PUSH1 0x0 DUP3 DUP3 MSTORE PUSH1 0x20 DUP3 ADD SWAP1 POP SWAP3 SWAP2 POP POP JUMP JUMPDEST PUSH1 0x0 DUP2 SWAP1 POP SWAP3 SWAP2 POP POP JUMP JUMPDEST PUSH1 0x0 DUP3 DUP3 MSTORE PUSH1 0x20 DUP3 ADD SWAP1 POP SWAP3 SWAP2 POP POP JUMP JUMPDEST PUSH1 0x0 DUP3 DUP3 MSTORE PUSH1 0x20 DUP3 ADD SWAP1 POP SWAP3 SWAP2 POP POP JUMP JUMPDEST PUSH1 0x0 PUSH2 0x252C DUP3 PUSH2 0x2652 JUMP JUMPDEST SWAP2 POP PUSH2 0x2537 DUP4 PUSH2 0x2652 JUMP JUMPDEST SWAP3 POP DUP3 PUSH32 0xFFFFFFFFFFFFFFFFFFFFFFFFFFFFFFFFFFFFFFFFFFFFFFFFFFFFFFFFFFFFFFFF SUB DUP3 GT ISZERO PUSH2 0x256C JUMPI PUSH2 0x256B PUSH2 0x27E8 JUMP JUMPDEST JUMPDEST DUP3 DUP3 ADD SWAP1 POP SWAP3 SWAP2 POP POP JUMP JUMPDEST PUSH1 0x0 PUSH2 0x2582 DUP3 PUSH2 0x2692 JUMP JUMPDEST SWAP2 POP PUSH2 0x258D DUP4 PUSH2 0x2692 JUMP JUMPDEST SWAP3 POP DUP3 PUSH1 0xFF SUB DUP3 GT ISZERO PUSH2 0x25A3 JUMPI PUSH2 0x25A2 PUSH2 0x27E8 JUMP JUMPDEST JUMPDEST DUP3 DUP3 ADD SWAP1 POP SWAP3 SWAP2 POP POP JUMP JUMPDEST PUSH1 0x0 DUP2 ISZERO ISZERO SWAP1 POP SWAP2 SWAP1 POP JUMP JUMPDEST PUSH1 0x0 PUSH32 0xFFFF000000000000000000000000000000000000000000000000000000000000 DUP3 AND SWAP1 POP SWAP2 SWAP1 POP JUMP JUMPDEST PUSH1 0x0 DUP2 SWAP1 POP SWAP2 SWAP1 POP JUMP JUMPDEST PUSH1 0x0 PUSH32 0xFFFFFFFF00000000000000000000000000000000000000000000000000000000 DUP3 AND SWAP1 POP SWAP2 SWAP1 POP JUMP JUMPDEST PUSH1 0x0 PUSH32 0xFFFFFFFFFFFF0000000000000000000000000000000000000000000000000000 DUP3 AND SWAP1 POP SWAP2 SWAP1 POP JUMP JUMPDEST PUSH1 0x0 DUP2 SWAP1 POP SWAP2 SWAP1 POP JUMP JUMPDEST PUSH1 0x0 DUP2 SWAP1 POP SWAP2 SWAP1 POP JUMP JUMPDEST PUSH1 0x0 PUSH4 0xFFFFFFFF DUP3 AND SWAP1 POP SWAP2 SWAP1 POP JUMP JUMPDEST PUSH1 0x0 PUSH6 0xFFFFFFFFFFFF DUP3 AND SWAP1 POP SWAP2 SWAP1 POP JUMP JUMPDEST PUSH1 0x0 PUSH8 0xFFFFFFFFFFFFFFFF DUP3 AND SWAP1 POP SWAP2 SWAP1 POP JUMP JUMPDEST PUSH1 0x0 PUSH1 0xFF DUP3 AND SWAP1 POP SWAP2 SWAP1 POP JUMP JUMPDEST PUSH1 0x0 PUSH2 0x26AA DUP3 PUSH2 0x24B1 JUMP JUMPDEST DUP3 PUSH2 0x26B4 DUP5 PUSH2 0x2480 JUMP JUMPDEST SWAP1 POP PUSH2 0x26BF DUP2 PUSH2 0x2875 JUMP JUMPDEST SWAP3 POP PUSH1 0x6 DUP3 LT ISZERO PUSH2 0x26FF JUMPI PUSH2 0x26FA PUSH32 0xFFFFFFFFFFFF0000000000000000000000000000000000000000000000000000 DUP4 PUSH1 0x6 SUB PUSH1 0x8 MUL PUSH2 0x28B4 JUMP JUMPDEST DUP4 AND SWAP3 POP JUMPDEST POP POP SWAP2 SWAP1 POP JUMP JUMPDEST PUSH1 0x0 PUSH2 0x2711 DUP3 PUSH2 0x265C JUMP JUMPDEST SWAP2 POP PUSH1 0x0 DUP3 EQ ISZERO PUSH2 0x2725 JUMPI PUSH2 0x2724 PUSH2 0x27E8 JUMP JUMPDEST JUMPDEST PUSH1 0x1 DUP3 SUB SWAP1 POP SWAP2 SWAP1 POP JUMP JUMPDEST PUSH2 0x2739 DUP3 PUSH2 0x28A3 JUMP JUMPDEST DUP2 ADD DUP2 DUP2 LT PUSH8 0xFFFFFFFFFFFFFFFF DUP3 GT OR ISZERO PUSH2 0x2758 JUMPI PUSH2 0x2757 PUSH2 0x2846 JUMP JUMPDEST JUMPDEST DUP1 PUSH1 0x40 MSTORE POP POP POP JUMP JUMPDEST PUSH1 0x0 PUSH2 0x276C DUP3 PUSH2 0x2652 JUMP JUMPDEST SWAP2 POP PUSH32 0xFFFFFFFFFFFFFFFFFFFFFFFFFFFFFFFFFFFFFFFFFFFFFFFFFFFFFFFFFFFFFFFF DUP3 EQ ISZERO PUSH2 0x279F JUMPI PUSH2 0x279E PUSH2 0x27E8 JUMP JUMPDEST JUMPDEST PUSH1 0x1 DUP3 ADD SWAP1 POP SWAP2 SWAP1 POP JUMP JUMPDEST PUSH1 0x0 PUSH2 0x27B5 DUP3 PUSH2 0x2692 JUMP JUMPDEST SWAP2 POP PUSH1 0xFF DUP3 EQ ISZERO PUSH2 0x27C9 JUMPI PUSH2 0x27C8 PUSH2 0x27E8 JUMP JUMPDEST JUMPDEST PUSH1 0x1 DUP3 ADD SWAP1 POP SWAP2 SWAP1 POP JUMP JUMPDEST PUSH1 0x0 DUP2 SWAP1 POP SWAP2 SWAP1 POP JUMP JUMPDEST PUSH1 0x0 DUP2 SWAP1 POP SWAP2 SWAP1 POP JUMP JUMPDEST PUSH32 0x4E487B7100000000000000000000000000000000000000000000000000000000 PUSH1 0x0 MSTORE PUSH1 0x11 PUSH1 0x4 MSTORE PUSH1 0x24 PUSH1 0x0 REVERT JUMPDEST PUSH32 0x4E487B7100000000000000000000000000000000000000000000000000000000 PUSH1 0x0 MSTORE PUSH1 0x32 PUSH1 0x4 MSTORE PUSH1 0x24 PUSH1 0x0 REVERT JUMPDEST PUSH32 0x4E487B7100000000000000000000000000000000000000000000000000000000 PUSH1 0x0 MSTORE PUSH1 0x41 PUSH1 0x4 MSTORE PUSH1 0x24 PUSH1 0x0 REVERT JUMPDEST PUSH1 0x0 PUSH2 0x2881 DUP3 MLOAD PUSH2 0x261C JUMP JUMPDEST DUP1 SWAP2 POP POP SWAP2 SWAP1 POP JUMP JUMPDEST PUSH1 0x0 DUP1 REVERT JUMPDEST PUSH1 0x0 DUP1 REVERT JUMPDEST PUSH1 0x0 DUP1 REVERT JUMPDEST PUSH1 0x0 DUP1 REVERT JUMPDEST PUSH1 0x0 DUP1 REVERT JUMPDEST PUSH1 0x0 PUSH1 0x1F NOT PUSH1 0x1F DUP4 ADD AND SWAP1 POP SWAP2 SWAP1 POP JUMP JUMPDEST PUSH1 0x0 DUP3 DUP3 SHL SWAP1 POP SWAP3 SWAP2 POP POP JUMP JUMPDEST PUSH32 0x4C696E6B61626C65496E6372656D656E74616C42696E617279547265653A206C PUSH1 0x0 DUP3 ADD MSTORE PUSH32 0x656166206973206E6F742070617274206F662074686520747265650000000000 PUSH1 0x20 DUP3 ADD MSTORE POP JUMP JUMPDEST PUSH32 0x4C696E6B61626C65496E6372656D656E74616C42696E617279547265653A206C PUSH1 0x0 DUP3 ADD MSTORE PUSH32 0x656166206D757374206265203C20534E41524B5F5343414C41525F4649454C44 PUSH1 0x20 DUP3 ADD MSTORE POP JUMP JUMPDEST PUSH32 0x4C696E6B61626C65496E6372656D656E74616C42696E617279547265653A2073 PUSH1 0x0 DUP3 ADD MSTORE PUSH32 0x69626C696E67206E6F6465206D757374206265203C20534E41524B5F5343414C PUSH1 0x20 DUP3 ADD MSTORE PUSH32 0x41525F4649454C44000000000000000000000000000000000000000000000000 PUSH1 0x40 DUP3 ADD MSTORE POP JUMP JUMPDEST PUSH32 0x43616E6E6F742066696E6420796F7572206D65726B6C6520726F6F7400000000 PUSH1 0x0 DUP3 ADD MSTORE POP JUMP JUMPDEST PUSH32 0x4C696E6B61626C65496E6372656D656E74616C42696E617279547265653A2074 PUSH1 0x0 DUP3 ADD MSTORE PUSH32 0x726565206465707468206D757374206265206265747765656E203120616E6420 PUSH1 0x20 DUP3 ADD MSTORE PUSH32 0x3332000000000000000000000000000000000000000000000000000000000000 PUSH1 0x40 DUP3 ADD MSTORE POP JUMP JUMPDEST PUSH32 0x4E65696768626F757220726F6F74206E6F7420666F756E640000000000000000 PUSH1 0x0 DUP3 ADD MSTORE POP JUMP JUMPDEST PUSH32 0x6E6F6E2D6578697374656E742065646765206973206E6F742073657420746F20 PUSH1 0x0 DUP3 ADD MSTORE PUSH32 0x7468652064656661756C7420726F6F7400000000000000000000000000000000 PUSH1 0x20 DUP3 ADD MSTORE POP JUMP JUMPDEST PUSH32 0x496E6372656D656E74616C42696E617279547265653A206C65616620696E6465 PUSH1 0x0 DUP3 ADD MSTORE PUSH32 0x78206F7574206F662072616E6765000000000000000000000000000000000000 PUSH1 0x20 DUP3 ADD MSTORE POP JUMP JUMPDEST PUSH32 0x496E636F727265637420726F6F74206172726179206C656E6774680000000000 PUSH1 0x0 DUP3 ADD MSTORE POP JUMP JUMPDEST PUSH32 0x4C696E6B61626C65496E6372656D656E74616C42696E617279547265653A206C PUSH1 0x0 DUP3 ADD MSTORE PUSH32 0x656E677468206F662070617468206973206E6F7420636F727265637400000000 PUSH1 0x20 DUP3 ADD MSTORE POP JUMP JUMPDEST PUSH32 0x496E646578206F7574206F6620626F756E647300000000000000000000000000 PUSH1 0x0 DUP3 ADD MSTORE POP JUMP JUMPDEST PUSH2 0x2BE3 DUP2 PUSH2 0x25E6 JUMP JUMPDEST DUP2 EQ PUSH2 0x2BEE JUMPI PUSH1 0x0 DUP1 REVERT JUMPDEST POP JUMP JUMPDEST PUSH2 0x2BFA DUP2 PUSH2 0x2648 JUMP JUMPDEST DUP2 EQ PUSH2 0x2C05 JUMPI PUSH1 0x0 DUP1 REVERT JUMPDEST POP JUMP JUMPDEST PUSH2 0x2C11 DUP2 PUSH2 0x2652 JUMP JUMPDEST DUP2 EQ PUSH2 0x2C1C JUMPI PUSH1 0x0 DUP1 REVERT JUMPDEST POP JUMP JUMPDEST PUSH2 0x2C28 DUP2 PUSH2 0x2692 JUMP JUMPDEST DUP2 EQ PUSH2 0x2C33 JUMPI PUSH1 0x0 DUP1 REVERT JUMPDEST POP JUMP INVALID LOG2 PUSH5 0x6970667358 0x22 SLT KECCAK256 GAS MOD SUB SWAP12 DUP2 SWAP8 SWAP1 DUP6 SHL CREATE2 CALLDATALOAD 0xDF 0x2C PUSH30 0x7BB84C96CCFA1BEFF0EE8EB2BB4E9A7AF73664736F6C6343000806003300 "},"methodIdentifiers":{"EVM_CHAIN_ID_TYPE()":"8b7e8782","getChainId()":"3408e470","getChainIdType()":"4c830cbd","getLastRoot(LinkableIncrementalTreeData storage)":"ce8f1f35","getLatestNeighborEdges(LinkableIncrementalTreeData storage)":"424c5fab","getLatestNeighborRoots(LinkableIncrementalTreeData storage)":"243de1f1","hasEdge(LinkableIncrementalTreeData storage,uint256)":"e4f91356","init(LinkableIncrementalTreeData storage,uint256,uint8)":"3330ca3a","isKnownNeighborRoot(LinkableIncrementalTreeData storage,uint256,uint256)":"11bcbf8e","isKnownRoot(LinkableIncrementalTreeData storage,uint256)":"5e295f54","isValidRoots(LinkableIncrementalTreeData storage,uint256[])":"74d4479e","parseChainIdFromResourceId(bytes32)":"c2230d6e","update(LinkableIncrementalTreeData storage,uint256,uint256,uint256[],uint8[])":"84c5969f","zeros(uint256)":"e8295588"}}}}}