{"contracts/extensions/SemaphoreWhistleblowing.sol":{"SemaphoreWhistleblowing":{"abi":[{"inputs":[{"components":[{"internalType":"address","name":"contractAddress","type":"address"},{"internalType":"uint256","name":"merkleTreeDepth","type":"uint256"}],"internalType":"struct ISemaphoreWhistleblowing.Verifier[]","name":"_verifiers","type":"tuple[]"}],"stateMutability":"nonpayable","type":"constructor"},{"inputs":[],"name":"Semaphore__CallerIsNotTheEditor","type":"error"},{"inputs":[],"name":"Semaphore__GroupAlreadyExists","type":"error"},{"inputs":[],"name":"Semaphore__GroupDoesNotExist","type":"error"},{"inputs":[],"name":"Semaphore__GroupIdIsNotLessThanSnarkScalarField","type":"error"},{"inputs":[],"name":"Semaphore__InvalidCurrentChainRoot","type":"error"},{"inputs":[],"name":"Semaphore__InvalidEdgeChainRoot","type":"error"},{"inputs":[],"name":"Semaphore__MerkleTreeDepthIsNotSupported","type":"error"},{"anonymous":false,"inputs":[{"indexed":false,"internalType":"uint256","name":"entityId","type":"uint256"},{"indexed":true,"internalType":"address","name":"editor","type":"address"}],"name":"EntityCreated","type":"event"},{"anonymous":false,"inputs":[{"indexed":true,"internalType":"uint256","name":"groupId","type":"uint256"},{"indexed":false,"internalType":"uint256","name":"merkleTreeDepth","type":"uint256"},{"indexed":false,"internalType":"uint256","name":"merkleTreeRoot","type":"uint256"}],"name":"GroupCreated","type":"event"},{"anonymous":false,"inputs":[{"indexed":true,"internalType":"uint256","name":"entityId","type":"uint256"},{"indexed":false,"internalType":"bytes32","name":"leak","type":"bytes32"}],"name":"LeakPublished","type":"event"},{"anonymous":false,"inputs":[{"indexed":true,"internalType":"uint256","name":"groupId","type":"uint256"},{"indexed":false,"internalType":"uint256","name":"index","type":"uint256"},{"indexed":false,"internalType":"uint256","name":"identityCommitment","type":"uint256"},{"indexed":false,"internalType":"uint256","name":"merkleTreeRoot","type":"uint256"}],"name":"MemberAdded","type":"event"},{"anonymous":false,"inputs":[{"indexed":true,"internalType":"uint256","name":"groupId","type":"uint256"},{"indexed":false,"internalType":"uint256","name":"index","type":"uint256"},{"indexed":false,"internalType":"uint256","name":"identityCommitment","type":"uint256"},{"indexed":false,"internalType":"uint256","name":"merkleTreeRoot","type":"uint256"}],"name":"MemberRemoved","type":"event"},{"anonymous":false,"inputs":[{"indexed":true,"internalType":"uint256","name":"groupId","type":"uint256"},{"indexed":false,"internalType":"uint256","name":"index","type":"uint256"},{"indexed":false,"internalType":"uint256","name":"identityCommitment","type":"uint256"},{"indexed":false,"internalType":"uint256","name":"newIdentityCommitment","type":"uint256"},{"indexed":false,"internalType":"uint256","name":"merkleTreeRoot","type":"uint256"}],"name":"MemberUpdated","type":"event"},{"anonymous":false,"inputs":[{"indexed":false,"internalType":"uint256","name":"nullifierHash","type":"uint256"}],"name":"NullifierHashAdded","type":"event"},{"inputs":[{"internalType":"uint256","name":"entityId","type":"uint256"},{"internalType":"uint256","name":"identityCommitment","type":"uint256"}],"name":"addWhistleblower","outputs":[],"stateMutability":"nonpayable","type":"function"},{"inputs":[{"internalType":"uint256","name":"entityId","type":"uint256"},{"internalType":"uint256","name":"merkleTreeDepth","type":"uint256"},{"internalType":"address","name":"editor","type":"address"},{"internalType":"uint8","name":"maxEdges","type":"uint8"}],"name":"createEntity","outputs":[],"stateMutability":"nonpayable","type":"function"},{"inputs":[{"internalType":"uint256","name":"groupId","type":"uint256"}],"name":"getLatestNeighborEdges","outputs":[{"components":[{"internalType":"uint256","name":"chainID","type":"uint256"},{"internalType":"uint256","name":"root","type":"uint256"},{"internalType":"uint256","name":"latestLeafIndex","type":"uint256"},{"internalType":"bytes32","name":"srcResourceID","type":"bytes32"}],"internalType":"struct Edge[]","name":"","type":"tuple[]"}],"stateMutability":"view","type":"function"},{"inputs":[{"internalType":"uint256","name":"groupId","type":"uint256"}],"name":"getMaxEdges","outputs":[{"internalType":"uint8","name":"","type":"uint8"}],"stateMutability":"view","type":"function"},{"inputs":[{"internalType":"uint256","name":"groupId","type":"uint256"}],"name":"getMerkleTreeDepth","outputs":[{"internalType":"uint256","name":"","type":"uint256"}],"stateMutability":"view","type":"function"},{"inputs":[{"internalType":"uint256","name":"groupId","type":"uint256"}],"name":"getMerkleTreeRoot","outputs":[{"internalType":"uint256","name":"","type":"uint256"}],"stateMutability":"view","type":"function"},{"inputs":[{"internalType":"uint256","name":"groupId","type":"uint256"}],"name":"getNumberOfMerkleTreeLeaves","outputs":[{"internalType":"uint256","name":"","type":"uint256"}],"stateMutability":"view","type":"function"},{"inputs":[{"internalType":"bytes32","name":"leak","type":"bytes32"},{"internalType":"uint256","name":"nullifierHash","type":"uint256"},{"internalType":"uint256","name":"entityId","type":"uint256"},{"internalType":"bytes","name":"roots","type":"bytes"},{"internalType":"uint256[8]","name":"proof","type":"uint256[8]"}],"name":"publishLeak","outputs":[],"stateMutability":"nonpayable","type":"function"},{"inputs":[{"internalType":"uint256","name":"entityId","type":"uint256"},{"internalType":"uint256","name":"identityCommitment","type":"uint256"},{"internalType":"uint256[]","name":"proofSiblings","type":"uint256[]"},{"internalType":"uint8[]","name":"proofPathIndices","type":"uint8[]"}],"name":"removeWhistleblower","outputs":[],"stateMutability":"nonpayable","type":"function"},{"inputs":[{"internalType":"uint256","name":"entityId","type":"uint256"},{"internalType":"uint256","name":"root","type":"uint256"},{"internalType":"uint32","name":"leafIndex","type":"uint32"},{"internalType":"bytes32","name":"typedChainId","type":"bytes32"}],"name":"updateEdge","outputs":[],"stateMutability":"nonpayable","type":"function"},{"inputs":[{"internalType":"uint256","name":"groupId","type":"uint256"},{"internalType":"bytes","name":"roots","type":"bytes"}],"name":"verifyRoots","outputs":[{"internalType":"bool","name":"","type":"bool"}],"stateMutability":"view","type":"function"}],"evm":{"bytecode":{"linkReferences":{"contracts/base/LinkableIncrementalBinaryTree.sol":{"LinkableIncrementalBinaryTree":[{"length":20,"start":1814},{"length":20,"start":3005},{"length":20,"start":3382},{"length":20,"start":3735},{"length":20,"start":4340},{"length":20,"start":4468}]},"contracts/base/Poseidon.sol":{"PoseidonT3Lib":[{"length":20,"start":7363},{"length":20,"start":7683},{"length":20,"start":8595},{"length":20,"start":9405},{"length":20,"start":9595}]},"contracts/base/SemaphoreInputEncoder.sol":{"SemaphoreInputEncoder":[{"length":20,"start":4852}]}},"object":"60806040523480156200001157600080fd5b5060405162004d8b38038062004d8b83398181016040528101906200003791906200022a565b60005b81518160ff161015620000ed57818160ff168151811062000060576200005f62000347565b5b60200260200101516000015160016000848460ff168151811062000089576200008862000347565b5b602002602001015160200151815260200190815260200160002060006101000a81548173ffffffffffffffffffffffffffffffffffffffff021916908373ffffffffffffffffffffffffffffffffffffffff1602179055508060010190506200003a565b505062000403565b60006200010c6200010684620002a4565b6200027b565b90508083825260208201905082856040860282011115620001325762000131620003af565b5b60005b858110156200016657816200014b8882620001ba565b84526020840193506040830192505060018101905062000135565b5050509392505050565b6000815190506200018181620003cf565b92915050565b600082601f8301126200019f576200019e620003a5565b5b8151620001b1848260208601620000f5565b91505092915050565b600060408284031215620001d357620001d2620003aa565b5b620001df60406200027b565b90506000620001f18482850162000170565b6000830152506020620002078482850162000213565b60208301525092915050565b6000815190506200022481620003e9565b92915050565b600060208284031215620002435762000242620003b9565b5b600082015167ffffffffffffffff811115620002645762000263620003b4565b5b620002728482850162000187565b91505092915050565b6000620002876200029a565b905062000295828262000311565b919050565b6000604051905090565b600067ffffffffffffffff821115620002c257620002c162000376565b5b602082029050602081019050919050565b6000620002e082620002e7565b9050919050565b600073ffffffffffffffffffffffffffffffffffffffff82169050919050565b6000819050919050565b6200031c82620003be565b810181811067ffffffffffffffff821117156200033e576200033d62000376565b5b80604052505050565b7f4e487b7100000000000000000000000000000000000000000000000000000000600052603260045260246000fd5b7f4e487b7100000000000000000000000000000000000000000000000000000000600052604160045260246000fd5b600080fd5b600080fd5b600080fd5b600080fd5b600080fd5b6000601f19601f8301169050919050565b620003da81620002d3565b8114620003e657600080fd5b50565b620003f48162000307565b81146200040057600080fd5b50565b61497880620004136000396000f3fe608060405234801561001057600080fd5b50600436106100a95760003560e01c80636bf4e35c116100715780636bf4e35c1461017657806378156953146101925780637b2b13b6146101c25780638fe03587146101de578063dabc4d51146101fa578063fced271f1461022a576100a9565b806314f6d6e8146100ae578063474664d1146100ca5780635027000d146100fa578063638480be146101165780636389e10714610146575b600080fd5b6100c860048036038101906100c39190613230565b61025a565b005b6100e460048036038101906100df9190613028565b6102ed565b6040516100f19190613999565b60405180910390f35b610114600480360381019061010f9190613189565b610395565b005b610130600480360381019061012b9190613028565b61042c565b60405161013d9190613c96565b60405180910390f35b610160600480360381019061015b9190613028565b61044b565b60405161016d9190613c96565b60405180910390f35b610190600480360381019061018b9190613122565b61046a565b005b6101ac60048036038101906101a79190613028565b6105a7565b6040516101b99190613d48565b60405180910390f35b6101dc60048036038101906101d79190612f15565b6105d3565b005b6101f860048036038101906101f391906130e2565b610705565b005b610214600480360381019061020f9190613028565b610794565b6040516102219190613c96565b60405180910390f35b610244600480360381019061023f9190613082565b610837565b6040516102519190613a4e565b60405180910390f35b8360026000610267610b2c565b73ffffffffffffffffffffffffffffffffffffffff1673ffffffffffffffffffffffffffffffffffffffff1681526020019081526020016000205481146102da576040517f0cfd3b8500000000000000000000000000000000000000000000000000000000815260040160405180910390fd5b6102e685858585610b34565b5050505050565b606060008083815260200190815260200160002073__$bb01d34dc76fba63df526a43121fcb267a$__63424c5fab90916040518263ffffffff1660e01b81526004016103399190613be4565b60006040518083038186803b15801561035157600080fd5b505af4158015610365573d6000803e3d6000fd5b505050506040513d6000823e3d601f19601f8201168201806040525081019061038e9190612e44565b9050919050565b85600260006103a2610b2c565b73ffffffffffffffffffffffffffffffffffffffff1673ffffffffffffffffffffffffffffffffffffffff168152602001908152602001600020548114610415576040517f0cfd3b8500000000000000000000000000000000000000000000000000000000815260040160405180910390fd5b610423878787878787610b62565b50505050505050565b6000806000838152602001908152602001600020600401549050919050565b6000806000838152602001908152602001600020600101549050919050565b600073ffffffffffffffffffffffffffffffffffffffff166001600085815260200190815260200160002060009054906101000a900473ffffffffffffffffffffffffffffffffffffffff1673ffffffffffffffffffffffffffffffffffffffff161415610504576040517fecf64f1200000000000000000000000000000000000000000000000000000000815260040160405180910390fd5b61050f848483610c32565b83600260008473ffffffffffffffffffffffffffffffffffffffff1673ffffffffffffffffffffffffffffffffffffffff168152602001908152602001600020819055508173ffffffffffffffffffffffffffffffffffffffff167f5340f46ccfdbf46cea681e7481c711c8838cbcda1356cab6f31a2d0b2cd3525a856040516105999190613c96565b60405180910390a250505050565b600080600083815260200190815260200160002060000160009054906101000a900460ff169050919050565b83600260006105e0610b2c565b73ffffffffffffffffffffffffffffffffffffffff1673ffffffffffffffffffffffffffffffffffffffff168152602001908152602001600020548114610653576040517f0cfd3b8500000000000000000000000000000000000000000000000000000000815260040160405180910390fd5b600061065e866105a7565b9050600061066b8761044b565b905060006001600083815260200190815260200160002060009054906101000a900473ffffffffffffffffffffffffffffffffffffffff1690506106b0888888610837565b506106c18a8a8a8a8a8a878a610e29565b877ff3fa3ff7a3348de75b04ecec5ac199157e2b877c68518dd37b48751b986ad7898b6040516106f19190613a69565b60405180910390a250505050505050505050565b8160026000610712610b2c565b73ffffffffffffffffffffffffffffffffffffffff1673ffffffffffffffffffffffffffffffffffffffff168152602001908152602001600020548114610785576040517f0cfd3b8500000000000000000000000000000000000000000000000000000000815260040160405180910390fd5b61078f8383611178565b505050565b600080600083815260200190815260200160002073__$bb01d34dc76fba63df526a43121fcb267a$__63ce8f1f3590916040518263ffffffff1660e01b81526004016107e09190613be4565b60206040518083038186803b1580156107f857600080fd5b505af415801561080c573d6000803e3d6000fd5b505050506040513d601f19601f820116820180604052508101906108309190613055565b9050919050565b6000600160008086815260200190815260200160002060000160009054906101000a900460ff1660ff1614156109c857600083838101906108789190612e8d565b90506000600267ffffffffffffffff8111156108975761089661455b565b5b6040519080825280602002602001820160405280156108c55781602001602082028036833780820191505090505b50905060005b600281101561091e578281600281106108e7576108e661452c565b5b60200201518282815181106108ff576108fe61452c565b5b6020026020010181815250508080610916906143ef565b9150506108cb565b50600073__$bb01d34dc76fba63df526a43121fcb267a$__6374d4479e6000808a8152602001908152602001600020846040518363ffffffff1660e01b815260040161096b929190613c36565b60206040518083038186803b15801561098357600080fd5b505af4158015610997573d6000803e3d6000fd5b505050506040513d601f19601f820116820180604052508101906109bb9190612ee8565b9050809350505050610b25565b600083838101906109d99190612eba565b90506000600867ffffffffffffffff8111156109f8576109f761455b565b5b604051908082528060200260200182016040528015610a265781602001602082028036833780820191505090505b50905060005b6008811015610a7f57828160088110610a4857610a4761452c565b5b6020020151828281518110610a6057610a5f61452c565b5b6020026020010181815250508080610a77906143ef565b915050610a2c565b50600073__$bb01d34dc76fba63df526a43121fcb267a$__6374d4479e6000808a8152602001908152602001600020846040518363ffffffff1660e01b8152600401610acc929190613c36565b60206040518083038186803b158015610ae457600080fd5b505af4158015610af8573d6000803e3d6000fd5b505050506040513d601f19601f82011682018060405250810190610b1c9190612ee8565b90508093505050505b9392505050565b600033905090565b610b5c838383600080898152602001908152602001600020611247909392919063ffffffff16565b50505050565b6000610b6d87610794565b1415610ba5576040517f029f057900000000000000000000000000000000000000000000000000000000815260040160405180910390fd5b610bd185858585856000808d81526020019081526020016000206117899095949392919063ffffffff16565b6000610bdc87610794565b90506000610bea8484611af9565b9050877f3108849c053c77b8073a11256dffb5ffd5b55e93e105a355e1c9061db890d871828985604051610c2093929190613cda565b60405180910390a25050505050505050565b7f30644e72e131a029b85045b68181585d2833e84879b9709143e1f593f00000018310610c8b576040517fa61c78ca00000000000000000000000000000000000000000000000000000000815260040160405180910390fd5b6000610c968461044b565b14610ccd576040517f8121725b00000000000000000000000000000000000000000000000000000000815260040160405180910390fd5b60008084815260200190815260200160002073__$bb01d34dc76fba63df526a43121fcb267a$__633330ca3a909184846040518463ffffffff1660e01b8152600401610d1b93929190613bff565b60006040518083038186803b158015610d3357600080fd5b505af4158015610d47573d6000803e3d6000fd5b50505050600080600085815260200190815260200160002073__$bb01d34dc76fba63df526a43121fcb267a$__63ce8f1f3590916040518263ffffffff1660e01b8152600401610d979190613be4565b60206040518083038186803b158015610daf57600080fd5b505af4158015610dc3573d6000803e3d6000fd5b505050506040513d601f19601f82011682018060405250810190610de79190613055565b9050837f0d000126c26c1bbe400fd2332187f75d58b69306f9ec47b408686189d3a008338483604051610e1b929190613cb1565b60405180910390a250505050565b6000610e3489611bdc565b905060006040518060a00160405280866008806020026040519081016040528092919082600860200280828437600081840152601f19601f82011690508083019250505050505081526020018a815260200183815260200189815260200188888080601f016020809104026020016040519081016040528093929190818152602001838380828437600081840152601f19601f82011690508083019250505050505050815250905060008173__$2d408c303a7e487061c2c4d5102d665f73$__63f0d4020d9091866040518363ffffffff1660e01b8152600401610f19929190613c66565b60006040518083038186803b158015610f3157600080fd5b505af4158015610f45573d6000803e3d6000fd5b505050506040513d6000823e3d601f19601f82011682018060405250810190610f6e9190612fb0565b50905060008573ffffffffffffffffffffffffffffffffffffffff1663b4b764f260405180604001604052808a600060088110610fae57610fad61452c565b5b602002013581526020018a600160088110610fcc57610fcb61452c565b5b6020020135815250604051806040016040528060405180604001604052808d600260088110610ffe57610ffd61452c565b5b602002013581526020018d60036008811061101c5761101b61452c565b5b6020020135815250815260200160405180604001604052808d6004600881106110485761104761452c565b5b602002013581526020018d6005600881106110665761106561452c565b5b602002013581525081525060405180604001604052808c6006600881106110905761108f61452c565b5b602002013581526020018c6007600881106110ae576110ad61452c565b5b6020020135815250868a6040518663ffffffff1660e01b81526004016110d89594939291906139d6565b60206040518083038186803b1580156110f057600080fd5b505afa158015611104573d6000803e3d6000fd5b505050506040513d601f19601f820116820180604052508101906111289190612ee8565b90508061116a576040517f08c379a000000000000000000000000000000000000000000000000000000000815260040161116190613b24565b60405180910390fd5b505050505050505050505050565b60006111838361044b565b14156111bb576040517f029f057900000000000000000000000000000000000000000000000000000000815260040160405180910390fd5b6111df81600080858152602001908152602001600020611c1390919063ffffffff16565b60006111ea83610794565b9050600060016111f98561042c565b6112039190614258565b9050837f19239b3f93cd10558aaf11423af70c77763bf54f52bcc75bfa74d4d13548cde982858560405161123993929190613cda565b60405180910390a250505050565b600061125282611ed8565b9050611268858267ffffffffffffffff16611ef1565b156115ae578263ffffffff16856008018660060160008467ffffffffffffffff16815260200190815260200160002054815481106112a9576112a861452c565b5b906000526020600020906004020160020154106112fb576040517f08c379a00000000000000000000000000000000000000000000000000000000081526004016112f290613b44565b60405180910390fd5b62010000856008018660060160008467ffffffffffffffff16815260200190815260200160002054815481106113345761133361452c565b5b9060005260206000209060040201600201546113509190613fcc565b8363ffffffff1610611397576040517f08c379a000000000000000000000000000000000000000000000000000000000815260040161138e90613bc4565b60405180910390fd5b846008018560060160008367ffffffffffffffff16815260200190815260200160002054815481106113cc576113cb61452c565b5b906000526020600020906004020160030154821461141f576040517f08c379a000000000000000000000000000000000000000000000000000000000815260040161141690613b04565b60405180910390fd5b60008560060160008367ffffffffffffffff1681526020019081526020016000205490508363ffffffff168660080182815481106114605761145f61452c565b5b9060005260206000209060040201600201819055508486600801828154811061148c5761148b61452c565b5b9060005260206000209060040201600101819055506000601e600188600a0160008667ffffffffffffffff16815260200190815260200160002060009054906101000a900463ffffffff166114e19190614022565b6114eb919061449d565b90508087600a0160008567ffffffffffffffff16815260200190815260200160002060006101000a81548163ffffffff021916908363ffffffff160217905550858760090160008567ffffffffffffffff16815260200190815260200160002060008363ffffffff1663ffffffff168152602001908152602001600020819055507f918597b0fdca66b353a1b90d2287c2b06307c4d35c824dfcffeb4b675c961ce483868860405161159f93929190613d11565b60405180910390a15050611782565b8460000160009054906101000a900460ff1660ff1685600801805490501061160b576040517f08c379a000000000000000000000000000000000000000000000000000000000815260040161160290613a84565b60405180910390fd5b60018560070160008367ffffffffffffffff16815260200190815260200160002060006101000a81548160ff021916908315150217905550600085600801805490509050600060405180608001604052808467ffffffffffffffff1681526020018781526020018663ffffffff16815260200185815250905086600801819080600181540180825580915050600190039060005260206000209060040201600090919091909150600082015181600001556020820151816001015560408201518160020155606082015181600301555050818760060160008567ffffffffffffffff168152602001908152602001600020819055506000868860090160008667ffffffffffffffff16815260200190815260200160002060008363ffffffff1663ffffffff168152602001908152602001600020819055507f5fe2c40955fb42111954fb4f898e4db4998d64ebaae1c872141ff1943990418a84878960405161177693929190613d11565b60405180910390a15050505b5050505050565b611797868686868686611f1e565b6117d6576040517f08c379a00000000000000000000000000000000000000000000000000000000081526004016117cd90613aa4565b60405180910390fd5b60006117e26000612273565b905060005b87600101548160ff161015611abb57600084848360ff1681811061180e5761180d61452c565b5b90506020020160208101906118239190613297565b60ff16141561196c578760050160008260ff1681526020019081526020016000206001600281106118575761185661452c565b5b015486868360ff1681811061186f5761186e61452c565b5b9050602002013514156118ae57818860050160008360ff1681526020019081526020016000206000600281106118a8576118a761452c565b5b01819055505b73__$7dbbf6f96c7ef3a793cfa7d9c67f652bb8$__6329a5f2f6604051806040016040528085815260200189898660ff168181106118ef576118ee61452c565b5b905060200201358152506040518263ffffffff1660e01b815260040161191591906139bb565b60206040518083038186803b15801561192d57600080fd5b505af4158015611941573d6000803e3d6000fd5b505050506040513d601f19601f820116820180604052508101906119659190613055565b9150611aa8565b8760050160008260ff1681526020019081526020016000206000600281106119975761199661452c565b5b015486868360ff168181106119af576119ae61452c565b5b9050602002013514156119ee57818860050160008360ff1681526020019081526020016000206001600281106119e8576119e761452c565b5b01819055505b73__$7dbbf6f96c7ef3a793cfa7d9c67f652bb8$__6329a5f2f6604051806040016040528089898660ff16818110611a2957611a2861452c565b5b905060200201358152602001858152506040518263ffffffff1660e01b8152600401611a5591906139bb565b60206040518083038186803b158015611a6d57600080fd5b505af4158015611a81573d6000803e3d6000fd5b505050506040513d601f19601f82011682018060405250810190611aa59190613055565b91505b8080611ab390614438565b9150506117e7565b50808760030160008960020160009054906101000a900463ffffffff1663ffffffff1681526020019081526020016000208190555050505050505050565b6000806000905060008484905090505b60008160ff161115611bd1576000821180611b5e575060008585600184611b30919061428c565b60ff16818110611b4357611b4261452c565b5b9050602002016020810190611b589190613297565b60ff1614155b15611bc557600282611b7091906141fe565b915060018585600184611b83919061428c565b60ff16818110611b9657611b9561452c565b5b9050602002016020810190611bab9190613297565b60ff161415611bc457600182611bc19190613fcc565b91505b5b80600190039050611b09565b508091505092915050565b6000600882604051602001611bf1919061397e565b6040516020818303038152906040528051906020012060001c901c9050919050565b7f30644e72e131a029b85045b68181585d2833e84879b9709143e1f593f00000018110611c75576040517f08c379a0000000000000000000000000000000000000000000000000000000008152600401611c6c90613ac4565b60405180910390fd5b81600101546002611c8691906140e0565b826004015410611ccb576040517f08c379a0000000000000000000000000000000000000000000000000000000008152600401611cc290613ba4565b60405180910390fd5b600082600401549050600082905060005b84600101548160ff161015611e40576000600284611cfa919061446c565b1415611d4c576040518060400160405280838152602001611d1d8360ff16612273565b8152508560050160008360ff168152602001908152602001600020906002611d469291906128d3565b50611d7e565b818560050160008360ff168152602001908152602001600020600160028110611d7857611d7761452c565b5b01819055505b73__$7dbbf6f96c7ef3a793cfa7d9c67f652bb8$__6329a5f2f68660050160008460ff1681526020019081526020016000206040518263ffffffff1660e01b8152600401611dcc9190613a33565b60206040518083038186803b158015611de457600080fd5b505af4158015611df8573d6000803e3d6000fd5b505050506040513d601f19601f82011682018060405250810190611e1c9190613055565b9150600283611e2b919061405c565b92508080611e3890614438565b915050611cdc565b506000601e60018660020160009054906101000a900463ffffffff16611e669190614022565b611e70919061449d565b9050808560020160006101000a81548163ffffffff021916908363ffffffff160217905550818560030160008363ffffffff168152602001908152602001600020819055506001856004016000828254611eca9190613fcc565b925050819055505050505050565b600060d082901b60d01c65ffffffffffff169050919050565b600082600701600083815260200190815260200160002060009054906101000a900460ff16905092915050565b60007f30644e72e131a029b85045b68181585d2833e84879b9709143e1f593f00000018610611f82576040517f08c379a0000000000000000000000000000000000000000000000000000000008152600401611f7990613ac4565b60405180910390fd5b866001015483839050148015611f9e5750866001015485859050145b611fdd576040517f08c379a0000000000000000000000000000000000000000000000000000000008152600401611fd490613b64565b60405180910390fd5b600086905060005b88600101548160ff161015612233577f30644e72e131a029b85045b68181585d2833e84879b9709143e1f593f000000187878360ff1681811061202b5761202a61452c565b5b9050602002013510612072576040517f08c379a000000000000000000000000000000000000000000000000000000000815260040161206990613ae4565b60405180910390fd5b600085858360ff1681811061208a5761208961452c565b5b905060200201602081019061209f9190613297565b60ff1614156121665773__$7dbbf6f96c7ef3a793cfa7d9c67f652bb8$__6329a5f2f660405180604001604052808581526020018a8a8660ff168181106120e9576120e861452c565b5b905060200201358152506040518263ffffffff1660e01b815260040161210f91906139bb565b60206040518083038186803b15801561212757600080fd5b505af415801561213b573d6000803e3d6000fd5b505050506040513d601f19601f8201168201806040525081019061215f9190613055565b9150612220565b73__$7dbbf6f96c7ef3a793cfa7d9c67f652bb8$__6329a5f2f660405180604001604052808a8a8660ff168181106121a1576121a061452c565b5b905060200201358152602001858152506040518263ffffffff1660e01b81526004016121cd91906139bb565b60206040518083038186803b1580156121e557600080fd5b505af41580156121f9573d6000803e3d6000fd5b505050506040513d601f19601f8201168201806040525081019061221d9190613055565b91505b808061222b90614438565b915050611fe5565b508760030160008960020160009054906101000a900463ffffffff1663ffffffff1681526020019081526020016000205481149150509695505050505050565b6000808214156122a5577f2fe54c60d3acabf3343a35b6eba15db4821b340f76e741e2249685ed4899af6c90506128ce565b60018214156122d6577f13e37f2d6cb86c78ccc1788607c2b199788c6bb0a615a21f2e7a8e88384222f890506128ce565b6002821415612307577f217126fa352c326896e8c2803eec8fd63ad50cf65edfef27a41a9e32dc62276590506128ce565b6003821415612338577f0e28a61a9b3e91007d5a9e3ada18e1b24d6d230c618388ee5df34cacd7397eee90506128ce565b6004821415612369577f27953447a6979839536badc5425ed15fadb0e292e9bc36f92f0aa5cfa501358790506128ce565b600582141561239a577f194191edbfb91d10f6a7afd315f33095410c7801c47175c2df6dc2cce0e3affc90506128ce565b60068214156123cb577f1733dece17d71190516dbaf1927936fa643dc7079fc0cc731de9d6845a47741f90506128ce565b60078214156123fc577f267855a7dc75db39d81d17f95d0a7aa572bf5ae19f4db0e84221d2b2ef99921990506128ce565b600882141561242d577f1184e11836b4c36ad8238a340ecc0985eeba665327e33e9b0e3641027c27620d90506128ce565b600982141561245e577f0702ab83a135d7f55350ab1bfaa90babd8fc1d2b3e6a7215381a7b2213d6c5ce90506128ce565b600a82141561248f577f2eecc0de814cfd8c57ce882babb2e30d1da56621aef7a47f3291cffeaec26ad790506128ce565b600b8214156124c0577f280bc02145c155d5833585b6c7b08501055157dd30ce005319621dc462d33b4790506128ce565b600c8214156124f1577f045132221d1fa0a7f4aed8acd2cbec1e2189b7732ccb2ec272b9c60f0d5afc5b90506128ce565b600d821415612522577f27f427ccbf58a44b1270abbe4eda6ba53bd6ac4d88cf1e00a13c4371ce71d36690506128ce565b600e821415612553577f1617eaae5064f26e8f8a6493ae92bfded7fde71b65df1ca6d5dcec0df70b2cef90506128ce565b600f821415612584577f20c6b400d0ea1b15435703c31c31ee63ad7ba5c8da66cec2796feacea575abca90506128ce565b60108214156125b5577f09589ddb438723f53a8e57bdada7c5f8ed67e8fece3889a73618732965645eec90506128ce565b60118214156125e5577e64b6a738a5ff537db7b220f3394f0ecbd35bfd355c5425dc1166bf3236079b90506128ce565b6012821415612616577f095de56281b1d5055e897c3574ff790d5ee81dbc5df784ad2d67795e557c9e9f90506128ce565b6013821415612647577f11cf2e2887aa21963a6ec14289183efe4d4c60f14ecd3d6fe0beebdf855a9b6390506128ce565b6014821415612678577f2b0f6fc0179fa65b6f73627c0e1e84c7374d2eaec44c9a48f2571393ea77bcbb90506128ce565b60158214156126a9577f16fdb637c2abf9c0f988dbf2fd64258c46fb6a273d537b2cf1603ea460b1327990506128ce565b60168214156126da577f21bbd7e944f6124dad4c376df9cc12e7ca66e47dff703ff7cedb1a454edcf0ff90506128ce565b601782141561270b577f2784f8220b1c963e468f590f137baaa1625b3b92a27ad9b6e84eb0d3454d996290506128ce565b601882141561273c577f16ace1a65b7534142f8cc1aad810b3d6a7a74ca905d9c275cb98ba57e509fc1090506128ce565b601982141561276d577f2328068c6a8c24265124debd8fe10d3f29f0665ea725a65e3638f6192a96a01390506128ce565b601a82141561279e577f2ddb991be1f028022411b4c4d2c22043e5e751c120736f00adf54acab1c9ac1490506128ce565b601b8214156127cf577f0113798410eaeb95056a464f70521eb58377c0155f2fe518a5594d38cc209cc090506128ce565b601c821415612800577f202d1ae61526f0d0d01ef80fb5d4055a7af45721024c2c24cffd6a3798f54d5090506128ce565b601d821415612831577f23ab323453748129f2765f79615022f5bebd6f4096a796300aab049a60b0f18790506128ce565b601e821415612862577f1f15585f8947e378bcf8bd918716799da909acdb944c57150b1eb4565fda8aa090506128ce565b601f821415612893577f1eb064b21055ac6a350cf41eb30e4ce2cb19680217df3a243617c2838185ad0690506128ce565b6040517f08c379a00000000000000000000000000000000000000000000000000000000081526004016128c590613b84565b60405180910390fd5b919050565b8260028101928215612902579160200282015b828111156129015782518255916020019190600101906128e6565b5b50905061290f9190612913565b5090565b5b8082111561292c576000816000905550600101612914565b5090565b600061294361293e84613d88565b613d63565b90508083825260208201905082856020860282011115612966576129656145ac565b5b60005b85811015612996578161297c8882612cdf565b845260208401935060208301925050600181019050612969565b5050509392505050565b60006129b36129ae84613db4565b613d63565b905080838252602082019050828560808602820111156129d6576129d56145ac565b5b60005b85811015612a0657816129ec8882612d78565b8452602084019350608083019250506001810190506129d9565b5050509392505050565b6000612a23612a1e84613de0565b613d63565b90508082856020860282011115612a3d57612a3c6145ac565b5b60005b85811015612a6d5781612a538882612df0565b845260208401935060208301925050600181019050612a40565b5050509392505050565b6000612a8a612a8584613e06565b613d63565b90508082856020860282011115612aa457612aa36145ac565b5b60005b85811015612ad45781612aba8882612df0565b845260208401935060208301925050600181019050612aa7565b5050509392505050565b6000612af1612aec84613e2c565b613d63565b905082815260208101848484011115612b0d57612b0c6145b1565b5b612b18848285614371565b509392505050565b600081359050612b2f816148b8565b92915050565b600082601f830112612b4a57612b496145a2565b5b8151612b5a848260208601612930565b91505092915050565b600082601f830112612b7857612b776145a2565b5b8151612b888482602086016129a0565b91505092915050565b600082601f830112612ba657612ba56145a2565b5b6002612bb3848285612a10565b91505092915050565b600081905082602060080282011115612bd857612bd76145ac565b5b92915050565b600082601f830112612bf357612bf26145a2565b5b6008612c00848285612a77565b91505092915050565b60008083601f840112612c1f57612c1e6145a2565b5b8235905067ffffffffffffffff811115612c3c57612c3b61459d565b5b602083019150836020820283011115612c5857612c576145ac565b5b9250929050565b60008083601f840112612c7557612c746145a2565b5b8235905067ffffffffffffffff811115612c9257612c9161459d565b5b602083019150836020820283011115612cae57612cad6145ac565b5b9250929050565b600081519050612cc4816148cf565b92915050565b600081359050612cd9816148e6565b92915050565b600081519050612cee816148e6565b92915050565b60008083601f840112612d0a57612d096145a2565b5b8235905067ffffffffffffffff811115612d2757612d2661459d565b5b602083019150836001820283011115612d4357612d426145ac565b5b9250929050565b600082601f830112612d5f57612d5e6145a2565b5b8151612d6f848260208601612ade565b91505092915050565b600060808284031215612d8e57612d8d6145a7565b5b612d986080613d63565b90506000612da884828501612e05565b6000830152506020612dbc84828501612e05565b6020830152506040612dd084828501612e05565b6040830152506060612de484828501612cdf565b60608301525092915050565b600081359050612dff816148fd565b92915050565b600081519050612e14816148fd565b92915050565b600081359050612e2981614914565b92915050565b600081359050612e3e8161492b565b92915050565b600060208284031215612e5a57612e596145bb565b5b600082015167ffffffffffffffff811115612e7857612e776145b6565b5b612e8484828501612b63565b91505092915050565b600060408284031215612ea357612ea26145bb565b5b6000612eb184828501612b91565b91505092915050565b60006101008284031215612ed157612ed06145bb565b5b6000612edf84828501612bde565b91505092915050565b600060208284031215612efe57612efd6145bb565b5b6000612f0c84828501612cb5565b91505092915050565b6000806000806000806101808789031215612f3357612f326145bb565b5b6000612f4189828a01612cca565b9650506020612f5289828a01612df0565b9550506040612f6389828a01612df0565b945050606087013567ffffffffffffffff811115612f8457612f836145b6565b5b612f9089828a01612cf4565b93509350506080612fa389828a01612bbc565b9150509295509295509295565b60008060408385031215612fc757612fc66145bb565b5b600083015167ffffffffffffffff811115612fe557612fe46145b6565b5b612ff185828601612d4a565b925050602083015167ffffffffffffffff811115613012576130116145b6565b5b61301e85828601612b35565b9150509250929050565b60006020828403121561303e5761303d6145bb565b5b600061304c84828501612df0565b91505092915050565b60006020828403121561306b5761306a6145bb565b5b600061307984828501612e05565b91505092915050565b60008060006040848603121561309b5761309a6145bb565b5b60006130a986828701612df0565b935050602084013567ffffffffffffffff8111156130ca576130c96145b6565b5b6130d686828701612cf4565b92509250509250925092565b600080604083850312156130f9576130f86145bb565b5b600061310785828601612df0565b925050602061311885828601612df0565b9150509250929050565b6000806000806080858703121561313c5761313b6145bb565b5b600061314a87828801612df0565b945050602061315b87828801612df0565b935050604061316c87828801612b20565b925050606061317d87828801612e2f565b91505092959194509250565b600080600080600080608087890312156131a6576131a56145bb565b5b60006131b489828a01612df0565b96505060206131c589828a01612df0565b955050604087013567ffffffffffffffff8111156131e6576131e56145b6565b5b6131f289828a01612c09565b9450945050606087013567ffffffffffffffff811115613215576132146145b6565b5b61322189828a01612c5f565b92509250509295509295509295565b6000806000806080858703121561324a576132496145bb565b5b600061325887828801612df0565b945050602061326987828801612df0565b935050604061327a87828801612e1a565b925050606061328b87828801612cca565b91505092959194509250565b6000602082840312156132ad576132ac6145bb565b5b60006132bb84828501612e2f565b91505092915050565b60006132d083836133d9565b60408301905092915050565b60006132e88383613828565b60808301905092915050565b60006133008383613906565b60208301905092915050565b60006133188383613933565b60208301905092915050565b61332d81613ea5565b6133378184613f40565b925061334282613e5d565b8060005b8381101561337357815161335a87826132c4565b965061336583613ef2565b925050600181019050613346565b505050505050565b600061338682613eb0565b6133908185613f4b565b935061339b83613e67565b8060005b838110156133cc5781516133b388826132dc565b97506133be83613eff565b92505060018101905061339f565b5085935050505092915050565b6133e281613ebb565b6133ec8184613f5c565b92506133f782613e77565b8060005b8381101561342857815161340f87826132f4565b965061341a83613f0c565b9250506001810190506133fb565b505050505050565b61343981613ebb565b6134438184613f67565b925061344e82613e77565b8060005b8381101561347f57815161346687826132f4565b965061347183613f0c565b925050600181019050613452565b505050505050565b61349081613ebb565b61349a8184613f72565b92506134a582613e77565b8060005b838110156134d65781516134bd878261330c565b96506134c883613f0c565b9250506001810190506134a9565b505050505050565b6134e781613ec6565b6134f18184613f72565b92506134fc82613e81565b8060005b83811015613534576135118261458a565b61351b878261330c565b965061352683613f19565b925050600181019050613500565b505050505050565b61354581613ed1565b61354f8184613f7d565b925061355a82613e8b565b8060005b8381101561358b578151613572878261330c565b965061357d83613f26565b92505060018101905061355e565b505050505050565b600061359e82613edc565b6135a88185613f88565b93506135b383613e95565b8060005b838110156135e45781516135cb888261330c565b97506135d683613f33565b9250506001810190506135b7565b5085935050505092915050565b6135fa816142dc565b82525050565b613609816142e8565b82525050565b613618816142e8565b82525050565b61362f61362a826142e8565b614462565b82525050565b600061364082613ee7565b61364a8185613f99565b935061365a818560208601614371565b613663816145c0565b840191505092915050565b600061367982613ee7565b6136838185613faa565b9350613693818560208601614371565b61369c816145c0565b840191505092915050565b60006136b4601a83613fbb565b91506136bf826145eb565b602082019050919050565b60006136d7603b83613fbb565b91506136e282614614565b604082019050919050565b60006136fa604083613fbb565b915061370582614663565b604082019050919050565b600061371d604883613fbb565b9150613728826146b2565b606082019050919050565b6000613740601e83613fbb565b915061374b82614727565b602082019050919050565b6000613763600c83613fbb565b915061376e82614750565b602082019050919050565b6000613786601e83613fbb565b915061379182614779565b602082019050919050565b60006137a9603c83613fbb565b91506137b4826147a2565b604082019050919050565b60006137cc601383613fbb565b91506137d7826147f1565b602082019050919050565b60006137ef602b83613fbb565b91506137fa8261481a565b604082019050919050565b6000613812602783613fbb565b915061381d82614869565b604082019050919050565b60808201600082015161383e6000850182613906565b5060208201516138516020850182613906565b5060408201516138646040850182613906565b5060608201516138776060850182613600565b50505050565b8082525050565b8082525050565b6000610180830160008301516138a4600086018261353c565b5060208301516138b8610100860182613933565b5060408301516138cc610120860182613933565b5060608301516138e0610140860182613933565b5060808301518482036101608601526138f9828261366e565b9150508091505092915050565b61390f81614312565b82525050565b61391e81614312565b82525050565b61392d81614312565b82525050565b61393c81614312565b82525050565b61394b8161434d565b82525050565b61395a8161435f565b82525050565b61396981614340565b82525050565b61397881614340565b82525050565b600061398a828461361e565b60208201915081905092915050565b600060208201905081810360008301526139b3818461337b565b905092915050565b60006040820190506139d06000830184613487565b92915050565b6000610140820190506139ec6000830188613430565b6139f96040830187613324565b613a0660c0830186613430565b818103610100830152613a198185613635565b9050613a29610120830184613960565b9695505050505050565b6000604082019050613a4860008301846134de565b92915050565b6000602082019050613a6360008301846135f1565b92915050565b6000602082019050613a7e600083018461360f565b92915050565b60006020820190508181036000830152613a9d816136a7565b9050919050565b60006020820190508181036000830152613abd816136ca565b9050919050565b60006020820190508181036000830152613add816136ed565b9050919050565b60006020820190508181036000830152613afd81613710565b9050919050565b60006020820190508181036000830152613b1d81613733565b9050919050565b60006020820190508181036000830152613b3d81613756565b9050919050565b60006020820190508181036000830152613b5d81613779565b9050919050565b60006020820190508181036000830152613b7d8161379c565b9050919050565b60006020820190508181036000830152613b9d816137bf565b9050919050565b60006020820190508181036000830152613bbd816137e2565b9050919050565b60006020820190508181036000830152613bdd81613805565b9050919050565b6000602082019050613bf9600083018461387d565b92915050565b6000606082019050613c14600083018661387d565b613c216020830185613924565b613c2e604083018461396f565b949350505050565b6000604082019050613c4b6000830185613884565b8181036020830152613c5d8184613593565b90509392505050565b60006040820190508181036000830152613c80818561388b565b9050613c8f602083018461396f565b9392505050565b6000602082019050613cab6000830184613915565b92915050565b6000604082019050613cc66000830185613915565b613cd36020830184613915565b9392505050565b6000606082019050613cef6000830186613915565b613cfc6020830185613915565b613d096040830184613915565b949350505050565b6000606082019050613d266000830186613951565b613d336020830185613942565b613d406040830184613915565b949350505050565b6000602082019050613d5d6000830184613960565b92915050565b6000613d6d613d7e565b9050613d7982826143be565b919050565b6000604051905090565b600067ffffffffffffffff821115613da357613da261455b565b5b602082029050602081019050919050565b600067ffffffffffffffff821115613dcf57613dce61455b565b5b602082029050602081019050919050565b600067ffffffffffffffff821115613dfb57613dfa61455b565b5b602082029050919050565b600067ffffffffffffffff821115613e2157613e2061455b565b5b602082029050919050565b600067ffffffffffffffff821115613e4757613e4661455b565b5b613e50826145c0565b9050602081019050919050565b6000819050919050565b6000819050602082019050919050565b6000819050919050565b6000819050919050565b6000819050919050565b6000819050602082019050919050565b600060029050919050565b600081519050919050565b600060029050919050565b600060029050919050565b600060089050919050565b600081519050919050565b600081519050919050565b6000602082019050919050565b6000602082019050919050565b6000602082019050919050565b6000600182019050919050565b6000602082019050919050565b6000602082019050919050565b600081905092915050565b600082825260208201905092915050565b600081905092915050565b600081905092915050565b600081905092915050565b600081905092915050565b600082825260208201905092915050565b600082825260208201905092915050565b600082825260208201905092915050565b600082825260208201905092915050565b6000613fd782614312565b9150613fe283614312565b9250827fffffffffffffffffffffffffffffffffffffffffffffffffffffffffffffffff03821115614017576140166144ce565b5b828201905092915050565b600061402d8261431c565b91506140388361431c565b92508263ffffffff03821115614051576140506144ce565b5b828201905092915050565b600061406782614312565b915061407283614312565b925082614082576140816144fd565b5b828204905092915050565b6000808291508390505b60018511156140d7578086048111156140b3576140b26144ce565b5b60018516156140c25780820291505b80810290506140d0856145de565b9450614097565b94509492505050565b60006140eb82614312565b91506140f683614312565b92506141237fffffffffffffffffffffffffffffffffffffffffffffffffffffffffffffffff848461412b565b905092915050565b60008261413b57600190506141f7565b8161414957600090506141f7565b816001811461415f576002811461416957614198565b60019150506141f7565b60ff84111561417b5761417a6144ce565b5b8360020a915084821115614192576141916144ce565b5b506141f7565b5060208310610133831016604e8410600b84101617156141cd5782820a9050838111156141c8576141c76144ce565b5b6141f7565b6141da848484600161408d565b925090508184048111156141f1576141f06144ce565b5b81810290505b9392505050565b600061420982614312565b915061421483614312565b9250817fffffffffffffffffffffffffffffffffffffffffffffffffffffffffffffffff048311821515161561424d5761424c6144ce565b5b828202905092915050565b600061426382614312565b915061426e83614312565b925082821015614281576142806144ce565b5b828203905092915050565b600061429782614340565b91506142a283614340565b9250828210156142b5576142b46144ce565b5b828203905092915050565b6000819050919050565b60006142d5826142f2565b9050919050565b60008115159050919050565b6000819050919050565b600073ffffffffffffffffffffffffffffffffffffffff82169050919050565b6000819050919050565b600063ffffffff82169050919050565b600067ffffffffffffffff82169050919050565b600060ff82169050919050565b60006143588261431c565b9050919050565b600061436a8261432c565b9050919050565b60005b8381101561438f578082015181840152602081019050614374565b8381111561439e576000848401525b50505050565b60006143b76143b2836145d1565b6142c0565b9050919050565b6143c7826145c0565b810181811067ffffffffffffffff821117156143e6576143e561455b565b5b80604052505050565b60006143fa82614312565b91507fffffffffffffffffffffffffffffffffffffffffffffffffffffffffffffffff82141561442d5761442c6144ce565b5b600182019050919050565b600061444382614340565b915060ff821415614457576144566144ce565b5b600182019050919050565b6000819050919050565b600061447782614312565b915061448283614312565b925082614492576144916144fd565b5b828206905092915050565b60006144a88261431c565b91506144b38361431c565b9250826144c3576144c26144fd565b5b828206905092915050565b7f4e487b7100000000000000000000000000000000000000000000000000000000600052601160045260246000fd5b7f4e487b7100000000000000000000000000000000000000000000000000000000600052601260045260246000fd5b7f4e487b7100000000000000000000000000000000000000000000000000000000600052603260045260246000fd5b7f4e487b7100000000000000000000000000000000000000000000000000000000600052604160045260246000fd5b600061459682546143a4565b9050919050565b600080fd5b600080fd5b600080fd5b600080fd5b600080fd5b600080fd5b600080fd5b6000601f19601f8301169050919050565b60008160001c9050919050565b60008160011c9050919050565b7f5468697320416e63686f72206973206174206361706163697479000000000000600082015250565b7f4c696e6b61626c65496e6372656d656e74616c42696e617279547265653a206c60008201527f656166206973206e6f742070617274206f662074686520747265650000000000602082015250565b7f4c696e6b61626c65496e6372656d656e74616c42696e617279547265653a206c60008201527f656166206d757374206265203c20534e41524b5f5343414c41525f4649454c44602082015250565b7f4c696e6b61626c65496e6372656d656e74616c42696e617279547265653a207360008201527f69626c696e67206e6f6465206d757374206265203c20534e41524b5f5343414c60208201527f41525f4649454c44000000000000000000000000000000000000000000000000604082015250565b7f7372635265736f757263654944206d757374206265207468652073616d650000600082015250565b7f696e76616c696450726f6f660000000000000000000000000000000000000000600082015250565b7f4e6577206c65616620696e646578206d75737420626520677265617465720000600082015250565b7f4c696e6b61626c65496e6372656d656e74616c42696e617279547265653a206c60008201527f656e677468206f662070617468206973206e6f7420636f727265637400000000602082015250565b7f496e646578206f7574206f6620626f756e647300000000000000000000000000600082015250565b7f4c696e6b61626c65496e6372656d656e74616c42696e617279547265653a207460008201527f7265652069732066756c6c000000000000000000000000000000000000000000602082015250565b7f4e6577206c65616620696e646578206d7573742077697468696e20325e31362060008201527f7570646174657300000000000000000000000000000000000000000000000000602082015250565b6148c1816142ca565b81146148cc57600080fd5b50565b6148d8816142dc565b81146148e357600080fd5b50565b6148ef816142e8565b81146148fa57600080fd5b50565b61490681614312565b811461491157600080fd5b50565b61491d8161431c565b811461492857600080fd5b50565b61493481614340565b811461493f57600080fd5b5056fea26469706673582212205b7826a6a8142f032bf8474af6538ab907569a19ed85bff13292921121adb73f64736f6c63430008060033","opcodes":"PUSH1 0x80 PUSH1 0x40 MSTORE CALLVALUE DUP1 ISZERO PUSH3 0x11 JUMPI PUSH1 0x0 DUP1 REVERT JUMPDEST POP PUSH1 0x40 MLOAD PUSH3 0x4D8B CODESIZE SUB DUP1 PUSH3 0x4D8B DUP4 CODECOPY DUP2 DUP2 ADD PUSH1 0x40 MSTORE DUP2 ADD SWAP1 PUSH3 0x37 SWAP2 SWAP1 PUSH3 0x22A JUMP JUMPDEST PUSH1 0x0 JUMPDEST DUP2 MLOAD DUP2 PUSH1 0xFF AND LT ISZERO PUSH3 0xED JUMPI DUP2 DUP2 PUSH1 0xFF AND DUP2 MLOAD DUP2 LT PUSH3 0x60 JUMPI PUSH3 0x5F PUSH3 0x347 JUMP JUMPDEST JUMPDEST PUSH1 0x20 MUL PUSH1 0x20 ADD ADD MLOAD PUSH1 0x0 ADD MLOAD PUSH1 0x1 PUSH1 0x0 DUP5 DUP5 PUSH1 0xFF AND DUP2 MLOAD DUP2 LT PUSH3 0x89 JUMPI PUSH3 0x88 PUSH3 0x347 JUMP JUMPDEST JUMPDEST PUSH1 0x20 MUL PUSH1 0x20 ADD ADD MLOAD PUSH1 0x20 ADD MLOAD DUP2 MSTORE PUSH1 0x20 ADD SWAP1 DUP2 MSTORE PUSH1 0x20 ADD PUSH1 0x0 KECCAK256 PUSH1 0x0 PUSH2 0x100 EXP DUP2 SLOAD DUP2 PUSH20 0xFFFFFFFFFFFFFFFFFFFFFFFFFFFFFFFFFFFFFFFF MUL NOT AND SWAP1 DUP4 PUSH20 0xFFFFFFFFFFFFFFFFFFFFFFFFFFFFFFFFFFFFFFFF AND MUL OR SWAP1 SSTORE POP DUP1 PUSH1 0x1 ADD SWAP1 POP PUSH3 0x3A JUMP JUMPDEST POP POP PUSH3 0x403 JUMP JUMPDEST PUSH1 0x0 PUSH3 0x10C PUSH3 0x106 DUP5 PUSH3 0x2A4 JUMP JUMPDEST PUSH3 0x27B JUMP JUMPDEST SWAP1 POP DUP1 DUP4 DUP3 MSTORE PUSH1 0x20 DUP3 ADD SWAP1 POP DUP3 DUP6 PUSH1 0x40 DUP7 MUL DUP3 ADD GT ISZERO PUSH3 0x132 JUMPI PUSH3 0x131 PUSH3 0x3AF JUMP JUMPDEST JUMPDEST PUSH1 0x0 JUMPDEST DUP6 DUP2 LT ISZERO PUSH3 0x166 JUMPI DUP2 PUSH3 0x14B DUP9 DUP3 PUSH3 0x1BA JUMP JUMPDEST DUP5 MSTORE PUSH1 0x20 DUP5 ADD SWAP4 POP PUSH1 0x40 DUP4 ADD SWAP3 POP POP PUSH1 0x1 DUP2 ADD SWAP1 POP PUSH3 0x135 JUMP JUMPDEST POP POP POP SWAP4 SWAP3 POP POP POP JUMP JUMPDEST PUSH1 0x0 DUP2 MLOAD SWAP1 POP PUSH3 0x181 DUP2 PUSH3 0x3CF JUMP JUMPDEST SWAP3 SWAP2 POP POP JUMP JUMPDEST PUSH1 0x0 DUP3 PUSH1 0x1F DUP4 ADD SLT PUSH3 0x19F JUMPI PUSH3 0x19E PUSH3 0x3A5 JUMP JUMPDEST JUMPDEST DUP2 MLOAD PUSH3 0x1B1 DUP5 DUP3 PUSH1 0x20 DUP7 ADD PUSH3 0xF5 JUMP JUMPDEST SWAP2 POP POP SWAP3 SWAP2 POP POP JUMP JUMPDEST PUSH1 0x0 PUSH1 0x40 DUP3 DUP5 SUB SLT ISZERO PUSH3 0x1D3 JUMPI PUSH3 0x1D2 PUSH3 0x3AA JUMP JUMPDEST JUMPDEST PUSH3 0x1DF PUSH1 0x40 PUSH3 0x27B JUMP JUMPDEST SWAP1 POP PUSH1 0x0 PUSH3 0x1F1 DUP5 DUP3 DUP6 ADD PUSH3 0x170 JUMP JUMPDEST PUSH1 0x0 DUP4 ADD MSTORE POP PUSH1 0x20 PUSH3 0x207 DUP5 DUP3 DUP6 ADD PUSH3 0x213 JUMP JUMPDEST PUSH1 0x20 DUP4 ADD MSTORE POP SWAP3 SWAP2 POP POP JUMP JUMPDEST PUSH1 0x0 DUP2 MLOAD SWAP1 POP PUSH3 0x224 DUP2 PUSH3 0x3E9 JUMP JUMPDEST SWAP3 SWAP2 POP POP JUMP JUMPDEST PUSH1 0x0 PUSH1 0x20 DUP3 DUP5 SUB SLT ISZERO PUSH3 0x243 JUMPI PUSH3 0x242 PUSH3 0x3B9 JUMP JUMPDEST JUMPDEST PUSH1 0x0 DUP3 ADD MLOAD PUSH8 0xFFFFFFFFFFFFFFFF DUP2 GT ISZERO PUSH3 0x264 JUMPI PUSH3 0x263 PUSH3 0x3B4 JUMP JUMPDEST JUMPDEST PUSH3 0x272 DUP5 DUP3 DUP6 ADD PUSH3 0x187 JUMP JUMPDEST SWAP2 POP POP SWAP3 SWAP2 POP POP JUMP JUMPDEST PUSH1 0x0 PUSH3 0x287 PUSH3 0x29A JUMP JUMPDEST SWAP1 POP PUSH3 0x295 DUP3 DUP3 PUSH3 0x311 JUMP JUMPDEST SWAP2 SWAP1 POP JUMP JUMPDEST PUSH1 0x0 PUSH1 0x40 MLOAD SWAP1 POP SWAP1 JUMP JUMPDEST PUSH1 0x0 PUSH8 0xFFFFFFFFFFFFFFFF DUP3 GT ISZERO PUSH3 0x2C2 JUMPI PUSH3 0x2C1 PUSH3 0x376 JUMP JUMPDEST JUMPDEST PUSH1 0x20 DUP3 MUL SWAP1 POP PUSH1 0x20 DUP2 ADD SWAP1 POP SWAP2 SWAP1 POP JUMP JUMPDEST PUSH1 0x0 PUSH3 0x2E0 DUP3 PUSH3 0x2E7 JUMP JUMPDEST SWAP1 POP SWAP2 SWAP1 POP JUMP JUMPDEST PUSH1 0x0 PUSH20 0xFFFFFFFFFFFFFFFFFFFFFFFFFFFFFFFFFFFFFFFF DUP3 AND SWAP1 POP SWAP2 SWAP1 POP JUMP JUMPDEST PUSH1 0x0 DUP2 SWAP1 POP SWAP2 SWAP1 POP JUMP JUMPDEST PUSH3 0x31C DUP3 PUSH3 0x3BE JUMP JUMPDEST DUP2 ADD DUP2 DUP2 LT PUSH8 0xFFFFFFFFFFFFFFFF DUP3 GT OR ISZERO PUSH3 0x33E JUMPI PUSH3 0x33D PUSH3 0x376 JUMP JUMPDEST JUMPDEST DUP1 PUSH1 0x40 MSTORE POP POP POP JUMP JUMPDEST PUSH32 0x4E487B7100000000000000000000000000000000000000000000000000000000 PUSH1 0x0 MSTORE PUSH1 0x32 PUSH1 0x4 MSTORE PUSH1 0x24 PUSH1 0x0 REVERT JUMPDEST PUSH32 0x4E487B7100000000000000000000000000000000000000000000000000000000 PUSH1 0x0 MSTORE PUSH1 0x41 PUSH1 0x4 MSTORE PUSH1 0x24 PUSH1 0x0 REVERT JUMPDEST PUSH1 0x0 DUP1 REVERT JUMPDEST PUSH1 0x0 DUP1 REVERT JUMPDEST PUSH1 0x0 DUP1 REVERT JUMPDEST PUSH1 0x0 DUP1 REVERT JUMPDEST PUSH1 0x0 DUP1 REVERT JUMPDEST PUSH1 0x0 PUSH1 0x1F NOT PUSH1 0x1F DUP4 ADD AND SWAP1 POP SWAP2 SWAP1 POP JUMP JUMPDEST PUSH3 0x3DA DUP2 PUSH3 0x2D3 JUMP JUMPDEST DUP2 EQ PUSH3 0x3E6 JUMPI PUSH1 0x0 DUP1 REVERT JUMPDEST POP JUMP JUMPDEST PUSH3 0x3F4 DUP2 PUSH3 0x307 JUMP JUMPDEST DUP2 EQ PUSH3 0x400 JUMPI PUSH1 0x0 DUP1 REVERT JUMPDEST POP JUMP JUMPDEST PUSH2 0x4978 DUP1 PUSH3 0x413 PUSH1 0x0 CODECOPY PUSH1 0x0 RETURN INVALID PUSH1 0x80 PUSH1 0x40 MSTORE CALLVALUE DUP1 ISZERO PUSH2 0x10 JUMPI PUSH1 0x0 DUP1 REVERT JUMPDEST POP PUSH1 0x4 CALLDATASIZE LT PUSH2 0xA9 JUMPI PUSH1 0x0 CALLDATALOAD PUSH1 0xE0 SHR DUP1 PUSH4 0x6BF4E35C GT PUSH2 0x71 JUMPI DUP1 PUSH4 0x6BF4E35C EQ PUSH2 0x176 JUMPI DUP1 PUSH4 0x78156953 EQ PUSH2 0x192 JUMPI DUP1 PUSH4 0x7B2B13B6 EQ PUSH2 0x1C2 JUMPI DUP1 PUSH4 0x8FE03587 EQ PUSH2 0x1DE JUMPI DUP1 PUSH4 0xDABC4D51 EQ PUSH2 0x1FA JUMPI DUP1 PUSH4 0xFCED271F EQ PUSH2 0x22A JUMPI PUSH2 0xA9 JUMP JUMPDEST DUP1 PUSH4 0x14F6D6E8 EQ PUSH2 0xAE JUMPI DUP1 PUSH4 0x474664D1 EQ PUSH2 0xCA JUMPI DUP1 PUSH4 0x5027000D EQ PUSH2 0xFA JUMPI DUP1 PUSH4 0x638480BE EQ PUSH2 0x116 JUMPI DUP1 PUSH4 0x6389E107 EQ PUSH2 0x146 JUMPI JUMPDEST PUSH1 0x0 DUP1 REVERT JUMPDEST PUSH2 0xC8 PUSH1 0x4 DUP1 CALLDATASIZE SUB DUP2 ADD SWAP1 PUSH2 0xC3 SWAP2 SWAP1 PUSH2 0x3230 JUMP JUMPDEST PUSH2 0x25A JUMP JUMPDEST STOP JUMPDEST PUSH2 0xE4 PUSH1 0x4 DUP1 CALLDATASIZE SUB DUP2 ADD SWAP1 PUSH2 0xDF SWAP2 SWAP1 PUSH2 0x3028 JUMP JUMPDEST PUSH2 0x2ED JUMP JUMPDEST PUSH1 0x40 MLOAD PUSH2 0xF1 SWAP2 SWAP1 PUSH2 0x3999 JUMP JUMPDEST PUSH1 0x40 MLOAD DUP1 SWAP2 SUB SWAP1 RETURN JUMPDEST PUSH2 0x114 PUSH1 0x4 DUP1 CALLDATASIZE SUB DUP2 ADD SWAP1 PUSH2 0x10F SWAP2 SWAP1 PUSH2 0x3189 JUMP JUMPDEST PUSH2 0x395 JUMP JUMPDEST STOP JUMPDEST PUSH2 0x130 PUSH1 0x4 DUP1 CALLDATASIZE SUB DUP2 ADD SWAP1 PUSH2 0x12B SWAP2 SWAP1 PUSH2 0x3028 JUMP JUMPDEST PUSH2 0x42C JUMP JUMPDEST PUSH1 0x40 MLOAD PUSH2 0x13D SWAP2 SWAP1 PUSH2 0x3C96 JUMP JUMPDEST PUSH1 0x40 MLOAD DUP1 SWAP2 SUB SWAP1 RETURN JUMPDEST PUSH2 0x160 PUSH1 0x4 DUP1 CALLDATASIZE SUB DUP2 ADD SWAP1 PUSH2 0x15B SWAP2 SWAP1 PUSH2 0x3028 JUMP JUMPDEST PUSH2 0x44B JUMP JUMPDEST PUSH1 0x40 MLOAD PUSH2 0x16D SWAP2 SWAP1 PUSH2 0x3C96 JUMP JUMPDEST PUSH1 0x40 MLOAD DUP1 SWAP2 SUB SWAP1 RETURN JUMPDEST PUSH2 0x190 PUSH1 0x4 DUP1 CALLDATASIZE SUB DUP2 ADD SWAP1 PUSH2 0x18B SWAP2 SWAP1 PUSH2 0x3122 JUMP JUMPDEST PUSH2 0x46A JUMP JUMPDEST STOP JUMPDEST PUSH2 0x1AC PUSH1 0x4 DUP1 CALLDATASIZE SUB DUP2 ADD SWAP1 PUSH2 0x1A7 SWAP2 SWAP1 PUSH2 0x3028 JUMP JUMPDEST PUSH2 0x5A7 JUMP JUMPDEST PUSH1 0x40 MLOAD PUSH2 0x1B9 SWAP2 SWAP1 PUSH2 0x3D48 JUMP JUMPDEST PUSH1 0x40 MLOAD DUP1 SWAP2 SUB SWAP1 RETURN JUMPDEST PUSH2 0x1DC PUSH1 0x4 DUP1 CALLDATASIZE SUB DUP2 ADD SWAP1 PUSH2 0x1D7 SWAP2 SWAP1 PUSH2 0x2F15 JUMP JUMPDEST PUSH2 0x5D3 JUMP JUMPDEST STOP JUMPDEST PUSH2 0x1F8 PUSH1 0x4 DUP1 CALLDATASIZE SUB DUP2 ADD SWAP1 PUSH2 0x1F3 SWAP2 SWAP1 PUSH2 0x30E2 JUMP JUMPDEST PUSH2 0x705 JUMP JUMPDEST STOP JUMPDEST PUSH2 0x214 PUSH1 0x4 DUP1 CALLDATASIZE SUB DUP2 ADD SWAP1 PUSH2 0x20F SWAP2 SWAP1 PUSH2 0x3028 JUMP JUMPDEST PUSH2 0x794 JUMP JUMPDEST PUSH1 0x40 MLOAD PUSH2 0x221 SWAP2 SWAP1 PUSH2 0x3C96 JUMP JUMPDEST PUSH1 0x40 MLOAD DUP1 SWAP2 SUB SWAP1 RETURN JUMPDEST PUSH2 0x244 PUSH1 0x4 DUP1 CALLDATASIZE SUB DUP2 ADD SWAP1 PUSH2 0x23F SWAP2 SWAP1 PUSH2 0x3082 JUMP JUMPDEST PUSH2 0x837 JUMP JUMPDEST PUSH1 0x40 MLOAD PUSH2 0x251 SWAP2 SWAP1 PUSH2 0x3A4E JUMP JUMPDEST PUSH1 0x40 MLOAD DUP1 SWAP2 SUB SWAP1 RETURN JUMPDEST DUP4 PUSH1 0x2 PUSH1 0x0 PUSH2 0x267 PUSH2 0xB2C JUMP JUMPDEST PUSH20 0xFFFFFFFFFFFFFFFFFFFFFFFFFFFFFFFFFFFFFFFF AND PUSH20 0xFFFFFFFFFFFFFFFFFFFFFFFFFFFFFFFFFFFFFFFF AND DUP2 MSTORE PUSH1 0x20 ADD SWAP1 DUP2 MSTORE PUSH1 0x20 ADD PUSH1 0x0 KECCAK256 SLOAD DUP2 EQ PUSH2 0x2DA JUMPI PUSH1 0x40 MLOAD PUSH32 0xCFD3B8500000000000000000000000000000000000000000000000000000000 DUP2 MSTORE PUSH1 0x4 ADD PUSH1 0x40 MLOAD DUP1 SWAP2 SUB SWAP1 REVERT JUMPDEST PUSH2 0x2E6 DUP6 DUP6 DUP6 DUP6 PUSH2 0xB34 JUMP JUMPDEST POP POP POP POP POP JUMP JUMPDEST PUSH1 0x60 PUSH1 0x0 DUP1 DUP4 DUP2 MSTORE PUSH1 0x20 ADD SWAP1 DUP2 MSTORE PUSH1 0x20 ADD PUSH1 0x0 KECCAK256 PUSH20 0x0 PUSH4 0x424C5FAB SWAP1 SWAP2 PUSH1 0x40 MLOAD DUP3 PUSH4 0xFFFFFFFF AND PUSH1 0xE0 SHL DUP2 MSTORE PUSH1 0x4 ADD PUSH2 0x339 SWAP2 SWAP1 PUSH2 0x3BE4 JUMP JUMPDEST PUSH1 0x0 PUSH1 0x40 MLOAD DUP1 DUP4 SUB DUP2 DUP7 DUP1 EXTCODESIZE ISZERO DUP1 ISZERO PUSH2 0x351 JUMPI PUSH1 0x0 DUP1 REVERT JUMPDEST POP GAS DELEGATECALL ISZERO DUP1 ISZERO PUSH2 0x365 JUMPI RETURNDATASIZE PUSH1 0x0 DUP1 RETURNDATACOPY RETURNDATASIZE PUSH1 0x0 REVERT JUMPDEST POP POP POP POP PUSH1 0x40 MLOAD RETURNDATASIZE PUSH1 0x0 DUP3 RETURNDATACOPY RETURNDATASIZE PUSH1 0x1F NOT PUSH1 0x1F DUP3 ADD AND DUP3 ADD DUP1 PUSH1 0x40 MSTORE POP DUP2 ADD SWAP1 PUSH2 0x38E SWAP2 SWAP1 PUSH2 0x2E44 JUMP JUMPDEST SWAP1 POP SWAP2 SWAP1 POP JUMP JUMPDEST DUP6 PUSH1 0x2 PUSH1 0x0 PUSH2 0x3A2 PUSH2 0xB2C JUMP JUMPDEST PUSH20 0xFFFFFFFFFFFFFFFFFFFFFFFFFFFFFFFFFFFFFFFF AND PUSH20 0xFFFFFFFFFFFFFFFFFFFFFFFFFFFFFFFFFFFFFFFF AND DUP2 MSTORE PUSH1 0x20 ADD SWAP1 DUP2 MSTORE PUSH1 0x20 ADD PUSH1 0x0 KECCAK256 SLOAD DUP2 EQ PUSH2 0x415 JUMPI PUSH1 0x40 MLOAD PUSH32 0xCFD3B8500000000000000000000000000000000000000000000000000000000 DUP2 MSTORE PUSH1 0x4 ADD PUSH1 0x40 MLOAD DUP1 SWAP2 SUB SWAP1 REVERT JUMPDEST PUSH2 0x423 DUP8 DUP8 DUP8 DUP8 DUP8 DUP8 PUSH2 0xB62 JUMP JUMPDEST POP POP POP POP POP POP POP JUMP JUMPDEST PUSH1 0x0 DUP1 PUSH1 0x0 DUP4 DUP2 MSTORE PUSH1 0x20 ADD SWAP1 DUP2 MSTORE PUSH1 0x20 ADD PUSH1 0x0 KECCAK256 PUSH1 0x4 ADD SLOAD SWAP1 POP SWAP2 SWAP1 POP JUMP JUMPDEST PUSH1 0x0 DUP1 PUSH1 0x0 DUP4 DUP2 MSTORE PUSH1 0x20 ADD SWAP1 DUP2 MSTORE PUSH1 0x20 ADD PUSH1 0x0 KECCAK256 PUSH1 0x1 ADD SLOAD SWAP1 POP SWAP2 SWAP1 POP JUMP JUMPDEST PUSH1 0x0 PUSH20 0xFFFFFFFFFFFFFFFFFFFFFFFFFFFFFFFFFFFFFFFF AND PUSH1 0x1 PUSH1 0x0 DUP6 DUP2 MSTORE PUSH1 0x20 ADD SWAP1 DUP2 MSTORE PUSH1 0x20 ADD PUSH1 0x0 KECCAK256 PUSH1 0x0 SWAP1 SLOAD SWAP1 PUSH2 0x100 EXP SWAP1 DIV PUSH20 0xFFFFFFFFFFFFFFFFFFFFFFFFFFFFFFFFFFFFFFFF AND PUSH20 0xFFFFFFFFFFFFFFFFFFFFFFFFFFFFFFFFFFFFFFFF AND EQ ISZERO PUSH2 0x504 JUMPI PUSH1 0x40 MLOAD PUSH32 0xECF64F1200000000000000000000000000000000000000000000000000000000 DUP2 MSTORE PUSH1 0x4 ADD PUSH1 0x40 MLOAD DUP1 SWAP2 SUB SWAP1 REVERT JUMPDEST PUSH2 0x50F DUP5 DUP5 DUP4 PUSH2 0xC32 JUMP JUMPDEST DUP4 PUSH1 0x2 PUSH1 0x0 DUP5 PUSH20 0xFFFFFFFFFFFFFFFFFFFFFFFFFFFFFFFFFFFFFFFF AND PUSH20 0xFFFFFFFFFFFFFFFFFFFFFFFFFFFFFFFFFFFFFFFF AND DUP2 MSTORE PUSH1 0x20 ADD SWAP1 DUP2 MSTORE PUSH1 0x20 ADD PUSH1 0x0 KECCAK256 DUP2 SWAP1 SSTORE POP DUP2 PUSH20 0xFFFFFFFFFFFFFFFFFFFFFFFFFFFFFFFFFFFFFFFF AND PUSH32 0x5340F46CCFDBF46CEA681E7481C711C8838CBCDA1356CAB6F31A2D0B2CD3525A DUP6 PUSH1 0x40 MLOAD PUSH2 0x599 SWAP2 SWAP1 PUSH2 0x3C96 JUMP JUMPDEST PUSH1 0x40 MLOAD DUP1 SWAP2 SUB SWAP1 LOG2 POP POP POP POP JUMP JUMPDEST PUSH1 0x0 DUP1 PUSH1 0x0 DUP4 DUP2 MSTORE PUSH1 0x20 ADD SWAP1 DUP2 MSTORE PUSH1 0x20 ADD PUSH1 0x0 KECCAK256 PUSH1 0x0 ADD PUSH1 0x0 SWAP1 SLOAD SWAP1 PUSH2 0x100 EXP SWAP1 DIV PUSH1 0xFF AND SWAP1 POP SWAP2 SWAP1 POP JUMP JUMPDEST DUP4 PUSH1 0x2 PUSH1 0x0 PUSH2 0x5E0 PUSH2 0xB2C JUMP JUMPDEST PUSH20 0xFFFFFFFFFFFFFFFFFFFFFFFFFFFFFFFFFFFFFFFF AND PUSH20 0xFFFFFFFFFFFFFFFFFFFFFFFFFFFFFFFFFFFFFFFF AND DUP2 MSTORE PUSH1 0x20 ADD SWAP1 DUP2 MSTORE PUSH1 0x20 ADD PUSH1 0x0 KECCAK256 SLOAD DUP2 EQ PUSH2 0x653 JUMPI PUSH1 0x40 MLOAD PUSH32 0xCFD3B8500000000000000000000000000000000000000000000000000000000 DUP2 MSTORE PUSH1 0x4 ADD PUSH1 0x40 MLOAD DUP1 SWAP2 SUB SWAP1 REVERT JUMPDEST PUSH1 0x0 PUSH2 0x65E DUP7 PUSH2 0x5A7 JUMP JUMPDEST SWAP1 POP PUSH1 0x0 PUSH2 0x66B DUP8 PUSH2 0x44B JUMP JUMPDEST SWAP1 POP PUSH1 0x0 PUSH1 0x1 PUSH1 0x0 DUP4 DUP2 MSTORE PUSH1 0x20 ADD SWAP1 DUP2 MSTORE PUSH1 0x20 ADD PUSH1 0x0 KECCAK256 PUSH1 0x0 SWAP1 SLOAD SWAP1 PUSH2 0x100 EXP SWAP1 DIV PUSH20 0xFFFFFFFFFFFFFFFFFFFFFFFFFFFFFFFFFFFFFFFF AND SWAP1 POP PUSH2 0x6B0 DUP9 DUP9 DUP9 PUSH2 0x837 JUMP JUMPDEST POP PUSH2 0x6C1 DUP11 DUP11 DUP11 DUP11 DUP11 DUP11 DUP8 DUP11 PUSH2 0xE29 JUMP JUMPDEST DUP8 PUSH32 0xF3FA3FF7A3348DE75B04ECEC5AC199157E2B877C68518DD37B48751B986AD789 DUP12 PUSH1 0x40 MLOAD PUSH2 0x6F1 SWAP2 SWAP1 PUSH2 0x3A69 JUMP JUMPDEST PUSH1 0x40 MLOAD DUP1 SWAP2 SUB SWAP1 LOG2 POP POP POP POP POP POP POP POP POP POP JUMP JUMPDEST DUP2 PUSH1 0x2 PUSH1 0x0 PUSH2 0x712 PUSH2 0xB2C JUMP JUMPDEST PUSH20 0xFFFFFFFFFFFFFFFFFFFFFFFFFFFFFFFFFFFFFFFF AND PUSH20 0xFFFFFFFFFFFFFFFFFFFFFFFFFFFFFFFFFFFFFFFF AND DUP2 MSTORE PUSH1 0x20 ADD SWAP1 DUP2 MSTORE PUSH1 0x20 ADD PUSH1 0x0 KECCAK256 SLOAD DUP2 EQ PUSH2 0x785 JUMPI PUSH1 0x40 MLOAD PUSH32 0xCFD3B8500000000000000000000000000000000000000000000000000000000 DUP2 MSTORE PUSH1 0x4 ADD PUSH1 0x40 MLOAD DUP1 SWAP2 SUB SWAP1 REVERT JUMPDEST PUSH2 0x78F DUP4 DUP4 PUSH2 0x1178 JUMP JUMPDEST POP POP POP JUMP JUMPDEST PUSH1 0x0 DUP1 PUSH1 0x0 DUP4 DUP2 MSTORE PUSH1 0x20 ADD SWAP1 DUP2 MSTORE PUSH1 0x20 ADD PUSH1 0x0 KECCAK256 PUSH20 0x0 PUSH4 0xCE8F1F35 SWAP1 SWAP2 PUSH1 0x40 MLOAD DUP3 PUSH4 0xFFFFFFFF AND PUSH1 0xE0 SHL DUP2 MSTORE PUSH1 0x4 ADD PUSH2 0x7E0 SWAP2 SWAP1 PUSH2 0x3BE4 JUMP JUMPDEST PUSH1 0x20 PUSH1 0x40 MLOAD DUP1 DUP4 SUB DUP2 DUP7 DUP1 EXTCODESIZE ISZERO DUP1 ISZERO PUSH2 0x7F8 JUMPI PUSH1 0x0 DUP1 REVERT JUMPDEST POP GAS DELEGATECALL ISZERO DUP1 ISZERO PUSH2 0x80C JUMPI RETURNDATASIZE PUSH1 0x0 DUP1 RETURNDATACOPY RETURNDATASIZE PUSH1 0x0 REVERT JUMPDEST POP POP POP POP PUSH1 0x40 MLOAD RETURNDATASIZE PUSH1 0x1F NOT PUSH1 0x1F DUP3 ADD AND DUP3 ADD DUP1 PUSH1 0x40 MSTORE POP DUP2 ADD SWAP1 PUSH2 0x830 SWAP2 SWAP1 PUSH2 0x3055 JUMP JUMPDEST SWAP1 POP SWAP2 SWAP1 POP JUMP JUMPDEST PUSH1 0x0 PUSH1 0x1 PUSH1 0x0 DUP1 DUP7 DUP2 MSTORE PUSH1 0x20 ADD SWAP1 DUP2 MSTORE PUSH1 0x20 ADD PUSH1 0x0 KECCAK256 PUSH1 0x0 ADD PUSH1 0x0 SWAP1 SLOAD SWAP1 PUSH2 0x100 EXP SWAP1 DIV PUSH1 0xFF AND PUSH1 0xFF AND EQ ISZERO PUSH2 0x9C8 JUMPI PUSH1 0x0 DUP4 DUP4 DUP2 ADD SWAP1 PUSH2 0x878 SWAP2 SWAP1 PUSH2 0x2E8D JUMP JUMPDEST SWAP1 POP PUSH1 0x0 PUSH1 0x2 PUSH8 0xFFFFFFFFFFFFFFFF DUP2 GT ISZERO PUSH2 0x897 JUMPI PUSH2 0x896 PUSH2 0x455B JUMP JUMPDEST JUMPDEST PUSH1 0x40 MLOAD SWAP1 DUP1 DUP3 MSTORE DUP1 PUSH1 0x20 MUL PUSH1 0x20 ADD DUP3 ADD PUSH1 0x40 MSTORE DUP1 ISZERO PUSH2 0x8C5 JUMPI DUP2 PUSH1 0x20 ADD PUSH1 0x20 DUP3 MUL DUP1 CALLDATASIZE DUP4 CALLDATACOPY DUP1 DUP3 ADD SWAP2 POP POP SWAP1 POP JUMPDEST POP SWAP1 POP PUSH1 0x0 JUMPDEST PUSH1 0x2 DUP2 LT ISZERO PUSH2 0x91E JUMPI DUP3 DUP2 PUSH1 0x2 DUP2 LT PUSH2 0x8E7 JUMPI PUSH2 0x8E6 PUSH2 0x452C JUMP JUMPDEST JUMPDEST PUSH1 0x20 MUL ADD MLOAD DUP3 DUP3 DUP2 MLOAD DUP2 LT PUSH2 0x8FF JUMPI PUSH2 0x8FE PUSH2 0x452C JUMP JUMPDEST JUMPDEST PUSH1 0x20 MUL PUSH1 0x20 ADD ADD DUP2 DUP2 MSTORE POP POP DUP1 DUP1 PUSH2 0x916 SWAP1 PUSH2 0x43EF JUMP JUMPDEST SWAP2 POP POP PUSH2 0x8CB JUMP JUMPDEST POP PUSH1 0x0 PUSH20 0x0 PUSH4 0x74D4479E PUSH1 0x0 DUP1 DUP11 DUP2 MSTORE PUSH1 0x20 ADD SWAP1 DUP2 MSTORE PUSH1 0x20 ADD PUSH1 0x0 KECCAK256 DUP5 PUSH1 0x40 MLOAD DUP4 PUSH4 0xFFFFFFFF AND PUSH1 0xE0 SHL DUP2 MSTORE PUSH1 0x4 ADD PUSH2 0x96B SWAP3 SWAP2 SWAP1 PUSH2 0x3C36 JUMP JUMPDEST PUSH1 0x20 PUSH1 0x40 MLOAD DUP1 DUP4 SUB DUP2 DUP7 DUP1 EXTCODESIZE ISZERO DUP1 ISZERO PUSH2 0x983 JUMPI PUSH1 0x0 DUP1 REVERT JUMPDEST POP GAS DELEGATECALL ISZERO DUP1 ISZERO PUSH2 0x997 JUMPI RETURNDATASIZE PUSH1 0x0 DUP1 RETURNDATACOPY RETURNDATASIZE PUSH1 0x0 REVERT JUMPDEST POP POP POP POP PUSH1 0x40 MLOAD RETURNDATASIZE PUSH1 0x1F NOT PUSH1 0x1F DUP3 ADD AND DUP3 ADD DUP1 PUSH1 0x40 MSTORE POP DUP2 ADD SWAP1 PUSH2 0x9BB SWAP2 SWAP1 PUSH2 0x2EE8 JUMP JUMPDEST SWAP1 POP DUP1 SWAP4 POP POP POP POP PUSH2 0xB25 JUMP JUMPDEST PUSH1 0x0 DUP4 DUP4 DUP2 ADD SWAP1 PUSH2 0x9D9 SWAP2 SWAP1 PUSH2 0x2EBA JUMP JUMPDEST SWAP1 POP PUSH1 0x0 PUSH1 0x8 PUSH8 0xFFFFFFFFFFFFFFFF DUP2 GT ISZERO PUSH2 0x9F8 JUMPI PUSH2 0x9F7 PUSH2 0x455B JUMP JUMPDEST JUMPDEST PUSH1 0x40 MLOAD SWAP1 DUP1 DUP3 MSTORE DUP1 PUSH1 0x20 MUL PUSH1 0x20 ADD DUP3 ADD PUSH1 0x40 MSTORE DUP1 ISZERO PUSH2 0xA26 JUMPI DUP2 PUSH1 0x20 ADD PUSH1 0x20 DUP3 MUL DUP1 CALLDATASIZE DUP4 CALLDATACOPY DUP1 DUP3 ADD SWAP2 POP POP SWAP1 POP JUMPDEST POP SWAP1 POP PUSH1 0x0 JUMPDEST PUSH1 0x8 DUP2 LT ISZERO PUSH2 0xA7F JUMPI DUP3 DUP2 PUSH1 0x8 DUP2 LT PUSH2 0xA48 JUMPI PUSH2 0xA47 PUSH2 0x452C JUMP JUMPDEST JUMPDEST PUSH1 0x20 MUL ADD MLOAD DUP3 DUP3 DUP2 MLOAD DUP2 LT PUSH2 0xA60 JUMPI PUSH2 0xA5F PUSH2 0x452C JUMP JUMPDEST JUMPDEST PUSH1 0x20 MUL PUSH1 0x20 ADD ADD DUP2 DUP2 MSTORE POP POP DUP1 DUP1 PUSH2 0xA77 SWAP1 PUSH2 0x43EF JUMP JUMPDEST SWAP2 POP POP PUSH2 0xA2C JUMP JUMPDEST POP PUSH1 0x0 PUSH20 0x0 PUSH4 0x74D4479E PUSH1 0x0 DUP1 DUP11 DUP2 MSTORE PUSH1 0x20 ADD SWAP1 DUP2 MSTORE PUSH1 0x20 ADD PUSH1 0x0 KECCAK256 DUP5 PUSH1 0x40 MLOAD DUP4 PUSH4 0xFFFFFFFF AND PUSH1 0xE0 SHL DUP2 MSTORE PUSH1 0x4 ADD PUSH2 0xACC SWAP3 SWAP2 SWAP1 PUSH2 0x3C36 JUMP JUMPDEST PUSH1 0x20 PUSH1 0x40 MLOAD DUP1 DUP4 SUB DUP2 DUP7 DUP1 EXTCODESIZE ISZERO DUP1 ISZERO PUSH2 0xAE4 JUMPI PUSH1 0x0 DUP1 REVERT JUMPDEST POP GAS DELEGATECALL ISZERO DUP1 ISZERO PUSH2 0xAF8 JUMPI RETURNDATASIZE PUSH1 0x0 DUP1 RETURNDATACOPY RETURNDATASIZE PUSH1 0x0 REVERT JUMPDEST POP POP POP POP PUSH1 0x40 MLOAD RETURNDATASIZE PUSH1 0x1F NOT PUSH1 0x1F DUP3 ADD AND DUP3 ADD DUP1 PUSH1 0x40 MSTORE POP DUP2 ADD SWAP1 PUSH2 0xB1C SWAP2 SWAP1 PUSH2 0x2EE8 JUMP JUMPDEST SWAP1 POP DUP1 SWAP4 POP POP POP POP JUMPDEST SWAP4 SWAP3 POP POP POP JUMP JUMPDEST PUSH1 0x0 CALLER SWAP1 POP SWAP1 JUMP JUMPDEST PUSH2 0xB5C DUP4 DUP4 DUP4 PUSH1 0x0 DUP1 DUP10 DUP2 MSTORE PUSH1 0x20 ADD SWAP1 DUP2 MSTORE PUSH1 0x20 ADD PUSH1 0x0 KECCAK256 PUSH2 0x1247 SWAP1 SWAP4 SWAP3 SWAP2 SWAP1 PUSH4 0xFFFFFFFF AND JUMP JUMPDEST POP POP POP POP JUMP JUMPDEST PUSH1 0x0 PUSH2 0xB6D DUP8 PUSH2 0x794 JUMP JUMPDEST EQ ISZERO PUSH2 0xBA5 JUMPI PUSH1 0x40 MLOAD PUSH32 0x29F057900000000000000000000000000000000000000000000000000000000 DUP2 MSTORE PUSH1 0x4 ADD PUSH1 0x40 MLOAD DUP1 SWAP2 SUB SWAP1 REVERT JUMPDEST PUSH2 0xBD1 DUP6 DUP6 DUP6 DUP6 DUP6 PUSH1 0x0 DUP1 DUP14 DUP2 MSTORE PUSH1 0x20 ADD SWAP1 DUP2 MSTORE PUSH1 0x20 ADD PUSH1 0x0 KECCAK256 PUSH2 0x1789 SWAP1 SWAP6 SWAP5 SWAP4 SWAP3 SWAP2 SWAP1 PUSH4 0xFFFFFFFF AND JUMP JUMPDEST PUSH1 0x0 PUSH2 0xBDC DUP8 PUSH2 0x794 JUMP JUMPDEST SWAP1 POP PUSH1 0x0 PUSH2 0xBEA DUP5 DUP5 PUSH2 0x1AF9 JUMP JUMPDEST SWAP1 POP DUP8 PUSH32 0x3108849C053C77B8073A11256DFFB5FFD5B55E93E105A355E1C9061DB890D871 DUP3 DUP10 DUP6 PUSH1 0x40 MLOAD PUSH2 0xC20 SWAP4 SWAP3 SWAP2 SWAP1 PUSH2 0x3CDA JUMP JUMPDEST PUSH1 0x40 MLOAD DUP1 SWAP2 SUB SWAP1 LOG2 POP POP POP POP POP POP POP POP JUMP JUMPDEST PUSH32 0x30644E72E131A029B85045B68181585D2833E84879B9709143E1F593F0000001 DUP4 LT PUSH2 0xC8B JUMPI PUSH1 0x40 MLOAD PUSH32 0xA61C78CA00000000000000000000000000000000000000000000000000000000 DUP2 MSTORE PUSH1 0x4 ADD PUSH1 0x40 MLOAD DUP1 SWAP2 SUB SWAP1 REVERT JUMPDEST PUSH1 0x0 PUSH2 0xC96 DUP5 PUSH2 0x44B JUMP JUMPDEST EQ PUSH2 0xCCD JUMPI PUSH1 0x40 MLOAD PUSH32 0x8121725B00000000000000000000000000000000000000000000000000000000 DUP2 MSTORE PUSH1 0x4 ADD PUSH1 0x40 MLOAD DUP1 SWAP2 SUB SWAP1 REVERT JUMPDEST PUSH1 0x0 DUP1 DUP5 DUP2 MSTORE PUSH1 0x20 ADD SWAP1 DUP2 MSTORE PUSH1 0x20 ADD PUSH1 0x0 KECCAK256 PUSH20 0x0 PUSH4 0x3330CA3A SWAP1 SWAP2 DUP5 DUP5 PUSH1 0x40 MLOAD DUP5 PUSH4 0xFFFFFFFF AND PUSH1 0xE0 SHL DUP2 MSTORE PUSH1 0x4 ADD PUSH2 0xD1B SWAP4 SWAP3 SWAP2 SWAP1 PUSH2 0x3BFF JUMP JUMPDEST PUSH1 0x0 PUSH1 0x40 MLOAD DUP1 DUP4 SUB DUP2 DUP7 DUP1 EXTCODESIZE ISZERO DUP1 ISZERO PUSH2 0xD33 JUMPI PUSH1 0x0 DUP1 REVERT JUMPDEST POP GAS DELEGATECALL ISZERO DUP1 ISZERO PUSH2 0xD47 JUMPI RETURNDATASIZE PUSH1 0x0 DUP1 RETURNDATACOPY RETURNDATASIZE PUSH1 0x0 REVERT JUMPDEST POP POP POP POP PUSH1 0x0 DUP1 PUSH1 0x0 DUP6 DUP2 MSTORE PUSH1 0x20 ADD SWAP1 DUP2 MSTORE PUSH1 0x20 ADD PUSH1 0x0 KECCAK256 PUSH20 0x0 PUSH4 0xCE8F1F35 SWAP1 SWAP2 PUSH1 0x40 MLOAD DUP3 PUSH4 0xFFFFFFFF AND PUSH1 0xE0 SHL DUP2 MSTORE PUSH1 0x4 ADD PUSH2 0xD97 SWAP2 SWAP1 PUSH2 0x3BE4 JUMP JUMPDEST PUSH1 0x20 PUSH1 0x40 MLOAD DUP1 DUP4 SUB DUP2 DUP7 DUP1 EXTCODESIZE ISZERO DUP1 ISZERO PUSH2 0xDAF JUMPI PUSH1 0x0 DUP1 REVERT JUMPDEST POP GAS DELEGATECALL ISZERO DUP1 ISZERO PUSH2 0xDC3 JUMPI RETURNDATASIZE PUSH1 0x0 DUP1 RETURNDATACOPY RETURNDATASIZE PUSH1 0x0 REVERT JUMPDEST POP POP POP POP PUSH1 0x40 MLOAD RETURNDATASIZE PUSH1 0x1F NOT PUSH1 0x1F DUP3 ADD AND DUP3 ADD DUP1 PUSH1 0x40 MSTORE POP DUP2 ADD SWAP1 PUSH2 0xDE7 SWAP2 SWAP1 PUSH2 0x3055 JUMP JUMPDEST SWAP1 POP DUP4 PUSH32 0xD000126C26C1BBE400FD2332187F75D58B69306F9EC47B408686189D3A00833 DUP5 DUP4 PUSH1 0x40 MLOAD PUSH2 0xE1B SWAP3 SWAP2 SWAP1 PUSH2 0x3CB1 JUMP JUMPDEST PUSH1 0x40 MLOAD DUP1 SWAP2 SUB SWAP1 LOG2 POP POP POP POP JUMP JUMPDEST PUSH1 0x0 PUSH2 0xE34 DUP10 PUSH2 0x1BDC JUMP JUMPDEST SWAP1 POP PUSH1 0x0 PUSH1 0x40 MLOAD DUP1 PUSH1 0xA0 ADD PUSH1 0x40 MSTORE DUP1 DUP7 PUSH1 0x8 DUP1 PUSH1 0x20 MUL PUSH1 0x40 MLOAD SWAP1 DUP2 ADD PUSH1 0x40 MSTORE DUP1 SWAP3 SWAP2 SWAP1 DUP3 PUSH1 0x8 PUSH1 0x20 MUL DUP1 DUP3 DUP5 CALLDATACOPY PUSH1 0x0 DUP2 DUP5 ADD MSTORE PUSH1 0x1F NOT PUSH1 0x1F DUP3 ADD AND SWAP1 POP DUP1 DUP4 ADD SWAP3 POP POP POP POP POP POP DUP2 MSTORE PUSH1 0x20 ADD DUP11 DUP2 MSTORE PUSH1 0x20 ADD DUP4 DUP2 MSTORE PUSH1 0x20 ADD DUP10 DUP2 MSTORE PUSH1 0x20 ADD DUP9 DUP9 DUP1 DUP1 PUSH1 0x1F ADD PUSH1 0x20 DUP1 SWAP2 DIV MUL PUSH1 0x20 ADD PUSH1 0x40 MLOAD SWAP1 DUP2 ADD PUSH1 0x40 MSTORE DUP1 SWAP4 SWAP3 SWAP2 SWAP1 DUP2 DUP2 MSTORE PUSH1 0x20 ADD DUP4 DUP4 DUP1 DUP3 DUP5 CALLDATACOPY PUSH1 0x0 DUP2 DUP5 ADD MSTORE PUSH1 0x1F NOT PUSH1 0x1F DUP3 ADD AND SWAP1 POP DUP1 DUP4 ADD SWAP3 POP POP POP POP POP POP POP DUP2 MSTORE POP SWAP1 POP PUSH1 0x0 DUP2 PUSH20 0x0 PUSH4 0xF0D4020D SWAP1 SWAP2 DUP7 PUSH1 0x40 MLOAD DUP4 PUSH4 0xFFFFFFFF AND PUSH1 0xE0 SHL DUP2 MSTORE PUSH1 0x4 ADD PUSH2 0xF19 SWAP3 SWAP2 SWAP1 PUSH2 0x3C66 JUMP JUMPDEST PUSH1 0x0 PUSH1 0x40 MLOAD DUP1 DUP4 SUB DUP2 DUP7 DUP1 EXTCODESIZE ISZERO DUP1 ISZERO PUSH2 0xF31 JUMPI PUSH1 0x0 DUP1 REVERT JUMPDEST POP GAS DELEGATECALL ISZERO DUP1 ISZERO PUSH2 0xF45 JUMPI RETURNDATASIZE PUSH1 0x0 DUP1 RETURNDATACOPY RETURNDATASIZE PUSH1 0x0 REVERT JUMPDEST POP POP POP POP PUSH1 0x40 MLOAD RETURNDATASIZE PUSH1 0x0 DUP3 RETURNDATACOPY RETURNDATASIZE PUSH1 0x1F NOT PUSH1 0x1F DUP3 ADD AND DUP3 ADD DUP1 PUSH1 0x40 MSTORE POP DUP2 ADD SWAP1 PUSH2 0xF6E SWAP2 SWAP1 PUSH2 0x2FB0 JUMP JUMPDEST POP SWAP1 POP PUSH1 0x0 DUP6 PUSH20 0xFFFFFFFFFFFFFFFFFFFFFFFFFFFFFFFFFFFFFFFF AND PUSH4 0xB4B764F2 PUSH1 0x40 MLOAD DUP1 PUSH1 0x40 ADD PUSH1 0x40 MSTORE DUP1 DUP11 PUSH1 0x0 PUSH1 0x8 DUP2 LT PUSH2 0xFAE JUMPI PUSH2 0xFAD PUSH2 0x452C JUMP JUMPDEST JUMPDEST PUSH1 0x20 MUL ADD CALLDATALOAD DUP2 MSTORE PUSH1 0x20 ADD DUP11 PUSH1 0x1 PUSH1 0x8 DUP2 LT PUSH2 0xFCC JUMPI PUSH2 0xFCB PUSH2 0x452C JUMP JUMPDEST JUMPDEST PUSH1 0x20 MUL ADD CALLDATALOAD DUP2 MSTORE POP PUSH1 0x40 MLOAD DUP1 PUSH1 0x40 ADD PUSH1 0x40 MSTORE DUP1 PUSH1 0x40 MLOAD DUP1 PUSH1 0x40 ADD PUSH1 0x40 MSTORE DUP1 DUP14 PUSH1 0x2 PUSH1 0x8 DUP2 LT PUSH2 0xFFE JUMPI PUSH2 0xFFD PUSH2 0x452C JUMP JUMPDEST JUMPDEST PUSH1 0x20 MUL ADD CALLDATALOAD DUP2 MSTORE PUSH1 0x20 ADD DUP14 PUSH1 0x3 PUSH1 0x8 DUP2 LT PUSH2 0x101C JUMPI PUSH2 0x101B PUSH2 0x452C JUMP JUMPDEST JUMPDEST PUSH1 0x20 MUL ADD CALLDATALOAD DUP2 MSTORE POP DUP2 MSTORE PUSH1 0x20 ADD PUSH1 0x40 MLOAD DUP1 PUSH1 0x40 ADD PUSH1 0x40 MSTORE DUP1 DUP14 PUSH1 0x4 PUSH1 0x8 DUP2 LT PUSH2 0x1048 JUMPI PUSH2 0x1047 PUSH2 0x452C JUMP JUMPDEST JUMPDEST PUSH1 0x20 MUL ADD CALLDATALOAD DUP2 MSTORE PUSH1 0x20 ADD DUP14 PUSH1 0x5 PUSH1 0x8 DUP2 LT PUSH2 0x1066 JUMPI PUSH2 0x1065 PUSH2 0x452C JUMP JUMPDEST JUMPDEST PUSH1 0x20 MUL ADD CALLDATALOAD DUP2 MSTORE POP DUP2 MSTORE POP PUSH1 0x40 MLOAD DUP1 PUSH1 0x40 ADD PUSH1 0x40 MSTORE DUP1 DUP13 PUSH1 0x6 PUSH1 0x8 DUP2 LT PUSH2 0x1090 JUMPI PUSH2 0x108F PUSH2 0x452C JUMP JUMPDEST JUMPDEST PUSH1 0x20 MUL ADD CALLDATALOAD DUP2 MSTORE PUSH1 0x20 ADD DUP13 PUSH1 0x7 PUSH1 0x8 DUP2 LT PUSH2 0x10AE JUMPI PUSH2 0x10AD PUSH2 0x452C JUMP JUMPDEST JUMPDEST PUSH1 0x20 MUL ADD CALLDATALOAD DUP2 MSTORE POP DUP7 DUP11 PUSH1 0x40 MLOAD DUP7 PUSH4 0xFFFFFFFF AND PUSH1 0xE0 SHL DUP2 MSTORE PUSH1 0x4 ADD PUSH2 0x10D8 SWAP6 SWAP5 SWAP4 SWAP3 SWAP2 SWAP1 PUSH2 0x39D6 JUMP JUMPDEST PUSH1 0x20 PUSH1 0x40 MLOAD DUP1 DUP4 SUB DUP2 DUP7 DUP1 EXTCODESIZE ISZERO DUP1 ISZERO PUSH2 0x10F0 JUMPI PUSH1 0x0 DUP1 REVERT JUMPDEST POP GAS STATICCALL ISZERO DUP1 ISZERO PUSH2 0x1104 JUMPI RETURNDATASIZE PUSH1 0x0 DUP1 RETURNDATACOPY RETURNDATASIZE PUSH1 0x0 REVERT JUMPDEST POP POP POP POP PUSH1 0x40 MLOAD RETURNDATASIZE PUSH1 0x1F NOT PUSH1 0x1F DUP3 ADD AND DUP3 ADD DUP1 PUSH1 0x40 MSTORE POP DUP2 ADD SWAP1 PUSH2 0x1128 SWAP2 SWAP1 PUSH2 0x2EE8 JUMP JUMPDEST SWAP1 POP DUP1 PUSH2 0x116A JUMPI PUSH1 0x40 MLOAD PUSH32 0x8C379A000000000000000000000000000000000000000000000000000000000 DUP2 MSTORE PUSH1 0x4 ADD PUSH2 0x1161 SWAP1 PUSH2 0x3B24 JUMP JUMPDEST PUSH1 0x40 MLOAD DUP1 SWAP2 SUB SWAP1 REVERT JUMPDEST POP POP POP POP POP POP POP POP POP POP POP POP JUMP JUMPDEST PUSH1 0x0 PUSH2 0x1183 DUP4 PUSH2 0x44B JUMP JUMPDEST EQ ISZERO PUSH2 0x11BB JUMPI PUSH1 0x40 MLOAD PUSH32 0x29F057900000000000000000000000000000000000000000000000000000000 DUP2 MSTORE PUSH1 0x4 ADD PUSH1 0x40 MLOAD DUP1 SWAP2 SUB SWAP1 REVERT JUMPDEST PUSH2 0x11DF DUP2 PUSH1 0x0 DUP1 DUP6 DUP2 MSTORE PUSH1 0x20 ADD SWAP1 DUP2 MSTORE PUSH1 0x20 ADD PUSH1 0x0 KECCAK256 PUSH2 0x1C13 SWAP1 SWAP2 SWAP1 PUSH4 0xFFFFFFFF AND JUMP JUMPDEST PUSH1 0x0 PUSH2 0x11EA DUP4 PUSH2 0x794 JUMP JUMPDEST SWAP1 POP PUSH1 0x0 PUSH1 0x1 PUSH2 0x11F9 DUP6 PUSH2 0x42C JUMP JUMPDEST PUSH2 0x1203 SWAP2 SWAP1 PUSH2 0x4258 JUMP JUMPDEST SWAP1 POP DUP4 PUSH32 0x19239B3F93CD10558AAF11423AF70C77763BF54F52BCC75BFA74D4D13548CDE9 DUP3 DUP6 DUP6 PUSH1 0x40 MLOAD PUSH2 0x1239 SWAP4 SWAP3 SWAP2 SWAP1 PUSH2 0x3CDA JUMP JUMPDEST PUSH1 0x40 MLOAD DUP1 SWAP2 SUB SWAP1 LOG2 POP POP POP POP JUMP JUMPDEST PUSH1 0x0 PUSH2 0x1252 DUP3 PUSH2 0x1ED8 JUMP JUMPDEST SWAP1 POP PUSH2 0x1268 DUP6 DUP3 PUSH8 0xFFFFFFFFFFFFFFFF AND PUSH2 0x1EF1 JUMP JUMPDEST ISZERO PUSH2 0x15AE JUMPI DUP3 PUSH4 0xFFFFFFFF AND DUP6 PUSH1 0x8 ADD DUP7 PUSH1 0x6 ADD PUSH1 0x0 DUP5 PUSH8 0xFFFFFFFFFFFFFFFF AND DUP2 MSTORE PUSH1 0x20 ADD SWAP1 DUP2 MSTORE PUSH1 0x20 ADD PUSH1 0x0 KECCAK256 SLOAD DUP2 SLOAD DUP2 LT PUSH2 0x12A9 JUMPI PUSH2 0x12A8 PUSH2 0x452C JUMP JUMPDEST JUMPDEST SWAP1 PUSH1 0x0 MSTORE PUSH1 0x20 PUSH1 0x0 KECCAK256 SWAP1 PUSH1 0x4 MUL ADD PUSH1 0x2 ADD SLOAD LT PUSH2 0x12FB JUMPI PUSH1 0x40 MLOAD PUSH32 0x8C379A000000000000000000000000000000000000000000000000000000000 DUP2 MSTORE PUSH1 0x4 ADD PUSH2 0x12F2 SWAP1 PUSH2 0x3B44 JUMP JUMPDEST PUSH1 0x40 MLOAD DUP1 SWAP2 SUB SWAP1 REVERT JUMPDEST PUSH3 0x10000 DUP6 PUSH1 0x8 ADD DUP7 PUSH1 0x6 ADD PUSH1 0x0 DUP5 PUSH8 0xFFFFFFFFFFFFFFFF AND DUP2 MSTORE PUSH1 0x20 ADD SWAP1 DUP2 MSTORE PUSH1 0x20 ADD PUSH1 0x0 KECCAK256 SLOAD DUP2 SLOAD DUP2 LT PUSH2 0x1334 JUMPI PUSH2 0x1333 PUSH2 0x452C JUMP JUMPDEST JUMPDEST SWAP1 PUSH1 0x0 MSTORE PUSH1 0x20 PUSH1 0x0 KECCAK256 SWAP1 PUSH1 0x4 MUL ADD PUSH1 0x2 ADD SLOAD PUSH2 0x1350 SWAP2 SWAP1 PUSH2 0x3FCC JUMP JUMPDEST DUP4 PUSH4 0xFFFFFFFF AND LT PUSH2 0x1397 JUMPI PUSH1 0x40 MLOAD PUSH32 0x8C379A000000000000000000000000000000000000000000000000000000000 DUP2 MSTORE PUSH1 0x4 ADD PUSH2 0x138E SWAP1 PUSH2 0x3BC4 JUMP JUMPDEST PUSH1 0x40 MLOAD DUP1 SWAP2 SUB SWAP1 REVERT JUMPDEST DUP5 PUSH1 0x8 ADD DUP6 PUSH1 0x6 ADD PUSH1 0x0 DUP4 PUSH8 0xFFFFFFFFFFFFFFFF AND DUP2 MSTORE PUSH1 0x20 ADD SWAP1 DUP2 MSTORE PUSH1 0x20 ADD PUSH1 0x0 KECCAK256 SLOAD DUP2 SLOAD DUP2 LT PUSH2 0x13CC JUMPI PUSH2 0x13CB PUSH2 0x452C JUMP JUMPDEST JUMPDEST SWAP1 PUSH1 0x0 MSTORE PUSH1 0x20 PUSH1 0x0 KECCAK256 SWAP1 PUSH1 0x4 MUL ADD PUSH1 0x3 ADD SLOAD DUP3 EQ PUSH2 0x141F JUMPI PUSH1 0x40 MLOAD PUSH32 0x8C379A000000000000000000000000000000000000000000000000000000000 DUP2 MSTORE PUSH1 0x4 ADD PUSH2 0x1416 SWAP1 PUSH2 0x3B04 JUMP JUMPDEST PUSH1 0x40 MLOAD DUP1 SWAP2 SUB SWAP1 REVERT JUMPDEST PUSH1 0x0 DUP6 PUSH1 0x6 ADD PUSH1 0x0 DUP4 PUSH8 0xFFFFFFFFFFFFFFFF AND DUP2 MSTORE PUSH1 0x20 ADD SWAP1 DUP2 MSTORE PUSH1 0x20 ADD PUSH1 0x0 KECCAK256 SLOAD SWAP1 POP DUP4 PUSH4 0xFFFFFFFF AND DUP7 PUSH1 0x8 ADD DUP3 DUP2 SLOAD DUP2 LT PUSH2 0x1460 JUMPI PUSH2 0x145F PUSH2 0x452C JUMP JUMPDEST JUMPDEST SWAP1 PUSH1 0x0 MSTORE PUSH1 0x20 PUSH1 0x0 KECCAK256 SWAP1 PUSH1 0x4 MUL ADD PUSH1 0x2 ADD DUP2 SWAP1 SSTORE POP DUP5 DUP7 PUSH1 0x8 ADD DUP3 DUP2 SLOAD DUP2 LT PUSH2 0x148C JUMPI PUSH2 0x148B PUSH2 0x452C JUMP JUMPDEST JUMPDEST SWAP1 PUSH1 0x0 MSTORE PUSH1 0x20 PUSH1 0x0 KECCAK256 SWAP1 PUSH1 0x4 MUL ADD PUSH1 0x1 ADD DUP2 SWAP1 SSTORE POP PUSH1 0x0 PUSH1 0x1E PUSH1 0x1 DUP9 PUSH1 0xA ADD PUSH1 0x0 DUP7 PUSH8 0xFFFFFFFFFFFFFFFF AND DUP2 MSTORE PUSH1 0x20 ADD SWAP1 DUP2 MSTORE PUSH1 0x20 ADD PUSH1 0x0 KECCAK256 PUSH1 0x0 SWAP1 SLOAD SWAP1 PUSH2 0x100 EXP SWAP1 DIV PUSH4 0xFFFFFFFF AND PUSH2 0x14E1 SWAP2 SWAP1 PUSH2 0x4022 JUMP JUMPDEST PUSH2 0x14EB SWAP2 SWAP1 PUSH2 0x449D JUMP JUMPDEST SWAP1 POP DUP1 DUP8 PUSH1 0xA ADD PUSH1 0x0 DUP6 PUSH8 0xFFFFFFFFFFFFFFFF AND DUP2 MSTORE PUSH1 0x20 ADD SWAP1 DUP2 MSTORE PUSH1 0x20 ADD PUSH1 0x0 KECCAK256 PUSH1 0x0 PUSH2 0x100 EXP DUP2 SLOAD DUP2 PUSH4 0xFFFFFFFF MUL NOT AND SWAP1 DUP4 PUSH4 0xFFFFFFFF AND MUL OR SWAP1 SSTORE POP DUP6 DUP8 PUSH1 0x9 ADD PUSH1 0x0 DUP6 PUSH8 0xFFFFFFFFFFFFFFFF AND DUP2 MSTORE PUSH1 0x20 ADD SWAP1 DUP2 MSTORE PUSH1 0x20 ADD PUSH1 0x0 KECCAK256 PUSH1 0x0 DUP4 PUSH4 0xFFFFFFFF AND PUSH4 0xFFFFFFFF AND DUP2 MSTORE PUSH1 0x20 ADD SWAP1 DUP2 MSTORE PUSH1 0x20 ADD PUSH1 0x0 KECCAK256 DUP2 SWAP1 SSTORE POP PUSH32 0x918597B0FDCA66B353A1B90D2287C2B06307C4D35C824DFCFFEB4B675C961CE4 DUP4 DUP7 DUP9 PUSH1 0x40 MLOAD PUSH2 0x159F SWAP4 SWAP3 SWAP2 SWAP1 PUSH2 0x3D11 JUMP JUMPDEST PUSH1 0x40 MLOAD DUP1 SWAP2 SUB SWAP1 LOG1 POP POP PUSH2 0x1782 JUMP JUMPDEST DUP5 PUSH1 0x0 ADD PUSH1 0x0 SWAP1 SLOAD SWAP1 PUSH2 0x100 EXP SWAP1 DIV PUSH1 0xFF AND PUSH1 0xFF AND DUP6 PUSH1 0x8 ADD DUP1 SLOAD SWAP1 POP LT PUSH2 0x160B JUMPI PUSH1 0x40 MLOAD PUSH32 0x8C379A000000000000000000000000000000000000000000000000000000000 DUP2 MSTORE PUSH1 0x4 ADD PUSH2 0x1602 SWAP1 PUSH2 0x3A84 JUMP JUMPDEST PUSH1 0x40 MLOAD DUP1 SWAP2 SUB SWAP1 REVERT JUMPDEST PUSH1 0x1 DUP6 PUSH1 0x7 ADD PUSH1 0x0 DUP4 PUSH8 0xFFFFFFFFFFFFFFFF AND DUP2 MSTORE PUSH1 0x20 ADD SWAP1 DUP2 MSTORE PUSH1 0x20 ADD PUSH1 0x0 KECCAK256 PUSH1 0x0 PUSH2 0x100 EXP DUP2 SLOAD DUP2 PUSH1 0xFF MUL NOT AND SWAP1 DUP4 ISZERO ISZERO MUL OR SWAP1 SSTORE POP PUSH1 0x0 DUP6 PUSH1 0x8 ADD DUP1 SLOAD SWAP1 POP SWAP1 POP PUSH1 0x0 PUSH1 0x40 MLOAD DUP1 PUSH1 0x80 ADD PUSH1 0x40 MSTORE DUP1 DUP5 PUSH8 0xFFFFFFFFFFFFFFFF AND DUP2 MSTORE PUSH1 0x20 ADD DUP8 DUP2 MSTORE PUSH1 0x20 ADD DUP7 PUSH4 0xFFFFFFFF AND DUP2 MSTORE PUSH1 0x20 ADD DUP6 DUP2 MSTORE POP SWAP1 POP DUP7 PUSH1 0x8 ADD DUP2 SWAP1 DUP1 PUSH1 0x1 DUP2 SLOAD ADD DUP1 DUP3 SSTORE DUP1 SWAP2 POP POP PUSH1 0x1 SWAP1 SUB SWAP1 PUSH1 0x0 MSTORE PUSH1 0x20 PUSH1 0x0 KECCAK256 SWAP1 PUSH1 0x4 MUL ADD PUSH1 0x0 SWAP1 SWAP2 SWAP1 SWAP2 SWAP1 SWAP2 POP PUSH1 0x0 DUP3 ADD MLOAD DUP2 PUSH1 0x0 ADD SSTORE PUSH1 0x20 DUP3 ADD MLOAD DUP2 PUSH1 0x1 ADD SSTORE PUSH1 0x40 DUP3 ADD MLOAD DUP2 PUSH1 0x2 ADD SSTORE PUSH1 0x60 DUP3 ADD MLOAD DUP2 PUSH1 0x3 ADD SSTORE POP POP DUP2 DUP8 PUSH1 0x6 ADD PUSH1 0x0 DUP6 PUSH8 0xFFFFFFFFFFFFFFFF AND DUP2 MSTORE PUSH1 0x20 ADD SWAP1 DUP2 MSTORE PUSH1 0x20 ADD PUSH1 0x0 KECCAK256 DUP2 SWAP1 SSTORE POP PUSH1 0x0 DUP7 DUP9 PUSH1 0x9 ADD PUSH1 0x0 DUP7 PUSH8 0xFFFFFFFFFFFFFFFF AND DUP2 MSTORE PUSH1 0x20 ADD SWAP1 DUP2 MSTORE PUSH1 0x20 ADD PUSH1 0x0 KECCAK256 PUSH1 0x0 DUP4 PUSH4 0xFFFFFFFF AND PUSH4 0xFFFFFFFF AND DUP2 MSTORE PUSH1 0x20 ADD SWAP1 DUP2 MSTORE PUSH1 0x20 ADD PUSH1 0x0 KECCAK256 DUP2 SWAP1 SSTORE POP PUSH32 0x5FE2C40955FB42111954FB4F898E4DB4998D64EBAAE1C872141FF1943990418A DUP5 DUP8 DUP10 PUSH1 0x40 MLOAD PUSH2 0x1776 SWAP4 SWAP3 SWAP2 SWAP1 PUSH2 0x3D11 JUMP JUMPDEST PUSH1 0x40 MLOAD DUP1 SWAP2 SUB SWAP1 LOG1 POP POP POP JUMPDEST POP POP POP POP POP JUMP JUMPDEST PUSH2 0x1797 DUP7 DUP7 DUP7 DUP7 DUP7 DUP7 PUSH2 0x1F1E JUMP JUMPDEST PUSH2 0x17D6 JUMPI PUSH1 0x40 MLOAD PUSH32 0x8C379A000000000000000000000000000000000000000000000000000000000 DUP2 MSTORE PUSH1 0x4 ADD PUSH2 0x17CD SWAP1 PUSH2 0x3AA4 JUMP JUMPDEST PUSH1 0x40 MLOAD DUP1 SWAP2 SUB SWAP1 REVERT JUMPDEST PUSH1 0x0 PUSH2 0x17E2 PUSH1 0x0 PUSH2 0x2273 JUMP JUMPDEST SWAP1 POP PUSH1 0x0 JUMPDEST DUP8 PUSH1 0x1 ADD SLOAD DUP2 PUSH1 0xFF AND LT ISZERO PUSH2 0x1ABB JUMPI PUSH1 0x0 DUP5 DUP5 DUP4 PUSH1 0xFF AND DUP2 DUP2 LT PUSH2 0x180E JUMPI PUSH2 0x180D PUSH2 0x452C JUMP JUMPDEST JUMPDEST SWAP1 POP PUSH1 0x20 MUL ADD PUSH1 0x20 DUP2 ADD SWAP1 PUSH2 0x1823 SWAP2 SWAP1 PUSH2 0x3297 JUMP JUMPDEST PUSH1 0xFF AND EQ ISZERO PUSH2 0x196C JUMPI DUP8 PUSH1 0x5 ADD PUSH1 0x0 DUP3 PUSH1 0xFF AND DUP2 MSTORE PUSH1 0x20 ADD SWAP1 DUP2 MSTORE PUSH1 0x20 ADD PUSH1 0x0 KECCAK256 PUSH1 0x1 PUSH1 0x2 DUP2 LT PUSH2 0x1857 JUMPI PUSH2 0x1856 PUSH2 0x452C JUMP JUMPDEST JUMPDEST ADD SLOAD DUP7 DUP7 DUP4 PUSH1 0xFF AND DUP2 DUP2 LT PUSH2 0x186F JUMPI PUSH2 0x186E PUSH2 0x452C JUMP JUMPDEST JUMPDEST SWAP1 POP PUSH1 0x20 MUL ADD CALLDATALOAD EQ ISZERO PUSH2 0x18AE JUMPI DUP2 DUP9 PUSH1 0x5 ADD PUSH1 0x0 DUP4 PUSH1 0xFF AND DUP2 MSTORE PUSH1 0x20 ADD SWAP1 DUP2 MSTORE PUSH1 0x20 ADD PUSH1 0x0 KECCAK256 PUSH1 0x0 PUSH1 0x2 DUP2 LT PUSH2 0x18A8 JUMPI PUSH2 0x18A7 PUSH2 0x452C JUMP JUMPDEST JUMPDEST ADD DUP2 SWAP1 SSTORE POP JUMPDEST PUSH20 0x0 PUSH4 0x29A5F2F6 PUSH1 0x40 MLOAD DUP1 PUSH1 0x40 ADD PUSH1 0x40 MSTORE DUP1 DUP6 DUP2 MSTORE PUSH1 0x20 ADD DUP10 DUP10 DUP7 PUSH1 0xFF AND DUP2 DUP2 LT PUSH2 0x18EF JUMPI PUSH2 0x18EE PUSH2 0x452C JUMP JUMPDEST JUMPDEST SWAP1 POP PUSH1 0x20 MUL ADD CALLDATALOAD DUP2 MSTORE POP PUSH1 0x40 MLOAD DUP3 PUSH4 0xFFFFFFFF AND PUSH1 0xE0 SHL DUP2 MSTORE PUSH1 0x4 ADD PUSH2 0x1915 SWAP2 SWAP1 PUSH2 0x39BB JUMP JUMPDEST PUSH1 0x20 PUSH1 0x40 MLOAD DUP1 DUP4 SUB DUP2 DUP7 DUP1 EXTCODESIZE ISZERO DUP1 ISZERO PUSH2 0x192D JUMPI PUSH1 0x0 DUP1 REVERT JUMPDEST POP GAS DELEGATECALL ISZERO DUP1 ISZERO PUSH2 0x1941 JUMPI RETURNDATASIZE PUSH1 0x0 DUP1 RETURNDATACOPY RETURNDATASIZE PUSH1 0x0 REVERT JUMPDEST POP POP POP POP PUSH1 0x40 MLOAD RETURNDATASIZE PUSH1 0x1F NOT PUSH1 0x1F DUP3 ADD AND DUP3 ADD DUP1 PUSH1 0x40 MSTORE POP DUP2 ADD SWAP1 PUSH2 0x1965 SWAP2 SWAP1 PUSH2 0x3055 JUMP JUMPDEST SWAP2 POP PUSH2 0x1AA8 JUMP JUMPDEST DUP8 PUSH1 0x5 ADD PUSH1 0x0 DUP3 PUSH1 0xFF AND DUP2 MSTORE PUSH1 0x20 ADD SWAP1 DUP2 MSTORE PUSH1 0x20 ADD PUSH1 0x0 KECCAK256 PUSH1 0x0 PUSH1 0x2 DUP2 LT PUSH2 0x1997 JUMPI PUSH2 0x1996 PUSH2 0x452C JUMP JUMPDEST JUMPDEST ADD SLOAD DUP7 DUP7 DUP4 PUSH1 0xFF AND DUP2 DUP2 LT PUSH2 0x19AF JUMPI PUSH2 0x19AE PUSH2 0x452C JUMP JUMPDEST JUMPDEST SWAP1 POP PUSH1 0x20 MUL ADD CALLDATALOAD EQ ISZERO PUSH2 0x19EE JUMPI DUP2 DUP9 PUSH1 0x5 ADD PUSH1 0x0 DUP4 PUSH1 0xFF AND DUP2 MSTORE PUSH1 0x20 ADD SWAP1 DUP2 MSTORE PUSH1 0x20 ADD PUSH1 0x0 KECCAK256 PUSH1 0x1 PUSH1 0x2 DUP2 LT PUSH2 0x19E8 JUMPI PUSH2 0x19E7 PUSH2 0x452C JUMP JUMPDEST JUMPDEST ADD DUP2 SWAP1 SSTORE POP JUMPDEST PUSH20 0x0 PUSH4 0x29A5F2F6 PUSH1 0x40 MLOAD DUP1 PUSH1 0x40 ADD PUSH1 0x40 MSTORE DUP1 DUP10 DUP10 DUP7 PUSH1 0xFF AND DUP2 DUP2 LT PUSH2 0x1A29 JUMPI PUSH2 0x1A28 PUSH2 0x452C JUMP JUMPDEST JUMPDEST SWAP1 POP PUSH1 0x20 MUL ADD CALLDATALOAD DUP2 MSTORE PUSH1 0x20 ADD DUP6 DUP2 MSTORE POP PUSH1 0x40 MLOAD DUP3 PUSH4 0xFFFFFFFF AND PUSH1 0xE0 SHL DUP2 MSTORE PUSH1 0x4 ADD PUSH2 0x1A55 SWAP2 SWAP1 PUSH2 0x39BB JUMP JUMPDEST PUSH1 0x20 PUSH1 0x40 MLOAD DUP1 DUP4 SUB DUP2 DUP7 DUP1 EXTCODESIZE ISZERO DUP1 ISZERO PUSH2 0x1A6D JUMPI PUSH1 0x0 DUP1 REVERT JUMPDEST POP GAS DELEGATECALL ISZERO DUP1 ISZERO PUSH2 0x1A81 JUMPI RETURNDATASIZE PUSH1 0x0 DUP1 RETURNDATACOPY RETURNDATASIZE PUSH1 0x0 REVERT JUMPDEST POP POP POP POP PUSH1 0x40 MLOAD RETURNDATASIZE PUSH1 0x1F NOT PUSH1 0x1F DUP3 ADD AND DUP3 ADD DUP1 PUSH1 0x40 MSTORE POP DUP2 ADD SWAP1 PUSH2 0x1AA5 SWAP2 SWAP1 PUSH2 0x3055 JUMP JUMPDEST SWAP2 POP JUMPDEST DUP1 DUP1 PUSH2 0x1AB3 SWAP1 PUSH2 0x4438 JUMP JUMPDEST SWAP2 POP POP PUSH2 0x17E7 JUMP JUMPDEST POP DUP1 DUP8 PUSH1 0x3 ADD PUSH1 0x0 DUP10 PUSH1 0x2 ADD PUSH1 0x0 SWAP1 SLOAD SWAP1 PUSH2 0x100 EXP SWAP1 DIV PUSH4 0xFFFFFFFF AND PUSH4 0xFFFFFFFF AND DUP2 MSTORE PUSH1 0x20 ADD SWAP1 DUP2 MSTORE PUSH1 0x20 ADD PUSH1 0x0 KECCAK256 DUP2 SWAP1 SSTORE POP POP POP POP POP POP POP POP JUMP JUMPDEST PUSH1 0x0 DUP1 PUSH1 0x0 SWAP1 POP PUSH1 0x0 DUP5 DUP5 SWAP1 POP SWAP1 POP JUMPDEST PUSH1 0x0 DUP2 PUSH1 0xFF AND GT ISZERO PUSH2 0x1BD1 JUMPI PUSH1 0x0 DUP3 GT DUP1 PUSH2 0x1B5E JUMPI POP PUSH1 0x0 DUP6 DUP6 PUSH1 0x1 DUP5 PUSH2 0x1B30 SWAP2 SWAP1 PUSH2 0x428C JUMP JUMPDEST PUSH1 0xFF AND DUP2 DUP2 LT PUSH2 0x1B43 JUMPI PUSH2 0x1B42 PUSH2 0x452C JUMP JUMPDEST JUMPDEST SWAP1 POP PUSH1 0x20 MUL ADD PUSH1 0x20 DUP2 ADD SWAP1 PUSH2 0x1B58 SWAP2 SWAP1 PUSH2 0x3297 JUMP JUMPDEST PUSH1 0xFF AND EQ ISZERO JUMPDEST ISZERO PUSH2 0x1BC5 JUMPI PUSH1 0x2 DUP3 PUSH2 0x1B70 SWAP2 SWAP1 PUSH2 0x41FE JUMP JUMPDEST SWAP2 POP PUSH1 0x1 DUP6 DUP6 PUSH1 0x1 DUP5 PUSH2 0x1B83 SWAP2 SWAP1 PUSH2 0x428C JUMP JUMPDEST PUSH1 0xFF AND DUP2 DUP2 LT PUSH2 0x1B96 JUMPI PUSH2 0x1B95 PUSH2 0x452C JUMP JUMPDEST JUMPDEST SWAP1 POP PUSH1 0x20 MUL ADD PUSH1 0x20 DUP2 ADD SWAP1 PUSH2 0x1BAB SWAP2 SWAP1 PUSH2 0x3297 JUMP JUMPDEST PUSH1 0xFF AND EQ ISZERO PUSH2 0x1BC4 JUMPI PUSH1 0x1 DUP3 PUSH2 0x1BC1 SWAP2 SWAP1 PUSH2 0x3FCC JUMP JUMPDEST SWAP2 POP JUMPDEST JUMPDEST DUP1 PUSH1 0x1 SWAP1 SUB SWAP1 POP PUSH2 0x1B09 JUMP JUMPDEST POP DUP1 SWAP2 POP POP SWAP3 SWAP2 POP POP JUMP JUMPDEST PUSH1 0x0 PUSH1 0x8 DUP3 PUSH1 0x40 MLOAD PUSH1 0x20 ADD PUSH2 0x1BF1 SWAP2 SWAP1 PUSH2 0x397E JUMP JUMPDEST PUSH1 0x40 MLOAD PUSH1 0x20 DUP2 DUP4 SUB SUB DUP2 MSTORE SWAP1 PUSH1 0x40 MSTORE DUP1 MLOAD SWAP1 PUSH1 0x20 ADD KECCAK256 PUSH1 0x0 SHR SWAP1 SHR SWAP1 POP SWAP2 SWAP1 POP JUMP JUMPDEST PUSH32 0x30644E72E131A029B85045B68181585D2833E84879B9709143E1F593F0000001 DUP2 LT PUSH2 0x1C75 JUMPI PUSH1 0x40 MLOAD PUSH32 0x8C379A000000000000000000000000000000000000000000000000000000000 DUP2 MSTORE PUSH1 0x4 ADD PUSH2 0x1C6C SWAP1 PUSH2 0x3AC4 JUMP JUMPDEST PUSH1 0x40 MLOAD DUP1 SWAP2 SUB SWAP1 REVERT JUMPDEST DUP2 PUSH1 0x1 ADD SLOAD PUSH1 0x2 PUSH2 0x1C86 SWAP2 SWAP1 PUSH2 0x40E0 JUMP JUMPDEST DUP3 PUSH1 0x4 ADD SLOAD LT PUSH2 0x1CCB JUMPI PUSH1 0x40 MLOAD PUSH32 0x8C379A000000000000000000000000000000000000000000000000000000000 DUP2 MSTORE PUSH1 0x4 ADD PUSH2 0x1CC2 SWAP1 PUSH2 0x3BA4 JUMP JUMPDEST PUSH1 0x40 MLOAD DUP1 SWAP2 SUB SWAP1 REVERT JUMPDEST PUSH1 0x0 DUP3 PUSH1 0x4 ADD SLOAD SWAP1 POP PUSH1 0x0 DUP3 SWAP1 POP PUSH1 0x0 JUMPDEST DUP5 PUSH1 0x1 ADD SLOAD DUP2 PUSH1 0xFF AND LT ISZERO PUSH2 0x1E40 JUMPI PUSH1 0x0 PUSH1 0x2 DUP5 PUSH2 0x1CFA SWAP2 SWAP1 PUSH2 0x446C JUMP JUMPDEST EQ ISZERO PUSH2 0x1D4C JUMPI PUSH1 0x40 MLOAD DUP1 PUSH1 0x40 ADD PUSH1 0x40 MSTORE DUP1 DUP4 DUP2 MSTORE PUSH1 0x20 ADD PUSH2 0x1D1D DUP4 PUSH1 0xFF AND PUSH2 0x2273 JUMP JUMPDEST DUP2 MSTORE POP DUP6 PUSH1 0x5 ADD PUSH1 0x0 DUP4 PUSH1 0xFF AND DUP2 MSTORE PUSH1 0x20 ADD SWAP1 DUP2 MSTORE PUSH1 0x20 ADD PUSH1 0x0 KECCAK256 SWAP1 PUSH1 0x2 PUSH2 0x1D46 SWAP3 SWAP2 SWAP1 PUSH2 0x28D3 JUMP JUMPDEST POP PUSH2 0x1D7E JUMP JUMPDEST DUP2 DUP6 PUSH1 0x5 ADD PUSH1 0x0 DUP4 PUSH1 0xFF AND DUP2 MSTORE PUSH1 0x20 ADD SWAP1 DUP2 MSTORE PUSH1 0x20 ADD PUSH1 0x0 KECCAK256 PUSH1 0x1 PUSH1 0x2 DUP2 LT PUSH2 0x1D78 JUMPI PUSH2 0x1D77 PUSH2 0x452C JUMP JUMPDEST JUMPDEST ADD DUP2 SWAP1 SSTORE POP JUMPDEST PUSH20 0x0 PUSH4 0x29A5F2F6 DUP7 PUSH1 0x5 ADD PUSH1 0x0 DUP5 PUSH1 0xFF AND DUP2 MSTORE PUSH1 0x20 ADD SWAP1 DUP2 MSTORE PUSH1 0x20 ADD PUSH1 0x0 KECCAK256 PUSH1 0x40 MLOAD DUP3 PUSH4 0xFFFFFFFF AND PUSH1 0xE0 SHL DUP2 MSTORE PUSH1 0x4 ADD PUSH2 0x1DCC SWAP2 SWAP1 PUSH2 0x3A33 JUMP JUMPDEST PUSH1 0x20 PUSH1 0x40 MLOAD DUP1 DUP4 SUB DUP2 DUP7 DUP1 EXTCODESIZE ISZERO DUP1 ISZERO PUSH2 0x1DE4 JUMPI PUSH1 0x0 DUP1 REVERT JUMPDEST POP GAS DELEGATECALL ISZERO DUP1 ISZERO PUSH2 0x1DF8 JUMPI RETURNDATASIZE PUSH1 0x0 DUP1 RETURNDATACOPY RETURNDATASIZE PUSH1 0x0 REVERT JUMPDEST POP POP POP POP PUSH1 0x40 MLOAD RETURNDATASIZE PUSH1 0x1F NOT PUSH1 0x1F DUP3 ADD AND DUP3 ADD DUP1 PUSH1 0x40 MSTORE POP DUP2 ADD SWAP1 PUSH2 0x1E1C SWAP2 SWAP1 PUSH2 0x3055 JUMP JUMPDEST SWAP2 POP PUSH1 0x2 DUP4 PUSH2 0x1E2B SWAP2 SWAP1 PUSH2 0x405C JUMP JUMPDEST SWAP3 POP DUP1 DUP1 PUSH2 0x1E38 SWAP1 PUSH2 0x4438 JUMP JUMPDEST SWAP2 POP POP PUSH2 0x1CDC JUMP JUMPDEST POP PUSH1 0x0 PUSH1 0x1E PUSH1 0x1 DUP7 PUSH1 0x2 ADD PUSH1 0x0 SWAP1 SLOAD SWAP1 PUSH2 0x100 EXP SWAP1 DIV PUSH4 0xFFFFFFFF AND PUSH2 0x1E66 SWAP2 SWAP1 PUSH2 0x4022 JUMP JUMPDEST PUSH2 0x1E70 SWAP2 SWAP1 PUSH2 0x449D JUMP JUMPDEST SWAP1 POP DUP1 DUP6 PUSH1 0x2 ADD PUSH1 0x0 PUSH2 0x100 EXP DUP2 SLOAD DUP2 PUSH4 0xFFFFFFFF MUL NOT AND SWAP1 DUP4 PUSH4 0xFFFFFFFF AND MUL OR SWAP1 SSTORE POP DUP2 DUP6 PUSH1 0x3 ADD PUSH1 0x0 DUP4 PUSH4 0xFFFFFFFF AND DUP2 MSTORE PUSH1 0x20 ADD SWAP1 DUP2 MSTORE PUSH1 0x20 ADD PUSH1 0x0 KECCAK256 DUP2 SWAP1 SSTORE POP PUSH1 0x1 DUP6 PUSH1 0x4 ADD PUSH1 0x0 DUP3 DUP3 SLOAD PUSH2 0x1ECA SWAP2 SWAP1 PUSH2 0x3FCC JUMP JUMPDEST SWAP3 POP POP DUP2 SWAP1 SSTORE POP POP POP POP POP POP JUMP JUMPDEST PUSH1 0x0 PUSH1 0xD0 DUP3 SWAP1 SHL PUSH1 0xD0 SHR PUSH6 0xFFFFFFFFFFFF AND SWAP1 POP SWAP2 SWAP1 POP JUMP JUMPDEST PUSH1 0x0 DUP3 PUSH1 0x7 ADD PUSH1 0x0 DUP4 DUP2 MSTORE PUSH1 0x20 ADD SWAP1 DUP2 MSTORE PUSH1 0x20 ADD PUSH1 0x0 KECCAK256 PUSH1 0x0 SWAP1 SLOAD SWAP1 PUSH2 0x100 EXP SWAP1 DIV PUSH1 0xFF AND SWAP1 POP SWAP3 SWAP2 POP POP JUMP JUMPDEST PUSH1 0x0 PUSH32 0x30644E72E131A029B85045B68181585D2833E84879B9709143E1F593F0000001 DUP7 LT PUSH2 0x1F82 JUMPI PUSH1 0x40 MLOAD PUSH32 0x8C379A000000000000000000000000000000000000000000000000000000000 DUP2 MSTORE PUSH1 0x4 ADD PUSH2 0x1F79 SWAP1 PUSH2 0x3AC4 JUMP JUMPDEST PUSH1 0x40 MLOAD DUP1 SWAP2 SUB SWAP1 REVERT JUMPDEST DUP7 PUSH1 0x1 ADD SLOAD DUP4 DUP4 SWAP1 POP EQ DUP1 ISZERO PUSH2 0x1F9E JUMPI POP DUP7 PUSH1 0x1 ADD SLOAD DUP6 DUP6 SWAP1 POP EQ JUMPDEST PUSH2 0x1FDD JUMPI PUSH1 0x40 MLOAD PUSH32 0x8C379A000000000000000000000000000000000000000000000000000000000 DUP2 MSTORE PUSH1 0x4 ADD PUSH2 0x1FD4 SWAP1 PUSH2 0x3B64 JUMP JUMPDEST PUSH1 0x40 MLOAD DUP1 SWAP2 SUB SWAP1 REVERT JUMPDEST PUSH1 0x0 DUP7 SWAP1 POP PUSH1 0x0 JUMPDEST DUP9 PUSH1 0x1 ADD SLOAD DUP2 PUSH1 0xFF AND LT ISZERO PUSH2 0x2233 JUMPI PUSH32 0x30644E72E131A029B85045B68181585D2833E84879B9709143E1F593F0000001 DUP8 DUP8 DUP4 PUSH1 0xFF AND DUP2 DUP2 LT PUSH2 0x202B JUMPI PUSH2 0x202A PUSH2 0x452C JUMP JUMPDEST JUMPDEST SWAP1 POP PUSH1 0x20 MUL ADD CALLDATALOAD LT PUSH2 0x2072 JUMPI PUSH1 0x40 MLOAD PUSH32 0x8C379A000000000000000000000000000000000000000000000000000000000 DUP2 MSTORE PUSH1 0x4 ADD PUSH2 0x2069 SWAP1 PUSH2 0x3AE4 JUMP JUMPDEST PUSH1 0x40 MLOAD DUP1 SWAP2 SUB SWAP1 REVERT JUMPDEST PUSH1 0x0 DUP6 DUP6 DUP4 PUSH1 0xFF AND DUP2 DUP2 LT PUSH2 0x208A JUMPI PUSH2 0x2089 PUSH2 0x452C JUMP JUMPDEST JUMPDEST SWAP1 POP PUSH1 0x20 MUL ADD PUSH1 0x20 DUP2 ADD SWAP1 PUSH2 0x209F SWAP2 SWAP1 PUSH2 0x3297 JUMP JUMPDEST PUSH1 0xFF AND EQ ISZERO PUSH2 0x2166 JUMPI PUSH20 0x0 PUSH4 0x29A5F2F6 PUSH1 0x40 MLOAD DUP1 PUSH1 0x40 ADD PUSH1 0x40 MSTORE DUP1 DUP6 DUP2 MSTORE PUSH1 0x20 ADD DUP11 DUP11 DUP7 PUSH1 0xFF AND DUP2 DUP2 LT PUSH2 0x20E9 JUMPI PUSH2 0x20E8 PUSH2 0x452C JUMP JUMPDEST JUMPDEST SWAP1 POP PUSH1 0x20 MUL ADD CALLDATALOAD DUP2 MSTORE POP PUSH1 0x40 MLOAD DUP3 PUSH4 0xFFFFFFFF AND PUSH1 0xE0 SHL DUP2 MSTORE PUSH1 0x4 ADD PUSH2 0x210F SWAP2 SWAP1 PUSH2 0x39BB JUMP JUMPDEST PUSH1 0x20 PUSH1 0x40 MLOAD DUP1 DUP4 SUB DUP2 DUP7 DUP1 EXTCODESIZE ISZERO DUP1 ISZERO PUSH2 0x2127 JUMPI PUSH1 0x0 DUP1 REVERT JUMPDEST POP GAS DELEGATECALL ISZERO DUP1 ISZERO PUSH2 0x213B JUMPI RETURNDATASIZE PUSH1 0x0 DUP1 RETURNDATACOPY RETURNDATASIZE PUSH1 0x0 REVERT JUMPDEST POP POP POP POP PUSH1 0x40 MLOAD RETURNDATASIZE PUSH1 0x1F NOT PUSH1 0x1F DUP3 ADD AND DUP3 ADD DUP1 PUSH1 0x40 MSTORE POP DUP2 ADD SWAP1 PUSH2 0x215F SWAP2 SWAP1 PUSH2 0x3055 JUMP JUMPDEST SWAP2 POP PUSH2 0x2220 JUMP JUMPDEST PUSH20 0x0 PUSH4 0x29A5F2F6 PUSH1 0x40 MLOAD DUP1 PUSH1 0x40 ADD PUSH1 0x40 MSTORE DUP1 DUP11 DUP11 DUP7 PUSH1 0xFF AND DUP2 DUP2 LT PUSH2 0x21A1 JUMPI PUSH2 0x21A0 PUSH2 0x452C JUMP JUMPDEST JUMPDEST SWAP1 POP PUSH1 0x20 MUL ADD CALLDATALOAD DUP2 MSTORE PUSH1 0x20 ADD DUP6 DUP2 MSTORE POP PUSH1 0x40 MLOAD DUP3 PUSH4 0xFFFFFFFF AND PUSH1 0xE0 SHL DUP2 MSTORE PUSH1 0x4 ADD PUSH2 0x21CD SWAP2 SWAP1 PUSH2 0x39BB JUMP JUMPDEST PUSH1 0x20 PUSH1 0x40 MLOAD DUP1 DUP4 SUB DUP2 DUP7 DUP1 EXTCODESIZE ISZERO DUP1 ISZERO PUSH2 0x21E5 JUMPI PUSH1 0x0 DUP1 REVERT JUMPDEST POP GAS DELEGATECALL ISZERO DUP1 ISZERO PUSH2 0x21F9 JUMPI RETURNDATASIZE PUSH1 0x0 DUP1 RETURNDATACOPY RETURNDATASIZE PUSH1 0x0 REVERT JUMPDEST POP POP POP POP PUSH1 0x40 MLOAD RETURNDATASIZE PUSH1 0x1F NOT PUSH1 0x1F DUP3 ADD AND DUP3 ADD DUP1 PUSH1 0x40 MSTORE POP DUP2 ADD SWAP1 PUSH2 0x221D SWAP2 SWAP1 PUSH2 0x3055 JUMP JUMPDEST SWAP2 POP JUMPDEST DUP1 DUP1 PUSH2 0x222B SWAP1 PUSH2 0x4438 JUMP JUMPDEST SWAP2 POP POP PUSH2 0x1FE5 JUMP JUMPDEST POP DUP8 PUSH1 0x3 ADD PUSH1 0x0 DUP10 PUSH1 0x2 ADD PUSH1 0x0 SWAP1 SLOAD SWAP1 PUSH2 0x100 EXP SWAP1 DIV PUSH4 0xFFFFFFFF AND PUSH4 0xFFFFFFFF AND DUP2 MSTORE PUSH1 0x20 ADD SWAP1 DUP2 MSTORE PUSH1 0x20 ADD PUSH1 0x0 KECCAK256 SLOAD DUP2 EQ SWAP2 POP POP SWAP7 SWAP6 POP POP POP POP POP POP JUMP JUMPDEST PUSH1 0x0 DUP1 DUP3 EQ ISZERO PUSH2 0x22A5 JUMPI PUSH32 0x2FE54C60D3ACABF3343A35B6EBA15DB4821B340F76E741E2249685ED4899AF6C SWAP1 POP PUSH2 0x28CE JUMP JUMPDEST PUSH1 0x1 DUP3 EQ ISZERO PUSH2 0x22D6 JUMPI PUSH32 0x13E37F2D6CB86C78CCC1788607C2B199788C6BB0A615A21F2E7A8E88384222F8 SWAP1 POP PUSH2 0x28CE JUMP JUMPDEST PUSH1 0x2 DUP3 EQ ISZERO PUSH2 0x2307 JUMPI PUSH32 0x217126FA352C326896E8C2803EEC8FD63AD50CF65EDFEF27A41A9E32DC622765 SWAP1 POP PUSH2 0x28CE JUMP JUMPDEST PUSH1 0x3 DUP3 EQ ISZERO PUSH2 0x2338 JUMPI PUSH32 0xE28A61A9B3E91007D5A9E3ADA18E1B24D6D230C618388EE5DF34CACD7397EEE SWAP1 POP PUSH2 0x28CE JUMP JUMPDEST PUSH1 0x4 DUP3 EQ ISZERO PUSH2 0x2369 JUMPI PUSH32 0x27953447A6979839536BADC5425ED15FADB0E292E9BC36F92F0AA5CFA5013587 SWAP1 POP PUSH2 0x28CE JUMP JUMPDEST PUSH1 0x5 DUP3 EQ ISZERO PUSH2 0x239A JUMPI PUSH32 0x194191EDBFB91D10F6A7AFD315F33095410C7801C47175C2DF6DC2CCE0E3AFFC SWAP1 POP PUSH2 0x28CE JUMP JUMPDEST PUSH1 0x6 DUP3 EQ ISZERO PUSH2 0x23CB JUMPI PUSH32 0x1733DECE17D71190516DBAF1927936FA643DC7079FC0CC731DE9D6845A47741F SWAP1 POP PUSH2 0x28CE JUMP JUMPDEST PUSH1 0x7 DUP3 EQ ISZERO PUSH2 0x23FC JUMPI PUSH32 0x267855A7DC75DB39D81D17F95D0A7AA572BF5AE19F4DB0E84221D2B2EF999219 SWAP1 POP PUSH2 0x28CE JUMP JUMPDEST PUSH1 0x8 DUP3 EQ ISZERO PUSH2 0x242D JUMPI PUSH32 0x1184E11836B4C36AD8238A340ECC0985EEBA665327E33E9B0E3641027C27620D SWAP1 POP PUSH2 0x28CE JUMP JUMPDEST PUSH1 0x9 DUP3 EQ ISZERO PUSH2 0x245E JUMPI PUSH32 0x702AB83A135D7F55350AB1BFAA90BABD8FC1D2B3E6A7215381A7B2213D6C5CE SWAP1 POP PUSH2 0x28CE JUMP JUMPDEST PUSH1 0xA DUP3 EQ ISZERO PUSH2 0x248F JUMPI PUSH32 0x2EECC0DE814CFD8C57CE882BABB2E30D1DA56621AEF7A47F3291CFFEAEC26AD7 SWAP1 POP PUSH2 0x28CE JUMP JUMPDEST PUSH1 0xB DUP3 EQ ISZERO PUSH2 0x24C0 JUMPI PUSH32 0x280BC02145C155D5833585B6C7B08501055157DD30CE005319621DC462D33B47 SWAP1 POP PUSH2 0x28CE JUMP JUMPDEST PUSH1 0xC DUP3 EQ ISZERO PUSH2 0x24F1 JUMPI PUSH32 0x45132221D1FA0A7F4AED8ACD2CBEC1E2189B7732CCB2EC272B9C60F0D5AFC5B SWAP1 POP PUSH2 0x28CE JUMP JUMPDEST PUSH1 0xD DUP3 EQ ISZERO PUSH2 0x2522 JUMPI PUSH32 0x27F427CCBF58A44B1270ABBE4EDA6BA53BD6AC4D88CF1E00A13C4371CE71D366 SWAP1 POP PUSH2 0x28CE JUMP JUMPDEST PUSH1 0xE DUP3 EQ ISZERO PUSH2 0x2553 JUMPI PUSH32 0x1617EAAE5064F26E8F8A6493AE92BFDED7FDE71B65DF1CA6D5DCEC0DF70B2CEF SWAP1 POP PUSH2 0x28CE JUMP JUMPDEST PUSH1 0xF DUP3 EQ ISZERO PUSH2 0x2584 JUMPI PUSH32 0x20C6B400D0EA1B15435703C31C31EE63AD7BA5C8DA66CEC2796FEACEA575ABCA SWAP1 POP PUSH2 0x28CE JUMP JUMPDEST PUSH1 0x10 DUP3 EQ ISZERO PUSH2 0x25B5 JUMPI PUSH32 0x9589DDB438723F53A8E57BDADA7C5F8ED67E8FECE3889A73618732965645EEC SWAP1 POP PUSH2 0x28CE JUMP JUMPDEST PUSH1 0x11 DUP3 EQ ISZERO PUSH2 0x25E5 JUMPI PUSH31 0x64B6A738A5FF537DB7B220F3394F0ECBD35BFD355C5425DC1166BF3236079B SWAP1 POP PUSH2 0x28CE JUMP JUMPDEST PUSH1 0x12 DUP3 EQ ISZERO PUSH2 0x2616 JUMPI PUSH32 0x95DE56281B1D5055E897C3574FF790D5EE81DBC5DF784AD2D67795E557C9E9F SWAP1 POP PUSH2 0x28CE JUMP JUMPDEST PUSH1 0x13 DUP3 EQ ISZERO PUSH2 0x2647 JUMPI PUSH32 0x11CF2E2887AA21963A6EC14289183EFE4D4C60F14ECD3D6FE0BEEBDF855A9B63 SWAP1 POP PUSH2 0x28CE JUMP JUMPDEST PUSH1 0x14 DUP3 EQ ISZERO PUSH2 0x2678 JUMPI PUSH32 0x2B0F6FC0179FA65B6F73627C0E1E84C7374D2EAEC44C9A48F2571393EA77BCBB SWAP1 POP PUSH2 0x28CE JUMP JUMPDEST PUSH1 0x15 DUP3 EQ ISZERO PUSH2 0x26A9 JUMPI PUSH32 0x16FDB637C2ABF9C0F988DBF2FD64258C46FB6A273D537B2CF1603EA460B13279 SWAP1 POP PUSH2 0x28CE JUMP JUMPDEST PUSH1 0x16 DUP3 EQ ISZERO PUSH2 0x26DA JUMPI PUSH32 0x21BBD7E944F6124DAD4C376DF9CC12E7CA66E47DFF703FF7CEDB1A454EDCF0FF SWAP1 POP PUSH2 0x28CE JUMP JUMPDEST PUSH1 0x17 DUP3 EQ ISZERO PUSH2 0x270B JUMPI PUSH32 0x2784F8220B1C963E468F590F137BAAA1625B3B92A27AD9B6E84EB0D3454D9962 SWAP1 POP PUSH2 0x28CE JUMP JUMPDEST PUSH1 0x18 DUP3 EQ ISZERO PUSH2 0x273C JUMPI PUSH32 0x16ACE1A65B7534142F8CC1AAD810B3D6A7A74CA905D9C275CB98BA57E509FC10 SWAP1 POP PUSH2 0x28CE JUMP JUMPDEST PUSH1 0x19 DUP3 EQ ISZERO PUSH2 0x276D JUMPI PUSH32 0x2328068C6A8C24265124DEBD8FE10D3F29F0665EA725A65E3638F6192A96A013 SWAP1 POP PUSH2 0x28CE JUMP JUMPDEST PUSH1 0x1A DUP3 EQ ISZERO PUSH2 0x279E JUMPI PUSH32 0x2DDB991BE1F028022411B4C4D2C22043E5E751C120736F00ADF54ACAB1C9AC14 SWAP1 POP PUSH2 0x28CE JUMP JUMPDEST PUSH1 0x1B DUP3 EQ ISZERO PUSH2 0x27CF JUMPI PUSH32 0x113798410EAEB95056A464F70521EB58377C0155F2FE518A5594D38CC209CC0 SWAP1 POP PUSH2 0x28CE JUMP JUMPDEST PUSH1 0x1C DUP3 EQ ISZERO PUSH2 0x2800 JUMPI PUSH32 0x202D1AE61526F0D0D01EF80FB5D4055A7AF45721024C2C24CFFD6A3798F54D50 SWAP1 POP PUSH2 0x28CE JUMP JUMPDEST PUSH1 0x1D DUP3 EQ ISZERO PUSH2 0x2831 JUMPI PUSH32 0x23AB323453748129F2765F79615022F5BEBD6F4096A796300AAB049A60B0F187 SWAP1 POP PUSH2 0x28CE JUMP JUMPDEST PUSH1 0x1E DUP3 EQ ISZERO PUSH2 0x2862 JUMPI PUSH32 0x1F15585F8947E378BCF8BD918716799DA909ACDB944C57150B1EB4565FDA8AA0 SWAP1 POP PUSH2 0x28CE JUMP JUMPDEST PUSH1 0x1F DUP3 EQ ISZERO PUSH2 0x2893 JUMPI PUSH32 0x1EB064B21055AC6A350CF41EB30E4CE2CB19680217DF3A243617C2838185AD06 SWAP1 POP PUSH2 0x28CE JUMP JUMPDEST PUSH1 0x40 MLOAD PUSH32 0x8C379A000000000000000000000000000000000000000000000000000000000 DUP2 MSTORE PUSH1 0x4 ADD PUSH2 0x28C5 SWAP1 PUSH2 0x3B84 JUMP JUMPDEST PUSH1 0x40 MLOAD DUP1 SWAP2 SUB SWAP1 REVERT JUMPDEST SWAP2 SWAP1 POP JUMP JUMPDEST DUP3 PUSH1 0x2 DUP2 ADD SWAP3 DUP3 ISZERO PUSH2 0x2902 JUMPI SWAP2 PUSH1 0x20 MUL DUP3 ADD JUMPDEST DUP3 DUP2 GT ISZERO PUSH2 0x2901 JUMPI DUP3 MLOAD DUP3 SSTORE SWAP2 PUSH1 0x20 ADD SWAP2 SWAP1 PUSH1 0x1 ADD SWAP1 PUSH2 0x28E6 JUMP JUMPDEST JUMPDEST POP SWAP1 POP PUSH2 0x290F SWAP2 SWAP1 PUSH2 0x2913 JUMP JUMPDEST POP SWAP1 JUMP JUMPDEST JUMPDEST DUP1 DUP3 GT ISZERO PUSH2 0x292C JUMPI PUSH1 0x0 DUP2 PUSH1 0x0 SWAP1 SSTORE POP PUSH1 0x1 ADD PUSH2 0x2914 JUMP JUMPDEST POP SWAP1 JUMP JUMPDEST PUSH1 0x0 PUSH2 0x2943 PUSH2 0x293E DUP5 PUSH2 0x3D88 JUMP JUMPDEST PUSH2 0x3D63 JUMP JUMPDEST SWAP1 POP DUP1 DUP4 DUP3 MSTORE PUSH1 0x20 DUP3 ADD SWAP1 POP DUP3 DUP6 PUSH1 0x20 DUP7 MUL DUP3 ADD GT ISZERO PUSH2 0x2966 JUMPI PUSH2 0x2965 PUSH2 0x45AC JUMP JUMPDEST JUMPDEST PUSH1 0x0 JUMPDEST DUP6 DUP2 LT ISZERO PUSH2 0x2996 JUMPI DUP2 PUSH2 0x297C DUP9 DUP3 PUSH2 0x2CDF JUMP JUMPDEST DUP5 MSTORE PUSH1 0x20 DUP5 ADD SWAP4 POP PUSH1 0x20 DUP4 ADD SWAP3 POP POP PUSH1 0x1 DUP2 ADD SWAP1 POP PUSH2 0x2969 JUMP JUMPDEST POP POP POP SWAP4 SWAP3 POP POP POP JUMP JUMPDEST PUSH1 0x0 PUSH2 0x29B3 PUSH2 0x29AE DUP5 PUSH2 0x3DB4 JUMP JUMPDEST PUSH2 0x3D63 JUMP JUMPDEST SWAP1 POP DUP1 DUP4 DUP3 MSTORE PUSH1 0x20 DUP3 ADD SWAP1 POP DUP3 DUP6 PUSH1 0x80 DUP7 MUL DUP3 ADD GT ISZERO PUSH2 0x29D6 JUMPI PUSH2 0x29D5 PUSH2 0x45AC JUMP JUMPDEST JUMPDEST PUSH1 0x0 JUMPDEST DUP6 DUP2 LT ISZERO PUSH2 0x2A06 JUMPI DUP2 PUSH2 0x29EC DUP9 DUP3 PUSH2 0x2D78 JUMP JUMPDEST DUP5 MSTORE PUSH1 0x20 DUP5 ADD SWAP4 POP PUSH1 0x80 DUP4 ADD SWAP3 POP POP PUSH1 0x1 DUP2 ADD SWAP1 POP PUSH2 0x29D9 JUMP JUMPDEST POP POP POP SWAP4 SWAP3 POP POP POP JUMP JUMPDEST PUSH1 0x0 PUSH2 0x2A23 PUSH2 0x2A1E DUP5 PUSH2 0x3DE0 JUMP JUMPDEST PUSH2 0x3D63 JUMP JUMPDEST SWAP1 POP DUP1 DUP3 DUP6 PUSH1 0x20 DUP7 MUL DUP3 ADD GT ISZERO PUSH2 0x2A3D JUMPI PUSH2 0x2A3C PUSH2 0x45AC JUMP JUMPDEST JUMPDEST PUSH1 0x0 JUMPDEST DUP6 DUP2 LT ISZERO PUSH2 0x2A6D JUMPI DUP2 PUSH2 0x2A53 DUP9 DUP3 PUSH2 0x2DF0 JUMP JUMPDEST DUP5 MSTORE PUSH1 0x20 DUP5 ADD SWAP4 POP PUSH1 0x20 DUP4 ADD SWAP3 POP POP PUSH1 0x1 DUP2 ADD SWAP1 POP PUSH2 0x2A40 JUMP JUMPDEST POP POP POP SWAP4 SWAP3 POP POP POP JUMP JUMPDEST PUSH1 0x0 PUSH2 0x2A8A PUSH2 0x2A85 DUP5 PUSH2 0x3E06 JUMP JUMPDEST PUSH2 0x3D63 JUMP JUMPDEST SWAP1 POP DUP1 DUP3 DUP6 PUSH1 0x20 DUP7 MUL DUP3 ADD GT ISZERO PUSH2 0x2AA4 JUMPI PUSH2 0x2AA3 PUSH2 0x45AC JUMP JUMPDEST JUMPDEST PUSH1 0x0 JUMPDEST DUP6 DUP2 LT ISZERO PUSH2 0x2AD4 JUMPI DUP2 PUSH2 0x2ABA DUP9 DUP3 PUSH2 0x2DF0 JUMP JUMPDEST DUP5 MSTORE PUSH1 0x20 DUP5 ADD SWAP4 POP PUSH1 0x20 DUP4 ADD SWAP3 POP POP PUSH1 0x1 DUP2 ADD SWAP1 POP PUSH2 0x2AA7 JUMP JUMPDEST POP POP POP SWAP4 SWAP3 POP POP POP JUMP JUMPDEST PUSH1 0x0 PUSH2 0x2AF1 PUSH2 0x2AEC DUP5 PUSH2 0x3E2C JUMP JUMPDEST PUSH2 0x3D63 JUMP JUMPDEST SWAP1 POP DUP3 DUP2 MSTORE PUSH1 0x20 DUP2 ADD DUP5 DUP5 DUP5 ADD GT ISZERO PUSH2 0x2B0D JUMPI PUSH2 0x2B0C PUSH2 0x45B1 JUMP JUMPDEST JUMPDEST PUSH2 0x2B18 DUP5 DUP3 DUP6 PUSH2 0x4371 JUMP JUMPDEST POP SWAP4 SWAP3 POP POP POP JUMP JUMPDEST PUSH1 0x0 DUP2 CALLDATALOAD SWAP1 POP PUSH2 0x2B2F DUP2 PUSH2 0x48B8 JUMP JUMPDEST SWAP3 SWAP2 POP POP JUMP JUMPDEST PUSH1 0x0 DUP3 PUSH1 0x1F DUP4 ADD SLT PUSH2 0x2B4A JUMPI PUSH2 0x2B49 PUSH2 0x45A2 JUMP JUMPDEST JUMPDEST DUP2 MLOAD PUSH2 0x2B5A DUP5 DUP3 PUSH1 0x20 DUP7 ADD PUSH2 0x2930 JUMP JUMPDEST SWAP2 POP POP SWAP3 SWAP2 POP POP JUMP JUMPDEST PUSH1 0x0 DUP3 PUSH1 0x1F DUP4 ADD SLT PUSH2 0x2B78 JUMPI PUSH2 0x2B77 PUSH2 0x45A2 JUMP JUMPDEST JUMPDEST DUP2 MLOAD PUSH2 0x2B88 DUP5 DUP3 PUSH1 0x20 DUP7 ADD PUSH2 0x29A0 JUMP JUMPDEST SWAP2 POP POP SWAP3 SWAP2 POP POP JUMP JUMPDEST PUSH1 0x0 DUP3 PUSH1 0x1F DUP4 ADD SLT PUSH2 0x2BA6 JUMPI PUSH2 0x2BA5 PUSH2 0x45A2 JUMP JUMPDEST JUMPDEST PUSH1 0x2 PUSH2 0x2BB3 DUP5 DUP3 DUP6 PUSH2 0x2A10 JUMP JUMPDEST SWAP2 POP POP SWAP3 SWAP2 POP POP JUMP JUMPDEST PUSH1 0x0 DUP2 SWAP1 POP DUP3 PUSH1 0x20 PUSH1 0x8 MUL DUP3 ADD GT ISZERO PUSH2 0x2BD8 JUMPI PUSH2 0x2BD7 PUSH2 0x45AC JUMP JUMPDEST JUMPDEST SWAP3 SWAP2 POP POP JUMP JUMPDEST PUSH1 0x0 DUP3 PUSH1 0x1F DUP4 ADD SLT PUSH2 0x2BF3 JUMPI PUSH2 0x2BF2 PUSH2 0x45A2 JUMP JUMPDEST JUMPDEST PUSH1 0x8 PUSH2 0x2C00 DUP5 DUP3 DUP6 PUSH2 0x2A77 JUMP JUMPDEST SWAP2 POP POP SWAP3 SWAP2 POP POP JUMP JUMPDEST PUSH1 0x0 DUP1 DUP4 PUSH1 0x1F DUP5 ADD SLT PUSH2 0x2C1F JUMPI PUSH2 0x2C1E PUSH2 0x45A2 JUMP JUMPDEST JUMPDEST DUP3 CALLDATALOAD SWAP1 POP PUSH8 0xFFFFFFFFFFFFFFFF DUP2 GT ISZERO PUSH2 0x2C3C JUMPI PUSH2 0x2C3B PUSH2 0x459D JUMP JUMPDEST JUMPDEST PUSH1 0x20 DUP4 ADD SWAP2 POP DUP4 PUSH1 0x20 DUP3 MUL DUP4 ADD GT ISZERO PUSH2 0x2C58 JUMPI PUSH2 0x2C57 PUSH2 0x45AC JUMP JUMPDEST JUMPDEST SWAP3 POP SWAP3 SWAP1 POP JUMP JUMPDEST PUSH1 0x0 DUP1 DUP4 PUSH1 0x1F DUP5 ADD SLT PUSH2 0x2C75 JUMPI PUSH2 0x2C74 PUSH2 0x45A2 JUMP JUMPDEST JUMPDEST DUP3 CALLDATALOAD SWAP1 POP PUSH8 0xFFFFFFFFFFFFFFFF DUP2 GT ISZERO PUSH2 0x2C92 JUMPI PUSH2 0x2C91 PUSH2 0x459D JUMP JUMPDEST JUMPDEST PUSH1 0x20 DUP4 ADD SWAP2 POP DUP4 PUSH1 0x20 DUP3 MUL DUP4 ADD GT ISZERO PUSH2 0x2CAE JUMPI PUSH2 0x2CAD PUSH2 0x45AC JUMP JUMPDEST JUMPDEST SWAP3 POP SWAP3 SWAP1 POP JUMP JUMPDEST PUSH1 0x0 DUP2 MLOAD SWAP1 POP PUSH2 0x2CC4 DUP2 PUSH2 0x48CF JUMP JUMPDEST SWAP3 SWAP2 POP POP JUMP JUMPDEST PUSH1 0x0 DUP2 CALLDATALOAD SWAP1 POP PUSH2 0x2CD9 DUP2 PUSH2 0x48E6 JUMP JUMPDEST SWAP3 SWAP2 POP POP JUMP JUMPDEST PUSH1 0x0 DUP2 MLOAD SWAP1 POP PUSH2 0x2CEE DUP2 PUSH2 0x48E6 JUMP JUMPDEST SWAP3 SWAP2 POP POP JUMP JUMPDEST PUSH1 0x0 DUP1 DUP4 PUSH1 0x1F DUP5 ADD SLT PUSH2 0x2D0A JUMPI PUSH2 0x2D09 PUSH2 0x45A2 JUMP JUMPDEST JUMPDEST DUP3 CALLDATALOAD SWAP1 POP PUSH8 0xFFFFFFFFFFFFFFFF DUP2 GT ISZERO PUSH2 0x2D27 JUMPI PUSH2 0x2D26 PUSH2 0x459D JUMP JUMPDEST JUMPDEST PUSH1 0x20 DUP4 ADD SWAP2 POP DUP4 PUSH1 0x1 DUP3 MUL DUP4 ADD GT ISZERO PUSH2 0x2D43 JUMPI PUSH2 0x2D42 PUSH2 0x45AC JUMP JUMPDEST JUMPDEST SWAP3 POP SWAP3 SWAP1 POP JUMP JUMPDEST PUSH1 0x0 DUP3 PUSH1 0x1F DUP4 ADD SLT PUSH2 0x2D5F JUMPI PUSH2 0x2D5E PUSH2 0x45A2 JUMP JUMPDEST JUMPDEST DUP2 MLOAD PUSH2 0x2D6F DUP5 DUP3 PUSH1 0x20 DUP7 ADD PUSH2 0x2ADE JUMP JUMPDEST SWAP2 POP POP SWAP3 SWAP2 POP POP JUMP JUMPDEST PUSH1 0x0 PUSH1 0x80 DUP3 DUP5 SUB SLT ISZERO PUSH2 0x2D8E JUMPI PUSH2 0x2D8D PUSH2 0x45A7 JUMP JUMPDEST JUMPDEST PUSH2 0x2D98 PUSH1 0x80 PUSH2 0x3D63 JUMP JUMPDEST SWAP1 POP PUSH1 0x0 PUSH2 0x2DA8 DUP5 DUP3 DUP6 ADD PUSH2 0x2E05 JUMP JUMPDEST PUSH1 0x0 DUP4 ADD MSTORE POP PUSH1 0x20 PUSH2 0x2DBC DUP5 DUP3 DUP6 ADD PUSH2 0x2E05 JUMP JUMPDEST PUSH1 0x20 DUP4 ADD MSTORE POP PUSH1 0x40 PUSH2 0x2DD0 DUP5 DUP3 DUP6 ADD PUSH2 0x2E05 JUMP JUMPDEST PUSH1 0x40 DUP4 ADD MSTORE POP PUSH1 0x60 PUSH2 0x2DE4 DUP5 DUP3 DUP6 ADD PUSH2 0x2CDF JUMP JUMPDEST PUSH1 0x60 DUP4 ADD MSTORE POP SWAP3 SWAP2 POP POP JUMP JUMPDEST PUSH1 0x0 DUP2 CALLDATALOAD SWAP1 POP PUSH2 0x2DFF DUP2 PUSH2 0x48FD JUMP JUMPDEST SWAP3 SWAP2 POP POP JUMP JUMPDEST PUSH1 0x0 DUP2 MLOAD SWAP1 POP PUSH2 0x2E14 DUP2 PUSH2 0x48FD JUMP JUMPDEST SWAP3 SWAP2 POP POP JUMP JUMPDEST PUSH1 0x0 DUP2 CALLDATALOAD SWAP1 POP PUSH2 0x2E29 DUP2 PUSH2 0x4914 JUMP JUMPDEST SWAP3 SWAP2 POP POP JUMP JUMPDEST PUSH1 0x0 DUP2 CALLDATALOAD SWAP1 POP PUSH2 0x2E3E DUP2 PUSH2 0x492B JUMP JUMPDEST SWAP3 SWAP2 POP POP JUMP JUMPDEST PUSH1 0x0 PUSH1 0x20 DUP3 DUP5 SUB SLT ISZERO PUSH2 0x2E5A JUMPI PUSH2 0x2E59 PUSH2 0x45BB JUMP JUMPDEST JUMPDEST PUSH1 0x0 DUP3 ADD MLOAD PUSH8 0xFFFFFFFFFFFFFFFF DUP2 GT ISZERO PUSH2 0x2E78 JUMPI PUSH2 0x2E77 PUSH2 0x45B6 JUMP JUMPDEST JUMPDEST PUSH2 0x2E84 DUP5 DUP3 DUP6 ADD PUSH2 0x2B63 JUMP JUMPDEST SWAP2 POP POP SWAP3 SWAP2 POP POP JUMP JUMPDEST PUSH1 0x0 PUSH1 0x40 DUP3 DUP5 SUB SLT ISZERO PUSH2 0x2EA3 JUMPI PUSH2 0x2EA2 PUSH2 0x45BB JUMP JUMPDEST JUMPDEST PUSH1 0x0 PUSH2 0x2EB1 DUP5 DUP3 DUP6 ADD PUSH2 0x2B91 JUMP JUMPDEST SWAP2 POP POP SWAP3 SWAP2 POP POP JUMP JUMPDEST PUSH1 0x0 PUSH2 0x100 DUP3 DUP5 SUB SLT ISZERO PUSH2 0x2ED1 JUMPI PUSH2 0x2ED0 PUSH2 0x45BB JUMP JUMPDEST JUMPDEST PUSH1 0x0 PUSH2 0x2EDF DUP5 DUP3 DUP6 ADD PUSH2 0x2BDE JUMP JUMPDEST SWAP2 POP POP SWAP3 SWAP2 POP POP JUMP JUMPDEST PUSH1 0x0 PUSH1 0x20 DUP3 DUP5 SUB SLT ISZERO PUSH2 0x2EFE JUMPI PUSH2 0x2EFD PUSH2 0x45BB JUMP JUMPDEST JUMPDEST PUSH1 0x0 PUSH2 0x2F0C DUP5 DUP3 DUP6 ADD PUSH2 0x2CB5 JUMP JUMPDEST SWAP2 POP POP SWAP3 SWAP2 POP POP JUMP JUMPDEST PUSH1 0x0 DUP1 PUSH1 0x0 DUP1 PUSH1 0x0 DUP1 PUSH2 0x180 DUP8 DUP10 SUB SLT ISZERO PUSH2 0x2F33 JUMPI PUSH2 0x2F32 PUSH2 0x45BB JUMP JUMPDEST JUMPDEST PUSH1 0x0 PUSH2 0x2F41 DUP10 DUP3 DUP11 ADD PUSH2 0x2CCA JUMP JUMPDEST SWAP7 POP POP PUSH1 0x20 PUSH2 0x2F52 DUP10 DUP3 DUP11 ADD PUSH2 0x2DF0 JUMP JUMPDEST SWAP6 POP POP PUSH1 0x40 PUSH2 0x2F63 DUP10 DUP3 DUP11 ADD PUSH2 0x2DF0 JUMP JUMPDEST SWAP5 POP POP PUSH1 0x60 DUP8 ADD CALLDATALOAD PUSH8 0xFFFFFFFFFFFFFFFF DUP2 GT ISZERO PUSH2 0x2F84 JUMPI PUSH2 0x2F83 PUSH2 0x45B6 JUMP JUMPDEST JUMPDEST PUSH2 0x2F90 DUP10 DUP3 DUP11 ADD PUSH2 0x2CF4 JUMP JUMPDEST SWAP4 POP SWAP4 POP POP PUSH1 0x80 PUSH2 0x2FA3 DUP10 DUP3 DUP11 ADD PUSH2 0x2BBC JUMP JUMPDEST SWAP2 POP POP SWAP3 SWAP6 POP SWAP3 SWAP6 POP SWAP3 SWAP6 JUMP JUMPDEST PUSH1 0x0 DUP1 PUSH1 0x40 DUP4 DUP6 SUB SLT ISZERO PUSH2 0x2FC7 JUMPI PUSH2 0x2FC6 PUSH2 0x45BB JUMP JUMPDEST JUMPDEST PUSH1 0x0 DUP4 ADD MLOAD PUSH8 0xFFFFFFFFFFFFFFFF DUP2 GT ISZERO PUSH2 0x2FE5 JUMPI PUSH2 0x2FE4 PUSH2 0x45B6 JUMP JUMPDEST JUMPDEST PUSH2 0x2FF1 DUP6 DUP3 DUP7 ADD PUSH2 0x2D4A JUMP JUMPDEST SWAP3 POP POP PUSH1 0x20 DUP4 ADD MLOAD PUSH8 0xFFFFFFFFFFFFFFFF DUP2 GT ISZERO PUSH2 0x3012 JUMPI PUSH2 0x3011 PUSH2 0x45B6 JUMP JUMPDEST JUMPDEST PUSH2 0x301E DUP6 DUP3 DUP7 ADD PUSH2 0x2B35 JUMP JUMPDEST SWAP2 POP POP SWAP3 POP SWAP3 SWAP1 POP JUMP JUMPDEST PUSH1 0x0 PUSH1 0x20 DUP3 DUP5 SUB SLT ISZERO PUSH2 0x303E JUMPI PUSH2 0x303D PUSH2 0x45BB JUMP JUMPDEST JUMPDEST PUSH1 0x0 PUSH2 0x304C DUP5 DUP3 DUP6 ADD PUSH2 0x2DF0 JUMP JUMPDEST SWAP2 POP POP SWAP3 SWAP2 POP POP JUMP JUMPDEST PUSH1 0x0 PUSH1 0x20 DUP3 DUP5 SUB SLT ISZERO PUSH2 0x306B JUMPI PUSH2 0x306A PUSH2 0x45BB JUMP JUMPDEST JUMPDEST PUSH1 0x0 PUSH2 0x3079 DUP5 DUP3 DUP6 ADD PUSH2 0x2E05 JUMP JUMPDEST SWAP2 POP POP SWAP3 SWAP2 POP POP JUMP JUMPDEST PUSH1 0x0 DUP1 PUSH1 0x0 PUSH1 0x40 DUP5 DUP7 SUB SLT ISZERO PUSH2 0x309B JUMPI PUSH2 0x309A PUSH2 0x45BB JUMP JUMPDEST JUMPDEST PUSH1 0x0 PUSH2 0x30A9 DUP7 DUP3 DUP8 ADD PUSH2 0x2DF0 JUMP JUMPDEST SWAP4 POP POP PUSH1 0x20 DUP5 ADD CALLDATALOAD PUSH8 0xFFFFFFFFFFFFFFFF DUP2 GT ISZERO PUSH2 0x30CA JUMPI PUSH2 0x30C9 PUSH2 0x45B6 JUMP JUMPDEST JUMPDEST PUSH2 0x30D6 DUP7 DUP3 DUP8 ADD PUSH2 0x2CF4 JUMP JUMPDEST SWAP3 POP SWAP3 POP POP SWAP3 POP SWAP3 POP SWAP3 JUMP JUMPDEST PUSH1 0x0 DUP1 PUSH1 0x40 DUP4 DUP6 SUB SLT ISZERO PUSH2 0x30F9 JUMPI PUSH2 0x30F8 PUSH2 0x45BB JUMP JUMPDEST JUMPDEST PUSH1 0x0 PUSH2 0x3107 DUP6 DUP3 DUP7 ADD PUSH2 0x2DF0 JUMP JUMPDEST SWAP3 POP POP PUSH1 0x20 PUSH2 0x3118 DUP6 DUP3 DUP7 ADD PUSH2 0x2DF0 JUMP JUMPDEST SWAP2 POP POP SWAP3 POP SWAP3 SWAP1 POP JUMP JUMPDEST PUSH1 0x0 DUP1 PUSH1 0x0 DUP1 PUSH1 0x80 DUP6 DUP8 SUB SLT ISZERO PUSH2 0x313C JUMPI PUSH2 0x313B PUSH2 0x45BB JUMP JUMPDEST JUMPDEST PUSH1 0x0 PUSH2 0x314A DUP8 DUP3 DUP9 ADD PUSH2 0x2DF0 JUMP JUMPDEST SWAP5 POP POP PUSH1 0x20 PUSH2 0x315B DUP8 DUP3 DUP9 ADD PUSH2 0x2DF0 JUMP JUMPDEST SWAP4 POP POP PUSH1 0x40 PUSH2 0x316C DUP8 DUP3 DUP9 ADD PUSH2 0x2B20 JUMP JUMPDEST SWAP3 POP POP PUSH1 0x60 PUSH2 0x317D DUP8 DUP3 DUP9 ADD PUSH2 0x2E2F JUMP JUMPDEST SWAP2 POP POP SWAP3 SWAP6 SWAP2 SWAP5 POP SWAP3 POP JUMP JUMPDEST PUSH1 0x0 DUP1 PUSH1 0x0 DUP1 PUSH1 0x0 DUP1 PUSH1 0x80 DUP8 DUP10 SUB SLT ISZERO PUSH2 0x31A6 JUMPI PUSH2 0x31A5 PUSH2 0x45BB JUMP JUMPDEST JUMPDEST PUSH1 0x0 PUSH2 0x31B4 DUP10 DUP3 DUP11 ADD PUSH2 0x2DF0 JUMP JUMPDEST SWAP7 POP POP PUSH1 0x20 PUSH2 0x31C5 DUP10 DUP3 DUP11 ADD PUSH2 0x2DF0 JUMP JUMPDEST SWAP6 POP POP PUSH1 0x40 DUP8 ADD CALLDATALOAD PUSH8 0xFFFFFFFFFFFFFFFF DUP2 GT ISZERO PUSH2 0x31E6 JUMPI PUSH2 0x31E5 PUSH2 0x45B6 JUMP JUMPDEST JUMPDEST PUSH2 0x31F2 DUP10 DUP3 DUP11 ADD PUSH2 0x2C09 JUMP JUMPDEST SWAP5 POP SWAP5 POP POP PUSH1 0x60 DUP8 ADD CALLDATALOAD PUSH8 0xFFFFFFFFFFFFFFFF DUP2 GT ISZERO PUSH2 0x3215 JUMPI PUSH2 0x3214 PUSH2 0x45B6 JUMP JUMPDEST JUMPDEST PUSH2 0x3221 DUP10 DUP3 DUP11 ADD PUSH2 0x2C5F JUMP JUMPDEST SWAP3 POP SWAP3 POP POP SWAP3 SWAP6 POP SWAP3 SWAP6 POP SWAP3 SWAP6 JUMP JUMPDEST PUSH1 0x0 DUP1 PUSH1 0x0 DUP1 PUSH1 0x80 DUP6 DUP8 SUB SLT ISZERO PUSH2 0x324A JUMPI PUSH2 0x3249 PUSH2 0x45BB JUMP JUMPDEST JUMPDEST PUSH1 0x0 PUSH2 0x3258 DUP8 DUP3 DUP9 ADD PUSH2 0x2DF0 JUMP JUMPDEST SWAP5 POP POP PUSH1 0x20 PUSH2 0x3269 DUP8 DUP3 DUP9 ADD PUSH2 0x2DF0 JUMP JUMPDEST SWAP4 POP POP PUSH1 0x40 PUSH2 0x327A DUP8 DUP3 DUP9 ADD PUSH2 0x2E1A JUMP JUMPDEST SWAP3 POP POP PUSH1 0x60 PUSH2 0x328B DUP8 DUP3 DUP9 ADD PUSH2 0x2CCA JUMP JUMPDEST SWAP2 POP POP SWAP3 SWAP6 SWAP2 SWAP5 POP SWAP3 POP JUMP JUMPDEST PUSH1 0x0 PUSH1 0x20 DUP3 DUP5 SUB SLT ISZERO PUSH2 0x32AD JUMPI PUSH2 0x32AC PUSH2 0x45BB JUMP JUMPDEST JUMPDEST PUSH1 0x0 PUSH2 0x32BB DUP5 DUP3 DUP6 ADD PUSH2 0x2E2F JUMP JUMPDEST SWAP2 POP POP SWAP3 SWAP2 POP POP JUMP JUMPDEST PUSH1 0x0 PUSH2 0x32D0 DUP4 DUP4 PUSH2 0x33D9 JUMP JUMPDEST PUSH1 0x40 DUP4 ADD SWAP1 POP SWAP3 SWAP2 POP POP JUMP JUMPDEST PUSH1 0x0 PUSH2 0x32E8 DUP4 DUP4 PUSH2 0x3828 JUMP JUMPDEST PUSH1 0x80 DUP4 ADD SWAP1 POP SWAP3 SWAP2 POP POP JUMP JUMPDEST PUSH1 0x0 PUSH2 0x3300 DUP4 DUP4 PUSH2 0x3906 JUMP JUMPDEST PUSH1 0x20 DUP4 ADD SWAP1 POP SWAP3 SWAP2 POP POP JUMP JUMPDEST PUSH1 0x0 PUSH2 0x3318 DUP4 DUP4 PUSH2 0x3933 JUMP JUMPDEST PUSH1 0x20 DUP4 ADD SWAP1 POP SWAP3 SWAP2 POP POP JUMP JUMPDEST PUSH2 0x332D DUP2 PUSH2 0x3EA5 JUMP JUMPDEST PUSH2 0x3337 DUP2 DUP5 PUSH2 0x3F40 JUMP JUMPDEST SWAP3 POP PUSH2 0x3342 DUP3 PUSH2 0x3E5D JUMP JUMPDEST DUP1 PUSH1 0x0 JUMPDEST DUP4 DUP2 LT ISZERO PUSH2 0x3373 JUMPI DUP2 MLOAD PUSH2 0x335A DUP8 DUP3 PUSH2 0x32C4 JUMP JUMPDEST SWAP7 POP PUSH2 0x3365 DUP4 PUSH2 0x3EF2 JUMP JUMPDEST SWAP3 POP POP PUSH1 0x1 DUP2 ADD SWAP1 POP PUSH2 0x3346 JUMP JUMPDEST POP POP POP POP POP POP JUMP JUMPDEST PUSH1 0x0 PUSH2 0x3386 DUP3 PUSH2 0x3EB0 JUMP JUMPDEST PUSH2 0x3390 DUP2 DUP6 PUSH2 0x3F4B JUMP JUMPDEST SWAP4 POP PUSH2 0x339B DUP4 PUSH2 0x3E67 JUMP JUMPDEST DUP1 PUSH1 0x0 JUMPDEST DUP4 DUP2 LT ISZERO PUSH2 0x33CC JUMPI DUP2 MLOAD PUSH2 0x33B3 DUP9 DUP3 PUSH2 0x32DC JUMP JUMPDEST SWAP8 POP PUSH2 0x33BE DUP4 PUSH2 0x3EFF JUMP JUMPDEST SWAP3 POP POP PUSH1 0x1 DUP2 ADD SWAP1 POP PUSH2 0x339F JUMP JUMPDEST POP DUP6 SWAP4 POP POP POP POP SWAP3 SWAP2 POP POP JUMP JUMPDEST PUSH2 0x33E2 DUP2 PUSH2 0x3EBB JUMP JUMPDEST PUSH2 0x33EC DUP2 DUP5 PUSH2 0x3F5C JUMP JUMPDEST SWAP3 POP PUSH2 0x33F7 DUP3 PUSH2 0x3E77 JUMP JUMPDEST DUP1 PUSH1 0x0 JUMPDEST DUP4 DUP2 LT ISZERO PUSH2 0x3428 JUMPI DUP2 MLOAD PUSH2 0x340F DUP8 DUP3 PUSH2 0x32F4 JUMP JUMPDEST SWAP7 POP PUSH2 0x341A DUP4 PUSH2 0x3F0C JUMP JUMPDEST SWAP3 POP POP PUSH1 0x1 DUP2 ADD SWAP1 POP PUSH2 0x33FB JUMP JUMPDEST POP POP POP POP POP POP JUMP JUMPDEST PUSH2 0x3439 DUP2 PUSH2 0x3EBB JUMP JUMPDEST PUSH2 0x3443 DUP2 DUP5 PUSH2 0x3F67 JUMP JUMPDEST SWAP3 POP PUSH2 0x344E DUP3 PUSH2 0x3E77 JUMP JUMPDEST DUP1 PUSH1 0x0 JUMPDEST DUP4 DUP2 LT ISZERO PUSH2 0x347F JUMPI DUP2 MLOAD PUSH2 0x3466 DUP8 DUP3 PUSH2 0x32F4 JUMP JUMPDEST SWAP7 POP PUSH2 0x3471 DUP4 PUSH2 0x3F0C JUMP JUMPDEST SWAP3 POP POP PUSH1 0x1 DUP2 ADD SWAP1 POP PUSH2 0x3452 JUMP JUMPDEST POP POP POP POP POP POP JUMP JUMPDEST PUSH2 0x3490 DUP2 PUSH2 0x3EBB JUMP JUMPDEST PUSH2 0x349A DUP2 DUP5 PUSH2 0x3F72 JUMP JUMPDEST SWAP3 POP PUSH2 0x34A5 DUP3 PUSH2 0x3E77 JUMP JUMPDEST DUP1 PUSH1 0x0 JUMPDEST DUP4 DUP2 LT ISZERO PUSH2 0x34D6 JUMPI DUP2 MLOAD PUSH2 0x34BD DUP8 DUP3 PUSH2 0x330C JUMP JUMPDEST SWAP7 POP PUSH2 0x34C8 DUP4 PUSH2 0x3F0C JUMP JUMPDEST SWAP3 POP POP PUSH1 0x1 DUP2 ADD SWAP1 POP PUSH2 0x34A9 JUMP JUMPDEST POP POP POP POP POP POP JUMP JUMPDEST PUSH2 0x34E7 DUP2 PUSH2 0x3EC6 JUMP JUMPDEST PUSH2 0x34F1 DUP2 DUP5 PUSH2 0x3F72 JUMP JUMPDEST SWAP3 POP PUSH2 0x34FC DUP3 PUSH2 0x3E81 JUMP JUMPDEST DUP1 PUSH1 0x0 JUMPDEST DUP4 DUP2 LT ISZERO PUSH2 0x3534 JUMPI PUSH2 0x3511 DUP3 PUSH2 0x458A JUMP JUMPDEST PUSH2 0x351B DUP8 DUP3 PUSH2 0x330C JUMP JUMPDEST SWAP7 POP PUSH2 0x3526 DUP4 PUSH2 0x3F19 JUMP JUMPDEST SWAP3 POP POP PUSH1 0x1 DUP2 ADD SWAP1 POP PUSH2 0x3500 JUMP JUMPDEST POP POP POP POP POP POP JUMP JUMPDEST PUSH2 0x3545 DUP2 PUSH2 0x3ED1 JUMP JUMPDEST PUSH2 0x354F DUP2 DUP5 PUSH2 0x3F7D JUMP JUMPDEST SWAP3 POP PUSH2 0x355A DUP3 PUSH2 0x3E8B JUMP JUMPDEST DUP1 PUSH1 0x0 JUMPDEST DUP4 DUP2 LT ISZERO PUSH2 0x358B JUMPI DUP2 MLOAD PUSH2 0x3572 DUP8 DUP3 PUSH2 0x330C JUMP JUMPDEST SWAP7 POP PUSH2 0x357D DUP4 PUSH2 0x3F26 JUMP JUMPDEST SWAP3 POP POP PUSH1 0x1 DUP2 ADD SWAP1 POP PUSH2 0x355E JUMP JUMPDEST POP POP POP POP POP POP JUMP JUMPDEST PUSH1 0x0 PUSH2 0x359E DUP3 PUSH2 0x3EDC JUMP JUMPDEST PUSH2 0x35A8 DUP2 DUP6 PUSH2 0x3F88 JUMP JUMPDEST SWAP4 POP PUSH2 0x35B3 DUP4 PUSH2 0x3E95 JUMP JUMPDEST DUP1 PUSH1 0x0 JUMPDEST DUP4 DUP2 LT ISZERO PUSH2 0x35E4 JUMPI DUP2 MLOAD PUSH2 0x35CB DUP9 DUP3 PUSH2 0x330C JUMP JUMPDEST SWAP8 POP PUSH2 0x35D6 DUP4 PUSH2 0x3F33 JUMP JUMPDEST SWAP3 POP POP PUSH1 0x1 DUP2 ADD SWAP1 POP PUSH2 0x35B7 JUMP JUMPDEST POP DUP6 SWAP4 POP POP POP POP SWAP3 SWAP2 POP POP JUMP JUMPDEST PUSH2 0x35FA DUP2 PUSH2 0x42DC JUMP JUMPDEST DUP3 MSTORE POP POP JUMP JUMPDEST PUSH2 0x3609 DUP2 PUSH2 0x42E8 JUMP JUMPDEST DUP3 MSTORE POP POP JUMP JUMPDEST PUSH2 0x3618 DUP2 PUSH2 0x42E8 JUMP JUMPDEST DUP3 MSTORE POP POP JUMP JUMPDEST PUSH2 0x362F PUSH2 0x362A DUP3 PUSH2 0x42E8 JUMP JUMPDEST PUSH2 0x4462 JUMP JUMPDEST DUP3 MSTORE POP POP JUMP JUMPDEST PUSH1 0x0 PUSH2 0x3640 DUP3 PUSH2 0x3EE7 JUMP JUMPDEST PUSH2 0x364A DUP2 DUP6 PUSH2 0x3F99 JUMP JUMPDEST SWAP4 POP PUSH2 0x365A DUP2 DUP6 PUSH1 0x20 DUP7 ADD PUSH2 0x4371 JUMP JUMPDEST PUSH2 0x3663 DUP2 PUSH2 0x45C0 JUMP JUMPDEST DUP5 ADD SWAP2 POP POP SWAP3 SWAP2 POP POP JUMP JUMPDEST PUSH1 0x0 PUSH2 0x3679 DUP3 PUSH2 0x3EE7 JUMP JUMPDEST PUSH2 0x3683 DUP2 DUP6 PUSH2 0x3FAA JUMP JUMPDEST SWAP4 POP PUSH2 0x3693 DUP2 DUP6 PUSH1 0x20 DUP7 ADD PUSH2 0x4371 JUMP JUMPDEST PUSH2 0x369C DUP2 PUSH2 0x45C0 JUMP JUMPDEST DUP5 ADD SWAP2 POP POP SWAP3 SWAP2 POP POP JUMP JUMPDEST PUSH1 0x0 PUSH2 0x36B4 PUSH1 0x1A DUP4 PUSH2 0x3FBB JUMP JUMPDEST SWAP2 POP PUSH2 0x36BF DUP3 PUSH2 0x45EB JUMP JUMPDEST PUSH1 0x20 DUP3 ADD SWAP1 POP SWAP2 SWAP1 POP JUMP JUMPDEST PUSH1 0x0 PUSH2 0x36D7 PUSH1 0x3B DUP4 PUSH2 0x3FBB JUMP JUMPDEST SWAP2 POP PUSH2 0x36E2 DUP3 PUSH2 0x4614 JUMP JUMPDEST PUSH1 0x40 DUP3 ADD SWAP1 POP SWAP2 SWAP1 POP JUMP JUMPDEST PUSH1 0x0 PUSH2 0x36FA PUSH1 0x40 DUP4 PUSH2 0x3FBB JUMP JUMPDEST SWAP2 POP PUSH2 0x3705 DUP3 PUSH2 0x4663 JUMP JUMPDEST PUSH1 0x40 DUP3 ADD SWAP1 POP SWAP2 SWAP1 POP JUMP JUMPDEST PUSH1 0x0 PUSH2 0x371D PUSH1 0x48 DUP4 PUSH2 0x3FBB JUMP JUMPDEST SWAP2 POP PUSH2 0x3728 DUP3 PUSH2 0x46B2 JUMP JUMPDEST PUSH1 0x60 DUP3 ADD SWAP1 POP SWAP2 SWAP1 POP JUMP JUMPDEST PUSH1 0x0 PUSH2 0x3740 PUSH1 0x1E DUP4 PUSH2 0x3FBB JUMP JUMPDEST SWAP2 POP PUSH2 0x374B DUP3 PUSH2 0x4727 JUMP JUMPDEST PUSH1 0x20 DUP3 ADD SWAP1 POP SWAP2 SWAP1 POP JUMP JUMPDEST PUSH1 0x0 PUSH2 0x3763 PUSH1 0xC DUP4 PUSH2 0x3FBB JUMP JUMPDEST SWAP2 POP PUSH2 0x376E DUP3 PUSH2 0x4750 JUMP JUMPDEST PUSH1 0x20 DUP3 ADD SWAP1 POP SWAP2 SWAP1 POP JUMP JUMPDEST PUSH1 0x0 PUSH2 0x3786 PUSH1 0x1E DUP4 PUSH2 0x3FBB JUMP JUMPDEST SWAP2 POP PUSH2 0x3791 DUP3 PUSH2 0x4779 JUMP JUMPDEST PUSH1 0x20 DUP3 ADD SWAP1 POP SWAP2 SWAP1 POP JUMP JUMPDEST PUSH1 0x0 PUSH2 0x37A9 PUSH1 0x3C DUP4 PUSH2 0x3FBB JUMP JUMPDEST SWAP2 POP PUSH2 0x37B4 DUP3 PUSH2 0x47A2 JUMP JUMPDEST PUSH1 0x40 DUP3 ADD SWAP1 POP SWAP2 SWAP1 POP JUMP JUMPDEST PUSH1 0x0 PUSH2 0x37CC PUSH1 0x13 DUP4 PUSH2 0x3FBB JUMP JUMPDEST SWAP2 POP PUSH2 0x37D7 DUP3 PUSH2 0x47F1 JUMP JUMPDEST PUSH1 0x20 DUP3 ADD SWAP1 POP SWAP2 SWAP1 POP JUMP JUMPDEST PUSH1 0x0 PUSH2 0x37EF PUSH1 0x2B DUP4 PUSH2 0x3FBB JUMP JUMPDEST SWAP2 POP PUSH2 0x37FA DUP3 PUSH2 0x481A JUMP JUMPDEST PUSH1 0x40 DUP3 ADD SWAP1 POP SWAP2 SWAP1 POP JUMP JUMPDEST PUSH1 0x0 PUSH2 0x3812 PUSH1 0x27 DUP4 PUSH2 0x3FBB JUMP JUMPDEST SWAP2 POP PUSH2 0x381D DUP3 PUSH2 0x4869 JUMP JUMPDEST PUSH1 0x40 DUP3 ADD SWAP1 POP SWAP2 SWAP1 POP JUMP JUMPDEST PUSH1 0x80 DUP3 ADD PUSH1 0x0 DUP3 ADD MLOAD PUSH2 0x383E PUSH1 0x0 DUP6 ADD DUP3 PUSH2 0x3906 JUMP JUMPDEST POP PUSH1 0x20 DUP3 ADD MLOAD PUSH2 0x3851 PUSH1 0x20 DUP6 ADD DUP3 PUSH2 0x3906 JUMP JUMPDEST POP PUSH1 0x40 DUP3 ADD MLOAD PUSH2 0x3864 PUSH1 0x40 DUP6 ADD DUP3 PUSH2 0x3906 JUMP JUMPDEST POP PUSH1 0x60 DUP3 ADD MLOAD PUSH2 0x3877 PUSH1 0x60 DUP6 ADD DUP3 PUSH2 0x3600 JUMP JUMPDEST POP POP POP POP JUMP JUMPDEST DUP1 DUP3 MSTORE POP POP JUMP JUMPDEST DUP1 DUP3 MSTORE POP POP JUMP JUMPDEST PUSH1 0x0 PUSH2 0x180 DUP4 ADD PUSH1 0x0 DUP4 ADD MLOAD PUSH2 0x38A4 PUSH1 0x0 DUP7 ADD DUP3 PUSH2 0x353C JUMP JUMPDEST POP PUSH1 0x20 DUP4 ADD MLOAD PUSH2 0x38B8 PUSH2 0x100 DUP7 ADD DUP3 PUSH2 0x3933 JUMP JUMPDEST POP PUSH1 0x40 DUP4 ADD MLOAD PUSH2 0x38CC PUSH2 0x120 DUP7 ADD DUP3 PUSH2 0x3933 JUMP JUMPDEST POP PUSH1 0x60 DUP4 ADD MLOAD PUSH2 0x38E0 PUSH2 0x140 DUP7 ADD DUP3 PUSH2 0x3933 JUMP JUMPDEST POP PUSH1 0x80 DUP4 ADD MLOAD DUP5 DUP3 SUB PUSH2 0x160 DUP7 ADD MSTORE PUSH2 0x38F9 DUP3 DUP3 PUSH2 0x366E JUMP JUMPDEST SWAP2 POP POP DUP1 SWAP2 POP POP SWAP3 SWAP2 POP POP JUMP JUMPDEST PUSH2 0x390F DUP2 PUSH2 0x4312 JUMP JUMPDEST DUP3 MSTORE POP POP JUMP JUMPDEST PUSH2 0x391E DUP2 PUSH2 0x4312 JUMP JUMPDEST DUP3 MSTORE POP POP JUMP JUMPDEST PUSH2 0x392D DUP2 PUSH2 0x4312 JUMP JUMPDEST DUP3 MSTORE POP POP JUMP JUMPDEST PUSH2 0x393C DUP2 PUSH2 0x4312 JUMP JUMPDEST DUP3 MSTORE POP POP JUMP JUMPDEST PUSH2 0x394B DUP2 PUSH2 0x434D JUMP JUMPDEST DUP3 MSTORE POP POP JUMP JUMPDEST PUSH2 0x395A DUP2 PUSH2 0x435F JUMP JUMPDEST DUP3 MSTORE POP POP JUMP JUMPDEST PUSH2 0x3969 DUP2 PUSH2 0x4340 JUMP JUMPDEST DUP3 MSTORE POP POP JUMP JUMPDEST PUSH2 0x3978 DUP2 PUSH2 0x4340 JUMP JUMPDEST DUP3 MSTORE POP POP JUMP JUMPDEST PUSH1 0x0 PUSH2 0x398A DUP3 DUP5 PUSH2 0x361E JUMP JUMPDEST PUSH1 0x20 DUP3 ADD SWAP2 POP DUP2 SWAP1 POP SWAP3 SWAP2 POP POP JUMP JUMPDEST PUSH1 0x0 PUSH1 0x20 DUP3 ADD SWAP1 POP DUP2 DUP2 SUB PUSH1 0x0 DUP4 ADD MSTORE PUSH2 0x39B3 DUP2 DUP5 PUSH2 0x337B JUMP JUMPDEST SWAP1 POP SWAP3 SWAP2 POP POP JUMP JUMPDEST PUSH1 0x0 PUSH1 0x40 DUP3 ADD SWAP1 POP PUSH2 0x39D0 PUSH1 0x0 DUP4 ADD DUP5 PUSH2 0x3487 JUMP JUMPDEST SWAP3 SWAP2 POP POP JUMP JUMPDEST PUSH1 0x0 PUSH2 0x140 DUP3 ADD SWAP1 POP PUSH2 0x39EC PUSH1 0x0 DUP4 ADD DUP9 PUSH2 0x3430 JUMP JUMPDEST PUSH2 0x39F9 PUSH1 0x40 DUP4 ADD DUP8 PUSH2 0x3324 JUMP JUMPDEST PUSH2 0x3A06 PUSH1 0xC0 DUP4 ADD DUP7 PUSH2 0x3430 JUMP JUMPDEST DUP2 DUP2 SUB PUSH2 0x100 DUP4 ADD MSTORE PUSH2 0x3A19 DUP2 DUP6 PUSH2 0x3635 JUMP JUMPDEST SWAP1 POP PUSH2 0x3A29 PUSH2 0x120 DUP4 ADD DUP5 PUSH2 0x3960 JUMP JUMPDEST SWAP7 SWAP6 POP POP POP POP POP POP JUMP JUMPDEST PUSH1 0x0 PUSH1 0x40 DUP3 ADD SWAP1 POP PUSH2 0x3A48 PUSH1 0x0 DUP4 ADD DUP5 PUSH2 0x34DE JUMP JUMPDEST SWAP3 SWAP2 POP POP JUMP JUMPDEST PUSH1 0x0 PUSH1 0x20 DUP3 ADD SWAP1 POP PUSH2 0x3A63 PUSH1 0x0 DUP4 ADD DUP5 PUSH2 0x35F1 JUMP JUMPDEST SWAP3 SWAP2 POP POP JUMP JUMPDEST PUSH1 0x0 PUSH1 0x20 DUP3 ADD SWAP1 POP PUSH2 0x3A7E PUSH1 0x0 DUP4 ADD DUP5 PUSH2 0x360F JUMP JUMPDEST SWAP3 SWAP2 POP POP JUMP JUMPDEST PUSH1 0x0 PUSH1 0x20 DUP3 ADD SWAP1 POP DUP2 DUP2 SUB PUSH1 0x0 DUP4 ADD MSTORE PUSH2 0x3A9D DUP2 PUSH2 0x36A7 JUMP JUMPDEST SWAP1 POP SWAP2 SWAP1 POP JUMP JUMPDEST PUSH1 0x0 PUSH1 0x20 DUP3 ADD SWAP1 POP DUP2 DUP2 SUB PUSH1 0x0 DUP4 ADD MSTORE PUSH2 0x3ABD DUP2 PUSH2 0x36CA JUMP JUMPDEST SWAP1 POP SWAP2 SWAP1 POP JUMP JUMPDEST PUSH1 0x0 PUSH1 0x20 DUP3 ADD SWAP1 POP DUP2 DUP2 SUB PUSH1 0x0 DUP4 ADD MSTORE PUSH2 0x3ADD DUP2 PUSH2 0x36ED JUMP JUMPDEST SWAP1 POP SWAP2 SWAP1 POP JUMP JUMPDEST PUSH1 0x0 PUSH1 0x20 DUP3 ADD SWAP1 POP DUP2 DUP2 SUB PUSH1 0x0 DUP4 ADD MSTORE PUSH2 0x3AFD DUP2 PUSH2 0x3710 JUMP JUMPDEST SWAP1 POP SWAP2 SWAP1 POP JUMP JUMPDEST PUSH1 0x0 PUSH1 0x20 DUP3 ADD SWAP1 POP DUP2 DUP2 SUB PUSH1 0x0 DUP4 ADD MSTORE PUSH2 0x3B1D DUP2 PUSH2 0x3733 JUMP JUMPDEST SWAP1 POP SWAP2 SWAP1 POP JUMP JUMPDEST PUSH1 0x0 PUSH1 0x20 DUP3 ADD SWAP1 POP DUP2 DUP2 SUB PUSH1 0x0 DUP4 ADD MSTORE PUSH2 0x3B3D DUP2 PUSH2 0x3756 JUMP JUMPDEST SWAP1 POP SWAP2 SWAP1 POP JUMP JUMPDEST PUSH1 0x0 PUSH1 0x20 DUP3 ADD SWAP1 POP DUP2 DUP2 SUB PUSH1 0x0 DUP4 ADD MSTORE PUSH2 0x3B5D DUP2 PUSH2 0x3779 JUMP JUMPDEST SWAP1 POP SWAP2 SWAP1 POP JUMP JUMPDEST PUSH1 0x0 PUSH1 0x20 DUP3 ADD SWAP1 POP DUP2 DUP2 SUB PUSH1 0x0 DUP4 ADD MSTORE PUSH2 0x3B7D DUP2 PUSH2 0x379C JUMP JUMPDEST SWAP1 POP SWAP2 SWAP1 POP JUMP JUMPDEST PUSH1 0x0 PUSH1 0x20 DUP3 ADD SWAP1 POP DUP2 DUP2 SUB PUSH1 0x0 DUP4 ADD MSTORE PUSH2 0x3B9D DUP2 PUSH2 0x37BF JUMP JUMPDEST SWAP1 POP SWAP2 SWAP1 POP JUMP JUMPDEST PUSH1 0x0 PUSH1 0x20 DUP3 ADD SWAP1 POP DUP2 DUP2 SUB PUSH1 0x0 DUP4 ADD MSTORE PUSH2 0x3BBD DUP2 PUSH2 0x37E2 JUMP JUMPDEST SWAP1 POP SWAP2 SWAP1 POP JUMP JUMPDEST PUSH1 0x0 PUSH1 0x20 DUP3 ADD SWAP1 POP DUP2 DUP2 SUB PUSH1 0x0 DUP4 ADD MSTORE PUSH2 0x3BDD DUP2 PUSH2 0x3805 JUMP JUMPDEST SWAP1 POP SWAP2 SWAP1 POP JUMP JUMPDEST PUSH1 0x0 PUSH1 0x20 DUP3 ADD SWAP1 POP PUSH2 0x3BF9 PUSH1 0x0 DUP4 ADD DUP5 PUSH2 0x387D JUMP JUMPDEST SWAP3 SWAP2 POP POP JUMP JUMPDEST PUSH1 0x0 PUSH1 0x60 DUP3 ADD SWAP1 POP PUSH2 0x3C14 PUSH1 0x0 DUP4 ADD DUP7 PUSH2 0x387D JUMP JUMPDEST PUSH2 0x3C21 PUSH1 0x20 DUP4 ADD DUP6 PUSH2 0x3924 JUMP JUMPDEST PUSH2 0x3C2E PUSH1 0x40 DUP4 ADD DUP5 PUSH2 0x396F JUMP JUMPDEST SWAP5 SWAP4 POP POP POP POP JUMP JUMPDEST PUSH1 0x0 PUSH1 0x40 DUP3 ADD SWAP1 POP PUSH2 0x3C4B PUSH1 0x0 DUP4 ADD DUP6 PUSH2 0x3884 JUMP JUMPDEST DUP2 DUP2 SUB PUSH1 0x20 DUP4 ADD MSTORE PUSH2 0x3C5D DUP2 DUP5 PUSH2 0x3593 JUMP JUMPDEST SWAP1 POP SWAP4 SWAP3 POP POP POP JUMP JUMPDEST PUSH1 0x0 PUSH1 0x40 DUP3 ADD SWAP1 POP DUP2 DUP2 SUB PUSH1 0x0 DUP4 ADD MSTORE PUSH2 0x3C80 DUP2 DUP6 PUSH2 0x388B JUMP JUMPDEST SWAP1 POP PUSH2 0x3C8F PUSH1 0x20 DUP4 ADD DUP5 PUSH2 0x396F JUMP JUMPDEST SWAP4 SWAP3 POP POP POP JUMP JUMPDEST PUSH1 0x0 PUSH1 0x20 DUP3 ADD SWAP1 POP PUSH2 0x3CAB PUSH1 0x0 DUP4 ADD DUP5 PUSH2 0x3915 JUMP JUMPDEST SWAP3 SWAP2 POP POP JUMP JUMPDEST PUSH1 0x0 PUSH1 0x40 DUP3 ADD SWAP1 POP PUSH2 0x3CC6 PUSH1 0x0 DUP4 ADD DUP6 PUSH2 0x3915 JUMP JUMPDEST PUSH2 0x3CD3 PUSH1 0x20 DUP4 ADD DUP5 PUSH2 0x3915 JUMP JUMPDEST SWAP4 SWAP3 POP POP POP JUMP JUMPDEST PUSH1 0x0 PUSH1 0x60 DUP3 ADD SWAP1 POP PUSH2 0x3CEF PUSH1 0x0 DUP4 ADD DUP7 PUSH2 0x3915 JUMP JUMPDEST PUSH2 0x3CFC PUSH1 0x20 DUP4 ADD DUP6 PUSH2 0x3915 JUMP JUMPDEST PUSH2 0x3D09 PUSH1 0x40 DUP4 ADD DUP5 PUSH2 0x3915 JUMP JUMPDEST SWAP5 SWAP4 POP POP POP POP JUMP JUMPDEST PUSH1 0x0 PUSH1 0x60 DUP3 ADD SWAP1 POP PUSH2 0x3D26 PUSH1 0x0 DUP4 ADD DUP7 PUSH2 0x3951 JUMP JUMPDEST PUSH2 0x3D33 PUSH1 0x20 DUP4 ADD DUP6 PUSH2 0x3942 JUMP JUMPDEST PUSH2 0x3D40 PUSH1 0x40 DUP4 ADD DUP5 PUSH2 0x3915 JUMP JUMPDEST SWAP5 SWAP4 POP POP POP POP JUMP JUMPDEST PUSH1 0x0 PUSH1 0x20 DUP3 ADD SWAP1 POP PUSH2 0x3D5D PUSH1 0x0 DUP4 ADD DUP5 PUSH2 0x3960 JUMP JUMPDEST SWAP3 SWAP2 POP POP JUMP JUMPDEST PUSH1 0x0 PUSH2 0x3D6D PUSH2 0x3D7E JUMP JUMPDEST SWAP1 POP PUSH2 0x3D79 DUP3 DUP3 PUSH2 0x43BE JUMP JUMPDEST SWAP2 SWAP1 POP JUMP JUMPDEST PUSH1 0x0 PUSH1 0x40 MLOAD SWAP1 POP SWAP1 JUMP JUMPDEST PUSH1 0x0 PUSH8 0xFFFFFFFFFFFFFFFF DUP3 GT ISZERO PUSH2 0x3DA3 JUMPI PUSH2 0x3DA2 PUSH2 0x455B JUMP JUMPDEST JUMPDEST PUSH1 0x20 DUP3 MUL SWAP1 POP PUSH1 0x20 DUP2 ADD SWAP1 POP SWAP2 SWAP1 POP JUMP JUMPDEST PUSH1 0x0 PUSH8 0xFFFFFFFFFFFFFFFF DUP3 GT ISZERO PUSH2 0x3DCF JUMPI PUSH2 0x3DCE PUSH2 0x455B JUMP JUMPDEST JUMPDEST PUSH1 0x20 DUP3 MUL SWAP1 POP PUSH1 0x20 DUP2 ADD SWAP1 POP SWAP2 SWAP1 POP JUMP JUMPDEST PUSH1 0x0 PUSH8 0xFFFFFFFFFFFFFFFF DUP3 GT ISZERO PUSH2 0x3DFB JUMPI PUSH2 0x3DFA PUSH2 0x455B JUMP JUMPDEST JUMPDEST PUSH1 0x20 DUP3 MUL SWAP1 POP SWAP2 SWAP1 POP JUMP JUMPDEST PUSH1 0x0 PUSH8 0xFFFFFFFFFFFFFFFF DUP3 GT ISZERO PUSH2 0x3E21 JUMPI PUSH2 0x3E20 PUSH2 0x455B JUMP JUMPDEST JUMPDEST PUSH1 0x20 DUP3 MUL SWAP1 POP SWAP2 SWAP1 POP JUMP JUMPDEST PUSH1 0x0 PUSH8 0xFFFFFFFFFFFFFFFF DUP3 GT ISZERO PUSH2 0x3E47 JUMPI PUSH2 0x3E46 PUSH2 0x455B JUMP JUMPDEST JUMPDEST PUSH2 0x3E50 DUP3 PUSH2 0x45C0 JUMP JUMPDEST SWAP1 POP PUSH1 0x20 DUP2 ADD SWAP1 POP SWAP2 SWAP1 POP JUMP JUMPDEST PUSH1 0x0 DUP2 SWAP1 POP SWAP2 SWAP1 POP JUMP JUMPDEST PUSH1 0x0 DUP2 SWAP1 POP PUSH1 0x20 DUP3 ADD SWAP1 POP SWAP2 SWAP1 POP JUMP JUMPDEST PUSH1 0x0 DUP2 SWAP1 POP SWAP2 SWAP1 POP JUMP JUMPDEST PUSH1 0x0 DUP2 SWAP1 POP SWAP2 SWAP1 POP JUMP JUMPDEST PUSH1 0x0 DUP2 SWAP1 POP SWAP2 SWAP1 POP JUMP JUMPDEST PUSH1 0x0 DUP2 SWAP1 POP PUSH1 0x20 DUP3 ADD SWAP1 POP SWAP2 SWAP1 POP JUMP JUMPDEST PUSH1 0x0 PUSH1 0x2 SWAP1 POP SWAP2 SWAP1 POP JUMP JUMPDEST PUSH1 0x0 DUP2 MLOAD SWAP1 POP SWAP2 SWAP1 POP JUMP JUMPDEST PUSH1 0x0 PUSH1 0x2 SWAP1 POP SWAP2 SWAP1 POP JUMP JUMPDEST PUSH1 0x0 PUSH1 0x2 SWAP1 POP SWAP2 SWAP1 POP JUMP JUMPDEST PUSH1 0x0 PUSH1 0x8 SWAP1 POP SWAP2 SWAP1 POP JUMP JUMPDEST PUSH1 0x0 DUP2 MLOAD SWAP1 POP SWAP2 SWAP1 POP JUMP JUMPDEST PUSH1 0x0 DUP2 MLOAD SWAP1 POP SWAP2 SWAP1 POP JUMP JUMPDEST PUSH1 0x0 PUSH1 0x20 DUP3 ADD SWAP1 POP SWAP2 SWAP1 POP JUMP JUMPDEST PUSH1 0x0 PUSH1 0x20 DUP3 ADD SWAP1 POP SWAP2 SWAP1 POP JUMP JUMPDEST PUSH1 0x0 PUSH1 0x20 DUP3 ADD SWAP1 POP SWAP2 SWAP1 POP JUMP JUMPDEST PUSH1 0x0 PUSH1 0x1 DUP3 ADD SWAP1 POP SWAP2 SWAP1 POP JUMP JUMPDEST PUSH1 0x0 PUSH1 0x20 DUP3 ADD SWAP1 POP SWAP2 SWAP1 POP JUMP JUMPDEST PUSH1 0x0 PUSH1 0x20 DUP3 ADD SWAP1 POP SWAP2 SWAP1 POP JUMP JUMPDEST PUSH1 0x0 DUP2 SWAP1 POP SWAP3 SWAP2 POP POP JUMP JUMPDEST PUSH1 0x0 DUP3 DUP3 MSTORE PUSH1 0x20 DUP3 ADD SWAP1 POP SWAP3 SWAP2 POP POP JUMP JUMPDEST PUSH1 0x0 DUP2 SWAP1 POP SWAP3 SWAP2 POP POP JUMP JUMPDEST PUSH1 0x0 DUP2 SWAP1 POP SWAP3 SWAP2 POP POP JUMP JUMPDEST PUSH1 0x0 DUP2 SWAP1 POP SWAP3 SWAP2 POP POP JUMP JUMPDEST PUSH1 0x0 DUP2 SWAP1 POP SWAP3 SWAP2 POP POP JUMP JUMPDEST PUSH1 0x0 DUP3 DUP3 MSTORE PUSH1 0x20 DUP3 ADD SWAP1 POP SWAP3 SWAP2 POP POP JUMP JUMPDEST PUSH1 0x0 DUP3 DUP3 MSTORE PUSH1 0x20 DUP3 ADD SWAP1 POP SWAP3 SWAP2 POP POP JUMP JUMPDEST PUSH1 0x0 DUP3 DUP3 MSTORE PUSH1 0x20 DUP3 ADD SWAP1 POP SWAP3 SWAP2 POP POP JUMP JUMPDEST PUSH1 0x0 DUP3 DUP3 MSTORE PUSH1 0x20 DUP3 ADD SWAP1 POP SWAP3 SWAP2 POP POP JUMP JUMPDEST PUSH1 0x0 PUSH2 0x3FD7 DUP3 PUSH2 0x4312 JUMP JUMPDEST SWAP2 POP PUSH2 0x3FE2 DUP4 PUSH2 0x4312 JUMP JUMPDEST SWAP3 POP DUP3 PUSH32 0xFFFFFFFFFFFFFFFFFFFFFFFFFFFFFFFFFFFFFFFFFFFFFFFFFFFFFFFFFFFFFFFF SUB DUP3 GT ISZERO PUSH2 0x4017 JUMPI PUSH2 0x4016 PUSH2 0x44CE JUMP JUMPDEST JUMPDEST DUP3 DUP3 ADD SWAP1 POP SWAP3 SWAP2 POP POP JUMP JUMPDEST PUSH1 0x0 PUSH2 0x402D DUP3 PUSH2 0x431C JUMP JUMPDEST SWAP2 POP PUSH2 0x4038 DUP4 PUSH2 0x431C JUMP JUMPDEST SWAP3 POP DUP3 PUSH4 0xFFFFFFFF SUB DUP3 GT ISZERO PUSH2 0x4051 JUMPI PUSH2 0x4050 PUSH2 0x44CE JUMP JUMPDEST JUMPDEST DUP3 DUP3 ADD SWAP1 POP SWAP3 SWAP2 POP POP JUMP JUMPDEST PUSH1 0x0 PUSH2 0x4067 DUP3 PUSH2 0x4312 JUMP JUMPDEST SWAP2 POP PUSH2 0x4072 DUP4 PUSH2 0x4312 JUMP JUMPDEST SWAP3 POP DUP3 PUSH2 0x4082 JUMPI PUSH2 0x4081 PUSH2 0x44FD JUMP JUMPDEST JUMPDEST DUP3 DUP3 DIV SWAP1 POP SWAP3 SWAP2 POP POP JUMP JUMPDEST PUSH1 0x0 DUP1 DUP3 SWAP2 POP DUP4 SWAP1 POP JUMPDEST PUSH1 0x1 DUP6 GT ISZERO PUSH2 0x40D7 JUMPI DUP1 DUP7 DIV DUP2 GT ISZERO PUSH2 0x40B3 JUMPI PUSH2 0x40B2 PUSH2 0x44CE JUMP JUMPDEST JUMPDEST PUSH1 0x1 DUP6 AND ISZERO PUSH2 0x40C2 JUMPI DUP1 DUP3 MUL SWAP2 POP JUMPDEST DUP1 DUP2 MUL SWAP1 POP PUSH2 0x40D0 DUP6 PUSH2 0x45DE JUMP JUMPDEST SWAP5 POP PUSH2 0x4097 JUMP JUMPDEST SWAP5 POP SWAP5 SWAP3 POP POP POP JUMP JUMPDEST PUSH1 0x0 PUSH2 0x40EB DUP3 PUSH2 0x4312 JUMP JUMPDEST SWAP2 POP PUSH2 0x40F6 DUP4 PUSH2 0x4312 JUMP JUMPDEST SWAP3 POP PUSH2 0x4123 PUSH32 0xFFFFFFFFFFFFFFFFFFFFFFFFFFFFFFFFFFFFFFFFFFFFFFFFFFFFFFFFFFFFFFFF DUP5 DUP5 PUSH2 0x412B JUMP JUMPDEST SWAP1 POP SWAP3 SWAP2 POP POP JUMP JUMPDEST PUSH1 0x0 DUP3 PUSH2 0x413B JUMPI PUSH1 0x1 SWAP1 POP PUSH2 0x41F7 JUMP JUMPDEST DUP2 PUSH2 0x4149 JUMPI PUSH1 0x0 SWAP1 POP PUSH2 0x41F7 JUMP JUMPDEST DUP2 PUSH1 0x1 DUP2 EQ PUSH2 0x415F JUMPI PUSH1 0x2 DUP2 EQ PUSH2 0x4169 JUMPI PUSH2 0x4198 JUMP JUMPDEST PUSH1 0x1 SWAP2 POP POP PUSH2 0x41F7 JUMP JUMPDEST PUSH1 0xFF DUP5 GT ISZERO PUSH2 0x417B JUMPI PUSH2 0x417A PUSH2 0x44CE JUMP JUMPDEST JUMPDEST DUP4 PUSH1 0x2 EXP SWAP2 POP DUP5 DUP3 GT ISZERO PUSH2 0x4192 JUMPI PUSH2 0x4191 PUSH2 0x44CE JUMP JUMPDEST JUMPDEST POP PUSH2 0x41F7 JUMP JUMPDEST POP PUSH1 0x20 DUP4 LT PUSH2 0x133 DUP4 LT AND PUSH1 0x4E DUP5 LT PUSH1 0xB DUP5 LT AND OR ISZERO PUSH2 0x41CD JUMPI DUP3 DUP3 EXP SWAP1 POP DUP4 DUP2 GT ISZERO PUSH2 0x41C8 JUMPI PUSH2 0x41C7 PUSH2 0x44CE JUMP JUMPDEST JUMPDEST PUSH2 0x41F7 JUMP JUMPDEST PUSH2 0x41DA DUP5 DUP5 DUP5 PUSH1 0x1 PUSH2 0x408D JUMP JUMPDEST SWAP3 POP SWAP1 POP DUP2 DUP5 DIV DUP2 GT ISZERO PUSH2 0x41F1 JUMPI PUSH2 0x41F0 PUSH2 0x44CE JUMP JUMPDEST JUMPDEST DUP2 DUP2 MUL SWAP1 POP JUMPDEST SWAP4 SWAP3 POP POP POP JUMP JUMPDEST PUSH1 0x0 PUSH2 0x4209 DUP3 PUSH2 0x4312 JUMP JUMPDEST SWAP2 POP PUSH2 0x4214 DUP4 PUSH2 0x4312 JUMP JUMPDEST SWAP3 POP DUP2 PUSH32 0xFFFFFFFFFFFFFFFFFFFFFFFFFFFFFFFFFFFFFFFFFFFFFFFFFFFFFFFFFFFFFFFF DIV DUP4 GT DUP3 ISZERO ISZERO AND ISZERO PUSH2 0x424D JUMPI PUSH2 0x424C PUSH2 0x44CE JUMP JUMPDEST JUMPDEST DUP3 DUP3 MUL SWAP1 POP SWAP3 SWAP2 POP POP JUMP JUMPDEST PUSH1 0x0 PUSH2 0x4263 DUP3 PUSH2 0x4312 JUMP JUMPDEST SWAP2 POP PUSH2 0x426E DUP4 PUSH2 0x4312 JUMP JUMPDEST SWAP3 POP DUP3 DUP3 LT ISZERO PUSH2 0x4281 JUMPI PUSH2 0x4280 PUSH2 0x44CE JUMP JUMPDEST JUMPDEST DUP3 DUP3 SUB SWAP1 POP SWAP3 SWAP2 POP POP JUMP JUMPDEST PUSH1 0x0 PUSH2 0x4297 DUP3 PUSH2 0x4340 JUMP JUMPDEST SWAP2 POP PUSH2 0x42A2 DUP4 PUSH2 0x4340 JUMP JUMPDEST SWAP3 POP DUP3 DUP3 LT ISZERO PUSH2 0x42B5 JUMPI PUSH2 0x42B4 PUSH2 0x44CE JUMP JUMPDEST JUMPDEST DUP3 DUP3 SUB SWAP1 POP SWAP3 SWAP2 POP POP JUMP JUMPDEST PUSH1 0x0 DUP2 SWAP1 POP SWAP2 SWAP1 POP JUMP JUMPDEST PUSH1 0x0 PUSH2 0x42D5 DUP3 PUSH2 0x42F2 JUMP JUMPDEST SWAP1 POP SWAP2 SWAP1 POP JUMP JUMPDEST PUSH1 0x0 DUP2 ISZERO ISZERO SWAP1 POP SWAP2 SWAP1 POP JUMP JUMPDEST PUSH1 0x0 DUP2 SWAP1 POP SWAP2 SWAP1 POP JUMP JUMPDEST PUSH1 0x0 PUSH20 0xFFFFFFFFFFFFFFFFFFFFFFFFFFFFFFFFFFFFFFFF DUP3 AND SWAP1 POP SWAP2 SWAP1 POP JUMP JUMPDEST PUSH1 0x0 DUP2 SWAP1 POP SWAP2 SWAP1 POP JUMP JUMPDEST PUSH1 0x0 PUSH4 0xFFFFFFFF DUP3 AND SWAP1 POP SWAP2 SWAP1 POP JUMP JUMPDEST PUSH1 0x0 PUSH8 0xFFFFFFFFFFFFFFFF DUP3 AND SWAP1 POP SWAP2 SWAP1 POP JUMP JUMPDEST PUSH1 0x0 PUSH1 0xFF DUP3 AND SWAP1 POP SWAP2 SWAP1 POP JUMP JUMPDEST PUSH1 0x0 PUSH2 0x4358 DUP3 PUSH2 0x431C JUMP JUMPDEST SWAP1 POP SWAP2 SWAP1 POP JUMP JUMPDEST PUSH1 0x0 PUSH2 0x436A DUP3 PUSH2 0x432C JUMP JUMPDEST SWAP1 POP SWAP2 SWAP1 POP JUMP JUMPDEST PUSH1 0x0 JUMPDEST DUP4 DUP2 LT ISZERO PUSH2 0x438F JUMPI DUP1 DUP3 ADD MLOAD DUP2 DUP5 ADD MSTORE PUSH1 0x20 DUP2 ADD SWAP1 POP PUSH2 0x4374 JUMP JUMPDEST DUP4 DUP2 GT ISZERO PUSH2 0x439E JUMPI PUSH1 0x0 DUP5 DUP5 ADD MSTORE JUMPDEST POP POP POP POP JUMP JUMPDEST PUSH1 0x0 PUSH2 0x43B7 PUSH2 0x43B2 DUP4 PUSH2 0x45D1 JUMP JUMPDEST PUSH2 0x42C0 JUMP JUMPDEST SWAP1 POP SWAP2 SWAP1 POP JUMP JUMPDEST PUSH2 0x43C7 DUP3 PUSH2 0x45C0 JUMP JUMPDEST DUP2 ADD DUP2 DUP2 LT PUSH8 0xFFFFFFFFFFFFFFFF DUP3 GT OR ISZERO PUSH2 0x43E6 JUMPI PUSH2 0x43E5 PUSH2 0x455B JUMP JUMPDEST JUMPDEST DUP1 PUSH1 0x40 MSTORE POP POP POP JUMP JUMPDEST PUSH1 0x0 PUSH2 0x43FA DUP3 PUSH2 0x4312 JUMP JUMPDEST SWAP2 POP PUSH32 0xFFFFFFFFFFFFFFFFFFFFFFFFFFFFFFFFFFFFFFFFFFFFFFFFFFFFFFFFFFFFFFFF DUP3 EQ ISZERO PUSH2 0x442D JUMPI PUSH2 0x442C PUSH2 0x44CE JUMP JUMPDEST JUMPDEST PUSH1 0x1 DUP3 ADD SWAP1 POP SWAP2 SWAP1 POP JUMP JUMPDEST PUSH1 0x0 PUSH2 0x4443 DUP3 PUSH2 0x4340 JUMP JUMPDEST SWAP2 POP PUSH1 0xFF DUP3 EQ ISZERO PUSH2 0x4457 JUMPI PUSH2 0x4456 PUSH2 0x44CE JUMP JUMPDEST JUMPDEST PUSH1 0x1 DUP3 ADD SWAP1 POP SWAP2 SWAP1 POP JUMP JUMPDEST PUSH1 0x0 DUP2 SWAP1 POP SWAP2 SWAP1 POP JUMP JUMPDEST PUSH1 0x0 PUSH2 0x4477 DUP3 PUSH2 0x4312 JUMP JUMPDEST SWAP2 POP PUSH2 0x4482 DUP4 PUSH2 0x4312 JUMP JUMPDEST SWAP3 POP DUP3 PUSH2 0x4492 JUMPI PUSH2 0x4491 PUSH2 0x44FD JUMP JUMPDEST JUMPDEST DUP3 DUP3 MOD SWAP1 POP SWAP3 SWAP2 POP POP JUMP JUMPDEST PUSH1 0x0 PUSH2 0x44A8 DUP3 PUSH2 0x431C JUMP JUMPDEST SWAP2 POP PUSH2 0x44B3 DUP4 PUSH2 0x431C JUMP JUMPDEST SWAP3 POP DUP3 PUSH2 0x44C3 JUMPI PUSH2 0x44C2 PUSH2 0x44FD JUMP JUMPDEST JUMPDEST DUP3 DUP3 MOD SWAP1 POP SWAP3 SWAP2 POP POP JUMP JUMPDEST PUSH32 0x4E487B7100000000000000000000000000000000000000000000000000000000 PUSH1 0x0 MSTORE PUSH1 0x11 PUSH1 0x4 MSTORE PUSH1 0x24 PUSH1 0x0 REVERT JUMPDEST PUSH32 0x4E487B7100000000000000000000000000000000000000000000000000000000 PUSH1 0x0 MSTORE PUSH1 0x12 PUSH1 0x4 MSTORE PUSH1 0x24 PUSH1 0x0 REVERT JUMPDEST PUSH32 0x4E487B7100000000000000000000000000000000000000000000000000000000 PUSH1 0x0 MSTORE PUSH1 0x32 PUSH1 0x4 MSTORE PUSH1 0x24 PUSH1 0x0 REVERT JUMPDEST PUSH32 0x4E487B7100000000000000000000000000000000000000000000000000000000 PUSH1 0x0 MSTORE PUSH1 0x41 PUSH1 0x4 MSTORE PUSH1 0x24 PUSH1 0x0 REVERT JUMPDEST PUSH1 0x0 PUSH2 0x4596 DUP3 SLOAD PUSH2 0x43A4 JUMP JUMPDEST SWAP1 POP SWAP2 SWAP1 POP JUMP JUMPDEST PUSH1 0x0 DUP1 REVERT JUMPDEST PUSH1 0x0 DUP1 REVERT JUMPDEST PUSH1 0x0 DUP1 REVERT JUMPDEST PUSH1 0x0 DUP1 REVERT JUMPDEST PUSH1 0x0 DUP1 REVERT JUMPDEST PUSH1 0x0 DUP1 REVERT JUMPDEST PUSH1 0x0 DUP1 REVERT JUMPDEST PUSH1 0x0 PUSH1 0x1F NOT PUSH1 0x1F DUP4 ADD AND SWAP1 POP SWAP2 SWAP1 POP JUMP JUMPDEST PUSH1 0x0 DUP2 PUSH1 0x0 SHR SWAP1 POP SWAP2 SWAP1 POP JUMP JUMPDEST PUSH1 0x0 DUP2 PUSH1 0x1 SHR SWAP1 POP SWAP2 SWAP1 POP JUMP JUMPDEST PUSH32 0x5468697320416E63686F72206973206174206361706163697479000000000000 PUSH1 0x0 DUP3 ADD MSTORE POP JUMP JUMPDEST PUSH32 0x4C696E6B61626C65496E6372656D656E74616C42696E617279547265653A206C PUSH1 0x0 DUP3 ADD MSTORE PUSH32 0x656166206973206E6F742070617274206F662074686520747265650000000000 PUSH1 0x20 DUP3 ADD MSTORE POP JUMP JUMPDEST PUSH32 0x4C696E6B61626C65496E6372656D656E74616C42696E617279547265653A206C PUSH1 0x0 DUP3 ADD MSTORE PUSH32 0x656166206D757374206265203C20534E41524B5F5343414C41525F4649454C44 PUSH1 0x20 DUP3 ADD MSTORE POP JUMP JUMPDEST PUSH32 0x4C696E6B61626C65496E6372656D656E74616C42696E617279547265653A2073 PUSH1 0x0 DUP3 ADD MSTORE PUSH32 0x69626C696E67206E6F6465206D757374206265203C20534E41524B5F5343414C PUSH1 0x20 DUP3 ADD MSTORE PUSH32 0x41525F4649454C44000000000000000000000000000000000000000000000000 PUSH1 0x40 DUP3 ADD MSTORE POP JUMP JUMPDEST PUSH32 0x7372635265736F757263654944206D757374206265207468652073616D650000 PUSH1 0x0 DUP3 ADD MSTORE POP JUMP JUMPDEST PUSH32 0x696E76616C696450726F6F660000000000000000000000000000000000000000 PUSH1 0x0 DUP3 ADD MSTORE POP JUMP JUMPDEST PUSH32 0x4E6577206C65616620696E646578206D75737420626520677265617465720000 PUSH1 0x0 DUP3 ADD MSTORE POP JUMP JUMPDEST PUSH32 0x4C696E6B61626C65496E6372656D656E74616C42696E617279547265653A206C PUSH1 0x0 DUP3 ADD MSTORE PUSH32 0x656E677468206F662070617468206973206E6F7420636F727265637400000000 PUSH1 0x20 DUP3 ADD MSTORE POP JUMP JUMPDEST PUSH32 0x496E646578206F7574206F6620626F756E647300000000000000000000000000 PUSH1 0x0 DUP3 ADD MSTORE POP JUMP JUMPDEST PUSH32 0x4C696E6B61626C65496E6372656D656E74616C42696E617279547265653A2074 PUSH1 0x0 DUP3 ADD MSTORE PUSH32 0x7265652069732066756C6C000000000000000000000000000000000000000000 PUSH1 0x20 DUP3 ADD MSTORE POP JUMP JUMPDEST PUSH32 0x4E6577206C65616620696E646578206D7573742077697468696E20325E313620 PUSH1 0x0 DUP3 ADD MSTORE PUSH32 0x7570646174657300000000000000000000000000000000000000000000000000 PUSH1 0x20 DUP3 ADD MSTORE POP JUMP JUMPDEST PUSH2 0x48C1 DUP2 PUSH2 0x42CA JUMP JUMPDEST DUP2 EQ PUSH2 0x48CC JUMPI PUSH1 0x0 DUP1 REVERT JUMPDEST POP JUMP JUMPDEST PUSH2 0x48D8 DUP2 PUSH2 0x42DC JUMP JUMPDEST DUP2 EQ PUSH2 0x48E3 JUMPI PUSH1 0x0 DUP1 REVERT JUMPDEST POP JUMP JUMPDEST PUSH2 0x48EF DUP2 PUSH2 0x42E8 JUMP JUMPDEST DUP2 EQ PUSH2 0x48FA JUMPI PUSH1 0x0 DUP1 REVERT JUMPDEST POP JUMP JUMPDEST PUSH2 0x4906 DUP2 PUSH2 0x4312 JUMP JUMPDEST DUP2 EQ PUSH2 0x4911 JUMPI PUSH1 0x0 DUP1 REVERT JUMPDEST POP JUMP JUMPDEST PUSH2 0x491D DUP2 PUSH2 0x431C JUMP JUMPDEST DUP2 EQ PUSH2 0x4928 JUMPI PUSH1 0x0 DUP1 REVERT JUMPDEST POP JUMP JUMPDEST PUSH2 0x4934 DUP2 PUSH2 0x4340 JUMP JUMPDEST DUP2 EQ PUSH2 0x493F JUMPI PUSH1 0x0 DUP1 REVERT JUMPDEST POP JUMP INVALID LOG2 PUSH5 0x6970667358 0x22 SLT KECCAK256 JUMPDEST PUSH25 0x26A6A8142F032BF8474AF6538AB907569A19ED85BFF1329292 GT 0x21 0xAD 0xB7 EXTCODEHASH PUSH5 0x736F6C6343 STOP ADDMOD MOD STOP CALLER "},"methodIdentifiers":{"addWhistleblower(uint256,uint256)":"8fe03587","createEntity(uint256,uint256,address,uint8)":"6bf4e35c","getLatestNeighborEdges(uint256)":"474664d1","getMaxEdges(uint256)":"78156953","getMerkleTreeDepth(uint256)":"6389e107","getMerkleTreeRoot(uint256)":"dabc4d51","getNumberOfMerkleTreeLeaves(uint256)":"638480be","publishLeak(bytes32,uint256,uint256,bytes,uint256[8])":"7b2b13b6","removeWhistleblower(uint256,uint256,uint256[],uint8[])":"5027000d","updateEdge(uint256,uint256,uint32,bytes32)":"14f6d6e8","verifyRoots(uint256,bytes)":"fced271f"}}}}}