{
    "_format": "hh-sol-artifact-1",
    "contractName": "Feedback",
    "sourceName": "contracts/Feedback.sol",
    "abi": [
        {
            "inputs": [
                {
                    "internalType": "address",
                    "name": "semaphoreAddress",
                    "type": "address"
                },
                {
                    "internalType": "uint256",
                    "name": "_groupId",
                    "type": "uint256"
                }
            ],
            "stateMutability": "nonpayable",
            "type": "constructor"
        },
        {
            "inputs": [],
            "name": "groupId",
            "outputs": [
                {
                    "internalType": "uint256",
                    "name": "",
                    "type": "uint256"
                }
            ],
            "stateMutability": "view",
            "type": "function"
        },
        {
            "inputs": [
                {
                    "internalType": "uint256",
                    "name": "identityCommitment",
                    "type": "uint256"
                }
            ],
            "name": "joinGroup",
            "outputs": [],
            "stateMutability": "nonpayable",
            "type": "function"
        },
        {
            "inputs": [],
            "name": "semaphore",
            "outputs": [
                {
                    "internalType": "contract ISemaphore",
                    "name": "",
                    "type": "address"
                }
            ],
            "stateMutability": "view",
            "type": "function"
        },
        {
            "inputs": [
                {
                    "internalType": "uint256",
                    "name": "feedback",
                    "type": "uint256"
                },
                {
                    "internalType": "uint256",
                    "name": "merkleTreeRoot",
                    "type": "uint256"
                },
                {
                    "internalType": "uint256",
                    "name": "nullifierHash",
                    "type": "uint256"
                },
                {
                    "internalType": "uint256[8]",
                    "name": "proof",
                    "type": "uint256[8]"
                }
            ],
            "name": "sendFeedback",
            "outputs": [],
            "stateMutability": "nonpayable",
            "type": "function"
        }
    ],
    "bytecode": "0x608060405234801561001057600080fd5b506040516106e13803806106e18339818101604052810190610032919061013c565b816000806101000a81548173ffffffffffffffffffffffffffffffffffffffff021916908373ffffffffffffffffffffffffffffffffffffffff1602179055508060018190555060008054906101000a900473ffffffffffffffffffffffffffffffffffffffff1673ffffffffffffffffffffffffffffffffffffffff16639c1121416001546014306040518463ffffffff1660e01b81526004016100d9939291906101a5565b600060405180830381600087803b1580156100f357600080fd5b505af1158015610107573d6000803e3d6000fd5b505050505050610258565b6000815190506101218161022a565b92915050565b60008151905061013681610241565b92915050565b6000806040838503121561014f57600080fd5b600061015d85828601610112565b925050602061016e85828601610127565b9150509250929050565b610181816101dc565b82525050565b61019081610218565b82525050565b61019f8161020e565b82525050565b60006060820190506101ba6000830186610196565b6101c76020830185610187565b6101d46040830184610178565b949350505050565b60006101e7826101ee565b9050919050565b600073ffffffffffffffffffffffffffffffffffffffff82169050919050565b6000819050919050565b60006102238261020e565b9050919050565b610233816101dc565b811461023e57600080fd5b50565b61024a8161020e565b811461025557600080fd5b50565b61047a806102676000396000f3fe608060405234801561001057600080fd5b506004361061004c5760003560e01c80637b5d253414610051578063a0f44c921461006f578063d18ed1e91461008d578063eed02e4b146100a9575b600080fd5b6100596100c5565b604051610066919061030f565b60405180910390f35b6100776100e9565b604051610084919061032a565b60405180910390f35b6100a760048036038101906100a2919061027c565b6100ef565b005b6100c360048036038101906100be9190610253565b61018e565b005b60008054906101000a900473ffffffffffffffffffffffffffffffffffffffff1681565b60015481565b60008054906101000a900473ffffffffffffffffffffffffffffffffffffffff1673ffffffffffffffffffffffffffffffffffffffff16633bc778e3600154858786600154876040518763ffffffff1660e01b81526004016101569695949392919061036e565b600060405180830381600087803b15801561017057600080fd5b505af1158015610184573d6000803e3d6000fd5b5050505050505050565b60008054906101000a900473ffffffffffffffffffffffffffffffffffffffff1673ffffffffffffffffffffffffffffffffffffffff16631783efc3600154836040518363ffffffff1660e01b81526004016101eb929190610345565b600060405180830381600087803b15801561020557600080fd5b505af1158015610219573d6000803e3d6000fd5b5050505050565b60008190508260206008028201111561023857600080fd5b92915050565b60008135905061024d8161042d565b92915050565b60006020828403121561026557600080fd5b60006102738482850161023e565b91505092915050565b600080600080610160858703121561029357600080fd5b60006102a18782880161023e565b94505060206102b28782880161023e565b93505060406102c38782880161023e565b92505060606102d487828801610220565b91505092959194509250565b6102ed610100838361041e565b5050565b6102fa816103fa565b82525050565b610309816103f0565b82525050565b600060208201905061032460008301846102f1565b92915050565b600060208201905061033f6000830184610300565b92915050565b600060408201905061035a6000830185610300565b6103676020830184610300565b9392505050565b60006101a0820190506103846000830189610300565b6103916020830188610300565b61039e6040830187610300565b6103ab6060830186610300565b6103b86080830185610300565b6103c560a08301846102e0565b979650505050505050565b600073ffffffffffffffffffffffffffffffffffffffff82169050919050565b6000819050919050565b60006104058261040c565b9050919050565b6000610417826103d0565b9050919050565b82818337600083830152505050565b610436816103f0565b811461044157600080fd5b5056fea26469706673582212204d8dc3161abc759242364c3a754a86e5eb8653092bcdf1e20bd6fcd368e1997664736f6c63430008040033",
    "linkReferences": {},
    "deployedLinkReferences": {}
}